:1000000011C1000040C100003EC100003CC1000021
:100010003AC1000038C1000036C1000034C1000000
:1000200032C1000030C100002EC100002CC1000010
:100030002AC1000028C1000026C1000024C1000020
:1000400022C1000020C100001EC100001CC1000030
:100050001AC1000018C1000016C100000C94C6159A
:1000600012C100000C9490150C9466150CC1000090
:100070000AC1000008C1000006C1000004C1000060
:1000800002C1000000C10000FEC00000FCC0000072
:10009000FAC00000F8C00000F6C000000C94101672
:1000A000F2C00000F0C00000EEC00000ECC0000094
:1000B000EAC00000E8C00000E6C00000E4C00000A4
:1000C000E2C00000E0C00000DEC00000DCC00000B4
:1000D000DAC00000D8C00000D6C00000D4C00000C4
:1000E000D2C000007C3C3E5E2B3D3F2F5B5D3B2C35
:1000F0002A225C0000002100240027002A002D0095
:100100003000330001010000040107010A01000072
:100110002200250028002B002E00310034000201AF
:100120000000050108010B0100002000230026004B
:1001300029002C002F0032000001000003010601FD
:10014000090105050505070508080808020202025D
:100150000A0A080804040404010101010101010163
:100160000303030303030303040707070C0C0C0C2E
:100170000C0C0C0C02020202060606060606060617
:100180000B0B0B0B0B0B0B0B0102102020080810A4
:1001900020401020408002010201080402010102F7
:1001A00004081020408080402010080402018004D0
:1001B000020180402010080402010804020101022B
:1001C0000408102040800102040810204080000034
:1001D0000A0B02090C0D0E080703040100000000C1
:1001E000000000000000000000000000000000000F
:1001F00000000000000000000000121110000000CC
:1002000000000000000000000000000000000000EE
:10021000000000001F1C1F1E1F1E1F1F1E1F1E1F71
:1002200030170D1F11241FBECFEFD1E2DEBFCDBFAF
:1002300000E00CBF16E0A0E0B2E0ECE2F8E400E081
:100240000BBF02C007900D92A637B107D9F72CE07B
:10025000A6E7B6E001C01D92A33FB207E1F711E0A7
:10026000C1E1D1E000E006C021970109802FFE0125
:100270000E94CA21C031D10780E00807A9F70E9477
:10028000CD180C940524BCCEEEECFAE0A089B1891F
:1002900082E08C93A485B5851C92A685B7858FECEA
:1002A0008C93108EA489B58986E08C93A289B3893A
:1002B0008C9180618C93A289B3898C9188608C9396
:1002C000A289B3898C9180688C930288F389E02D90
:1002D00080818F7D80830895AF92BF92CF92DF920D
:1002E000EF92FF920F931F93CF93DF936C017B01EB
:1002F0008B01040F151FEB015E01AE18BF08C0177C
:10030000D10759F06991D601ED91FC910190F081EE
:10031000E02DC6011995892B79F7C501DF91CF91A1
:100320001F910F91FF90EF90DF90CF90BF90AF9013
:1003300008950895FC01538D448D252F30E0842FBE
:1003400090E0821B930B541710F0CF9608950197FD
:100350000895FC01918D828D981761F0A28DAE0FEA
:10036000BF2FB11D5D968C91928D9F5F9F73928F71
:1003700090E008958FEF9FEF0895FC01918D828D9D
:10038000981731F0828DE80FF11D858D90E008956A
:100390008FEF9FEF0895FC01918D228D892F90E0C2
:1003A000805C9F4F821B91098F73992708958EEC73
:1003B0009AE0F1DF21E0892B09F420E0822F0895F3
:1003C000FC01A48DA80FB92FB11DA35ABF4F2C91CA
:1003D000848D90E001968F739927848FA689B789C1
:1003E0002C93A089B1898C91837080648C93938DB8
:1003F000848D981306C00288F389E02D80818F7D5B
:1004000080830895EF92FF920F931F93CF93DF9312
:10041000EC0181E0888F9B8D8C8D98131AC0E88940
:10042000F989808185FF15C09FB7F894EE89FF890F
:100430006083E889F98980818370806480839FBFAD
:1004400081E090E0DF91CF911F910F91FF90EF90AD
:100450000895F62E0B8D10E00F5F1F4F0F731127BD
:10046000E02E8C8D8E110BC00FB607FCFACFE889F9
:10047000F989808185FFF5CFCE01A2DFF2CFEB8D28
:10048000EC0FFD2FF11DE35AFF4FF0829FB7F89458
:100490000B8FEA89FB8980818062D0CFCF93DF9375
:1004A000EC01888D8823B1F0AA89BB89E889F98994
:1004B0008C9185FD03C0808186FD0CC00FB607FCC2
:1004C000F7CF8C9185FFF2CF808185FFEDCFCE01F4
:1004D00077DFEACFDF91CF91089580E090E0892B1C
:1004E00021F065DF81110E94000080E090E0892BFF
:1004F00049F080E090E0892B29F00E9400008111F2
:100500000E94000080E090E0892B49F080E090E0BC
:10051000892B29F00E94000081110E94000080E0D8
:1005200090E0892B49F080E090E0892B29F00E942F
:10053000000081110C94000008958150823108F070
:100540005AC0E82FF0E08827E755FD4F8F4F0C94F5
:10055000CA21C902CD02BB02C102C502FB02D00200
:10056000D602DA02E002E402E802EE02F202FB0244
:10057000F602FC020003809180008F778093800058
:100580000895809180008F7DF9CF80918000877FD2
:10059000F5CF84B58F7784BD089584B58F7DFBCF6B
:1005A0008091B0008F778093B00008958091B00063
:1005B0008F7DF9CF809190008F7780939000089580
:1005C000809190008F7DF9CF80919000877FF5CF4B
:1005D0008091A0008F778093A00008958091A00063
:1005E0008F7DF9CF8091A000877FF5CF809120018A
:1005F0008F77809320010895809120018F7DF9CF1E
:1006000080912001877FF5CFCF93DF93282F30E0B3
:10061000F901E253FE4F8491F901E857FE4FD4915E
:10062000F901EE5BFE4FC491CC2399F0811185DF77
:10063000EC2FF0E0EE0FFF1FE85DFE4FA591B491A7
:10064000EC91ED2381E090E009F480E0DF91CF911F
:10065000089580E090E0FACF1F93CF93DF93282F87
:1006600030E0F901E253FE4F8491F901E857FE4F63
:10067000D491F901EE5BFE4FC491CC23A1F0162F6B
:1006800081115BDFEC2FF0E0EE0FFF1FE25FFE4F0A
:10069000A591B4918FB7F894EC91111108C0D09541
:1006A000DE23DC938FBFDF91CF911F910895DE2B66
:1006B000F8CFCF93DF9390E0FC01E857FE4F2491F1
:1006C0008E5B9E4FFC0184918823D1F090E0880FCF
:1006D000991FFC01EC50FF4FA591B491FC01E25F22
:1006E000FE4FC591D49161110EC09FB7F8948C91C3
:1006F000E22FE0958E238C932881E223E8839FBF2D
:10070000DF91CF9108958FB7F894EC91E22BEC93A1
:100710008FBFF6CF3FB7F8948091EC099091ED0927
:10072000A091EE09B091EF0926B5A89B05C02F3F17
:1007300019F00196A11DB11D3FBFBA2FA92F982F07
:100740008827BC01CD01620F711D811D911D42E002
:10075000660F771F881F991F4A95D1F708958F92CA
:100760009F92AF92BF92CF92DF92EF92FF924B0196
:100770005C01D0DF6B017C01CDDF6C197D098E0936
:100780009F09683E734081059105B0F321E0821A0C
:100790009108A108B10888EEC80E83E0D81EE11CBC
:1007A000F11C81149104A104B10431F7FF90EF9082
:1007B000DF90CF90BF90AF909F908F9008952FB70C
:1007C000F8946091E8097091E9098091EA099091A3
:1007D000EB092FBF08952091E107211109C021E005
:1007E0002093E10730916B0B20916C0B3CBD2DBD2C
:1007F00060E0FC01848130CF61E0FC0184812CDF6A
:100800008091E10781111092E10708958EBD0000EB
:100810000DB407FEFDCF8EB508958FEFF7CF0F9380
:100820001F93CF93DF93EC01CADF8B01F6DF8F3F7D
:1008300061F0C5DF601B710B6C177D07B8F380E0BA
:10084000DF91CF911F910F91089581E0F9CFCF9261
:10085000DF92EF92FF920F931F93CF93DF93EC0100
:10086000162F69017A018E81882379F08F8198850E
:100870009C012F5F3F4F38872F838230924010F4C6
:10088000CCDFF4CFCE01B8DF1E82CE01A4DF8CE234
:1008900091E0C5DF812F8064B9DF08E110E0D70166
:1008A000C601002E04C0B695A795979587950A9422
:1008B000D2F7ACDF08501109083F8FEF180779F71E
:1008C0008FEFA4DF10E0A9DF8A8787FF04C01F3FF6
:1008D00011F01F5FF8CFDF91CF911F910F91FF9023
:1008E000EF90DF90CF900895AF92BF92CF92DF92BA
:1008F000EF92FF920F931F93CF93DF93EC01690167
:10090000C801820F931F8130924048F58E81882361
:1009100079F088819981AA81BB8184179507A60700
:10092000B70731F48F819885C816D90608F03CC006
:10093000488359836A837B838B85833039F089E0D0
:10094000440F551F661F771F8A95D1F79A01AB0197
:1009500061E1CE017CDF882381F083E08D83CE01CD
:100960004BDF80E0DF91CF911F910F91FF90EF90CF
:10097000DF90CF90BF90AF90089521DF5B014DDFF6
:100980008A878F3F59F41BDF6A197B096D327140EA
:10099000B0F38FE08D83CE012FDFE1CF8E3F81F466
:1009A00018861F8281E08E838F8198858C159D0526
:1009B00048F433DF8F819885019698878F83F4CF31
:1009C0008DE0E8CF6701E00EF11E27DFF60181938D
:1009D0006F01EE15FF05C9F78F819885080F191F64
:1009E00018870F838985882319F00115124090F02C
:1009F0008E81882379F08F8198859C012F5F3F4FEE
:100A000038872F838230924010F407DFF4CFCE0175
:100A1000F3DE1E8281E0A6CFCF92DF92EF92FF92AB
:100A20000F93CF93DF93EC01690182E141155105EA
:100A30006105710591F08B85833039F089E0440FB1
:100A4000551F661F771F8A95D1F79A01AB0168E1A0
:100A5000CE01FDDE882319F084E08D8326C08EEF61
:100A6000D5DE76018EEFD81AF70181917F01CEDEB7
:100A7000EC14FD04C9F78FEFC9DE8FEFC7DECDDEC2
:100A80008A878F71853069F4011113C0CE01B4DEFD
:100A900081E0DF91CF910F91FF90EF90DF90CF90A9
:100AA000089581E18D83CE01A7DECE01A5DE80E031
:100AB000F0CF88E592E0B3DE811102C085E1CDCFB1
:100AC00020E030E0A9016DE0CE01C1DE882311F005
:100AD00084E1C3CFA2DE8111FBCFD8CF0F93409129
:100AE000E3075091E4076091E5077091E60741152F
:100AF00051056105710581F0082F27EE37E090E080
:100B000080E08ADF882349F01092E3071092E4071F
:100B10001092E5071092E60781E00F9108950F9378
:100B2000CF93C82F8091E207811105C0C1E08C2FBF
:100B3000CF910F910895409101025091020260916E
:100B40000302709104020C2F27EE37E090E080E062
:100B500063DF811102C0C0E0EACFCC2339F381E02A
:100B6000BDDF8823C1F31092E207E1CF8F929F92FD
:100B7000AF92BF92EF92FF920F931F93CF934B01CF
:100B80005C01C42F8091010290910202A0910302A6
:100B9000B091040288159905AA05BB0531F181E0E1
:100BA000BEDF81110BC080E0CF911F910F91FF90AC
:100BB000EF90BF90AF909F908F90089587EEE82EB2
:100BC00087E0F82E00E012E030E020E0B501A4015B
:100BD00090E080E089DE882331F3809201029092D8
:100BE0000202A0920302B09204024091E2074C2B51
:100BF0004093E20781E0D8CF4F925F926F927F924D
:100C00008F929F92AF92BF92CF92DF92EF92FF921C
:100C10000F931F93CF93DF93EC0142305105610591
:100C2000710590F480E0DF91CF911F910F91FF90BB
:100C3000EF90DF90CF90BF90AF909F908F907F907C
:100C40006F905F904F90089589859A85AB85BC859C
:100C50000196A11DB11D84179507A607B70710F3CC
:100C6000CB88DC88ED88FE888F89803109F042C00E
:100C7000BB27A72F962F852F480159012A013B0139
:100C8000C80ED91EEA1EFB1E80910102909102023D
:100C9000A0910302B0910402C816D906EA06FB0629
:100CA00099F58F898031B9F5B301A20155276627DF
:100CB0007727440F551F4951584FFA01918280827E
:100CC0008091E20781608093E2078A89823080F018
:100CD0008D819E81AF81B8858C0D9D1DAE1DBF1D80
:100CE0008093E3079093E407A093E507B093E607AA
:100CF00081E099CFDB01CA01E7E0B695A79597950A
:100D00008795EA95D1F7B8CF40E0C701B6012EDF4D
:100D10008111C7CF87CFB301A2014F77552766272F
:100D20007727440F551F440F551F4951584FFA015B
:100D300080829182A282B382C3CF8F929F92AF9220
:100D4000BF92CF92DF92EF92FF920F931F93CF93B8
:100D5000DF93FC0181859285A385B4850196A11D51
:100D6000B11D84179507A607B70770F480E0DF91DF
:100D7000CF911F910F91FF90EF90DF90CF90BF9098
:100D8000AF909F908F90089583889488A588B688A7
:100D90008789803189F5BB27A72F962F852FE901F9
:100DA0006A017B018F01BC01CD01680D791D8A1D8F
:100DB0009B1D8090010290900202A0900302B090CF
:100DC000040286169706A806B90601F5F801878978
:100DD000803109F5DD24EE24FF24F601EE0FFF1F1C
:100DE000E951F84F80819181B0E0A0E08883998338
:100DF000AA83BB8381E0BBCFDB01CA01C7E0B69504
:100E0000A79597958795CA95D1F7C9CF40E0AEDEF3
:100E10008111DCCFABCFE894C7F8DD24EE24FF24AA
:100E2000F601EE0FFF1FEE0FFF1FE951F84F808113
:100E30009181A281B381BF70D9CF4F925F926F929F
:100E40007F92AF92BF92CF92DF92EF92FF920F9379
:100E50001F93CF93DF9300D01F92CDB7DEB78C01E5
:100E600049835A836B837C835901C12CD12C760131
:100E7000412C82E0582E612C712C49815A816B8162
:100E80007C819E012F5F3F4FC80157DF882339F1D6
:100E9000F8018585A301920104C0220F331F441F6E
:100EA000551F8A95D2F7DA01C901C80ED91EEA1E6C
:100EB000FB1E49815A816B817C818789803111F1C8
:100EC00088EF9FEFAFEFBFE0481759076A077B072E
:100ED000A0F2F501C082D182E282F38281E00F901C
:100EE0000F900F900F90DF91CF911F910F91FF9076
:100EF000EF90DF90CF90BF90AF907F906F905F901A
:100F00004F90089588EF9FEFA0E0B0E0DDCF8F9283
:100F10009F92AF92BF92CF92DF92EF92FF920F9388
:100F20001F93CF93DF93EC018D8181110EC080E080
:100F3000DF91CF911F910F91FF90EF90DF90CF90B5
:100F4000BF90AF909F908F9008950B891C892D8939
:100F50003E89041715072607370748F34A015B0146
:100F6000823031F48A869B86AC86BD8681E0E0CFF4
:100F700081149104A104B10449F41E821F821886D1
:100F800019861A861B861C861D86F0CF0A851B854E
:100F90002C853D85EB8DFC8D858590E00996B9010A
:100FA000A8014150510961097109082E04C07695C4
:100FB0006795579547950A94D2F775016401E1E06A
:100FC000CE1AD108E108F10804C0F694E794D7944A
:100FD000C7948A95D2F7C416D506E606F70620F020
:100FE000012B022B032B09F58F89988DA98DBA8DC2
:100FF0008E839F83A887B9878E010A5F1F4FC11414
:10100000D104E104F10409F4ADCF4E815F8168851C
:10101000798598018B8D9C8D90DE91E0C91AD1085D
:10102000E108F1088111EBCF82CFC41AD50AE60A94
:10103000F70AE2CF3F924F925F926F927F928F9228
:101040009F92AF92BF92CF92DF92EF92FF920F9357
:101050001F93CF93DF93CDB7DEB72C970FB6F894DD
:10106000DEBF0FBECDBF5C01DC015B968D909C9016
:101070005C9716964D905D906D907C9019974114F9
:1010800051046104710409F467C0BFEF4B1A5B0A95
:101090006B0A7B0A312CF40181859285A385B48586
:1010A0009C01AD012F5F3F4F4F4F5F4F29873A871C
:1010B0004B875C87730162011D821E821F82188626
:1010C000F40181859285A385B4852D813E814F8170
:1010D0005885281739074A075B0708F054C08985E7
:1010E0009A85AB85BC858C159D05AE05BF0550F472
:1010F00082E0C82ED12CE12CF12C92E0492E512C0B
:10110000612C712C9E012F5F3F4FB701A601C401D6
:1011100014DE8823C1F189819A81AB81BC81892B3E
:101120008A2B8B2B09F1260137019FEF491A590AA7
:10113000690A790A2D813E814F8158852F5F3F4F83
:101140004F4F5F4F2D833E834F8358873FEFC31A26
:10115000D30AE30AF30AB4CFF401408051806280DD
:1011600073803324339497CFC414D504E604F70472
:1011700009F70FEF1FEF2FEF3FE0B701A601C40102
:101180003BDD811119C080E02C960FB6F894DEBFCC
:101190000FBECDBFDF91CF911F910F91FF90EF90C8
:1011A000DF90CF90BF90AF909F908F907F906F9087
:1011B0005F904F903F900895D50116964D915D91A7
:1011C0006D917C911997411551056105710531F0BB
:1011D00097018601C40110DD8823A9F2D501169676
:1011E000CD92DD92ED92FC921997332051F0D70108
:1011F000C6010196A11DB11DF40180839183A283D4
:10120000B383F5018789908DA18DB28D892B8A2BAF
:101210008B2B39F48481C78AD08EE18EF28E806860
:101220008483F50184818062848381E0ADCF1F9344
:10123000CF93DF93FC0125812223C1F1162FEC010E
:10124000848187FF29C0668577858089918941E0FF
:101250008DDC882359F1EA8980E2E89FF0011124AE
:10126000E951F84F309711F18D81823040F48B892C
:101270009C89AD89BE89848F958FA68FB78F8F8902
:10128000988D938F828F8F89988DA98DBA8DB58B0C
:10129000A48B8C818F778C83111103C08C818F7EFE
:1012A0008C83812FDF91CF911F9139CC80E0DF912A
:1012B000CF911F9108951F93CF93DF93EC018D8100
:1012C000813031F090E080E0DF91CF911F9108955F
:1012D0008C8181FFF7CF82FD14C090E080E07BDA43
:1012E0009CDA182F90E080E087DA1F3F59F78C8155
:1012F00085FF19C060E0CE019ADF8C818F7D8C83E1
:10130000E1CF4B895C896D897E898A859B85AC8517
:10131000BD8584179507A607B707F9F2CE01F7DD5B
:101320008111DBCFCFCF4091E3075091E40760916B
:10133000E5077091E607452B462B472B19F080E017
:10134000CDDBC0CF80618C832A853B85317080E006
:1013500092E0821B930BB8CFCF93DF93EC0161E057
:1013600066DF882311F01D8281E0DF91CF9108951F
:101370002F923F924F925F926F927F928F929F92A5
:10138000AF92BF92CF92DF92EF92FF920F931F9393
:10139000CF93DF9300D01F921F92CDB7DEB77C01B1
:1013A0005B01342E5D83DC0115968C91159781309D
:1013B00009F0C9C014962C9021FEC5C022FCB0C013
:1013C000C32CDD8022947FE027222094B22DB170BF
:1013D0002B2ED7011A964D915D916D917C911D97A1
:1013E000C114D10409F420C15B968D919C915C9746
:1013F000FC0174807A948A019B0169E036952795F7
:10140000179507956A95D1F770228A0111707110AE
:101410001FC001151105E1F416964D915D916D9176
:101420007C911997411551056105710509F094C02A
:1014300057968D919D910D90BC91A02D0097A1057F
:10144000B10509F0AAC0C701F5DD882309F47BC006
:1014500080E092E0801B910B46018C159D0508F4FD
:101460004C01D7015B964D915C915C9716968D91DE
:101470009D910D90BC91A02D0297A109B109FA018F
:10148000258504C0880F991FAA1FBB1F2A95D2F774
:101490004685578560897189840F951FA61FB71FE0
:1014A0009C01AD01270D311D411D511D29013A013E
:1014B000811432E0930609F076C080910102909188
:1014C0000202A0910302B091040284159505A605BD
:1014D000B70559F48FEF9FEFDC01809301029093E1
:1014E0000202A0930302B0930402022D9501B301FE
:1014F000A20190E080E090DA882329F19EEFB91AEA
:10150000C818D908F70182859385A485B585880D0B
:10151000991DA11DB11D82879387A487B58759CFD7
:10152000F701438954896589768982859385A485E5
:10153000B585481759076A077B0709F441CFC701EA
:10154000E6DC81113DCF81E090E0D70113969C93BA
:101550008E93129780E006C09E012F5F3F4FEDDB18
:10156000811102C090E077C089819A81AB81BC81F2
:10157000F701238D348DF901278948EF5FEF60E093
:1015800070E0203121F048EF5FEF6FEF7FE08417CC
:101590009507A607B70708F056CFF701868397830C
:1015A000A087B18755CF0115110591F5D7011A967E
:1015B0004D915D916D917C911D9753968D919D916B
:1015C0000D90BC91A02D481759076A077B0700F1C1
:1015D00081E0A5DA882309F4B6CF40920102509247
:1015E000020260920302709204028091E20781601D
:1015F0008093E207C8018951984FD5019C01280DBD
:10160000391DFC012E173F0751F04D914193FACF40
:1016100041E0C301B201AADA8111ECCF94CF281BBB
:10162000390BA20EB31E6CCFF70183899489A5896B
:10163000B68984179507A607B70738F48481438BCA
:10164000548B658B768B80688483F701848183FD5E
:101650001AC0832D9D810F900F900F900F900F90C7
:10166000DF91CF911F910F91FF90EF90DF90CF907E
:10167000BF90AF909F908F907F906F905F904F90B2
:101680003F902F90089561E0C701D1DD882309F4D0
:101690005ACFDFCFCF93DF931F92CDB7DEB76983E9
:1016A00041E050E0BE016F5F7F4F62DE0F90DF913F
:1016B000CF910895FC01DB0112968D919C911397B7
:1016C000938382838AE492E09183808314968C9141
:1016D0001497848315968C911597858316964D9152
:1016E0005D916D917C9119974683578360877187CF
:1016F0001A964D915D916D917C911D97428753870C
:10170000648775871E964D915D916D917C9151977F
:1017100046875787608B718B52968C915297828B3C
:1017200053964D915D916D917C915697438B548B5F
:10173000658B768B57964D915D916D917C915A9703
:10174000478B508F618F728F5B968D919C91948F98
:10175000838F08950895FC01818D928D009711F07B
:1017600061E065CD0895DC015996ED91FC913097CB
:10177000B9F083899489A589B689428553856485A2
:101780007585841B950BA60BB70B811520E8920776
:10179000A105B10538F08FEF9FE7A0E0B0E0089514
:1017A00090E080E00895DC0159968D919C9100971E
:1017B00039F0DC01ED91FC910480F581E02D199464
:1017C00090E080E00895CF93DF93EC01E98DFA8DEE
:1017D000309749F481E090E09B838A8390E080E039
:1017E000DF91CF91089513821282898D9A8DC0DD89
:1017F000E98DFA8D22813381232B61F7F1CFCF93CD
:10180000DF931F92CDB7DEB76983DC01ED91FC91C8
:101810000280F381E02D41E050E0BE016F5F7F4F19
:1018200019950F90DF91CF9108952F923F924F928B
:101830005F926F927F928F929F92AF92BF92CF9260
:10184000DF92EF92FF920F931F93CF93DF9300D01D
:10185000CDB7DEB7FC018581811118C08FEF9FEFF6
:101860000F900F900F90DF91CF911F910F91FF90EC
:10187000EF90DF90CF90BF90AF909F908F907F9030
:101880006F905F904F903F902F900895848180FFDC
:10189000E5CF438954896589768982859385A485B6
:1018A000B585312C212C481759076A077B0719F099
:1018B00022242394312C6F012101CE0101963C0199
:1018C000DF011696BB83AA834114510409F4C1C0F9
:1018D000F60142855385648575854A01F1E09F22B2
:1018E000D6015B968D919C915C978A019B01E9E002
:1018F0003695279517950795EA95D1F71596EC91AA
:10190000E230E1F5FC01628D738D848D958D600F61
:10191000711F821F931FA12C22E0B22EA818B908B4
:101920004A145B0408F45201F601248126FD04C028
:10193000A114F2E0BF0671F40091010210910202BD
:101940002091030230910402061717072807390770
:1019500009F05CC040E00AD9882309F47FCFC401B4
:101960008951984FD3019C012A0D3B1DFC012E1774
:101970003F0709F469C041914D93F9CFDC011496FA
:10198000BC90BA94B0228114910479F4B1100DC0C6
:10199000452B462B472B69F5F6018789908DA18D44
:1019A000B28D86839783A087B187D6015B96ED9130
:1019B000FC915C9716966D917D918D919C911997F4
:1019C0006250710981099109258504C0660F771F4E
:1019D000881F991F2A95D2F7068517852089318996
:1019E000600F711F821F931F6B0D711D811D911D53
:1019F00092CFD60116964D915D916D917C9119977C
:101A00002A813B819AD98111D0CF28CF73018501DA
:101A10009401AB01BC0190E080E00E947404882333
:101A200009F41CCF6A0C7B1CF60182859385A48582
:101A3000B5858A0D9B1DA11DB11D82879387A48743
:101A4000B5874A185B0840CF281B390B620E731EFE
:101A5000EBCF2A94232809F001CF898190E000CFB1
:101A6000FC01818D928D009709F0DFCE8FEF9FEF03
:101A700008950F931F93CF93DF93EC01898D9A8D77
:101A800010E000E0009789F0D0DE8C010F3F1007D6
:101A900061F0898D9A8DFC01428553856485758539
:101AA000415051096109710932DAC801DF91CF91C2
:101AB0001F910F91089585ED8093BC008091BC002B
:101AC00084FDFCCF1092BE07089520915107260F88
:101AD0003327331F21323105ECF42091BE07FC017E
:101AE00090E080E0243069F082E00895A0915107F1
:101AF0002191AC014F5C584FA40FB52FB11D2C9311
:101B00000196861798F380915107680F60935107EB
:101B100080E0089581E00895E091C0078091BF07BB
:101B2000E81730F4F0E0EF53F84F808190E008952B
:101B30008FEF9FEF08959091C0078091BF072FEF1F
:101B40003FEF981748F4E92FF0E0EF53F84F20816A
:101B500030E09F5F9093C007C90108958091BF074F
:101B60009091C007891B990B0895CF92DF92EF9255
:101B7000FF920F931F93CF93DF937C01CB018A01D8
:101B800020917407222389F0EB016B01C40ED51E4E
:101B9000CC15DD0561F06991D701ED91FC910190C3
:101BA000F081E02DC7011995F3CF642F8EDFC801B6
:101BB000DF91CF911F910F91FF90EF90DF90CF9029
:101BC0000895CF93DF931F92CDB7DEB7698320913D
:101BD00074072223F9F020919707203258F021E072
:101BE00030E0FC013383228390E080E00F90DF91AE
:101BF000CF91089580917507E82FF0E0EA58F84FEB
:101C0000998190838F5F809375078093970781E018
:101C100090E0ECCF61E0CE01019657DFF8CF90E085
:101C200080E008954F925F926F927F92AF92BF9241
:101C3000CF92DF92EF92FF920F931F93CF93DF9398
:101C4000B82E7B01EA01CA01805F954F6C018A01C1
:101C50000051164FBB2081F0FC01A080A11012C0E2
:101C60000E94DF03CC0FDD1FCC0FDD1FCF54D94FF7
:101C7000688379838A839B83F8011082F601B0829E
:101C800080E023C0F801808181111FC00E94DF0322
:101C9000CC0FDD1FCC0FDD1FCF54D94F48805980AA
:101CA0006A807B80AB01BC0144195509660977093C
:101CB000C701FF0CAA0BBB0B481759076A077B0724
:101CC000D8F281E0F80180838A2DDF91CF911F91B6
:101CD0000F91FF90EF90DF90CF90BF90AF907F90EB
:101CE0006F905F904F900895EF92FF920F931F9324
:101CF000CF93DF93062F0E940403C1E0892B09F4E0
:101D0000C0E010E0F801E051F64FD081DC1769F136
:101D1000C801805F954F7C01FC018081000F111F7D
:101D2000000F111F81110DC081E080830E94DF032D
:101D3000F801EF54F94F6083718382839383CD2F31
:101D400014C00E94DF03F801EF54F94F00811181A4
:101D500022813381601B710B820B930B62337105FF
:101D60008105910560F3F70110828C2FDF91CF91EF
:101D70001F910F91FF90EF900895982FE62FF0E0BC
:101D8000EF5AF54F8081913029F4811106C090837C
:101D900081E00895882311F0108280E00895CF92A9
:101DA000DF92EF92FF929B01AC0160E070E08AE766
:101DB00094E40E942D210E9495216B010E94DF0373
:101DC00096010D2C000C440B550B0E946B20A601B4
:101DD000D7FE02C04F5F5F4F559547956A01550F7B
:101DE000EE08FF0821E06C157D058E059F0508F4BF
:101DF00020E0822FFF90EF90DF90CF900895FF9228
:101E00000F931F93CF93DF9380919B06C3E2D2E0A1
:101E1000811104C080919C06882381F10BEA16E0B1
:101E20006991F80181918F010E942C03F2E0C9327F
:101E3000DF07B1F7CDE1D2E005EA16E0FF24F39425
:101E40006991F80181918F018F250E942C03F2E0A6
:101E5000C332DF07A9F7C0919F0AD091A00A61E0C1
:101E60008DE00E9459032097E9F460E08DE0DF9156
:101E7000CF911F910F91FF900C942C0309E212E077
:101E8000699181E00E942C030C171D07C9F7CDE171
:101E9000D2E0699181E00E942C0382E0C332D8072E
:101EA000C1F7D9CFCF3FD10511F461E0DFCFEBED22
:101EB000F1E0E491E150E23108F0B5C0F0E08827AC
:101EC000EB59F04F8F4F0C94CA21770F810F860F7B
:101ED000900F9A0F1310A40FAC0FB40FBE0FC80FC2
:101EE000D20FE10FEB0F1310F50FFF0F091084B5A0
:101EF000806884BDC7BDDF91CF911F910F91FF9086
:101F0000089584B5806284BDC8BDF5CF80918000FE
:101F1000806880938000D0938900C0938800EBCFC5
:101F200080918000806280938000D0938B00C0936A
:101F30008A00E1CF80918000886080938000D093F8
:101F40008D00C0938C00D7CF8091B00080688093C3
:101F5000B000C093B300CFCF8091B0008062809377
:101F6000B000C093B400C7CF809190008068809388
:101F70009000D0939900C0939800BDCF80919000BD
:101F8000806280939000D0939B00C0939A00B3CF5F
:101F900080919000886080939000D0939D00C093C2
:101FA0009C00A9CF8091A00080688093A0008091C0
:101FB000A0008F7B8093A000D093A900C093A800BD
:101FC0009ACF8091A00080628093A000D093AB0054
:101FD000C093AA0090CF8091A00088608093A00059
:101FE000D093AD00C093AC0086CF80912001806873
:101FF00080932001D0932901C09328017CCF809148
:102000002001806280932001D0932B01C0932A018C
:1020100072CF80912001886080932001D0932D01A0
:10202000C0932C0168CFC038D1050CF03ECF1DCF36
:10203000EF92FF920F931F93CF93DF93CFE2D2E003
:1020400000EA16E0FF24F3946091CD0A81E0860F48
:102050008093CD0A899148DE8F25F80181938F0105
:10206000F2E0C433DF0781F7C9E2D2E03AE9E32EB8
:1020700036E0F32E11E06091CD0A81E0860F809367
:10208000CD0A899131DE8127F70181937F01F2E04A
:10209000CF32DF0781F780910002803121F4109365
:1020A00000020E94DF0386E30E94040390937B06F4
:1020B00080937A06C0910002D0E0FE01E35FFD4FFD
:1020C00080810E940403CC0FDD1FC658D94F99832D
:1020D00088838CE0DF91CF911F910F91FF90EF905B
:1020E0000C940403CF92DF92EF92FF921F93CF9351
:1020F000DF93EC0180E2689FF0011124E951F84F71
:102100009385917161F0842F827449F080E0DF91B2
:10211000CF911F91FF90EF90DF90CF900895142FF3
:102120006A8B8091010290910202A0910302B0910A
:1021300004028E879F87A88BB98BC488D588F12C21
:10214000E12C7601DD24CC24CF8AD88EE98EFA8E5C
:10215000828D938DB0E0A0E0AC01BD014C295D29DA
:102160006E297F294F8B588F698F7A8F838588716D
:10217000B1F4848D958DA68DB78D8B8B9C8BAD8B9B
:10218000BE8B81E08D831F701C831E821F82188688
:1021900019861A861B861C861D8681E0B8CF803181
:1021A00009F0B4CF9E012D5E3F4F8B8D9C8D0E9418
:1021B0001D07882309F4AACF84E0E4CFDF92EF92D1
:1021C000FF920F931F93CF93DF9300D000D0CDB732
:1021D000DEB781E08093740788E6809396071092BB
:1021E00075071092970760E08CEF9BE0EADC909116
:1021F0009707913208F03FC08091BE078111FCCF54
:1022000082E08093BE0781E08093BD078FEF8093CB
:10221000BC071092BB079093BA07E6E7F7E0A8E97E
:10222000B7E080E09813EFC01092B9078091B9072A
:10223000806D8093B9078091B807813009F0E7C0BD
:102240001092B8078091B9078093BB008091BC00C1
:1022500083FDF8CF85EC8093BC008091BE0782306F
:10226000E1F38091BC078F3F31F08091BC07803251
:1022700011F08091BC071092750710929707109289
:1022800074078091BE078111FCCF81E08093BE0767
:102290008093BD079FEF9093BC071092BB0796E019
:1022A0009093BA078093B9078091B907806D8093A6
:1022B000B9078091B807813009F0ABC01092B80718
:1022C0008091B9078093BB008091BC0083FDF8CF5B
:1022D00085EC8093BC008091BE078130E1F3809152
:1022E000BB0797E0873010F49091BB07A8E9B7E0EF
:1022F000E1ECF7E080E089138EC01092C007809374
:10230000BF078CEF9BE017DC8F77282F30E094E03D
:10231000359527959A95E1F7922F990F990F122FDE
:10232000191B110F180F8CEF9BE005DC9C0144E09A
:10233000359527954A95E1F72F703327922F990FFE
:10234000990F022F091B000F080F8CEF9BE0F3DBA6
:102350009C0154E0359527955A95E1F72F70332766
:10236000922F990F990FF22EF91AFF0CF80E8CEF9D
:102370009BE0E1DB8CEF9BE0DEDB9C0164E03595CC
:1023800027956A95E1F72F703327922F990F990FB0
:10239000E22EE91AEE0CE80E8CEF9BE0CCDB9C0100
:1023A00074E0359527957A95E1F72F703327922FB2
:1023B000990F990FD22ED91ADD0CD80E8CEF9BE015
:1023C000BADBAC01E4E055954795EA95E1F74F702B
:1023D0005527942F990F990F242F291B220F280F6F
:1023E0003D2DA701B80180E090E026960FB6F89445
:1023F000DEBF0FBECDBFDF91CF911F910F91FF9038
:10240000EF90DF90089521912D938F5F0BCF85EE94
:1024100022CF85EE5ECF2D9121938F5F6CCFFB0194
:1024200001900020E9F73197AF01461B570BDC0103
:10243000ED91FC910280F381E02D19940F931F938D
:10244000CF93DF93EC01FB01448155816081718161
:10245000E881F9810280F381E02D19958C0166E70E
:1024600072E0CE01DCDF800F911FDF91CF911F91D1
:102470000F910895CF93DF93BC018EEC9AE0CFDFEC
:10248000EC0166E772E08EEC9AE0C9DF8C0F9D1FCD
:10249000DF91CF9108950F931F93CF93DF93EC01BA
:1024A00088819981009759F02A813B812617370747
:1024B00030F081E0DF91CF911F910F9108958B0152
:1024C0006F5F7F4F0E94FD22009759F099838883A8
:1024D0001B830A832C813D81232B59F7FC01108239
:1024E000E8CF80E0E7CFEF92FF920F931F93CF9357
:1024F000DF936115710541F480E0DF91CF911F9169
:102500000F91FF90EF90089541155105A9F07B01BF
:10251000EC010C811D81040F151FB801BCDF88235D
:1025200059F3288139818C819D81B701820F931FD6
:102530000E94EF231D830C8381E0DFCFCF93DF93D5
:10254000EC0188819981009711F00E947422198210
:1025500018821D821C821B821A82DF91CF910895FE
:10256000CF93DF93EC01FB0101900020E9F7319755
:10257000AF01461B570BB7DF811102C0CE01DEDF72
:10258000CE01DF91CF910895CF93DF93EC01FB0152
:102590004481558160817181A6DF811102C0CE0125
:1025A000CDDFCE01DF91CF910895EF92FF920F938F
:1025B0001F93CF93DF93EC017B018A01BA016BDF9C
:1025C00081110AC0CE01BADFCE01DF91CF911F91F8
:1025D0000F91FF90EF9008951D830C83B7018881C0
:1025E00099810E94EF23F0CFFB0101900020E9F7D1
:1025F0003197AF01461B570BD8CF0F931F93CF9343
:10260000DF9300D000D000D0CDB7DEB78C01862F8D
:10261000F8011182108213821282158214824AE01C
:10262000BE016F5F7F4F90E00E94291FBE016F5F68
:102630007F4FC801D9DF29960FB6F894DEBF0FBED1
:10264000CDBFDF91CF911F910F9108950F931F93ED
:10265000CF93DF93CDB7DEB761970FB6F894DEBFA7
:102660000FBECDBF8C01CB01F80111821082138205
:102670001282158214824AE0BE016F5F7F4F0E9472
:10268000291FBE016F5F7F4FC801AEDF61960FB695
:10269000F894DEBF0FBECDBFDF91CF911F910F9198
:1026A0000895CF93DF93EC01FB018617970741F064
:1026B000608171816115710539F04481558175DF43
:1026C000CE01DF91CF91089539DFFACFFC0111825D
:1026D00010821382128215821482FB010190002065
:1026E000E9F73197AF01461B570B5FCFFC018081A3
:1026F0009181009711F00C94742208953F924F92AB
:102700005F926F927F928F929F92AF92BF92CF9281
:10271000DF92EF92FF920F931F93CF93DF9300D03E
:1027200000D000D01F921F92CDB7DEB77C01FE0112
:102730003196CE010C966F0130E23193E817F9071C
:10274000E1F7DA0130E087E09D91B92E992309F491
:102750003CC09E32F1F48A30C9F480E02B960FB66B
:10276000F894DEBF0FBECDBFDF91CF911F910F91C7
:10277000FF90EF90DF90CF90BF90AF909F908F90A1
:102780007F906F905F904F903F90089538E08AE07F
:10279000DBCFE4EEF0E04491442321F03196941332
:1027A000FACFDBCF8317C8F24FED490F4E35A8F6AD
:1027B0004FE9490F4A3118F440EEB42EB90EF60134
:1027C000E30FF11DB0823F5FBFCF8981803229F2D4
:1027D000322E8B01DB015B968D919C915C97F7010A
:1027E000948F838F16961D921D921D921C9219979D
:1027F000FB011286138614861586F801828593855F
:10280000A485B58543895489658976898417950798
:10281000A607B70708F04DC025E0B695A795979590
:1028200087952A95D1F7F82FFF70AF2ED80115960E
:102830008C91823008F491CFC8010E94150C97FD4D
:102840008CCFF80182859385A485B5854F96A11D0F
:10285000B11D82879387A487B587F0E2AF9EB00150
:1028600011246951784F6115710509F476CFDB01A8
:102870008C91882341F0853E09F062C0BB2029F08D
:10288000BB24B394BACFB1100EC0F701A28A8091D5
:10289000010290910202A0910302B0910402868786
:1028A0009787A08BB18BDB018C918111E9CFBB2481
:1028B000B394832D8271823109F04FCFBB2009F48C
:1028C0004CC0F701668577858089918941E00E9437
:1028D000B605882309F441CFD70152968C91B0E216
:1028E0008B9FC00111248951984F009709F435CF6F
:1028F000FC013A9626E1DF011D922A95E9F72BE0CB
:10290000F601DC0101900D922A95E1F721E238E20F
:10291000FC01318B208B40E058E057874687338B92
:10292000228B318F208F578B468B81E00E948F0541
:10293000882309F412CF432DD70152966C910AC017
:102940004BE050E0C6010E94D923892B09F055CFF6
:10295000432D6A2DC701C6DB01CFF8018581823086
:1029600009F4FBCEC8010E941A08882309F4F5CEA9
:10297000D8015B96ED91FC915C9716968D909D9099
:10298000AD90BC901997B2E08B1A9108A108B108DC
:10299000858504C0880C991CAA1CBB1C8A95D2F79B
:1029A00086859785A089B189880E991EAA1EBB1EAF
:1029B000848124013501480E511C611C711C841452
:1029C0009504A604B70409F1E1E04E1A5108610824
:1029D000710881E00E948F05882309F4BECEE7EEDE
:1029E000F7E0119287EE99E08E179F07D1F740929A
:1029F00001025092020260920302709204028091DE
:102A0000E20781608093E207DACFD8015B96ED910F
:102A1000FC91258580E092E0A0E0B0E004C0880F42
:102A2000991FAA1FBB1F2A95D2F7F8014389548921
:102A300065897689840F951FA61FB71F838B948B9A
:102A4000A58BB68BD70152961C9287EE97E050CF9C
:102A5000EF92FF920F931F93CF93DF93EC017B01D3
:102A60008A011B821A8288EE93E0A0E0B0E08C839A
:102A70009D83AE83BF8388E692E0998388838DE14E
:102A800090E00E94D8219A8F898F009779F02DE1EC
:102A9000F701DC0101900D922A95E1F74CE050E03E
:102AA000B801CE010C960E94F623188EDF91CF91CB
:102AB0001F910F91FF90EF9008952091300A2223EB
:102AC00021F0BC018EEC9AE0B9CC08951F920F92D0
:102AD0000FB60F9211240BB60F922F933F934F9383
:102AE0005F936F937F938F939F93AF93BF93EF9376
:102AF000FF938EEC9AE00E94E001FF91EF91BF916D
:102B0000AF919F918F917F916F915F914F913F9185
:102B10002F910F900BBE0F900FBE0F901F90189526
:102B20001F920F920FB60F9211240BB60F922F9394
:102B30008F939F93EF93FF93E091DE0AF091DF0A6A
:102B40008081E091E40AF091E50A82FD1DC0908148
:102B50008091E70A8F5F8F732091E80A821741F016
:102B6000E091E70AF0E0E253F54F958F8093E70A92
:102B7000FF91EF919F918F912F910F900BBE0F902E
:102B80000FBE0F901F9018958081F2CF1F920F9269
:102B90000FB60F9211242F933F938F939F93AF9370
:102BA000BF938091E8099091E909A091EA09B09159
:102BB000EB093091E70923E0230F2D3758F50196F3
:102BC000A11DB11D2093E7098093E8099093E909BD
:102BD000A093EA09B093EB098091EC099091ED097B
:102BE000A091EE09B091EF090196A11DB11D80934E
:102BF000EC099093ED09A093EE09B093EF09BF9112
:102C0000AF919F918F913F912F910F900FBE0F9099
:102C10001F90189526E8230F0296A11DB11DD2CF53
:102C20001F920F920FB60F9211240BB60F922F9393
:102C30003F934F935F936F937F938F939F93AF9344
:102C4000BF93EF93FF938091B900887F803609F49A
:102C50004DC008F040C0883209F4A7C028F5803183
:102C600009F49BC0C8F4882309F4F7C0883009F43C
:102C700094C0FF91EF91BF91AF919F918F917F9100
:102C80006F915F914F913F912F910F900BBE0F90DD
:102C90000FBE0F901F901895883109F486C08032BE
:102CA00041F78093BC0714C0803409F49BC040F402
:102CB0008033B9F38833E9F68093BC0785ECAEC066
:102CC000803509F483C0883509F494C0883489F6C6
:102CD0000E945B0DCECF883909F48AC038F5883759
:102CE00029F050F4883611F0803719F683E080938C
:102CF000BE071092730755C0883809F479C080392F
:102D000019F0803809F0B5CF80917307803208F050
:102D10006FC0E091730781E08E0F809373078091FD
:102D2000BB00F0E0ED5AF84F80833BC0803B39F0A8
:102D3000D0F4803A09F477C0883A09F09ACF84E059
:102D40008093BE071092520710925107F0E0E0E026
:102D500019958091510781110FC081E0809351072F
:102D60001092310709C0803C09F4A8CF883C09F4CF
:102D7000A5CF883B09F07DCFE091520781E08E0F0F
:102D800080935207F0E0EF5CF84F80818093BB00A6
:102D9000909152078091510729C08091B907809383
:102DA000BB0085EC8093BC0064CF9091BB07809101
:102DB000BA07981758F5E091BB0781E08E0F809312
:102DC000BB07F0E0E856F84F8081E9CFE091BB0700
:102DD00081E08E0F8093BB078091BB00F0E0E85646
:102DE000F84F80839091BB078091BA079817C8F27B
:102DF00085E8D8CFE091BB0781E08E0F8093BB07B9
:102E00008091BB00F0E0E856F84F80838091BD07C9
:102E100081115ECF81E08093B80784EA8093BC0083
:102E20001092BE0726CF85EC8093BC001092BE079F
:102E300080917307803230F4E0917307F0E0ED5A2F
:102E4000F84F10826091730770E083E597E0F0E03F
:102E5000E0E01995109273070CCF1092BC0738CFA1
:102E60001092D10A1092D00A88EE93E0A0E0B0E070
:102E70008093D20A9093D30AA093D40AB093D50A30
:102E800028E332E03093CF0A2093CE0A25EC30E0DD
:102E90003093DB0A2093DA0A24EC30E03093DD0A29
:102EA0002093DC0A20EC30E03093DF0A2093DE0A26
:102EB00021EC30E03093E10A2093E00A22EC30E08C
:102EC0003093E30A2093E20A26EC30E03093E50ADF
:102ED0002093E40A1092E70A1092E80A1092E90A95
:102EE0001092EA0A20E520936B0B10926C0B109263
:102EF000720B1092730B1092760B1092780B42E0CB
:102F000050E060E070E04093790B50937A0B60934F
:102F10007B0B70937C0B1092900B10929A0B10927B
:102F2000990B2AE432E03093980B2093970B109280
:102F30009C0B1092BC0B1092BD0B1092BE0B10920A
:102F4000BF0B1092C00B1092C10B1092C20B1092CB
:102F5000C30B1092C40B1092C50B1092C60B1092AB
:102F6000C70B1092C80B1092C90B1092CA0B10928B
:102F7000CB0B1092FF0B1092FE0B8093000C9093E2
:102F8000010CA093020CB093030C86E592E09093A1
:102F9000FD0B8093FC0B80E18093EE0C8CE1809321
:102FA000ED0C86E08093EC0C40E081E697E9E3E9E4
:102FB000FEEF542F537021E009F020E061E0640F30
:102FC00030E0D901A359BE4F8A179B0738F0AF01F3
:102FD000421B530B840F951F462FEBCF4093E90CF8
:102FE00021E0622F6150770BFB01EC5EFD4FE49115
:102FF000511103C0223009F4EF5FF0E031E0320FED
:103000008E179F0720F08E1B9F0B232FEACF209354
:10301000EA0C8F5F8093EB0C1092D10C1092D00CC5
:1030200088EE93E0A0E0B0E08093D20C9093D30CB4
:10303000A093D40CB093D50C88E692E09093CF0C7B
:103040008093CE0C1092E80C1092E70C1092DA0CE0
:1030500068E772E088EC9CE039DB69E772E088E0C1
:103060009CE034DB66EA72E08EE09CE02FDB61EDF1
:1030700072E084E19CE02ADB6BEE72E08AE19CE086
:1030800025DB6AE073E080E29CE020DB68E373E02C
:1030900086E29CE01BDB67E673E08CE29CE016DBDB
:1030A00067E673E082E39CE011DB60E973E088E3AC
:1030B0009CE00CDB6CE973E08EE39CE007DB68EAE4
:1030C00073E084E49CE002DB64EB73E08AE49CE060
:1030D000FDDA60EC73E080E59CE0F8DA6FED73E018
:1030E00086E59CE0F3DA6AE074E08CE59CE0EEDAD9
:1030F0006BE474E082E69CE0E9DA62E774E088E67B
:103100009CE0E4DA6CE974E08EE69CE0DFDA65EBE3
:1031100074E084E79CE0DADA67EE74E08AE79CE02A
:10312000D5DA6AE175E080E89CE0D0DA69E575E01F
:1031300086E89CE0CBDA65E675E08CE89CE0C6DAD0
:1031400068E772E082E99CE0C1DA68E772E088E94A
:103150009CE0BCDA68E772E08EE99CE0B7DA68E7E9
:1031600072E084EA9CE0B2DA68E772E08AEA9CE006
:10317000ADDA68E772E080EB9CE0A8DA68E772E01D
:1031800086EB9CE0A3DA68E772E08CEB9CE09EDAC9
:1031900068E772E082EC9CE099CACF93DF93CDB7E9
:1031A000DEB7E7970FB6F894DEBF0FBECDBF7894B9
:1031B00084B5826084BD84B5816084BD85B582603C
:1031C00085BD85B5816085BD80916E0081608093ED
:1031D0006E00109281008091810082608093810056
:1031E0008091810081608093810080918000816066
:1031F000809380008091B10084608093B1008091C1
:10320000B00081608093B0008091910082608093D3
:103210009100809191008160809391008091900055
:103220008160809390008091A10082608093A100D2
:103230008091A10081608093A1008091A0008160B5
:103240008093A00080912101826080932101809170
:103250002101816080932101809120018160809310
:10326000200180917A00846080937A0080917A00B6
:10327000826080937A0080917A00816080937A00E6
:1032800080917A00806880937A001092C100109239
:10329000F80B1092F90B1092FA0B1092FB0B109294
:1032A000B80B1092B90B1092BA0B1092BB0B0E9484
:1032B000DF036B017C014B015C0188EB880E8BE026
:1032C000981EA11CB11C0E94DF036C157D058E05A4
:1032D0009F0528F086169706A806B906A0F768EE9F
:1032E00073E080E090E00E94AF030E9444010E94DE
:1032F000DF036093B80B7093B90B8093BA0B909374
:10330000BB0B61E775E08EEC9AE089D80E94DF0381
:103310006B017C014B015C01AAE08A0E911CA11C8F
:10332000B11C0E94DF036C157D058E059F0528F0FA
:1033300086169706A806B906A0F781E08093CC0B05
:103340000E94440140E250E068EC70E081E00E949D
:10335000120E811107C06AE070E080E090E00E94E8
:10336000AF03F0CF81E08093300A60E08CE00E94F0
:1033700059038CE00E940403892B09F414C582E8E8
:1033800095E078D80E94DE102093E90C3093EA0C87
:103390004093EB0C5093EC0C6093ED0C7093EE0C9F
:1033A0008CE496E067D86091EE0CCE01019625D9A9
:1033B0006091ED0CCE01439620D96091EC0CCE01CA
:1033C00049961BD96091EB0CCE014F9616D96091AE
:1033D000EA0CCE01859611D96091E90C70E060533A
:1033E000784FCE018B9632D96CE975E0CE01C1964B
:1033F0006DD9BE01655D7F4FCE01C196C5D8BE01B6
:103400006B5D7F4FC1D8BE01615E7F4FBDD860E765
:1034100076E0A6D8BE01675E7F4FB6D864EA72E058
:103420009FD8BE016D5E7F4FAFD864EA72E098D836
:10343000BE016F5F7F4FA8D8BC018EEC9AE00E945E
:103440001E12CE01C19652D9CE018B964FD9CE0114
:1034500085964CD9CE014F9649D9CE01499646D989
:10346000CE01439643D9CE01019640D96091ED0C2F
:10347000CE010196C2D86091EC0CCE014396BDD826
:103480006091EB0CCE014996B8D86091EA0CCE0160
:103490004F96B3D86091E90C70E06053784FCE013D
:1034A0008B96D4D81EA21DA218A61FA21AA619A6D2
:1034B000BE01655D7F4FCE018596F3D8BE01615E8A
:1034C0007F4FCE01859660D8BE01675E7F4F5CD886
:1034D00060E776E045D8BE016D5E7F4F55D864EA5F
:1034E00072E03ED8BE016F5F7F4F4ED86DEA75E047
:1034F00037D8BC0188EC9CE0D4D8CE018596F6D8AC
:10350000CE018B96F3D8CE014F96F0D8CE014996D6
:10351000EDD8CE014396EAD8CE010196E7D86CEDFE
:1035200075E0CE010196D2D8CE010196C6DACE0161
:103530000196DCD80FE212E0E4E3EE2EE2E0FE2E8C
:1035400060E0F80181918F010E945903E016F106B5
:10355000B9F709E212E07FE2E72E72E0F72E60E0B1
:10356000D8018D918D010E945903E016F106B9F73B
:1035700003E212E069E2E62E62E0F62E61E0F80175
:1035800081918F010E945903E016F106B9F70DE110
:1035900012E053E2E52E52E0F52E61E0D8018D9164
:1035A0008D010E945903E016F106B9F760E08CE046
:1035B0000E94590363EF75E0CE01019687D8CE01D2
:1035C00001967BDACE01019691D861E087E10E94F5
:1035D000590361E087E10E942C0361E085E20E94CB
:1035E000590360E085E20E942C0361E087E20E94BB
:1035F000590360E087E20E942C036CE076E0CE0184
:10360000019664D8CE01019658DACE0101966ED8A3
:10361000E1E5FAE041E35AE020E13AE080EF99E0A9
:1036200061E77AE00CEA1AE01192178EDA011D9236
:10363000AD01D9011D929D01DC011D92CD01D80182
:103640001D928D016E177F0779F78CEC9AE04CEA9A
:10365000C42E4AE0D42EF60111926F018E179F07F7
:10366000D1F763E276E0CE01019630D8CE01019623
:1036700024DACE0101963AD864E476E0CE010196D0
:1036800025D8CE01019619DACE0101962FD80E94D5
:10369000DF0360939B0A70939C0A80939D0A90932A
:1036A0009E0A62E576E0CE01019610D8CE01019621
:1036B00004DACE0101961AD80E9418100E94FF0E5B
:1036C00011E033E3232E312C1092CD0A1093CC0A53
:1036D00060E070E088E492E40E94CF0E60E00E9417
:1036E000BD0E81110E941810F2E0F093CC0A60E048
:1036F00070E088E492E40E94CF0E61E081270E948E
:10370000BD0E81110E94FF0E83E08093CC0A60E021
:1037100070E08AE793E40E94CF0E62E00E94BD0E43
:10372000882319F08CE00E9404038CE00E940403BB
:10373000892BE1F0A4E0A093CC0A60E070E080E87F
:1037400090E40E94CF0E63E00E94BD0E882371F0CA
:103750000E94DE102093E90C3093EA0C4093EB0CAE
:103760005093EC0C6093ED0C7093EE0C8091A006DE
:103770009091A106992309F42AC3882309F418C358
:1037800060E070E080EC9FE30E94CF0E8093AD0676
:103790008093A7068093AE068093A8068091A20628
:1037A0008093A6068091A5068093A30680919F062C
:1037B000811102C080919E068093AB068091A40681
:1037C0008093A9061092A70A1092760620917A0695
:1037D00030917B06032E000C440B550B2C5C3109F9
:1037E00041095109A4E6B0E0B4D427E632E040E054
:1037F00050E093D43093A60A2093A50A3092A00AF1
:1038000020929F0A0E94DF0320919B0A30919C0A1C
:103810007B01E21AF30AF092AB0AE092AA0A0E9434
:10382000DF0360939B0A70939C0A80939D0A909398
:103830009E0A8091990A90919A0A8E159F0524F408
:10384000F0929A0AE092990A8091050290910602FC
:10385000E816F90624F4F0920602E0920502A09020
:103860007E06B0907F0628E93AE3D5019BD52AE889
:1038700033E040E050E051D4CA01B90119D32B0123
:103880003C014092A10A5092A20A6092A30A70924F
:10389000A40AD50120EF39E442E050E064D426E6E2
:1038A00033E040E050E039D4CA01B90101D320E04F
:1038B00030E04AE754E4D1D44B015C018092950A90
:1038C0009092960AA092970AB092980A0091CC0A18
:1038D000B1E0B00FBFABB093CC0A60E070E080E025
:1038E00090E40E94CF0E602F0E94BD0E882341F10C
:1038F00020E030E04AE754E4C301B201AED4A501B0
:10390000940147D426E636EE4AE853E430D30DD589
:103910002B01770F660877088091910A9091920A9F
:10392000A091930AB091940A480E591E6A1E7B1EFC
:103930004092910A5092920A6092930A7092940A6D
:1039400022E0A22EA00EA092CC0A6FA980E00E94D5
:10395000BD0E882331F0ECEAFAE01192CE16DF06B4
:10396000E1F7ECEAFAE0819181111093AC0ACE16EE
:10397000DF06C9F73091A7069091A6068091A006B0
:10398000332319F0282F911101C020E02093AD0AB4
:10399000332309F436C2992309F435C2882309F484
:1039A00036C21093AF0AE3E3EE16F10434F010933D
:1039B000AE0AF092A90AE092A80A0D5F0093CC0A21
:1039C0006A2D8091AE0A0E94BD0E8823A1F18091DC
:1039D000A80A9091A90A1C8A1B8A1E8A1D8A188E21
:1039E0001F8A4AE0BE016F5F7F4F29D2BE016F5F21
:1039F0007F4FCE0143960E94F41264E676E0CE013A
:103A000001960E946613BE016D5E7F4FCE01019646
:103A10000E94C41262E776E00E94B012BC018EECF4
:103A20009AE00E941E12CE0101960E947613CE01EA
:103A300043960E94761360917A0670917B06072E5A
:103A4000000C880B990B34D220E030E040E854E4BD
:103A50008ED220E030E040EA50E4FFD366D4072E57
:103A6000000C880B990B24D22B013C0120E030E0A4
:103A700040E05FE317D287FDCDC120E030E040E9B0
:103A800050E4C301B20182D418160CF4C3C11093E0
:103A9000B30A1093B20A8091A70A81110BC08091DA
:103AA000A50A9091A60A03972CF080919D0681119A
:103AB0001093BB0A20E030E84BE356E46091A10A82
:103AC0007091A20A8091A30A9091A40A5FD418165B
:103AD00014F41093BC0A60918A0670918B06072E2D
:103AE000000C880B990BE4D120E030E040E854E46E
:103AF0003ED220E030E040EA50E4AFD316D4072EA7
:103B0000000C880B990BD4D12DEC3CEC4CE650E426
:103B1000C9D1881F8827881F8093B40A60918C06BA
:103B200070918D06072E000C880B990BC1D120E0F7
:103B300030E040E854E41BD220E030E040EA50E4BA
:103B40008CD3F3D3072E000C880B990BB1D12DEC3D
:103B50003CEC4CE650E4A6D1881F8827881F809350
:103B6000B50A60918E0670918F06072E000C880BA7
:103B7000990B9ED120E030E040E854E4F8D120E0F9
:103B800030E040EA50E469D3D0D3072E000C880B14
:103B9000990B8ED12DEC3CEC4CE650E483D1881F80
:103BA0008827881F8093B60A6091900670919106CD
:103BB000072E000C880B990B7BD120E030E040E809
:103BC00054E4D5D120E030E040EA50E446D3ADD310
:103BD000072E000C880B990B6BD12DEC3CEC4CE6BE
:103BE00050E460D1881F8827881F8093B70A6091AE
:103BF000920670919306072E000C880B990B58D1F2
:103C000020E030E040E854E4B2D120E030E040EA87
:103C100050E423D38AD3072E000C880B990B48D18C
:103C20002DEC3CEC4CE650E43DD1881F8827881FE2
:103C30008093C10A6091940670919506072E000C3E
:103C4000880B990B35D120E030E040E854E48FD167
:103C500020E030E040EA50E400D367D3072E000CA8
:103C6000880B990B25D12DEC3CEC4CE650E41AD195
:103C7000881F8827881F8093C20A4091CD0A81E05F
:103C8000840F8093CD0A50E090919A068091A5060A
:103C900064E670E089270E94120E81111093B90A20
:103CA000E0909F0AF090A00A6091800670918106D2
:103CB000072E000C880B990BFBD020E030E040E889
:103CC00054E455D120E030E040EA50E4C6D22DD390
:103CD000072E000C880B990BEBD020E030E04FE76B
:103CE00053E445D120E030E040EA50E4B6D21DD3A1
:103CF0006D5D7F4F072E000C880B990BD9D02B01DF
:103D00003C01B7016C507109072E000C880B990B10
:103D1000CFD0A30192013AD3181674F0B701645FB3
:103D20007F4F072E000C880B990BC2D0A301920184
:103D3000B9D087FF1093C00A1092B80A1092AC0A4B
:103D400088E0E82E8CE0F82E9CEAA92E9AE0B92EA5
:103D500000E2602FD5018D915D010E94BD0E882388
:103D600099F01A8219821C821B821E821D82B70161
:103D7000CE0101960E945113CE0101960E945D155D
:103D8000CE0101960E9476130F5FB6E0EB0EF11C98
:103D90000034F9F661E070E080E090E00E94AF034B
:103DA0000E946D0291CC82EB95E00E943A12B7CB53
:103DB00060E070E080EC9FE30E94CF0E8093AE063F
:103DC0008093A8061092AD061092A706E7CC882330
:103DD00079F01092AE061092A80660E070E080ECD8
:103DE0009FE30E94CF0E8093AD068093A706D6CCAA
:103DF0001092AD061092A7061092AE061092A80679
:103E0000CDCC911102C01093B00A8111CCCD10938A
:103E1000B10AC9CD1092B30A3ECECF93DF93C8EC5E
:103E2000DCE02697CE010E9476138CE0C830D807DC
:103E3000C1F788EC9CE0DF91CF910C947613BB27FF
:103E40004A3031F4992322F4BDE2909581959F4F39
:103E500001C0BB27FB015527AA27880F991FAA1F5E
:103E6000A41710F0A41B83955051B9F7A05DAA3395
:103E700008F0A95DA193009779F7B111B193119260
:103E8000CB0100C0DC01FC01672F71917723E1F7C2
:103E9000329704C07C916D9370836291AE17BF0717
:103EA000C8F3089540D008F481E00895E89409C06B
:103EB00097FB3EF490958095709561957F4F8F4F5D
:103EC0009F4F9923A9F0F92F96E9BB279395F69573
:103ED000879577956795B795F111F8CFFAF4BB0FF1
:103EE00011F460FF1BC06F5F7F4F8F4F9F4F16C055
:103EF000882311F096E911C0772321F09EE8872FDF
:103F0000762F05C0662371F096E8862F70E060E09A
:103F10002AF09A95660F771F881FDAF7880F969513
:103F2000879597F90895990F0008550FAA0BE0E8B7
:103F3000FEEF16161706E807F907C0F0121613066B
:103F4000E407F50798F0621B730B840B950B39F4AB
:103F50000A2661F0232B242B252B21F408950A2611
:103F600009F4A140A6958FEF811D811D08950BD006
:103F700078C069D028F06ED018F0952309F05AC0A7
:103F80005FC01124A2C07ED0A0F3959FD1F3950FFE
:103F900050E0551F629FF001729FBB27F00DB11DCD
:103FA000639FAA27F00DB11DAA1F649F6627B00D5D
:103FB000A11D661F829F2227B00DA11D621F739F46
:103FC000B00DA11D621F839FA00D611D221F749F54
:103FD0003327A00D611D231F849F600D211D822F9B
:103FE000762F6A2F11249F5750408AF0E1F08823E2
:103FF0004AF0EE0FFF1FBB1F661F771F881F9150EF
:104000005040A9F79E3F510570F014C05EC05F3F5D
:10401000ECF3983EDCF3869577956795B795F79521
:10402000E7959F5FC1F7FE2B880F911D96958795A9
:1040300097F9089597F99F6780E870E060E0089528
:104040009FEF80EC089500240A94161617061806B0
:104050000906089500240A9412161306140605068C
:104060000895092E0394000C11F4882352F0BB0F1D
:1040700040F4BF2B11F460FF04C06F5F7F4F8F4F80
:104080009F4F089557FD9058440F551F59F05F3FBB
:1040900071F04795880F97FB991F61F09F3F79F06A
:1040A00087950895121613061406551FF2CF4695EC
:1040B000F1DF08C0161617061806991FF1CF86956E
:1040C0007105610508940895E894BB276627772752
:1040D000CB0197F90895A1E21A2EAA1BBB1BFD0183
:1040E0000DC0AA1FBB1FEE1FFF1FA217B307E407D7
:1040F000F50720F0A21BB30BE40BF50B661F771F2F
:10410000881F991F1A9469F760957095809590950E
:104110009B01AC01BD01CF010895052E97FB16F45C
:1041200000940FD057FD05D0D6DF07FC02D046F42F
:1041300008C050954095309521953F4F4F4F5F4FA8
:10414000089590958095709561957F4F8F4F9F4F03
:1041500008950FD0A59F900DB49F900DA49F800D42
:10416000911D11240895B7FFF4CFF3DF821B930B49
:104170000895A29FB001B39FC001A39F700D811D40
:104180001124911DB29F700D811D1124911D089560
:104190005058BB27AA270ED064CF55DF30F05ADF26
:1041A00020F031F49F3F11F41EF44ACF0EF4E09555
:1041B000E7FB40CFE92F66DF80F3BA17620773078A
:1041C0008407950718F071F49EF57ECF0EF4E09504
:1041D0000B2EBA2FA02D0B01B90190010C01CA01C1
:1041E000A0011124FF27591B99F0593F50F4503E6C
:1041F00068F11A16F040A22F232F342F4427585F5E
:10420000F3CF469537952795A795F0405395C9F775
:104210007EF41F16BA0B620B730B840BBAF091502D
:10422000A1F0FF0FBB1F661F771F881FC2F70EC0CC
:10423000BA0F621F731F841F48F48795779567959F
:10424000B795F7959E3F08F0B3CF9395880F08F088
:104250009927EE0F9795879508950CD002CFFADE37
:1042600040F0F1DE30F021F45F3F19F0E3CE511160
:104270002CCFE6CE07DF98F39923C9F35523B1F38A
:10428000951B550BBB27AA2762177307840738F0C5
:104290009F5F5F4F220F331F441FAA1FA9F333D024
:1042A0000E2E3AF0E0E830D091505040E695001CD8
:1042B000CAF729D0FE2F27D0660F771F881FBB1F94
:1042C000261737074807AB07B0E809F0BB0B802D6E
:1042D000BF01FF2793585F4F2AF09E3F510568F0BA
:1042E000A9CEF3CE5F3FECF3983EDCF3869577954D
:1042F0006795B795F7959F5FC9F7880F911D9695BC
:10430000879597F90895E1E0660F771F881FBB1F17
:10431000621773078407BA0720F0621B730B840BC4
:10432000BA0BEE1F88F7E095089504D06894B11198
:10433000CCCE0895AFDE88F09F5790F0B92F992723
:10434000B751A0F0D1F0660F771F881F991F1AF0A0
:10435000BA95C9F712C0B13081F0B6DEB1E0089568
:10436000B3CE672F782F8827B85F39F0B93FCCF3E9
:10437000869577956795B395D9F73EF49095809596
:10438000709561957F4F8F4F9F4F0895CCDD08F456
:104390008FEF0895EE0FFF1F881F8BBF0790F691D8
:1043A000E02D1994E6DEB7FF0895821B930B089564
:1043B0000F931F93CF93DF938230910510F482E027
:1043C00090E0E091F10CF091F20C30E020E0B0E0F0
:1043D000A0E0309799F42115310509F44AC0281B53
:1043E000390B24303105D8F58A819B81611571051F
:1043F00089F1FB0193838283FE0111C040815181C9
:104400000281138148175907E0F04817590799F4BA
:10441000109761F012960C93129713961C93329694
:10442000CF01DF91CF911F910F9108950093F10C6F
:104430001093F20CF4CF2115310551F042175307B8
:1044400038F0A901DB019A01BD01DF01F801C1CFFC
:10445000EF01F9CF9093F20C8093F10CCDCFFE01D8
:10446000E20FF31F819391932250310939832883FE
:10447000D7CF2091EF0C3091F00C232B41F42091F9
:10448000090230910A023093F00C2093EF0C209136
:104490000702309108022115310541F42DB73EB7CE
:1044A00040910B0250910C02241B350BE091EF0C54
:1044B000F091F00CE217F307A0F42E1B3F0B281726
:1044C000390778F0AC014E5F5F4F2417350748F08D
:1044D0004E0F5F1F5093F00C4093EF0C819391931C
:1044E0009FCFF0E0E0E09CCFCF93DF930097E9F01F
:1044F000FC01329713821282A091F10CB091F20C60
:10450000ED0130E020E01097A1F420813181820F8D
:10451000931F2091EF0C3091F00C2817390709F008
:1045200061C0F093F00CE093EF0CDF91CF91089510
:10453000EA01CE17DF07E8F54A815B819E0141154C
:104540005105B1F7E901FB83EA8349915991C40F01
:10455000D51FEC17FD0761F4808191810296840FCD
:10456000951FE90199838883828193819B838A8344
:10457000F0E0E0E012968D919C9113970097B9F5C9
:104580002D913C911197CD010296820F931F20919E
:10459000EF0C3091F00C2817390739F6309751F5A8
:1045A0001092F20C1092F10CB093F00CA093EF0C5F
:1045B000BCCFD383C28340815181840F951FC8171C
:1045C000D90761F44E5F5F4F88819981480F591F69
:1045D000518340838A819B81938382832115310596
:1045E00009F0B0CFF093F20CE093F10C9ECFFD01F7
:1045F000DC01C0CF13821282D7CF4F925F926F92AD
:104600007F928F929F92AF92BF92CF92DF92EF9262
:10461000FF920F931F93CF93DF938C01009791F438
:10462000CB01DF91CF911F910F91FF90EF90DF9021
:10463000CF90BF90AF909F908F907F906F905F9042
:104640004F90B6CEFC01E60FF71F9C0122503109B6
:10465000E217F30708F4AAC0D901CD91DC911197B4
:10466000C617D70718F1C530D10570F0CE010497F1
:104670008617970748F0C61BD70B2297C193D19393
:104680006D937C93CF0130DFC801DF91CF911F91F3
:104690000F91FF90EF90DF90CF90BF90AF909F90E1
:1046A0008F907F906F905F904F9008955B01AC1A50
:1046B000BD0A4C018C0E9D1EA091F10CB091F20C24
:1046C000512C412CF12CE12C109731F58091EF0CFD
:1046D0009091F00C8815990509F05CC046165706B4
:1046E00008F058C08091070290910802009741F4A9
:1046F0008DB79EB740910B0250910C02841B950B15
:10470000E817F90708F052C0F093F00CE093EF0CB3
:10471000F90171836083B8CF8D919C9111971296A6
:104720006C90129713967C901397A815B90559F5BC
:104730006C0142E0C40ED11CCA14DB0420F1AC01B0
:104740004A195B09DA011296159780F0628273822A
:1047500051834083D9016D937C93E114F10471F08E
:10476000D7011396FC93EE9312978ECF22968C0F5F
:104770009D1FF90191838083F301EFCFF093F20C39
:10478000E093F10C81CF4816590608F42C017D0105
:10479000D3019ACFCB010CDE7C01009739F0AE013A
:1047A000B80114D0C801A0DE87016ECF10E000E090
:1047B0006BCFFB01DC0104C08D910190801921F4C5
:1047C00041505040C8F7881B990B0895FB01DC014C
:1047D00002C001900D9241505040D8F70895FB015E
:1047E000DC0101900D920020E1F70895FB01DC014E
:1047F0004150504048F001900D920020C9F701C08F
:104800001D9241505040E0F7089511E0C1E1D1E020
:1048100000E005C0802FFE01BDDD2196011DC231E3
:0C482000D10780E00807B1F7F894FFCF43
:10482C0001FFFFFFFFE8030000F30C80003638396E
:10483C003A3B3C3D3E3F4041424344450033312FDF
:10484C002D2B29191B1D1F2123201E1C1A18162A5B
:10485C00282624220000000002026C019A014E025C
:10486C00CB01A901BD01000000004A0B6C015B09E2
:10487C00AA0B00000000E10DB50D0F0E9901AE0D55
:10488C009B0D8C0D00000000FF0BE30BD30BAB0B4F
:10489C00B30B300D390D0D0A004661756C74204454
:1048AC006574656374656421205365652062656C6D
:1048BC006F7720666F72206572726F72206D6573F0
:1048CC00736167653A004C6F737420636F6E6E652D
:1048DC006374696F6E20746F20616E2065737365ED
:1048EC006E7469616C20636F6D706F6E656E742190
:1048FC000050726F636573736F72206379636C65BC
:10490C00206F76657274696D6521004F70746F202D
:10491C00626F61726420706F776572206C6F737355
:10492C00206465746563746564004C656674206806
:10493C00616E646C65626172206C6F737420636F5E
:10494C006E6E656374696F6E20746F20636F6E7426
:10495C00726F6C6C657221005269676874206861B3
:10496C006E646C65626172206C6F737420636F6E21
:10497C006E656374696F6E20746F20636F6E7472F2
:10498C006F6C6C657221005468726F74746C652066
:10499C0072656164696E67206F7574206F66206242
:1049AC006F756E647320646574656374656421004F
:1049BC0043656C6C2031204C6F77210043656C6C27
:1049CC002032204C6F77210043656C6C2033204CD7
:1049DC006F77210043656C6C2034204C6F7721007D
:1049EC004174206C65617374206F6E652077617201
:1049FC006E696E672064657465637465642100502C
:104A0C00726F626C656D2064657465637465642097
:104A1C007769746820746865206D6F746F72206399
:104A2C006F6E746163746F72210046756E63746986
:104A3C006F6E20747261636B696E67206269747348
:104A4C00206F7665726C6F616465643B20706C6579
:104A5C00617365207265737461727420746865206B
:104A6C0070726F636573736F7221005468726F7428
:104A7C00746C65206D757374206265206174206997
:104A8C00646C6520746F20656E7465722067656157
:104A9C007200486967682063757272656E74206471
:104AAC0065746563746564206174203132562073BB
:104ABC0068756E7420283E31324129004372697446
:104ACC006963616C206661756C74206465746563E0
:104ADC007465642100454550524F4D2076616C75CC
:104AEC00657320756E617661696C61626C653B20E3
:104AFC0063616E6E6F74207265636F7264206F6495
:104B0C006F6D6574657200426174746572792063AF
:104B1C00656C6C20617420637269746963616C20CC
:104B2C006C6576656C3B20706C6561736520737485
:104B3C006F7020726964696E67005468726F747468
:104B4C006C65206F757420746F20455343206E6F15
:104B5C007420776861742077617320657870656361
:104B6C007465643B20706C65617365206368656374
:104B7C006B20776972696E670043656C6C20352019
:104B8C004C6F77210043656C6C2036204C6F77217D
:104B9C0000564D4450565F317C315F564D44505653
:104BAC000A00696E697469616C2072656164206FBA
:104BBC0066204453333233312E2E2E0043757272DD
:104BCC00656E742074696D6520697320002E74788D
:104BDC0074004E6F2035562061757820706F7765A4
:104BEC00722064657465637465643B20736B6970D3
:104BFC0070696E67204453333233310073657474BB
:104C0C00696E67207570206F70746F20696E707597
:104C1C0074730073657474696E67207570207265A7
:104C2C006C6179206F75747075747300526573655F
:104C3C007474696E67206C6F676963207374617438
:104C4C006573004C6F6164696E6720696E69746985
:104C5C00616C20656570726F6D2076616C75657323
:104C6C002E2E2E004C6F6164696E6720446F6E654A
:104C7C002E000A0A534554555020434F4D504C4575
:104C8C0054450A005761746368646F6720776173D9
:064C9C0020006D73000012
:020000023000CC
:10E000000D9489F10D94B2F10D94B2F10D94B2F129
:10E010000D94B2F10D94B2F10D94B2F10D94B2F1F0
:10E020000D94B2F10D94B2F10D94B2F10D94B2F1E0
:10E030000D94B2F10D94B2F10D94B2F10D94B2F1D0
:10E040000D94B2F10D94B2F10D94B2F10D94B2F1C0
:10E050000D94B2F10D94B2F10D94B2F10D94B2F1B0
:10E060000D94B2F10D94B2F10D94B2F10D94B2F1A0
:10E070000D94B2F10D94B2F10D94B2F10D94B2F190
:10E080000D94B2F10D94B2F10D94B2F10D94B2F180
:10E090000D94B2F10D94B2F10D94B2F10D94B2F170
:10E0A0000D94B2F10D94B2F10D94B2F10D94B2F160
:10E0B0000D94B2F10D94B2F10D94B2F10D94B2F150
:10E0C0000D94B2F10D94B2F10D94B2F10D94B2F140
:10E0D0000D94B2F10D94B2F10D94B2F10D94B2F130
:10E0E0000D94B2F141546D656761323536300041AF
:10E0F000726475696E6F206578706C6F72657220DE
:10E1000073746B3530305632206279204D4C530099
:10E11000426F6F746C6F616465723E004875683F52
:10E1200000436F6D70696C6564206F6E203D200048
:10E130004350552054797065202020203D20005FF9
:10E140005F4156525F415243485F5F3D2000415658
:10E1500052204C696243205665723D20004743437C
:10E160002056657273696F6E203D20004350552024
:10E1700049442020202020203D20004C6F7720663D
:10E18000757365202020203D20004869676820665F
:10E190007573652020203D200045787420667573D6
:10E1A00065202020203D20004C6F636B2066757336
:10E1B000652020203D20004D617220203720323024
:10E1C000313300312E362E3800342E332E350056A2
:10E1D00023202020414444522020206F7020636F70
:10E1E00064652020202020696E73747275637469E1
:10E1F0006F6E2061646472202020496E74657272B3
:10E20000757074006E6F20766563746F7200726A49
:10E210006D702020006A6D70200057686174207056
:10E220006F72743A00506F7274206E6F7420737541
:10E2300070706F72746564004D7573742062652030
:10E2400061206C6574746572002000577269747483
:10E25000696E672045450052656164696E672045B7
:10E26000450045452065727220636E743D00504F35
:10E27000525400303D5A65726F2061646472003FF1
:10E280003D43505520737461747300403D454550C3
:10E29000524F4D207465737400423D426C696E6B41
:10E2A000204C454400453D44756D70204545505215
:10E2B0004F4D00463D44756D7020464C415348001B
:10E2C000483D48656C70004C3D4C69737420492F83
:10E2D0004F20506F72747300513D51756974005234
:10E2E0003D44756D702052414D00563D73686F7707
:10E2F00020696E7465727275707420566563746FF0
:10E30000727300593D506F727420626C696E6B00BD
:10E310002A0011241FBECFEFD1E2DEBFCDBF01E046
:10E320000CBF12E0A0E0B2E0EEE1FDEF03E00BBFB6
:10E3300002C007900D92A030B107D9F712E0A0E01B
:10E34000B2E001C01D92AE30B107E1F70F9460F367
:10E350000D948DFE01E20EBF0FEF0DBF11241FBE05
:10E360000D9460F30D9400F020E030E040ED57E0B4
:10E3700005C0FA013197F1F72F5F3F4F2817390792
:10E38000C0F308959C01260F311DC901A0E0B0E043
:10E390002F5F3F4FABBFFC018791882361F08093D3
:10E3A000C6008091C00086FFFCCF8091C0008064D1
:10E3B0008093C000EACF08958DE08093C6008091DD
:10E3C000C00086FFFCCF8091C00080648093C000B5
:10E3D0008AE08093C6008091C00086FFFCCF8091C8
:10E3E000C00080648093C00008950F94C2F10F9420
:10E3F000DCF10895FC019081992359F09093C600B7
:10E400008091C00086FFFCCF8091C0008064809323
:10E41000C0003196992379F70895282F982F929567
:10E420009F70892F805D8A3308F0895F8093C600D2
:10E430008091C00086FFFCCF8091C00080648093F3
:10E44000C000822F8F70982F905D9A3308F0995FEB
:10E450009093C6008091C00086FFFCCF8091C000E1
:10E4600080648093C00008959C01FB01853691056E
:10E470001CF46330710594F0C90164E670E00F94F8
:10E480002EFE605D7F4F6093C6008091C00086FFC6
:10E49000FCCF8091C00080648093C0002B30310598
:10E4A00014F43297B4F0C90164E670E00F942EFEC4
:10E4B0006AE070E00F942EFE605D7F4F6093C600AF
:10E4C0008091C00086FFFCCF8091C0008064809363
:10E4D000C000C9016AE070E00F942EFEC0968093E0
:10E4E000C6008091C00086FFFCCF8091C000806490
:10E4F0008093C00008951F93182F8EE692EE60E07F
:10E500000F94C2F11093C6008091C00086FFFCCF2B
:10E510008091C00080648093C0000F94DCF11F9153
:10E5200008952F923F924F925F926F927F928F92B7
:10E530009F92AF92BF92CF92DF92EF92FF920F9392
:10E540001F93DF93CF93CDB7DEB762970FB6F894E2
:10E55000DEBF0FBECDBF382E622ECA01DB015C01CB
:10E560006D01772420E2222E2E010894411C511CBB
:10E570008BC081E0A81680E0B80681E0C80680E084
:10E58000D80628F0C601AA27BB270F940DF2BB2797
:10E59000AD2D9C2D8B2D0F940DF28A2D0F940DF225
:10E5A0002092C6008091C00086FFFCCF8091C00001
:10E5B00080648093C0009DE29093C6008091C0006B
:10E5C00086FFFCCF8091C00080648093C0002092C1
:10E5D000C6008091C00086FFFCCF8091C00080649F
:10E5E0008093C00019828601750188249924A1E0D6
:10E5F0003A1651F03A1620F0B2E03B1661F409C029
:10E600000BBFF701779007C0C7010F9477FE782EF4
:10E6100002C0F7017080872D0F940DF22092C60082
:10E620008091C00086FFFCCF8091C0008064809301
:10E63000C000872D8052F401EF70F0708F3520F408
:10E64000E40DF51D708204C0E40DF51D8EE280839B
:10E650000894E11CF11C011D111D0894811C911CE2
:10E6600090E18916910409F0C2CF80E190E0A0E02A
:10E67000B0E0A80EB91ECA1EDB1E198AC2010F9493
:10E68000FAF10F94DCF16A94662009F072CF629679
:10E690000FB6F894DEBF0FBECDBFCF91DF911F91B3
:10E6A0000F91FF90EF90DF90CF90BF90AF909F9031
:10E6B0008F907F906F905F904F903F902F90089534
:10E6C0002F923F924F925F926F927F928F929F9282
:10E6D000AF92BF92CF92DF92EF92FF920F931F9370
:10E6E000DF93CF93CDB7DEB7CD53D1400FB6F894BB
:10E6F000DEBF0FBECDBF01E20EBF0FEF0DBF94B75F
:10E70000F894A89514BE80916000886180936000A1
:10E7100010926000789493FF05C0E0910002F091A0
:10E7200001021995279A2F9A8091C00082608093E8
:10E73000C00080E18093C40088E18093C1000000A4
:10E74000EE24FF24870144E0A42EB12CCC24DD2448
:10E7500024C0C5010197F1F70894E11CF11C011DCB
:10E76000111D21E2E2162EE4F20620E0020720E06D
:10E77000120718F031E0C32ED12CC801B70127ECE5
:10E780003BE140E050E00F9441FE611571058105C9
:10E79000910519F485B1805885B98091C00087FD35
:10E7A00003C0C114D104A9F2A6014F5F5F4FC25E3E
:10E7B000DE4F59834883CE51D140C25EDE4F8881FF
:10E7C0009981CE51D140019711F00D9410FEC05D9A
:10E7D000DE4F19821882C053D14060E0C15DDE4F28
:10E7E0001882CF52D14088249924C35DDE4F19820C
:10E7F0001882CD52D140C05EDE4F188219821A8233
:10E800001B82C052D140CE5CDE4F188219821A8220
:10E810001B82C253D140EE24FF2487010BBFF701B6
:10E8200007911691C45CDE4F19830883CC53D14005
:10E830000D940BFEC25EDE4F28813981CE51D1404E
:10E840002130310509F52091C600C25EDE4F1982E4
:10E850001882CE51D14022C02F5F3F4F4F4F5F4FA4
:10E86000213082E138078AE7480780E0580780F0C6
:10E87000C45CDE4FE881F981CC53D140EF5FFF4F9C
:10E8800019F0EE27FF27099420E030E040E050E047
:10E890008091C00087FFE0CF2091C600C35DDE4FAE
:10E8A00048815981CD52D1404F5F5F4FC35DDE4FEC
:10E8B00059834883CD52D140213209F063C64A3092
:10E8C000510508F05FC60894811C911C53E0851621
:10E8D000910409F059C600E010E018C081E280936D
:10E8E000C6008091C00086FFFCCF8091C00080648C
:10E8F0008093C0002F5F3F4F2931310579F70F9486
:10E90000DCF10F5F1F4F0530110519F020E030E0FA
:10E91000E5CF10920A0210920B0210920C02109294
:10E920000D02109206021092070210920802109235
:10E930000902109202021092030210920402109235
:10E9400005028FEE90EE60E00F94F5F180E191EE1C
:10E9500060E00F94C2F18091C00087FFFCCF9091DE
:10E96000C600903608F09F759032B8F09093C600BC
:10E970008091C00086FFFCCF8091C00080648093AE
:10E98000C000A0E2A093C6008091C00086FFFCCF2B
:10E990008091C00080648093C000983409F4D7C18E
:10E9A0009934B8F4923409F459C1933458F490333B
:10E9B00019F1903308F4E3C59F33A1F1903409F0C5
:10E9C000DEC5BDC0953409F470C1963409F0D7C5D1
:10E9D00098C1923509F42BC2933538F49C3409F46C
:10E9E000F5C1913509F0CBC518C2963509F445C279
:10E9F000993509F0C4C567C483E792EE62E00F94CD
:10EA0000F5F110920602109207021092080210927D
:10EA1000090210920A0210920B0210920C0210923C
:10EA20000D0213C18FE792EE62E00F94F5F18FEEC5
:10EA300090EE60E00F94F5F181E291EE60E00F94CA
:10EA4000C2F187EB91EE60E00F94F5F180E391EE77
:10EA500060E00F94C2F184EE90EE60E00F94F5F167
:10EA60008FE391EE60E00F94C2F186E090E061E008
:10EA700070E00F9434F20F94DCF18DE591EE60E0DC
:10EA80000F94C2F189EC91EE60E00F94F5F18EE401
:10EA900091EE60E00F94C2F183EC91EE60E00F9490
:10EAA000F5F18CE691EE60E00F94C2F18EE10F94E7
:10EAB0000DF288E90F940DF281E00F940DF20F949E
:10EAC000DCF18BE791EE60E00F94C2F119E0E0E039
:10EAD000F0E010935700E4918E2F0F940DF20F94F5
:10EAE000DCF18AE891EE60E00F94C2F1E3E0F0E03F
:10EAF00010935700E4918E2F0F940DF20F94DCF1D8
:10EB000089E991EE60E00F94C2F1E2E0F0E0109349
:10EB10005700E4918E2F0F940DF20F94DCF188EAE8
:10EB200091EE60E00F94C2F1E1E0F0E01093570045
:10EB30001491812F0F940DF20F94DCF107CF8BE825
:10EB400092EE62E00F94F5F18BE492EE60E00F94A8
:10EB5000F5F10F94DCF100E010E019C0C8016F2D51
:10EB60000F947FFEFF2031F489E492EE60E00F9471
:10EB7000C2F10BC0F092C6008091C00086FFFCCFAE
:10EB80008091C00080648093C0000F5F1F4FC80158
:10EB900081519F41A0E0B0E0ABBFFC01F790BAE229
:10EBA000FB1621F0E2E000301E07C1F60F94DCF105
:10EBB0000F94DCF187E592EE60E00F94F5F10F948D
:10EBC000DCF1CC24DD2400E010E01EC0C8010F946D
:10EBD00077FEF82E882331F489E492EE60E00F94FA
:10EBE000C2F10BC08093C6008091C00086FFFCCFAD
:10EBF0008091C00080648093C000FE1419F00894D6
:10EC0000C11CD11C0F5F1F4FC80181519F41A0E063
:10EC1000B0E0ABBFFC01E790FAE2EF1621F022E092
:10EC20000030120799F60F94DCF10F94DCF182E6C4
:10EC300092EE60E00F94C2F1C60161E070E00F94C3
:10EC400034F20F94DCF10F94DCF110920202109276
:10EC50000302109204021092050278CE89E992EE26
:10EC600062E00F94F5F1279A2F9A16C02F9880E052
:10EC700090E0E0EDF7E03197F1F7019684369105E9
:10EC8000C1F72F9A80E090E0E0EDF7E03197F1F7DF
:10EC9000019684369105C1F78091C00087FFE6CFC9
:10ECA0008091C00087FFFCCF64C485EA92EE62E0E9
:10ECB0000F94F5F140910202509103026091040219
:10ECC0007091050281E020E10F9491F2809102029F
:10ECD00090910302A0910402B091050280509F4FD1
:10ECE000AF4FBF4F8093020290930302A0930402A0
:10ECF000B093050280509041A040B04008F426CE69
:10ED0000A4CF83EB92EE62E00F94F5F140910602FE
:10ED100050910702609108027091090280E020E1A1
:10ED20000F9491F28091060290910702A09108023F
:10ED3000B091090280509F4FAF4FBF4F80930602A2
:10ED400090930702A0930802B0930902FFCD80ECD4
:10ED500092EE62E00F94F5F183E792EE60E00F949B
:10ED6000F5F18FE792EE60E00F94F5F18BE892EE0B
:10ED700060E00F94F5F189E992EE60E00F94F5F10F
:10ED800085EA92EE60E00F94F5F183EB92EE60E09D
:10ED90000F94F5F180EC92EE60E00F94F5F187ECC2
:10EDA00092EE60E00F94F5F188ED92EE60E00F9442
:10EDB000F5F18FED92EE60E00F94F5F18AEE92EEB0
:10EDC00060E00F94F5F183E093EEBDCD87EC92EE19
:10EDD00062E00F94F5F181E40F947BF282E40F94EA
:10EDE0007BF283E40F947BF284E40F947BF285E45E
:10EDF0000F947BF286E40F947BF287E40F947BF20E
:10EE000088E40F947BF28AE40F947BF28BE40F94F6
:10EE10007BF28CE40F947BF299CD88ED92EE62E068
:10EE20000F94F5F1772473948824992409C48FED05
