:1000000072C100009FC100009DC100009BC10000A3
:1000100099C1000097C1000095C1000093C1000084
:1000200091C100008FC100008DC100008BC1000094
:1000300089C1000087C1000085C1000083C10000A4
:1000400081C100007FC100007DC100007BC10000B4
:1000500079C1000077C1000075C1000092C40000A2
:1000600071C1000058C400002DC400006BC1000025
:1000700069C1000067C1000065C1000063C10000E4
:1000800061C100005FC100005DC100005BC10000F4
:1000900059C1000057C1000055C1000053C1000004
:1000A00051C100004FC100004DC100004BC1000014
:1000B00049C1000047C1000045C1000043C1000024
:1000C00041C100003FC100003DC100003BC1000034
:1000D00039C1000037C1000035C1000033C1000044
:1000E00031C1000000407A10F35A00A0724E180986
:1000F0000010A5D4E80000E87648170000E40B548F
:10010000020000CA9A3B000000E1F505000080965D
:100110009800000040420F000000A086010000008F
:10012000102700000000E803000000006400000049
:1001300000000A00000000000100000000002C7612
:10014000D888DC674F0823DFC1DFAE59E1B1B7962D
:10015000E5E3E453C63AE651997696E8E6C284268A
:10016000EB898C9B62ED407C6FFCEFBC9C9F40F266
:10017000BAA56FA5F490055A2AF75C936B6CF967E2
:100180006DC11BFCE0E40D47FEF520E6B500D0EDA7
:10019000902E0300943577050080841E080000200F
:1001A0004E0A000000C80C333333330F986E1283AD
:1001B0001141EF8D2114893BE65516CFFEE6DB1881
:1001C000D1844B381BF77C1D901DA4BBE424203246
:1001D00084725E228100C9F124ECA1E53D27000074
:1001E0002100240027002A002D00300033000101E7
:1001F0000000040107010A01000022002500280078
:100200002B002E003100340002010000050108011E
:100210000B0105050505070508080808020202028A
:100220000A0A080804040404010101010101010192
:100230000303030303030303040707070C0C0C0C5D
:100240000C0C0C0C02020202060606060606060646
:100250000B0B0B0B0B0B0B0B0102102020080810D3
:100260002040102040800201020108040201010226
:1002700004081020408080402010080402018004FF
:10028000020180402010080402010804020101025A
:100290000408102040800102040810204080000063
:1002A0000A0B02090C0D0E080703040100000000F0
:1002B000000000000000000000000000000000003E
:1002C00000000000000000000000121110000000FB
:1002D000000000000000000000000000000000001E
:1002E000000000000B0511241FBECFEFD1E2DEBFDE
:1002F000CDBF00E00CBF23E0AAE2B2E001C01D9236
:10030000AA31B207E1F712E0A0E0B2E0E0E3F7E1E2
:1003100000E00BBF02C007900D92AA32B107D9F7D7
:1003200011E0C3E7D1E000E005C021970109802F6B
:10033000FE01E3D7C237D10780E00807B1F7AAD39F
:100340000C94960B5DCECF92DF92EF92FF920F93BB
:100350001F932FB7F894C0902F02D0903002E090F6
:100360003102F09032022FBF6C0D7D1D8E1D9F1D3E
:100370004FB7F89400912F02109130022091310272
:10038000309132024FBF0C151D052E053F0528F098
:10039000601771078207930758F71F910F91FF901D
:1003A000EF90DF90CF900895382FEBEAF2E0849140
:1003B000E5E6F2E02491EFE1F2E09491992309F46B
:1003C00034C0882309F181508231F0F4E82FF0E045
:1003D0008827E351FE4F8F4F90C71E022202FF0174
:1003E00016021A02040225022B022F0235023902DC
:1003F0003D024302470204024B0251025502809122
:1004000080008F7780938000E92FF0E0EE0FFF1FD0
:10041000E850FE4FA591B4918FB7F894EC9131114B
:1004200048C020952E232C938FBF08958091800083
:100430008F7DE8CF80918000877FE4CF84B58F7770
:1004400084BDE2CF84B58F7DFBCF8091B0008F77E4
:100450008093B000D9CF8091B0008F7DF9CF80918B
:1004600090008F7780939000CFCF809190008F7D08
:10047000F9CF80919000877FF5CF8091A0008F7792
:100480008093A000C1CF8091A0008F7DF9CF809193
:10049000A000877FF5CF809120018F778093200186
:1004A000B3CF809120018F7DF9CF80912001877F8C
:1004B000F5CF2E2BB8CFAF92BF92CF92DF92EF92B3
:1004C000FF920F931F93CF93DF936C017B018B01FE
:1004D000040F151FEB015E01AE18BF08C017D1074E
:1004E00059F06991D601ED91FC910190F081E02DD8
:1004F000C6011995892B79F7C501DF91CF911F911D
:100500000F91FF90EF90DF90CF90BF90AF90089544
:10051000FC01538D448D252F30E0842F90E0821B09
:10052000930B541710F0CF96089501970895FC018E
:10053000918D828D981761F0A28DAE0FBF2FB11DE6
:100540005D968C91928D9F5F9F73928F90E008953E
:100550008FEF9FEF0895FC01918D828D981731F0F8
:10056000828DE80FF11D858D90E008958FEF9FEF4C
:100570000895FC01918D228D892F90E0805C9F4F22
:10058000821B91098F739927089583E392E0F1DF2D
:1005900021E0892B09F420E0822F0895FC01A48D2D
:1005A000A80FB92FB11DA35ABF4F2C91848D90E095
:1005B00001968F739927848FA689B7892C93A08978
:1005C000B1898C91837080648C93938D848D981302
:1005D00006C00288F389E02D80818F7D8083089595
:1005E000EF92FF920F931F93CF93DF93EC0181E083
:1005F000888F9B8D8C8D98131AC0E889F98980812A
:1006000085FF15C09FB7F894EE89FF896083E8895C
:10061000F98980818370806480839FBF81E090E04E
:10062000DF91CF911F910F91FF90EF900895F62EDB
:100630000B8D10E00F5F1F4F0F731127E02E8C8D75
:100640008E110BC00FB607FCFACFE889F9898081BB
:1006500085FFF5CFCE01A2DFF2CFEB8DEC0FFD2FA2
:10066000F11DE35AFF4FF0829FB7F8940B8FEA8990
:10067000FB8980818062D0CFCF93DF93EC01888D9E
:100680008823B1F0AA89BB89E889F9898C9185FD15
:1006900003C0808186FD0CC00FB607FCF7CF8C919C
:1006A00085FFF2CF808185FFEDCFCE0177DFEACFE6
:1006B000DF91CF91089580E090E0892B21F065DFF4
:1006C00081110E94000080E090E0892B49F080E0D9
:1006D00090E0892B29F00E94000081110E94000007
:1006E00080E090E0892B49F080E090E0892B29F0B0
:1006F0000E94000081110E94000080E090E0892BA0
:1007000049F080E090E0892B29F00E9400008111DF
:100710000C94000008953FB7F89480912B029091BB
:100720002C02A0912D02B0912E0226B5A89B05C0E7
:100730002F3F19F00196A11DB11D3FBFBA2FA92F60
:10074000982F8827BC01CD01620F711D811D911D5D
:1007500042E0660F771F881F991F4A95D1F70895C9
:100760008F929F92AF92BF92CF92DF92EF92FF92C1
:100770004B015C01D0DF6B017C01CDDF6C197D0981
:100780008E099F09683E734081059105B0F321E011
:10079000821A9108A108B10888EEC80E83E0D81E1D
:1007A000E11CF11C81149104A104B10431F7FF9004
:1007B000EF90DF90CF90BF90AF909F908F90089573
:1007C000CF93DF93FC01448155816081718183E384
:1007D00092E071DEEC0142E050E067E272E083E318
:1007E00092E069DE8C0F9D1FDF91CF910895CF922B
:1007F000DF92EF92FF920F931F93CF93DF93CDB7CA
:10080000DEB7A1970FB6F894DEBF0FBECDBF7C0157
:10081000CB01BA01F7011182108213821282158274
:1008200014828E010F5F1F4F22E044E0ACD26C01B6
:10083000F70180819181C114D10459F1F601019031
:100840000020E9F731978F010C191D09009731F04D
:10085000F701228133812017310788F4B8016F5FD7
:100860007F4F78D6F701009791F0918380831383AF
:10087000028324813581232B11F4FC011082F701BE
:1008800015830483B6018081918149D70CC0808192
:100890009181009709F0D5D5F70111821082158258
:1008A000148213821282A1960FB6F894DEBF0FBE97
:1008B000CDBFDF91CF911F910F91FF90EF90DF900F
:1008C000CF9008951F920F920FB60F9211240BB67E
:1008D0000F922F933F934F935F936F937F938F93D9
:1008E0009F93AF93BF93EF93FF9383E392E056DE22
:1008F000FF91EF91BF91AF919F918F917F916F91F8
:100900005F914F913F912F910F900BBE0F900FBEB3
:100910000F901F9018951F920F920FB60F921124EF
:100920000BB60F922F938F939F93EF93FF93E091CA
:100930004302F09144028081E0914902F0914A0221
:1009400082FD1DC0908180914C028F5F8F7320913A
:100950004D02821741F0E0914C02F0E0ED5CFD4F5A
:10096000958F80934C02FF91EF919F918F912F91E2
:100970000F900BBE0F900FBE0F901F9018958081A7
:10098000F2CF1F920F920FB60F9211242F933F9325
:100990008F939F93AF93BF9380912F0290913002DA
:1009A000A0913102B091320230912A0223E0230F4C
:1009B0002D3758F50196A11DB11D20932A02809371
:1009C0002F0290933002A0933102B09332028091B3
:1009D0002B0290912C02A0912D02B0912E02019633
:1009E000A11DB11D80932B0290932C02A0932D0288
:1009F000B0932E02BF91AF919F918F913F912F9114
:100A00000F900FBE0F901F90189526E8230F0296A7
:100A1000A11DB11DD2CFE3E3F2E01382128288EE72
:100A200093E0A0E0B0E084839583A683B7838AE057
:100A300092E09183808385EC90E09587848784ECB5
:100A400090E09787868780EC90E0918B808B81EC9B
:100A500090E0938B828B82EC90E0958B848B86EC7C
:100A600090E0978B868B118E128E138E148EE0ED94
:100A7000F2E016821782108611861286138614867B
:100A8000158616861786108A118A128A138A148A86
:100A9000158A0895CF93DF9300D000D0CDB7DEB78D
:100AA000789484B5826084BD84B5816084BD85B549
:100AB000826085BD85B5816085BD80916E00816055
:100AC00080936E00109281008091810082608093FB
:100AD00081008091810081608093810080918000FD
:100AE0008160809380008091B10084608093B10028
:100AF0008091B00081608093B0008091910082600D
:100B00008093910080919100816080939100809109
:100B100090008160809390008091A100826080931A
:100B2000A1008091A10081608093A1008091A0002C
:100B300081608093A00080912101826080932101D7
:100B40008091210181608093210180912001816049
:100B50008093200180917A00846080937A00809154
:100B60007A00826080937A0080917A00816080931D
:100B70007A0080917A00806880937A001092C10098
:100B80001092120310921303109214031092150383
:100B90001092D2021092D3021092D4021092D50277
:100BA00068EB7BE080E090E0CEDB60ED77E080E01A
:100BB00090E0D6DDE0914302F091440282E0808330
:100BC000E0913F02F09140021082E0914102F091E9
:100BD000420280E1808310924B02E0914702F09143
:100BE000480286E08083E0914502F09146028081D0
:100BF00080618083E0914502F091460280818860A7
:100C00008083E0914502F091460280818068808374
:100C1000E0914502F091460280818F7D80832FB75D
:100C2000F89480912F0290913002A0913102B091FE
:100C300032022FBF8093D2029093D302A093D402AA
:100C4000B093D50241E150E068E172E083E392E0C5
:100C500032DC6AE070E080E090E075DB81E0809358
:100C6000E60240E050E060E271E490E080E0FDD216
:100C700043EC55EF68E27FE384E090E0F6D240E099
:100C800050E060E87FE388E090E0EFD240E050E0A1
:100C900060E87FE38CE090E0E8D290E080E0E0D292
:100CA000AB01BC01CE010196A2DDCE01019688DD2B
:100CB00089819A81C6D384E090E0D2D2AB01BC0195
:100CC000CE01019694DDCE0101967ADD89819A816B
:100CD000B8D388E090E0C4D2AB01BC01CE0101964C
:100CE00086DDCE0101966CDD89819A81AAD38CE0E4
:100CF00090E0B6D2AB01BC01CE01019678DDCE0109
:100D000001965EDD89819A819CD3E5E6F2E024912B
:100D1000EFE1F2E08491882399F090E0880F991F29
:100D2000FC01E252FE4FA591B491FC01E850FE4F48
:100D3000859194918FB7F894EC91E22BEC938FBF4F
:100D400084E6C82ED12CE12CF12C2FB7F8946091B9
:100D50002F027091300280913102909132022FBFA8
:100D6000A7019601A8D221E06233710581059105A2
:100D700008F420E0822F18DB69E170E080E090E069
:100D8000EFDC99DCE2CFEF920F931F93CF93DF93C9
:100D9000E80134E047FD34E1042E000C550B57FF09
:100DA00003C0519541955109E32E022F242FAE0126
:100DB00007D0CE01DF91CF911F910F91EF90089551
:100DC0008F929F92AF92BF92CF92DF92EF92FF925B
:100DD0000F931F93CF93DF9300D000D000D0CDB7F7
:100DE000DEB76A01F22EB02E102FFBE3AF2EA01655
:100DF00008F41BE31F5F012F27E0AE014F5F5F4F39
:100E000057D1BC018981982F9970913009F44EC057
:100E10009BE2E1FC04C09E2D9170E0FC49C05E2D78
:100E20005071E82FE87083FF55C084E0911101C034
:100E300083E0EF2DE81B8F1508F0E0E0D6018E2F40
:100E400020E25523C9F1992329F0D6019C93C601CC
:100E500001966C0196012D5F3F4FE2FE33C08EE498
:100E6000D6018C9391E411969C93119712968C93D2
:100E7000D9018E2F90E281112AC0E20FF32FF11DCC
:100E800010828EEF9FEF29960FB6F894DEBF0FBE4B
:100E9000CDBFDF91CF911F910F91FF90EF90DF9029
:100EA000CF90BF90AF909F908F9008959DE2B7CF65
:100EB00090E2B5CF2D9381508111FCCFCE0ED11C85
:100EC000E0E0C1CF8EE6D6018C9391E6CCCF9D9326
:100ED0008150D1CF482F447082FF3DC084E09111F2
:100EE00001C083E08F1510F4EF2DE81BD6018E2F83
:100EF00020E2552309F1992329F0D6019C93C601DC
:100F000001966C0196012D5F3F4FE2FE1BC089E404
:100F1000D6018C938EE411968C93119786E41296E9
:100F20008C93D9018E2F90E2882309F4A6CF9D934C
:100F30008150FACF2D9381508111FCCFCE0ED11C60
:100F4000E0E0D9CF89E6D6018C938EE611968C939A
:100F5000119786E6E4CF9B0177FF02C030E020E0E6
:100F6000A1E0B0E0911102C0B0E0A0E0F90131963B
:100F7000AE0FBF1F8B2C912CBB2009F461C0540114
:100F8000EFEFAE1ABE0AAA0DBB1DFA161B0619F02A
:100F900014F04F2D4A1B511188C0E3FC59C0760153
:100FA000A42FB0E2A1114FC0C40ED11C992309F4A3
:100FB0005BC040E0D6011196F60190836D01552388
:100FC00009F448C0012F060F9A81582F507184FFF1
:100FD00003C0913309F4015010160CF047C00930DA
:100FE00008F008E0EEE2FE2E5B01A01AB1088501D0
:100FF0009194819491082F3F320729F4D601FC92F5
:10100000F60131966F016217730794F10217130707
:101010007CF5DB01A21BB30BAA24A394B12CAC0E6C
:10102000BD1EAA0DBB1D11968C9121503109D60110
:10103000119628153905F4F0F60180836D01DBCF98
:10104000B12CA12CA0CFF701B1937F01A150AACF61
:101050009111B0CFD601942F50E302C05D9391500F
:101060009111FCCFC40ED11C40E0ACCF01E0BACF4F
:1010700080E3DBCF6217730731F4963388F495333E
:1010800011F4552369F0F6018083FD01842F90E26D
:10109000811108C0A40FB11D1C9290E080E0F3CE36
:1010A00081E3F1CF91938150F3CF911183CF8ACF18
:1010B000283008F027E03327DA01990F311D87FD2A
:1010C000916000966105710539F432602E5F3D93A1
:1010D00030E32A95E1F708959F3F30F0803871059D
:1010E000610509F03C5F3C5F3D93913008F08068FA
:1010F000911DDF93CF931F930F93FF92EF92192FC0
:10110000987F9695E92F96959695E90FFF27E25CD3
:10111000FE4F99273327EE24FF24A701E70105900E
:101120000894079428F4360FE71EF81E491F511D36
:10113000660F771F881F991F0694A1F705900794E3
:1011400028F4E70EF81E491F561FC11D770F881F90
:10115000991F661F0694A1F70590079428F4F80ECE
:10116000491F561FC71FD11D880F991F661F771F64
:101170000694A1F70590079420F4490F561FC71F46
:10118000D81F990F661F771F881F0694A9F78491AF
:101190001095177041F0D695C79557954795F794D8
:1011A000E7941A95C1F7E4EEF0E068941590159174
:1011B00035916591959105907FE27395E118F10A5B
:1011C000430B560BC90BD009C0F7E10CF11E431FAE
:1011D000561FC91FD01D7EF4703311F48A95E6CFD7
:1011E000E894015030F0080F0AF40027021708F4C1
:1011F000202F2395022F7A3328F079E37D932A95C7
:10120000E9F710C07D932A9589F60694979567951E
:10121000379517951794E118F10A430B560BC90B34
:10122000D00998F023957E9173957A3308F070E396
:101230007C932013B8F77E9170617D9330F0839595
:1012400071E37D9370E32A95E1F71124EF90FF900D
:101250000F911F91CF91DF91992787FD9095089568
:10126000A6E1B0E044E050E00AC0242F17D0252FBB
:1012700015D000C012D0272F11C0DC01CB01FC011A
:10128000F999FECF06C0F2BDE1BDF89A319600B4DF
:101290000D9241505040B8F70895262FF999FECF8E
:1012A0001FBA92BD81BD20BD0FB6F894FA9AF99A83
:1012B0000FBE01960895A1E21A2EAA1BBB1BFD01C9
:1012C0000DC0AA1FBB1FEE1FFF1FA217B307E40725
:1012D000F50720F0A21BB30BE40BF50B661F771F7D
:1012E000881F991F1A9469F760957095809590955D
:1012F0009B01AC01BD01CF010895EE0FFF1F881FB8
:101300008BBF0790F691E02D19940F931F93CF9305
:10131000DF938230910510F482E090E0E0911803B1
:10132000F091190330E020E0B0E0A0E0309799F4AC
:101330002115310509F44AC0281B390B2430310529
:10134000D8F58A819B816115710589F1FB01938331
:101350008283FE0111C040815181028113814817AF
:101360005907E0F04817590799F4109761F0129661
:101370000C93129713961C933296CF01DF91CF9165
:101380001F910F9108950093180310931903F4CF40
:101390002115310551F04217530738F0A901DB013F
:1013A0009A01BD01DF01F801C1CFEF01F9CF9093A0
:1013B000190380931803CDCFFE01E20FF31F819331
:1013C00091932250310939832883D7CF2091160376
:1013D00030911703232B41F4209102023091030234
:1013E00030931703209316032091000230910102DD
:1013F0002115310541F42DB73EB7409104025091BB
:101400000502241B350BE0911603F0911703E21738
:10141000F307A0F42E1B3F0B2817390778F0AC0117
:101420004E5F5F4F2417350748F04E0F5F1F5093F4
:10143000170340931603819391939FCFF0E0E0E070
:101440009CCFCF93DF930097E9F0FC013297138292
:101450001282A0911803B0911903ED0130E020E051
:101460001097A1F420813181820F931F20911603E0
:10147000309117032817390709F061C0F09317035B
:10148000E0931603DF91CF910895EA01CE17DF07AD
:10149000E8F54A815B819E0141155105B1F7E901EB
:1014A000FB83EA8349915991C40FD51FEC17FD07BF
:1014B00061F4808191810296840F951FE9019983DF
:1014C0008883828193819B838A83F0E0E0E0129697
:1014D0008D919C9113970097B9F52D913C9111979F
:1014E000CD010296820F931F2091160330911703AE
:1014F0002817390739F6309751F5109219031092D1
:101500001803B0931703A0931603BCCFD383C283F1
:1015100040815181840F951FC817D90761F44E5F30
:101520005F4F88819981480F591F518340838A8179
:101530009B81938382832115310509F0B0CFF0930D
:101540001903E09318039ECFFD01DC01C0CF138285
:101550001282D7CF4F925F926F927F928F929F921B
:10156000AF92BF92CF92DF92EF92FF920F931F93B1
:10157000CF93DF938C01009791F4CB01DF91CF9152
:101580001F910F91FF90EF90DF90CF90BF90AF90A1
:101590009F908F907F906F905F904F90B6CEFC01A0
:1015A000E60FF71F9C0122503109E217F30708F4F8
:1015B000AAC0D901CD91DC911197C617D70718F1B0
:1015C000C530D10570F0CE0104978617970748F013
:1015D000C61BD70B2297C193D1936D937C93CF01F8
:1015E00030DFC801DF91CF911F910F91FF90EF90F5
:1015F000DF90CF90BF90AF909F908F907F906F9033
:101600005F904F9008955B01AC1ABD0A4C018C0E9F
:101610009D1EA0911803B0911903512C412CF12C5F
:10162000E12C109731F580911603909117038815DE
:10163000990509F05CC04616570608F058C080911D
:10164000000290910102009741F48DB79EB740913E
:10165000040250910502841B950BE817F90708F066
:1016600052C0F0931703E0931603F901718360836E
:10167000B8CF8D919C91119712966C9012971396FA
:101680007C901397A815B90559F56C0142E0C40E7A
:10169000D11CCA14DB0420F1AC014A195B09DA0140
:1016A0001296159780F06282738251834083D9012C
:1016B0006D937C93E114F10471F0D7011396FC93C0
:1016C000EE9312978ECF22968C0F9D1FF901918376
:1016D0008083F301EFCFF0931903E093180381CFD8
:1016E0004816590608F42C017D01D3019ACFCB018D
:1016F0000CDE7C01009739F0AE01B80107D0C801BB
:10170000A0DE87016ECF10E000E06BCFFB01DC01B3
:1017100002C001900D9241505040D8F70895FB014E
:10172000DC0101900D920020E1F70895F894FFCFBD
:1017300000001A03800000000000F0025B02880233
:101740003C03B9029702AB02564D4450565F317CC0
:0A175000315F564D4450560D0A005B
:00000001FF
