:1000000004C7000033C7000031C700002FC700003D
:100010002DC700002BC7000029C7000027C700001C
:1000200025C7000023C7000021C700001FC700002C
:100030001DC700001BC7000019C7000017C700003C
:1000400015C7000013C7000011C700000FC700004C
:100050000DC700000BC7000009C700000C94AE29B3
:1000600005C700000C9478290C944E29FFC60000A7
:10007000FDC60000FBC60000F9C60000F7C6000080
:10008000F5C60000F3C60000F1C60000EFC6000090
:10009000EDC60000EBC60000E9C60000E7C60000A0
:1000A000E5C60000E3C60000E1C60000DFC60000B0
:1000B000DDC60000DBC60000D9C60000D7C60000C0
:1000C000D5C60000D3C60000D1C60000CFC60000D0
:1000D000CDC60000CBC60000C9C60000C7C60000E0
:1000E000C5C60000000020002300260029002C00C7
:1000F0002F00320000010000030106010901000089
:100100000000003E5B4F5B3E3E6B4F6B3E1C3E7CF7
:100110003E1C183C7E3C181C577D571C1C5E7F5EA5
:100120001C00183C1800FFE7C3E7FF001824180064
:10013000FFE7DBE7FF30483A060E262979292640FB
:100140007F050507407F05253F5A3CE73C5A7F3E27
:100150001C1C08081C1C3E7F14227F22145F5F00B9
:100160005F5F06097F017F006689956A6060606055
:100170006094A2FFA29408047E040810207E201040
:1001800008082A1C08081C2A08081E101010100C49
:100190001E0C1E0C30383E3830060E3E0E06000097
:1001A00000000000005F00000007000700147F143B
:1001B0007F14242A7F2A12231308646236495620AA
:1001C000500008070300001C2241000041221C00CF
:1001D0002A1C7F1C2A08083E08080080703000088E
:1001E00008080808000060600020100804023E5162
:1001F00049453E00427F40007249494946214149F4
:100200004D331814127F1027454545393C4A49495A
:100210003141211109073649494936464949291EC4
:1002200000001400000040340000000814224114B3
:1002300014141414004122140802015909063E4105
:100240005D594E7C1211127C7F494949363E41412D
:1002500041227F4141413E7F494949417F09090986
:10026000013E414151737F0808087F00417F4100F2
:100270002040413F017F081422417F404040407FA1
:10028000021C027F7F0408107F3E4141413E7F09EE
:100290000909063E4151215E7F091929462649492F
:1002A000493203017F01033F4040403F1F2040206F
:1002B0001F3F4038403F631408146303047804036D
:1002C0006159494D43007F4141410204081020001B
:1002D0004141417F0402010204404040404000038C
:1002E00007080020545478407F2844443838444458
:1002F0004428384444287F385454541800087E0950
:100300000218A4A49C787F0804047800447D40006F
:100310002040403D007F1028440000417F40007C89
:10032000047804787C080404783844444438FC1881
:1003300024241818242418FC7C0804040848545465
:10034000542404043F44243C4040207C1C20402092
:100350001C3C4030403C44281028444C9090907CF9
:100360004464544C4400083641000000770000000B
:100370004136080002010204023C2623263C1EA14D
:10038000A161123A4040207A3854545559215555AC
:10039000794122545478422155547840205455795B
:1003A000400C1E52721239555555593954545459EE
:1003B00039555454580000457C410002457D4200A7
:1003C00001457C407D1211127DF0282528F07C54D7
:1003D0005545002054547C547C0A097F49324949D0
:1003E00049323A4444443A324A4848303A41412139
:1003F0007A3A42402078009DA0A07D3D4242423D95
:100400003D4040403D3C24FF2424487E4943662B28
:100410002FFC2F2BFF0929F620C0887E09032054CA
:100420005479410000447D413048484A32384040C8
:10043000227A007A0A0A727D0D19317D2629292F28
:1004400028262929292630484D4020380808080840
:1004500008080808382F10C8ACBA2F102834FA0042
:10046000007B000008142A142222142A14085500C4
:10047000550055AA55AA55AAFF55FF55FF00000083
:10048000FF00101010FF00141414FF001010FF00E4
:10049000FF1010F010F0141414FC001414F700FFF7
:1004A0000000FF00FF1414F404FC141417101F10B4
:1004B000101F101F1414141F00101010F000000063
:1004C000001F101010101F10101010F0100000006E
:1004D000FF101010101010101010FF10000000FF7F
:1004E000140000FF00FF00001F10170000FC04F4C0
:1004F00014141710171414F404F40000FF00F71478
:10050000141414141414F700F714141417141010FE
:100510001F101F141414F4141010F010F000001F1A
:10052000101F0000001F14000000FC140000F01059
:10053000F01010FF10FF141414FF141010101F00FF
:10054000000000F010FFFFFFFFFFF0F0F0F0F0FF01
:10055000FFFF0000000000FFFF0F0F0F0F0F3844D8
:10056000443844FC4A4A4A347E02020606027E02AD
:100570007E0263554941633844443C04407E201E5A
:100580002006027E020299A5E7A5991C2A492A1C89
:100590004C7201724C304A4D4D303048784830BC76
:1005A000625A463D3E494949007E0101017E2A2AA0
:1005B0002A2A2A44445F444440514A444040444A21
:1005C00051400000FF0103E080FF000008086B6B52
:1005D000083612362436060F090F060000181800D8
:1005E00000001010003040FF0101001F01011E003B
:1005F000191D1712003C3C3C3C00000000000000AC
:100600002100240027002A002D00300033000101C2
:100610000000040107010A0100000A0B02090C0D89
:100620000E080703040100000000000000000000A5
:1006300000000000000000000000000000000000BA
:100640000000000012111000000000000000000077
:100650000000000000000000000000000000110089
:100660007F96290001007F9628003A0155C00210AC
:1006700010C10141C50400228040360168B001006C
:10068000B102B011B40102B60302023BB701C63A8F
:100690000155F704A9512C82C0020D0DC10243007F
:1006A000C20100C50400480048B40100B6030202BC
:1006B0003BE00F0F211C0B0E084998380911031459
:1006C0001000E10F0F2F2B0C0E0647763707110491
:1006D000231E00B00100B30402000000B40100D0EA
:1006E00003074218D103000710D2020102D302010E
:1006F00002D4020102C005123B000211C103101016
:1007000088C50103C60102C80C00323645061637FB
:100710007577540C00CC0100F603010100CF0300F3
:100720008130ED0464031281E803851078CB05392C
:100730002C003402F70120EA020000B00100B102EF
:10074000001BB40100C00121C10111C5023F3CC71B
:1007500001B5360148F20100260101E00F0F262401
:100760000B0E0954A8460C17090F0700E10F0019DA
:100770001B0410072A473903060630380F360100DC
:10078000B80101C0010EB00100C10410100202C086
:1007900006003500000102C50104D2020104CA01AD
:1007A00000EA0180B903FF83577F967F96B6012543
:1007B000C0065050013C1E08B4070240002A2A0D12
:1007C000787F01F20B1616030808080810041616A5
:1007D000FD03110235B2050C0C003333B70135BBF4
:1007E000012BC00104C20201FFC30111C40120C6D4
:1007F000010FD002A4A1E00ED000050E150D374365
:10080000470915121619E10ED000050D0C062D44EE
:10081000400E1C1816193A01557F0AB00103E20177
:100820003FC00122E20100B00100C0010AB0010096
:1008300000000000000000000000000000000000B8
:10084000FFFF0F0000040062080008080003000C0E
:1008500001030B5A020306090303171004030023C4
:1008600005030017060309630703090C08030C10AE
:1008700009033222100016001100010112000000CD
:100880001300010000013003010137020301000DD4
:10089000800200610201B0C1FFFF320001000001CF
:1008A0000200000103003010090001000C000000EC
:1008B000900000800F000000100200001102EF0005
:1008C0001202000013028F01000500000105000064
:1008D00002055F000104010004040000FFFF320074
:1008E00007000001FFFF32000002000001020000CB
:1008F00000000000000000000000000000000100F7
:10090000A4000100FFFF0A0060000027080008089B
:100910003000140231001537320004063300160E81
:100920003400112235000015360007853700071402
:100930003800031439002000900015001000100446
:1009400011003702290046002A0046000700000077
:100950001200890113000011FFFF96001200B90177
:100960000100000102000002030030100900010034
:100970000A0000000D0000000E00300061000100C0
:100980006A000000800000008100000082005F001B
:100990009200000193000107FFFF500007000001D3
:1009A000E500F078010000010200000203003010B1
:1009B0000400000005000000080007020900000014
:1009C0000A0000000C0000000D0000000F000000F5
:1009D00010000000110007001200000013000000CA
:1009E00007000100FFFFC800100090161100270249
:1009F000FFFF320012000D00FFFF32001300001253
:100A000029000A002B000D00FFFF3200200000002B
:100A10002100000030000000310004043200030017
:100A200035000504360008083700070438000303C2
:100A3000390007073C0004053D0008086000002756
:100A4000610001006A0000008000000081000000D9
:100A50008200000083000000840000008500000088
:100A6000900010009200000007003301E5000080B4
:100A70000000010001000001020000070300301027
:100A80000400000008000202090000000A00000043
:100A90000C0000000D0000000F000000100000001E
:100AA000110007001200000013000000FFFF3200D9
:100AB0001000B01711000700FFFF0A0012003A01F2
:100AC000FFFF0A001300001A29000C00FFFF0A00B4
:100AD000300000003100050532000400350006003A
:100AE0003600070737000501380002003900070704
:100AF0003C0004073D000708600000A761000100FA
:100B00006A000000210000002000000080000000BA
:100B100081000000820000008300000084000000CB
:100B20008500000090001000920000009300030078
:100B30009500100197000000980000000700730165
:100B4000FFFF3200FF000100F30008000000010079
:100B5000010000010200000703003010080002033A
:100B60000900000010000000110007001200000042
:100B700013000000FFFF32001000B014FFFF0A0056
:100B800011000700FFFF0A0012008E001300000C86
:100B900029001500FFFF0A003000000031000701A6
:100BA0003200000035000302360002043700000066
:100BB00038000702390000003C0003023D00030436
:100BC000600000A7610001009000290007003301C8
:100BD000FFFF3200150030009A00100011002000C5
:100BE000100028341200020013003810FFFF280004
:100BF00012001200FFFF28001000203413004530BF
:100C0000FFFF4600300000003100020432000703FD
:100C100033000403340004003500010436000707E4
:100C200037000503380010063900100601000001E6
:100C30000200000303003010080008080A00080042
:100C4000600000276100010090003E019200000159
:100C500093000001A0000030A30010000700010075
:100C600007002100070023000700330007003301BD
:100C700011001A001200213113006C0014004942C7
:100C800010000008FFFF0A0011001A01FFFF0A0010
:100C900011001A03FFFF0A0011001A07FFFF0A00E4
:100CA00011001A0FFFFF0A0011003A0FFFFF1E008C
:100CB000010028010200000103003010070012109B
:100CC000080003030B0000110C0000000F000118C6
:100CD00015002000500001015100030652000804D5
:100CE0005300000054000506550006045600030397
:100CF00057000303580010005900001007001200AD
:100D0000FFFF280007001300070017002D20496E81
:100D1000697420746F7563682068616E646C6572B5
:100D2000205B25735D204F4B0A002D20496E6974AE
:100D300020646973706C61792068616E646C65729F
:100D4000205B25735D204F4B0A00475549736C6942
:100D500063652076657273696F6E205B25735D3AFB
:100D60000A0000002200250028002B002E00310080
:100D7000340002010000050108010B0101021020EE
:100D800020080810204010204080020102010804C1
:100D90000201010204081020408080402010080455
:100DA00002018004020180402010080402010804AE
:100DB00002010102040810204080010204081020F2
:100DC000408005050505070508080808020202021B
:100DD0000A0A0808040404040101010101010101D7
:100DE0000303030303030303040707070C0C0C0CA2
:100DF0000C0C0C0C0202020206060606060606068B
:100E00000B0B0B0B0B0B0B0BF82911241FBECFEF99
:100E1000D1E2DEBFCDBF00E00CBF12E0A0E0B2E047
:100E2000E2E5FAE700E00BBF02C007900D92A63999
:100E3000B107D9F724E0A6E9B2E001C01D92A33EB4
:100E4000B207E1F717E0C5E0D7E000E006C0219760
:100E50000109802FFE010E941B3DC430D10780E0B4
:100E60000807A9F70E946F2A0C94273DC9C8E3EC34
:100E7000F3E0A089B18982E08C93A485B5851C92AA
:100E8000A685B7858FEC8C93108EA489B58986E0F2
:100E90008C93A289B3898C9180618C93A289B38948
:100EA0008C9188608C93A289B3898C9180688C9393
:100EB0000288F389E02D80818F7D808308952091C1
:100EC000A40330E06091A2037091A30390E08CE151
:100ED000492F092E000C550B4217530724F0F0E060
:100EE000E0E0CF010895FB019802E00DF11D11240F
:100EF00042895389452BA9F39F5FEACFFC01A0915A
:100F00009503B0919603892BD1F42091260330915B
:100F10002703809128039091290314961C921E9216
:100F2000139716961C921E92159718963C932E9323
:100F300017971A969C938E93199781E0089598E0DD
:100F4000139601900D929A95E1F7F7CF1092B403A2
:100F500088E0E0E0F2E0A5EBB3E001900D928A9525
:100F6000E1F70895CF92DF92EF92FF920F931F93D4
:100F70002FB7F894C0902103D0902203E090230370
:100F8000F09024032FBF6C0D7D1D8E1D9F1D4FB74C
:100F9000F8940091210310912203209123033091B2
:100FA00024034FBF0C151D052E053F0528F06017C3
:100FB00071078207930758F71F910F91FF90EF90E9
:100FC000DF90CF9008952091C7043091C804009716
:100FD00089F0232B51F42091BC043091BD042A5F89
:100FE0003F4F3093BD042093BC049093C80480937A
:100FF000C7040895232BC9F32091BC043091BD048C
:1010000026503109EECF2F923F924F925F926F920E
:101010007F928F929F92AF92BF92CF92DF92EF9288
:10102000FF920F931F93CF93DF93CDB7DEB76D97EA
:101030000FB6F894DEBF0FBECDBF7A8769875C8795
:101040004B873E872D87188B0F87FB0111821082FB
:10105000FA0111821082F80111821082F9011182C5
:101060001082C090B604D090B7042091B80430919B
:10107000B9043C8F2B8F2090C7043090C804309166
:10108000C5043C83F090C2042F2D30E0388F2F8BA5
:1010900046E0F49E900111243E832D83E090C3042A
:1010A000E8E0EE9E5001112491012C5F3F4F3A8BF6
:1010B000298B2F5F3F4F3C8B2B8B235031093A8F6D
:1010C000298F2C5F3F4F3B832A8398878F8386012C
:1010D00044244A94542CAFEFBFEF70E060E050E03E
:1010E00040E0EF81F8858191F887EF83882309F448
:1010F000C7C02114310409F48EC08A3041F4EA815A
:10110000FB8184918E9D600D711D1124E8CF8D307F
:1011100041F3E989FA899491EB89FC899490282F0D
:10112000082E000C330B9217130609F0D4F6921612
:101130001306BCF2E98DFA8D25913491891BF7E0F5
:101140008F9F200D311D1124F901329684918983DE
:10115000319694919D8B319684918E8B31968491AA
:101160002A5F3F4FF901F491FD8F2C812223F1F08A
:101170003981632E712C680E711C87FD7A942F893A
:10118000388D629E4001639E900C729E900C1124DB
:10119000840E951EC814D9044CF4EA81FB81949105
:1011A0009E9D600D711D112450E040E02F2D382FC1
:1011B0003203C0011124840F951F2E2D3D8D320363
:1011C000F00111249F01260F371F801791070CF49F
:1011D0008C01EB8DFC8D2E173F0714F43C8F2B8F69
:1011E000F981FF9D800D911D11240197A817B90762
:1011F0000CF4DC018D898E9D200D311D11242150B0
:101200003109421653060CF429019E899F9D400D19
:10121000511D112466CF8A3019F46A0D7B1D5FCFF2
:101220008D3009F45ECF2C81222359F08D819E816F
:10123000840F951FC816D90624F46A0D7B1D50E053
:1012400040E02D813E81240F351FC9010197A81769
:10125000B9070CF4DC01C501860F971F01974816EA
:1012600059060CF42C01401751070CF48A018B8DA0
:101270009C8D6817790714F47C8F6B8FA90131CF8F
:10128000A017B1075CF0E985FA8511830083A01BE4
:10129000B10B1196ED85FE85B183A0832B8D3C8D1E
:1012A000421653066CF0EB85FC8531832083421A8D
:1012B000530AFFEF4F1A5F0AEF85F8895182408287
:1012C0006D960FB6F894DEBF0FBECDBFDF91CF9104
:1012D0001F910F91FF90EF90DF90CF90BF90AF9054
:1012E0009F908F907F906F905F904F903F902F9046
:1012F00008950895AF92BF92CF92DF92EF92FF923E
:101300000F931F93CF93DF936C017B018B01040F2D
:10131000151FEB015E01AE18BF08C017D10759F0C9
:101320006991D601ED91FC910190F081E02DC6010B
:101330001995892B79F7C501DF91CF911F910F91F5
:10134000FF90EF90DF90CF90BF90AF900895FC0199
:10135000538D448D252F30E0842F90E0821B930B1A
:10136000541710F0CF96089501970895FC01918DC0
:10137000828D981761F0A28DAE0FBF2FB11D5D96C3
:101380008C91928D9F5F9F73928F90E008958FEF65
:101390009FEF0895FC01918D828D981731F0828D19
:1013A000E80FF11D858D90E008958FEF9FEF089570
:1013B000FC01918D228D892F90E0805C9F4F821BD4
:1013C00091098F739927089583EC93E0F1DF21E071
:1013D000892B09F420E0822F0895FC01A48DA80F29
:1013E000B92FB11DA35ABF4F2C91848D90E0019667
:1013F0008F739927848FA689B7892C93A089B18987
:101400008C91837080648C93938D848D981306C027
:101410000288F389E02D80818F7D80830895EF928B
:10142000FF920F931F93CF93DF93EC0181E0888F9E
:101430009B8D8C8D98131AC0E889F989808185FF6E
:1014400015C09FB7F894EE89FF896083E889F98910
:1014500080818370806480839FBF81E090E0DF9112
:10146000CF911F910F91FF90EF900895F62E0B8D65
:1014700010E00F5F1F4F0F731127E02E8C8D8E1120
:101480000BC00FB607FCFACFE889F989808185FF88
:10149000F5CFCE01A2DFF2CFEB8DEC0FFD2FF11DCA
:1014A000E35AFF4FF0829FB7F8940B8FEA89FB89CC
:1014B00080818062D0CFCF93DF93EC01888D882329
:1014C000B1F0AA89BB89E889F9898C9185FD03C0AF
:1014D000808186FD0CC00FB607FCF7CF8C9185FF8D
:1014E000F2CF808185FFEDCFCE0177DFEACFDF91AC
:1014F000CF91089580E090E0892B21F065DF811184
:101500000E94000080E090E0892B49F080E090E0AC
:10151000892B29F00E94000081110E94000080E0C8
:1015200090E0892B49F080E090E0892B29F00E941F
:10153000000081110E94000080E090E0892B49F0BA
:1015400080E090E0892B29F00E94000081110C942A
:10155000000008958150823108F05AC0E82FF0E071
:101560008827EA54F54F8F4F0C941B3DD60ADA0AB0
:10157000C80ACE0AD20A080BDD0AE30AE70AED0A16
:10158000F10AF50AFB0AFF0A080B030B090B0D0B06
:10159000809180008F7780938000089580918000F3
:1015A0008F7DF9CF80918000877FF5CF84B58F77CD
:1015B00084BD089584B58F7DFBCF8091B0008F7777
:1015C0008093B00008958091B0008F7DF9CF809115
:1015D00090008F77809390000895809190008F7D88
:1015E000F9CF80919000877FF5CF8091A0008F7711
:1015F0008093A00008958091A0008F7DF9CF809105
:10160000A000877FF5CF809120018F778093200104
:101610000895809120018F7DF9CF80912001877FEF
:10162000F5CF1F93CF93DF93282F30E0F901E85EC9
:10163000F94F8491F901E458F24FD491F901EE5336
:10164000F24FC491CC23A1F0162F811183DFEC2F30
:10165000F0E0EE0FFF1FEE59F24FA591B4918FB756
:10166000F894EC91111108C0D095DE23DC938FBF64
:10167000DF91CF911F910895DE2BF8CFCF93DF93A9
:1016800090E0FC01E458F24F24918E53924FFC01FC
:1016900084918823C9F090E0880F991FFC01E250E3
:1016A000FA4FA591B491FC01EE59F24FC591D49136
:1016B00061110DC09FB7F8948C91209582238C9373
:1016C0008881282328839FBFDF91CF9108956230BE
:1016D00051F49FB7F8943C91822F809583238C938B
:1016E000E8812E2BEFCF8FB7F894EC912E2B2C9313
:1016F0008FBFEACF863308F0865320917B00982F66
:101700009870277F922B90937B00877080648093E2
:101710007C0080917A00806480937A0080917A00C6
:1017200086FDFCCF809178009091790008953FB7B5
:10173000F8948091970290919802A0919902B091AB
:101740009A0226B5A89B05C02F3F19F00196A11D4E
:10175000B11D3FBFBA2FA92F982F8827BC01CD01FB
:10176000620F711D811D911D42E0660F771F881F5A
:10177000991F4A95D1F708958F929F92AF92BF9289
:10178000CF92DF92EF92FF926B017C01D0DF4B0191
:101790005C01C114D104E104F104B1F0C8DF68199F
:1017A00079098A099B09683E73408105910588F390
:1017B00021E0C21AD108E108F10888EE880E83E022
:1017C000981EA11CB11CE5CFFF90EF90DF90CF9049
:1017D000BF90AF909F908F9008958B988A9820919A
:1017E0000201277820930201A5982EB1277C2EB9FB
:1017F00070910201292F30E0F901A5E0EE0FFF1FE3
:10180000AA95E1F7E076E72BE09302017EB1F901BA
:10181000EE0FFF1FEE0FFF1FE073E72BEEB974B35F
:10182000F901EE0FFF1FE072E72BE4BB7EB1F90177
:10183000F595E795F595E795E870E72BEEB970918A
:101840000201E3E035952795EA95E1F72871272B0A
:10185000209302018998899A209102012778209388
:101860000201A5982EB1277C2EB9709102019C012E
:10187000F5E0880F991FFA95E1F78076872B809322
:1018800002017EB1C901880F991F880F991F8073CB
:10189000872B8EB974B3C901880F991F8072872B6B
:1018A00084BB7EB1C901959587959595879588707C
:1018B000872B8EB980910201F3E035952795FA9533
:1018C000E1F72871282B209302018998899A8A9A36
:1018D000FA01615008F43EC081919091020197781D
:1018E00090930201A5989EB1977C9EB94091020108
:1018F00090E09C0155E0220F331F5A95E1F72076C6
:10190000242B209302014EB19C01220F331F220F82
:10191000331F2073242B2EB944B39C01220F331F95
:101920002072242B24BB4EB19C013595279535950B
:1019300027952870242B2EB92091020133E095952C
:1019400087953A95E1F78871822B809302018998F7
:10195000899ABFCF8B9A0895DF92EF92FF920F93EF
:101960001F93CF93DF93CDB7DEB768970FB6F89488
:10197000DEBF0FBECDBF7C018B01F7018491319694
:10198000D490F2E0EF0EF11C8F3779F0DE01119662
:1019900030E020E0AD012D1520F5F701E20FF31F37
:1019A000E491ED932F5F3F4FF6CF6D2D70E090E007
:1019B00080E0E2DED12CED2DF0E032960E1B1F0B05
:1019C00010161106D4F268960FB6F894DEBF0FBE5B
:1019D000CDBFDF91CF911F910F91FF90EF90DF90DE
:1019E0000895ED0CF11C6D2D90E0F7DEE4CF8B989F
:1019F0008A98E2E0F1E0208127782083A5982EB133
:101A0000277C2EB9A081292F30E0A901B5E0440F31
:101A1000551FBA95E1F740764A2B4083AEB1A90134
:101A2000440F551F440F551F40734A2B4EB9A4B3A2
:101A3000A901440F551F40724A2B44BBAEB1A90106
:101A4000559547955595479548704A2B4EB9408115
:101A500053E0359527955A95E1F72871242B20837B
:101A60008998899A208127782083A5982EB1277C90
:101A70002EB940819C01A5E0880F991FAA95E1F736
:101A80008076842B80834EB1C901880F991F880FFF
:101A9000991F8073842B8EB944B3C901880F991F95
:101AA0008072842B84BB4EB1C9019595879595951D
:101AB00087958870842B8EB98081B3E03595279502
:101AC000BA95E1F72871282B20838998899A8A9AF8
:101AD000808187788083A5988EB1877C8EB940817C
:101AE000872F90E09C0155E0220F331F5A95E1F7B4
:101AF0002076242B20834EB19C01220F331F220F0E
:101B0000331F2073242B2EB944B39C01220F331FA3
:101B10002072242B24BB4EB19C0135952795359519
:101B200027952870242B2EB92081A3E095958795C1
:101B3000AA95E1F78871822B80838998899A8081A0
:101B400087788083A5988EB1877C8EB94081CB0140
:101B50009B01B5E0220F331FBA95E1F72076242BC5
:101B600020834EB19B01220F331F220F331F20739E
:101B7000242B2EB944B39B01220F331F2072242B38
:101B800024BB4EB19C013595279535952795287036
:101B9000242B2EB92081A3E095958795AA95E1F78E
:101BA0008871822B80838998899A8B9A089581E025
:101BB00080932503E1E0F1E08081886780839D9A2E
:101BC0008DB188638DB9809A819A829A839A849A1A
:101BD0008B9A889A899A8C9A62E370E080E090E010
:101BE000CBDD8C9864E670E080E090E0C5DD8C9AF7
:101BF00064E670E080E090E0BFDD70E060E080EBE4
:101C000090E0F5CEEF92FF920F931F93CF93DF9367
:101C1000EC01E62E80912503811101C0C8DF8B986D
:101C20008A9880910201877880930201A5988EB1ED
:101C3000877C8EB980910201809302018EB18EB9AA
:101C400084B384BB8EB18EB980910201809302016E
:101C50008998899A80910201877880930201A598DA
:101C60008EB1877C8EB920910201CE0115E0880FDC
:101C7000991F1A95E1F78076822B809302012EB18D
:101C8000CE01880F991F880F991F8073822B8EB900
:101C900024B3CE01880F991F8072822B84BB2EB192
:101CA000CE0195958795959587958870822B8EB9ED
:101CB0008091020153E0D595C7955A95E1F7C87117
:101CC000C82BC09302018998899A8A9A8091010150
:101CD0008778809301019D988DB1877C8DB961E0F3
:101CE00070E080E090E048DD61E070E080E090E04E
:101CF00043DD889A889888988898D09100011CB113
:101D000002B3CCB1F0900001889A61E070E080E00D
:101D100090E032DD889A88988898889840910001F0
:101D20005CB1E2B39CB1F0910001889AEA946FEF44
:101D3000E612DACF889A8B9A8091010188678093A6
:101D400001019D9A8DB188638DB984E0C89F90018F
:101D500011242072332788E0F89EB0011124607CA2
:101D60007727262B602F70E0759567956071772730
:101D7000262B612F70E075956795759567956C704A
:101D80007727262B6D2F70E0B5E075956795BA958E
:101D9000E1F763707727262B64E0969FC00111243A
:101DA000807298E0F99FB0011124607C862BE69543
:101DB000E0718E2B569556955C70852B50E0C5E0F2
:101DC00055954795CA95E1F74370842B922FDF9183
:101DD000CF911F910F91FF90EF9008950F931F9354
:101DE000CF93DF938C0160E00DDFEC0161E0C8016F
:101DF00009DF8C01BE0190E080E0CB0177276627E8
:101E000030E020E0602B712B822B932BDF91CF9160
:101E10001F910F910895FF920F931F93CF93DF931C
:101E20008C0160E0EFDEEC0161E0C801EBDEF82E32
:101E300062E0C801E7DEAE0170E060E0742F662763
:101E40005527442700E030E020E0402B5F29622B3B
:101E5000732B292F30E0C901B0E0A0E08A019B017B
:101E6000082B192B2A2B3B2BC901B801DF91CF91ED
:101E70001F910F91FF9008950F931F93CF93DF93BE
:101E8000EC018B01FE0185919491FE01329624961E
:101E9000659174918F3F980769F490E080E06CDC65
:101EA00004501109101611066CF3DF91CF911F91A8
:101EB0000F9108959CDDF4CFFC01262F358D868D82
:101EC00082958170982F9627692F70E072A361A385
:101ED00030FF0BC0821306C080E290E050E040E08B
:101EE00060E07BCC81E290E0F9CF878D90A18339CF
:101EF00027E7920741F058F4843521E0920791F0EA
:101F000080329445B9F4626081E094E012C0863278
:101F100023E99207C1F3893025EB9207A1F38532BB
:101F2000924941F4660F771F660F771F636187E060
:101F300090E05DCD81E690E0FCCF8F929F92AF92D2
:101F4000BF92CF92DF92EF92FF920F931F93CF93A6
:101F5000DF9300D01F92CDB7DEB77C014B015A0151
:101F60006901FC01878D90A18732F3E99F0709F091
:101F70003EC0F7018689823089F5F0E2AF0EB11CD0
:101F8000005E1F4FF701858D80FF48C085A59982AF
:101F90008A82DB82CC82AE014F5F5F4F64E090E0CB
:101FA0001CDCF70181A9B982AA821B830C83AE01D4
:101FB0004F5F5F4F64E090E010DC0F900F900F9048
:101FC0000F90DF91CF911F910F91FF90EF90DF90D5
:101FD000CF90BF90AF909F908F900895833091F6EF
:101FE00020E2820E911C80E2C80ED11CCBCF86323B
:101FF000954141F6F701868980FFC4CFC801841B53
:10200000950B19F40F5F1F4FBDCF6217730709F0CF
:10201000B9CF6B01C80ED91E8A01B4CFB40187A114
:1020200090A5E5DCB501F70181A592A5E0DCC81417
:10203000D90421F40A151B0509F4BFCFF701858DDA
:1020400085FF08C0868980FF1AC0102F0027A02AAC
:10205000B12A8501B401F70185A596A5C8DCB501B3
:10206000F70181A992A9C3DCB601F70187A590A960
:10207000BEDCB801F70183A994A9B9DC9ECFDC2CA2
:10208000CC248C289D286401E5CFAF92BF92CF92DB
:10209000DF92EF92FF920F931F93CF93DF93EC01A8
:1020A00080919D02882349F0C701880F991F8E7384
:1020B0009927E1ECEE22E82AF92A37FF05C0620FE2
:1020C000731F319521953109260F371F77FF02C005
:1020D00070E060E088859985281739070CF4C901FC
:1020E0006C01C61AD70A17FF05C0400F511F119582
:1020F00001951109040F151F57FF02C050E040E081
:102100002A853B85021713070CF498015901A41A7C
:10211000B50A8901015011099C0121503109CE01F4
:102120000CDF8B988A985BA54CA58091020187787B
:1021300080930201A5988EB1877C8EB960910201CF
:10214000842F90E09C01F5E0220F331FFA95E1F710
:102150002076262B209302016EB19C01220F331FA3
:10216000220F331F2073262B2EB964B39C01220F3C
:10217000331F2072262B24BB6EB19C013595279509
:10218000359527952870262B2EB92091020103E062
:10219000959587950A95E1F78871822B80930201C6
:1021A0008998899A80910201877880930201A59885
:1021B0008EB1877C8EB960910201852F942F9C018E
:1021C00045E0220F331F4A95E1F72076262B209316
:1021D00002014EB19C01220F331F220F331F2073C7
:1021E000242B2EB944B39C01220F331F2072242BC1
:1021F00024BB4EB19C0135952795359527952870C0
:10220000242B2EB920910201E3E095958795EA955C
:10221000E1F78871822B809302018998899A8A9AC2
:10222000CA14DB042CF09A2D8B2D5601C92ED82E02
:102230008F2D99279C0145E0220F331F4A95E1F726
:102240002076AC01440F551F440F551F342F3073B7
:10225000AC01440F551F4072BC017595679575958B
:102260006795562F5870F3E095958795FA95E1F7A5
:102270008871B701A5E0660F771FAA95E1F7962F41
:102280009076B701660F771F660F771F6073F701AF
:10229000EE0FFF1F7E2F7072D701B595A795B595EC
:1022A000A795A870E3E0F594E794EA95E1F7EE2DA1
:1022B000E871EE2E1C141D040CF043C0F501B09122
:1022C0000201B778B0930201A598BEB1B77CBEB940
:1022D000B0910201B22BB0930201BEB1B32BBEB9D3
:1022E000B4B3B42BB4BBBEB1B52BBEB9B09102012F
:1022F000B82BB09302018998899AB0910201B778FE
:10230000B0930201A598BEB1B77CBEB9B0910201ED
:10231000B92BB0930201BEB1B62BBEB9B4B3B72B83
:10232000B4BBBEB1BA2BBEB9B0910201BE29B09305
:1023300002018998899A319711F6E1E0CE1AD10805
:10234000B9CF8B9A8D8D80FF08C08F8D98A1863272
:10235000954189F48E8980FF0EC00A851B85015046
:102360001109288539852150310950E040E070E09D
:1023700060E0CE01E2DDDF91CF911F910F91FF90E0
:10238000EF90DF90CF90BF90AF900895EF92FF92C3
:102390000F931F93CF93DF937C01E90177FD28C052
:1023A00057FD26C0FC01808591856817790704F5E3
:1023B0008285938548175907DCF480919D02882314
:1023C00041F0C901880F991F8E739927C17CC82BD2
:1023D000D92B8A019B01C701B0DDBE01F70183A59E
:1023E00094A5DF91CF911F910F91FF90EF90FFCABD
:1023F000DF91CF911F910F91FF90EF900895EF9291
:10240000FF920F931F93CF93DF9300D000D000D0A3
:102410001F92CDB7DEB77C01862F8370F701868BC4
:10242000962F917060FFEBC026813781F7013187CD
:102430002087992309F4E6C024813581F701338789
:102440002287823009F4E3C0833009F4E2C081308E
:1024500009F4DBC088E48A87F701258D368D30FFCB
:1024600003C08A8580588A8731FF04C08A8590E43A
:1024700089278A8733FF04C08A8598E089278A875D
:10248000F701878D90A120FFF4C08431F8E69F0703
:1024900009F0C1C09A85892F88728A871F82892F87
:1024A00085958074282F2260892F90E095958795D7
:1024B00080729927822B88878BE38987AE01495FD9
:1024C0005F4F63E086EB90E088D92AE230E0F701C5
:1024D00030A727A38BE290E092A781A74CE250E0BF
:1024E00054A743A736A725A730AB27A792AB81AB4C
:1024F00094AB83ABAE01465F5F4F61E086E390E053
:102500006CD98A8590E0F70194A383A3F7018689AB
:1025100080FF1CC0858D968D92FD18C087A190A567
:1025200021A532A530A727A392A781A785A596A5A7
:1025300021A932A936A725A792AB81AB87A590A97F
:1025400023A934A930AB27A794AB83ABF70102854D
:10255000138501501109208531852150310950E042
:1025600040E070E060E0C701E8DCF7016681778158
:10257000878D90A110E000E020E08732F3E99F070B
:1025800069F4F7012689225010E000E0223010F4AF
:1025900000E210E020E230E0201B310BF701458D16
:1025A00040FF20C119820A837B836C831D822E83A6
:1025B000AE014F5F5F4F66E083E390E00ED9198272
:1025C0000A83AE014F5F5F4F62E087E390E005D979
:1025D000F701858D80FF06C050E040E060E083E1B8
:1025E00090E0FBD82A960FB6F894DEBF0FBECDBFA1
:1025F000DF91CF911F910F91FF90EF90089524816B
:10260000358114CF2681378119CF88E224CF88E91C
:1026100022CF88EF20CF833629E1920749F0813815
:1026200034E9930729F08131E5E19E0709F04DCFA8
:102630002A8527FF02C021602A872A8526FF02C03B
:1026400022602A878336F9E19F0721F48A858F73F8
:102650008A873BCF813824E9920719F48A858F72E3
:10266000F7CF8131954109F030CF8A858F7E806C1C
:10267000EFCF2A85622F022E000C770B8339F7E704
:102680009F0761F008F041C08435E1E09E0709F43E
:1026900068C08032F4E59F0709F040C020E032E0D6
:1026A000F70130A727A321E032E032A721A722E0DB
:1026B00032E034A723A720E132E036A725A721E1A5
:1026C00032E030AB27A722E132E032AB21AB23E18D
:1026D00032E034AB23AB662770788632F3E99F078C
:1026E00009F47DC08032944509F479C080E09AE60F
:1026F000682B792B80E094E07AD96A85F4E06F9FAB
:10270000B00111246627717054C0863223E9920704
:1027100029F2893035EB930709F4C0CF80E290E0CD
:10272000F70190A787A381E290E092A781A782E2B8
:1027300090E094A783A780E590E096A785A781E520
:1027400090E090AB87A782E590E092AB81AB83E508
:1027500090E094AB83AB66277078776280E690E078
:10276000CBCF87E390E0F70196A785A786E390E0BB
:1027700090AB87A789E390E092AB81AB88E390E0D0
:1027800094AB83AB80E290E090A787A381E290E0D6
:1027900092A781A782E290E094A783A76627727030
:1027A0006862F4E02F9FC001112488279170682B84
:1027B000792B81E090E01BD98A85682F70E07595B0
:1027C0006795759567956870772783FD706160637D
:1027D000F70174A363A383E090E009D997CE80E06A
:1027E00095E386CF8339F7E79F07B9F1E0F48032AC
:1027F00034E5930791F18338E7E79E0721F18435AB
:102800009140E1F4600F711F6150710981E390E024
:10281000EED8B80182E390E0EAD870E060E083E3AC
:1028200090E0E5D8DFCE863223E99207B1F0893017
:1028300035EB930791F08532924921F3F70161A1BD
:1028400072A1626003C0F70161A172A181E690E00C
:10285000CED8B8018AE690E0E4CFF70161A172A179
:10286000626081E094E0C3D8B80184E094E0D9CFFD
:10287000EF92FF920F931F93DC011A960D911C911A
:102880001B9718962D913C911997ED91FC9100A002
:10289000F1A1E02D7B0150E040E070E060E019958F
:1028A0001F910F91FF90EF900895EF92FF920F9379
:1028B0001F93DC01ED91FC9100A0F1A1E02D7801C6
:1028C00001E010E019951F910F91FF90EF9008958E
:1028D000EF92FF920F931F93DC01ED91FC9100A00A
:1028E000F1A1E02D7801890121E030E019951F91D7
:1028F0000F91FF90EF9008950895FC016370668B2F
:102900008481958126813781613039F0633029F0E7
:10291000918780873387228708953187208793871F
:10292000828708952F923F924F925F926F927F928B
:102930008F929F92AF92BF92CF92DF92EF92FF92CF
:102940000F931F93CF93DF93CDB7DEB76A970FB680
:10295000F894DEBF0FBECDBF9A8F898F7A836983CB
:102960004A01D22E18870F833701BC2CDC015996FF
:102970002D913C915A972115310509F015C11896F2
:102980008D919C911997681779070CF0D7C11A9609
:102990008D919C91481759070CF0D0C14C2C512CAB
:1029A000B6E0CB9E600D711D11247C876B871616D7
:1029B00017060CF0C3C1EA2DF0E0FA87E98793E02F
:1029C000EE0FFF1F9A95E1F7F88BEF87CF01840F89
:1029D000951F181619060CF0B1C1A98DBA8D58961D
:1029E0008C91811104C0BFEABD1508F4D394A98D60
:1029F000BA8DED91FC9111970284F385E02DCD0104
:102A00001995B5E0DB9EC0011124E981FA81FC83B0
:102A1000EB83312C212C9C0122503F4F388F2F8B80
:102A20004A2D50E05E8B4D8BEF89F88DE20DF31D42
:102A300044919E828D82D12CC12C69817A81620D54
:102A4000731D7A8B698B842F90E09C8B8B8BE98D27
:102A5000FA8DA081B18140FF82C0F1E0BF126FC04A
:102A6000AF126DC01C96ED91FC912F813885A401A9
:102A70004C0D5D1D69897A89898D9A8D1995EB892F
:102A8000FC89F595E7954E2F5FEFC51AD50A6D8144
:102A90007E818D899E89680F791F7E836D8398E082
:102AA000C916D10481F6AFEF2A1A3A0AEB81FC81EC
:102AB000E40DF51DFC83EB83F5E02F16310409F0DE
:102AC000B3CF2F81388526153705B9F0A98DBA8D7A
:102AD000ED91FC91B1E0BB1257C0AB1255C06981BA
:102AE0007A816B5F7F4F0088F189E02D830128E0B8
:102AF00030E0A401898D9A8D1995A98DBA8DED913B
:102B0000FC9111970688F789E02DCD016A960FB6E2
:102B1000F894DEBF0FBECDBFDF91CF911F910F9113
:102B2000FF90EF90DF90CF90BF90AF909F908F90ED
:102B30007F906F905F904F903F902F9019941E96CA
:102B4000ED91FC91EF80F88409851A8592014D8101
:102B50005E816B817C81898D9A8D199590CF2F81B3
:102B600038852615370509F48ACF31E0B31207C03E
:102B7000A31205C01C96ED91FC91930178CF1E968F
:102B8000ED91FC917301E0CF6B857C85641975092B
:102B90000684F785E02D73010F8518899201A40141
:102BA000898D9A8D1995A9CFF90134969491329710
:102BB00045915491D91AB7E0DB9E400D511D112467
:102BC000F901259134913C8B2B8BFA01259034909F
:102BD000FA013296749031963491398B3296649022
:102BE0003196449041E04C1518F04A1508F07FC02A
:102BF000662D062C000C770B7C836B83842D042CB4
:102C0000000C990B9E838D83A98DBA8DED91FC915B
:102C100011970284F385E02DCD011995512CD12C0B
:102C2000C12CEA2DF0E0FA87E9872B2D30E03C87B4
:102C30002B87A401440D511D47FC5A95588F4F8B8B
:102C400069817A81660D711D67FC7A957E876D8733
:102C50007989C71608F051CF2C2D30E04D815E8167
:102C6000420F531FA985BA854A9FC0014B9F900D03
:102C70005A9F900D1124FC01E80DF91DF88BEF8788
:102C8000852D612C4F89588D420F531F5E8B4D8BC4
:102C9000671408F050C044244394480E877041F4F0
:102CA000C1010196EB89FC89E20DF31DD4901C0152
:102CB000D7FE19C0A98DBA8DED91FC91662D70E0FB
:102CC000B1E0BB1219C0AB1217C02D853E85620F53
:102CD000731F0484F585E02D2F8138854D895E8929
:102CE000898D9A8D1995DD0C6394842DD1CF1E8228
:102CF0001D821C821B8288CF4B815C81640F751FF3
:102D0000AB85BC856A9FC0016B9F900D7A9F900D2B
:102D1000112469817A81680F791F0684F785E02D77
:102D2000EF80F88409851A859D014F855889898D22
:102D30009A8D1995D8CF570CC3948ACF6A960FB63F
:102D4000F894DEBF0FBECDBFDF91CF911F910F91E1
:102D5000FF90EF90DF90CF90BF90AF909F908F90BB
:102D60007F906F905F904F903F902F9008958F923B
:102D70009F92AF92CF92EF92FF920F931F93CF93B8
:102D8000DF93EC01262F898D9A8D009709F050C0B2
:102D90006A30D1F41D861C868D8948E0849F90019D
:102DA00011248E859F85820F931F9F878E8781E0D8
:102DB00090E0DF91CF911F910F91FF90EF90CF9016
:102DC000AF909F908F9008956D3089F3CC88AD8837
:102DD0008F898823C1F08C859D8536E0C39E800D48
:102DE000911D1124488559854817590764F44E856B
:102DF0005F851D861C8638E0A39EC0011124840FC8
:102E0000951F9F878E87EA88FB88088919894E85D8
:102E10005F856C857D85CE0185DD2C898C859D85C2
:102E200046E0249F800D911D11249D878C87BFCF84
:102E30006A3069F41D861C86FC013696E4912D8962
:102E40008E859F85E29F800D911D1124AECF6D3040
:102E500009F4ADCFFC0134963491631708F4A7CF81
:102E60003196E491E61708F4A2CFFC0132968590E2
:102E70009490462F431B342F47E0349F800C911CC5
:102E80001124F401329634913196E4913323A1F167
:102E9000EE2391F1CC88F4013596E491AD884F8909
:102EA000442301F10E2E000CFF0BE30FF11DCE9E0B
:102EB000A001CF9E500D11246C857D85460F571FB4
:102EC00068857985641775076CF44E855F851D8666
:102ED0001C86FC013696E491AE9E400D511D1124D6
:102EE0005F874E87EA88FB88088919894E855F8548
:102EF0006C857D85CE0116DDF4013496E4912C8934
:102F00008C859D85E29F800D911D11248ECF6F923F
:102F10007F928F929F92AF92BF92CF92DF92EF9269
:102F2000FF920F931F93CF93DF93EC016B015A0134
:102F300039014801E881F9810284F385E02D199572
:102F4000E881F9810288F389E02D87019301A501C9
:102F5000B601CE011995A501480D591D41505109E1
:102F6000E881F9810288F389E02D9301B601CE0151
:102F70001995E881F9810088F189E02D9401A50176
:102F8000B601CE011995C60CD71CB6016150710966
:102F9000E881F9810088F189E02D9401A501CE0135
:102FA0001995E881F9810688F789E02DCE01DF9136
:102FB000CF911F910F91FF90EF90DF90CF90BF9036
:102FC000AF909F908F907F906F9019946F927F92A7
:102FD0008F929F92AF92BF92CF92DF92EF92FF9229
:102FE0000F931F93CF93DF935C01EB016A014901BB
:102FF00038018701DC01ED91FC916217730719F527
:10300000641675062CF0962D872D3A01C92ED82E00
:103010009601261937092F5F3F4F048CF58DE02D5F
:10302000A301BE01C5011995DF91CF911F910F91A9
:10303000FF90EF90DF90CF90BF90AF909F908F90D8
:103040007F906F9008954615570591F4261737071E
:1030500024F0892D4B01C22FD82F9E012819390940
:103060002F5F3F4F068CF78DE02DA601B401DACF1C
:103070000284F385E02D1995D501ED91FC9104882A
:10308000F589E02D83019401A601BE01C5011995C2
:10309000D501ED91FC910688F789E02DC501DF91FE
:1030A000CF911F910F91FF90EF90DF90CF90BF9045
:1030B000AF909F908F907F906F901994EF92FF92B6
:1030C0000F931F93DC011A960D911C911B97189674
:1030D0002D913C911997ED91FC9100A0F1A1E02D6B
:1030E0007B0150E040E070E060E019951F910F9186
:1030F000FF90EF9008954F925F926F927F928F9220
:103100009F92AF92BF92CF92DF92EF92FF920F9376
:103110001F93CF93DF936C012B015A0139014801B2
:10312000DC01ED91FC910284F385E02D1995E2011B
:10313000640C751CD601ED91FC91C615D7055CF4A5
:103140000088F189E02D87019401A501BE01C60127
:1031500019952196EFCF0688F789E02DC601DF91FA
:10316000CF911F910F91FF90EF90DF90CF90BF9084
:10317000AF909F908F907F906F905F904F90199439
:103180008F929F92AF92BF92CF92DF92EF92FF9277
:103190000F931F93CF93DF93EC015B014A01690109
:1031A000E881F9810284F385E02D199595012C0DB4
:1031B0003D1D21503109E881F9810488F589E02D10
:1031C00078018401A401B501CE011995E881F98146
:1031D0000688F789E02DCE01DF91CF911F910F91E5
:1031E000FF90EF90DF90CF90BF90AF909F908F9027
:1031F00019948F929F92AF92BF92CF92DF92EF92EB
:10320000FF920F931F93CF93DF93EC015B014A0171
:1032100069017801E881F9810284F385E02D19952F
:10322000C80CD91C860101501109E881F981048874
:10323000F589E02D9501A401B501CE011995E8812C
:10324000F9810688F789E02DCE01DF91CF911F919A
:103250000F91FF90EF90DF90CF90BF90AF909F9035
:103260008F901994EF92FF920F931F93DC01ED91D1
:10327000FC9100A0F1A1E02D19951F910F91FF90F5
:10328000EF9008950F931F93DC01ED91FC91068C54
:10329000F78DE02D19951F910F9108950F931F93AE
:1032A000DC01ED91FC91048CF58DE02D19951F91B9
:1032B0000F9108952F923F924F925F926F927F925B
:1032C0008F929F92AF92BF92CF92DF92EF92FF9236
:1032D0000F931F93CF93DF9300D000D000D01F92A5
:1032E0001F92CDB7DEB73C017E836D835B874A8733
:1032F0002F832801170181E090E06C01C41AD50AE0
:10330000CA019195819591099C01220F331F3A833F
:103310002983C80101969C838B83F12CE12C88249E
:103320008394912C9B012F5F3F4F398728878A8593
:103330009B85E816F9060CF06AC0AA84BB84D7FC0A
:103340000CC05C0191E0A91AB10829813A812E5F75
:103350003F4F3A832983C20ED31E3FEFE31AF30A8D
:1033600082E0880E911CC80CD91CAE14BF0444F432
:103370002A853B852A153B05C9F4BB86AA86D7CF8B
:103380009501220F331F4D815E814A195B098F81A0
:10339000813009F58B819C81280F391F8101B7018C
:1033A000660D771D8EEA94E079DFE2CF9F81913040
:1033B00019F5940122503109240D351D6A857B854C
:1033C000660D771D8101488559854E195F098EEA82
:1033D00094E064DFD2CF8B819C81280F391F81015B
:1033E000B3016E197F098EEA94E058DF2A853B8588
:1033F0002A153B0509F4C1CF940122503109240D4F
:10340000351DB3018A859B85681B790BDBCF2B9615
:103410000FB6F894DEBF0FBECDBFDF91CF911F91E5
:103420000F91FF90EF90DF90CF90BF90AF909F9063
:103430008F907F906F905F904F903F902F90089566
:10344000DC01ED91FC910084F185E02D19942F921F
:103450003F924F925F926F927F928F929F92AF9224
:10346000BF92CF92DF92EF92FF920F931F93CF9371
:10347000DF9300D01F92CDB7DEB76C015B015C8398
:103480004B8381E090E04C01841A950A2A01519403
:1034900041945108440C551CF12CE12C6624639492
:1034A000712C422F44704983522F52705A83822FBD
:1034B0008870282E2170322E4B815C81E416F5062F
:1034C0000CF07BC097FC09C0415051095C834B83D1
:1034D00052E0450E511C840C951C8FEFE81AF80A37
:1034E00092E0690E711C860C971C49814423B1F04F
:1034F00098014B815C814A0D5B1DB6016E0D7F1DED
:103500008EEA94E09DDF9801A5014E0D5F1D6B8151
:103510007C816C0D7D1D8EEA94E092DF5A815523EB
:10352000B9F09801A5018B819C81481B590BB6010C
:103530006E0D7F1D8EEA94E083DF9801A5014E1980
:103540005F096B817C816C0D7D1D8EEA94E078DFD4
:103550002220B9F09801A5014E0D5F1DB6018B81A7
:103560009C81681B790B8EEA94E06ADF98014B819D
:103570005C814A0D5B1DB6016E197F098EEA94E0ED
:103580005FDF332009F498CF9801A5014E195F0938
:10359000B6018B819C81681B790B8EEA94E050DF29
:1035A0009801A5018B819C81481B590BB6016E19AE
:1035B0007F098EEA94E044DF7FCF0F900F900F9049
:1035C0000F90DF91CF911F910F91FF90EF90DF90BF
:1035D000CF90BF90AF909F908F907F906F905F90B3
:1035E0004F903F902F9008952F923F924F925F926D
:1035F0006F927F928F929F92AF92BF92CF92DF9203
:10360000EF92FF920F931F93CF93DF9300D000D0E0
:10361000CDB7DEB73C016A013E832D83FC82EB828D
:103620005801A41AB50AB7FE03C0B194A194B10819
:103630008D809E80861A970A97FE03C0919481948C
:1036400091088A149B045CF0902F812F0D811E81BC
:103650009D838E839C2D8D2D6B01692F782F0C15EA
:103660001D055CF09D818E817E836D83692F782F8F
:10367000902F812F8601C92ED82E1601201A310ACB
:103680002B012D813E81421A530A57FE03C05194EB
:1036900041945108710137FE03C03FEFE31AF30A6A
:1036A000F594E7948D819E81861797075CF5A1E0DC
:1036B000B0E0BA83A983C016D1064CF1D301ED91D5
:1036C000FC910484F585E02D2B813C81A8016D815E
:1036D0007E818A149B041CF04D815E81B801C30178
:1036E0001995E418F508F7FE0AC02D813E818981FD
:1036F0009A81280F391F3E832D83E20CF31C0F5F44
:103700001F4FD9CF2FEF3FEF3A832983D4CF26968F
:103710000FB6F894DEBF0FBECDBFDF91CF911F91E2
:103720000F91FF90EF90DF90CF90BF90AF909F9060
:103730008F907F906F905F904F903F902F90089563
:10374000089590E080E00895272F66956695669528
:1037500070E0762F6627770F770F770F26952695DF
:1037600090E2299F90011124622B732B86958695F8
:1037700086959B01282BC90108952F923F924F9265
:103780006F927F928F929F92AF92BF92CF92DF9271
:10379000EF92FF920F931F93CF93DF9300D000D04F
:1037A0001F921F92CDB7DEB729833A834B835C8388
:1037B0006D837E838F8398871701402E49815A81BC
:1037C000E0919503F0919603C380D4808D809E8014
:1037D00021E0821A9108840E951E8C149D040CF42D
:1037E00044C0E780F08481E0E81AF108EC0CFD1C8D
:1037F000E416F506D4F18B819C81A580B6806F809C
:10380000788421E0621A7108680E791E6A147B04BC
:1038100064F101851285015011090A0D1B1D08175D
:1038200019071CF1C416D5060CF46A01A816B906CE
:103830000CF45C01842DB10187DF601671060CF475
:1038400083010A191B090F5F1F4F97018E149F04F4
:103850000CF494012C193D092F5F3F4F7C01A50109
:10386000B6018EEA94E00E94451081E028960FB6DA
:10387000F894DEBF0FBECDBFDF91CF911F910F91A6
:10388000FF90EF90DF90CF90BF90AF909F908F9080
:103890007F906F904F903F902F9008952F923F927E
:1038A0004F925F926F927F928F929F92AF92BF9250
:1038B000CF92DF92EF92FF920F931F93CF93DF93FC
:1038C000CDB7DEB72D970FB6F894DEBF0FBECDBFD4
:1038D0009F838E8379876887DA01622ECA010296F8
:1038E000222309F4AFC0FA01F4912F2F30E0322FD8
:1038F0002227FA0131964491E42FF0E0FB83EA831A
:103900004A815B81422B532B5D874C879D012C5F45
:103910003F4F662009F49FC0FC01849190E0982FEE
:103920008827FD013396E491F0E0AF01482B592B35
:103930005B834A83A9014F5F5F4FF901662009F459
:1039400093C0F491F983C9010296662009F48EC0F0
:10395000FA015490FC0144901901F4E02F0E311C3F
:103960008C859D85079697FF03C08C859D850E9657
:103970009C0193E0359527959A95E1F73D832C833B
:10398000F12CE12C712CD12CC12C4A815B81C41605
:10399000D5060CF07DC010E000E0C1018E0D9F1D2A
:1039A0009B878A87A884B984AC0CBD1CEC85FD85F7
:1039B0000E171F070CF064C0C80187709927770C99
:1039C000892B71F4F80183E0F595E7958A95E1F785
:1039D000662009F44FC0EE0DFF1DE20DF31D74903B
:1039E00077FE2DC08E809F80800E911EE091950302
:1039F000F0919603238134818216930604F1878126
:103A000090850197820F931F88159905C4F0258131
:103A10003681A216B3069CF0818592850197820FAC
:103A2000931F8A159B055CF06981752D842D8CDEB2
:103A30009C01A501B4018EEA94E00E94C6110F5FBB
:103A40001F4FB4CF2C91298330E0322F22271196BB
:103A50004C91119751CF12968C91129790E0982F1C
:103A600088271396EC9160CFF0816CCFF9015180DB
:103A7000428072CF2A853B85E20FF31F7080B0CF62
:103A80003FEFC31AD30A4C815D81E40EF51E7DCF52
:103A90002D960FB6F894DEBF0FBECDBFDF91CF914C
:103AA0001F910F91FF90EF90DF90CF90BF90AF905C
:103AB0009F908F907F906F905F904F903F902F904E
:103AC00008957F928F929F92AF92BF92CF92DF9292
:103AD000EF92FF920F931F93CF93DF935C014B0103
:103AE000EA01722EF32E8E2DB601E8842DDE6C01D4
:103AF0008E819F810E94E307D092C104C092C004CE
:103B0000D092BF04C092BE04B092BB04A092BA048B
:103B10009092BD048092BC048E2DE11001C081E022
:103B20008093C2048093C304680183E0C822DD242B
:103B3000C72DDF2DE1E0CE16D10479F018811123D5
:103B400079F0612F8EEA94E012D91A3021F4B09204
:103B5000BB04A092BA042196EDCFFE011491EFCFE1
:103B600090E080E00E94E30781E0DF91CF911F9118
:103B70000F91FF90EF90DF90CF90BF90AF909F900C
:103B80008F907F9008950F931F93CF93DF93182FFB
:103B9000062FEA01642F0E943E0B219741F4602F0B
:103BA000812FDF91CF911F910F910C94110BDF9119
:103BB000CF911F910F9108950F931F93CF93DF9390
:103BC000EB01BC016458724FFB01A4919C012E5380
:103BD000324FF901449150E0440F551FFA01E25071
:103BE000FA4F05911491F801B081EB2FEA2371F49B
:103BF000FA01EE59F24F45915491FA014081A42304
:103C000050E040E029F042E050E002C041E050E0E6
:103C100059834883885E994FFC018491FB0104918C
:103C2000F9011491112379F081110E94AA0AE12F60
:103C3000F0E0EE0FFF1FEC51FF4FA591B4916C9196
:103C4000602381E009F480E081708A83DF91CF9165
:103C50001F910F910895CF93DF93FC01892B09F4F5
:103C600059C0128281E398EF9183808384E090E0D1
:103C70009483838389EA94EE96878587DF0115967E
:103C800088E0ED0119928A95E9F7148E138E168E4D
:103C9000158E10A2178E12A211A214A213A216A2A0
:103CA00015A210A617A212A611A680910802909143
:103CB0000902A0910A028787908BA18B828B938B3C
:103CC000A48B858B968BA78B808F918FA28F11AA47
:103CD00010AA16A615A617A682AB93ABA4AB85AB0C
:103CE00096ABA7AB82E280AF11AE12AE14AE13AEAC
:103CF00016AE15AEDF01DF9611961C921E9212963B
:103D000011961C921E9212961D921C92EB5BFF4F15
:103D100011821082DF91CF910895EF92FF920F935D
:103D20001F93CF93DF9300D000D01F921F92CDB787
:103D3000DEB7DC0109831A832B833C834D835E83CA
:103D40006F83788714960D911C91159701151105B5
:103D500031F01696ED91FC9117973097A1F488E019
:103D6000FE01319601900D928A95E1F728960FB6E3
:103D7000F894DEBF0FBECDBFDF91CF911F910F91A1
:103D8000FF90EF90089529813A81EB80FC806D913E
:103D90007C91119712964D915C91139701501109E6
:103DA000060F171F3197E40FF51F261737070CF47E
:103DB000B901E416F5060CF4A7018D819E810197E7
:103DC000820F931F801791070CF4C8012F8138854B
:103DD000215031092E0D3F1D2E173F070CF49F0176
:103DE00011967C936E9313965C934E931297861B59
:103DF000970B019615969C938E931497241B350B65
:103E00002F5F3F4F17963C932E931697AFCF0F938C
:103E10001F93CF93DF9300D000D01F921F92CDB796
:103E2000DEB728E0FC017496DE01119601900D9238
:103E30002A95E1F78091B4038823C9F009811A819A
:103E40002B813C814D815E816F81788585EB93E08C
:103E500064DF81E08093B40328960FB6F894DEBF48
:103E60000FBECDBFDF91CF911F910F91089588E0D4
:103E7000FE013196A5EBB3E001900D928A95E1F732
:103E8000E8CF0F931F93CF93DF93C091A803D091F6
:103E9000A90309E414EF209711F00A891B890E94F5
:103EA0005F070097F9F09093A9038093A803012B73
:103EB00019F081E08093B203209711F0CE01A7DFC3
:103EC0008091A8039091A903009709F0A0DF809149
:103ED000AA039091AB03009729F0DF91CF911F9136
:103EE0000F9195CFDF91CF911F910F9108952F9250
:103EF0003F924F925F926F927F928F929F92AF927A
:103F0000BF92CF92DF92EF92FF920F931F93CF93C6
:103F1000DF93CDB7DEB72C970FB6F894DEBF0FBE98
:103F2000CDBFFC017C836B835E834D8338872F83F9
:103F30001A870987C080D180A280B3808480958051
:103F400021E0821A91088C0C9D1CE680F78031E0FC
:103F5000E31AF108EA0CFB1C8C149D040CF46AC0F3
:103F60001401DA82C98237012501EA14FB0414F432
:103F70003501270170E060E090E080E0EB81FC819A
:103F800000811181ED81FE810190F081E02DFC879F
:103F9000EB87EF81F88540815181A985BA85ED9144
:103FA000FC9131E00C151D052CF032E080169106D5
:103FB0000CF030E0AB85BC85AA15BB050CF03EC00B
:103FC000346021E04C155D052CF022E08416950646
:103FD0000CF020E0EA15FB05CCF52460A32FA2230A
:103FE00009F0B2C03111232F23FF53C0401B510BE6
:103FF000D3018B859C85A81BB90B4A9FC0014B9FA1
:10400000900D5A9F900D1124BF014B855C85641B58
:10401000750B0E94083DCB01800F911FB301321335
:104020008CC0EB81FC8191838083ED81FE81718363
:104030006083A4CF16019A82898295CFAB85BC8517
:10404000EA16FB060CF0BDCF3860BBCFEE16FF06BC
:1040500014F42860C3CF3111C1CF2111BFCF81E04B
:104060002C960FB6F894DEBF0FBECDBFDF91CF9177
:104070001F910F91FF90EF90DF90CF90BF90AF9086
:104080009F908F907F906F905F904F903F902F9078
:10409000089522FF1AC0401B510BD2018B859C85CD
:1040A000A81BB90B4A9FC0014B9F900D5A9F900DC2
:1040B0001124BF014B855C85641B750B0E94083D74
:1040C000CB01800F911FB201AACF21FF19C08B85B0
:1040D0009C85E81BF90BD101A01BB10BEA9FC00125
:1040E000EB9F900DFA9F900D1124BA01601B710B8C
:1040F0000E94083DEB85FC856E0F7F1FC1018FCFAD
:1041000020FF8DCF8B859C85E81BF90B69817A8117
:10411000601B710BE69FC001E79F900DF69F900D0D
:104120001124BA01601B710B0E94083DEB85FC85D0
:104130006E0F7F1F89819A8172CFEF81F8859183FD
:104140008083E985FA8573CF80E08ACFFC010190F6
:104150000020E9F73197AF01481B590BBC0183ECF4
:1041600093E00C947A098A3049F48EE692E0EEDF0F
:104170008CE692E0EBDF90E080E00895682F83EC1E
:1041800093E00E940F0AF7CF70E060E0009789F09B
:10419000FC016081718182819381837099270297EC
:1041A00041F447E450E084E493E00E94873A64E4F9
:1041B00073E0CB010895009709F0E6CF90E080E02E
:1041C00008950F931F93CF93DF938B01EA01F3DFE1
:1041D000FC01892BE1F0828183FF19C04581568162
:1041E000878190856185728523853485041715073D
:1041F00074F0460F571F4017510748F0C817D907EA
:1042000034F0280F391F81E02C173D0708F480E0B7
:10421000DF91CF911F910F9108952F923F924F926E
:104220005F926F927F928F929F92AF92BF92CF9246
:10423000DF92EF92FF920F931F93CF93DF9300D003
:1042400000D000D01F92CDB7DEB7E982FA820B838F
:104250001C832D833E834F8358872D813E812115FA
:104260003105C1F0F901E770FF27E130F10509F4EC
:10427000AFC08B017C0149815A81E330F10509F01F
:1042800060C02077332720333105F1F420E0B801F6
:10429000C70104DB81E02A960FB6F894DEBF0FBE9B
:1042A000CDBFDF91CF911F910F91FF90EF90DF90E5
:1042B000CF90BF90AF909F908F907F906F905F90C6
:1042C0004F903F902F9008952031310509F080C024
:1042D000FA01208031802A01F4E04F0E511CFA01CE
:1042E00062807380C30177FE02C090E080E09C0191
:1042F000220F331F3A8729876801C601801B910B63
:10430000821593053CF64201B12CA12CA614B704EA
:1043100084F4F401219131914F01B5016E0D7F1D9F
:10432000A6018EEA94E00E94C611FFEFAF1ABF0A01
:10433000EDCF29853A85420E531E3FEFC31AD30AAB
:10434000DCCF349709F044C0207733272033310580
:1043500011F421E09CCF2031310509F039C0FA0178
:10436000459054903A0184E0680E711C4E5F5F4F97
:10437000FA0185909490140197FE02C0312C212CF3
:10438000220C331C5801C501801B910B8415950527
:104390000CF080CFD12CC12CC814D9049CF4F601A8
:1043A000EE0FFF1FE60DF71D25913491B7016C0D3F
:1043B0007D1DA5018EEA94E00E94C6119FEFC91AE7
:1043C000D90AEACF620C731CEFEFAE1ABE0ADBCF3C
:1043D00080E061CFCF92DF92EF92FF920F931F9315
:1043E000CF93DF9300D000D01F921F92CDB7DEB7DE
:1043F000FC01892BA1F180819181892B81F10281BE
:1044000006FB992790F980E0611180E40F7B082B6F
:1044100010E013830283691711F16F01CF01CBDE26
:104420000F7C78016894E5F828E0FC013596DE0100
:10443000119601900D922A95E1F78091B40388239B
:10444000E9F009811A812B813C814D815E816F8168
:10445000788585EB93E061DCF601F382E2822896B1
:104460000FB6F894DEBF0FBECDBFDF91CF911F9185
:104470000F91FF90EF90DF90CF90089581E08093AF
:10448000B40388E0FE013196A5EBB3E001900D92F4
:104490008A95E1F7E1CF2F923F924F925F926F9210
:1044A0007F928F929F92AF92BF92CF92DF92EF92C4
:1044B000FF920F931F93CF93DF93CDB7DEB7EF97A4
:1044C0000FB6F894DEBF0FBECDBF98AB8FA77B01B0
:1044D0002DB73EB73FAF2EAF6EDE3C01892B09F4FE
:1044E000F5C38FA598A9009781F0FC010281138183
:1044F000F02FFF1FFF27FF1FFDABF11109C05BDE8F
:104500000F7CEFA5F8A913830283F1E0FDAB0EC089
:10451000F301EF5BFF4F0190F081E02D309739F10F
:10452000A7016FA578A986E293E019958DA92EAD14
:104530003FAD0FB6F8943EBF0FBE2DBFEF960FB63E
:10454000F894DEBF0FBECDBFDF91CF911F910F91C9
:10455000FF90EF90DF90CF90BF90AF909F908F90A3
:104560007F906F905F904F903F902F900895F30150
:104570000580F681E02DFCA7EBA7F3010780F0850D
:10458000E02DFEA7EDA7F3010184F285E02DFAAB43
:10459000E9ABF3010384F485E02DFCABEBABF30155
:1045A0008281F82FF470FAAF202F20742BAF982F50
:1045B0009170282F2370233009F04DC0E9A9FAA982
:1045C000E230F1050CF43EC02BA93CA922303105A4
:1045D000CCF15F0132E0A31AB108CBA8DCA8E2E07D
:1045E000CE1AD1082BA43CA4FFEF2F1A3F0A4DA4EA
:1045F0005EA42FEF421A520A992309F47EC03AAD05
:10460000F301332389F19BAD992371F1208D318D15
:10461000428D84FFA2C080904003A114B10409F42C
:104620006CC0C114D10409F468C0842FB9018CD8BE
:104630009AA789A7AC14BD04DCF4C501B7FE1BC062
:10464000019619C0D12CC12CB12CA12C512C412C7C
:10465000312C212CD1CFCBA8DCA8A9A8BAA84DA475
:104660005EA42BA43CA4C8CF228933894489D1CF2E
:10467000C601D7FCE5CF95958795912C88159905AE
:104680000CF44C019401220F331F3FAB2EABC4013D
:10469000820D931D99AF88AF9501EEA9FFA92E1B3E
:1046A0003F0BE9A4FAA48601A201BC018EEA94E0C2
:1046B0000E9432192EA93FA9C21AD30A31E0C31AA7
:1046C000D108480C591CA20CB31CC50188199909C2
:1046D000E9A4FAA4860121E0A401B20101970E9495
:1046E0005A19E9A4FAA422E0A401B20188AD99AD57
:1046F0000E945A1981E08093B303F301828181FF04
:10470000B6C023843484A184B28484FF9AC1C0904B
:10471000400388E03596DE01199601900D928A9546
:10472000E1F7F301678570898189A114B10409F467
:104730009EC02114310409F49AC029853A853AA70C
:1047400029A7EB84FC8400D84C01A214B304F4F430
:10475000C501B7FE1EC001961CC03A8A298A5C8A30
:104760004B8ABE8AAD8AD88ECF8AAB2831F2CD284B
:1047700021F27901042F29893A894B895C896D8955
:104780007E898F89988D0E94BD1BB4CFC10137FCF3
:10479000E2CF95958795D12C8C159D050CF46C0175
:1047A000C601880F991F9FAB8EABF501E81BF90B73
:1047B000F9AFE8AF49A45AA44C0C5D1C84019F01D9
:1047C000A701B2018EEA94E00E9442199701220DDE
:1047D000331D3DAF2CAFA9014150510928AD39AD72
:1047E000B2018EEA94E00E9442198EA99FA9281A6C
:1047F000390AEC0CFD1C9101A70169A57AA58EEA86
:1048000094E00E944E19E9A5FAA5AE0EBF1EB501AF
:10481000615071099101A7018EEA94E00E944E193E
:1048200021E0A601B701C2010E94271AAC18BD08F9
:10483000F1E0AF1AB10822E0A601B701C5010E945C
:10484000271AECACFDACEC18FD0821E0E21AF108E7
:1048500024E0A601B701C5010E94271A28E0A6019D
:10486000B701C2010E94271A81E08093B303F301CC
:1048700083819481059709F040C0C288D388E48879
:104880002BA53CA538A72FA38DA59EA59EA38DA3E0
:1048900089A99AA90197820F931F9CA38BA38BA927
:1048A0009CA90197EDA5FEA58E0F9F1F9AA389A332
:1048B00080919503909196038E010F5D1F4F9E018D
:1048C0002D5D3F4FAE014B5D5F4FBE01695D7F4F78
:1048D00003960DDB882389F08E2DB6010E94A41B60
:1048E00009A11AA12BA13CA14DA15EA16FA178A5A0
:1048F0007C018EEA94E00E94E617F301878D90A177
:10490000892BD9F0FAADFF2309F463C12BAD222323
:1049100009F45FC1F30187A190A5892B09F459C15E
:10492000E3A0F4A005A116A127A130A541A552A599
:104930006DA57EA58BA59CA570DCF301A5A4B6A4EE
:10494000A114B10409F471C0FAADFF2309F44BC1FD
:104950002BAD222309F447C1F30125A836A847A8A7
:10496000F30151ACC2ACD0AC80A891A823AD34AD5A
:104970003CA72BA7858196819EA78DA7E780F08411
:104980000184F285E02DFCABEBABF3010384F485ED
:10499000E02DFAABE9ABC4018C709927892B09F49F
:1049A00044C0F9011085868197810E94E3071111A7
:1049B00001C011E01093C2041093C304C4018370BA
:1049C0009927009709F014C18E01075E1F4F9E01C1
:1049D000255E3F4FAE01435E5F4FBE01615E7F4F7C
:1049E000C5010E94030890E080E00E94E307D0FE2A
:1049F00039C16DA47EA4650C711C57FC7A94D4FE59
:104A00004DC1EC0CF11CC7FCFA948D8D9E8DB70145
:104A1000681B790B8F8D98A1E42C610184019501AD
:104A20004BA55CA5860D971D4CD8EFA5F8A9028172
:104A30001381CF01C0DB0F7CEFA5F8A9138302839C
:104A400075CD88E03596DE01119601900D928A951C
:104A5000E1F7F301678570898189A114B10409F434
:104A600006CF2114310409F402CFC980DA808B808B
:104A70009C800E94A41B9AA789A78091950390917E
:104A80009603DE8ECD8E9C8E8B8E2601F1E04F1A22
:104A900051084A0C5B1C5A8E498E9A8689865C01A5
:104AA00023E0A20EB11C8E01075F1F4F9E01275EFF
:104AB0003F4FAE01455E5F4FBE01635E7F4FC50154
:104AC00016DA882371F009851A85298D3A8D4B8D68
:104AD0005C8D6D8D7E8DE9A4FAA48EEA94E00E942F
:104AE000E617DE8ECD8EC4010197280E391E3C8E4E
:104AF0002B8E5A8E498E3A8629868E01075F1F4F6C
:104B00009E01275E3F4FAE01455E5F4FBE01635E73
:104B10007F4FC501ECD9882371F009851A85298D4D
:104B20003A8D4B8D5C8D6D8D7E8DE9A4FAA48EEA55
:104B300094E00E94E617DE8ECD8E9C8E8B8EDA8EF0
:104B4000C98E3A8629868E01075F1F4F9E01275E18
:104B50003F4FAE01455E5F4FBE01635E7F4FC501B3
:104B6000C6D9882371F009851A85298D3A8D4B8D18
:104B70005C8D6D8D7E8DE9A4FAA48EEA94E00E948E
:104B8000E6175E8E4D8E9C8E8B8E5A8E498E3A869F
:104B900029868E01075F1F4F9E01275E3F4FAE01A2
:104BA000455E5F4FBE01635E7F4FC501A0D988237C
:104BB00009F45ACE09851A85298D3A8D4B8D5C8D65
:104BC0006D8D7E8DE9A4FAA48EEA94E00E94E6172A
:104BD0004BCEF301E38CF48C058D168D278D30A11F
:104BE00041A152A1A5CEF30122A833A844A8B8CE72
:104BF000019709F0F8CE2DB73EB73AA729A7C5010E
:104C00000E94903A8C010196EDB7FEB7E81BF90BB4
:104C10000FB6F894FEBF0FBEEDBF2DB73EB72F5FA6
:104C20003F4F3901A801B501C9010E94993AF3012A
:104C3000E00FF11F10828E01075E1F4F9E01255E5F
:104C40003F4FAE01435E5F4FBE01615E7F4FC301C8
:104C50000E94030889A59AA50FB6F8949EBF0FBEBF
:104C60008DBFC1CE2B8D3C8D8BA99CA9D2FE0BC0D4
:104C7000821B930B6DA47EA4680E791E65187108C3
:104C800057FC7394BCCE969587956DA47EA4680E50
:104C9000791E36952795621A730AB1CE898D9A8D41
:104CA00069A97AA9D6FE09C0681B790BE60EF71E22
:104CB000EC18F108C7FCF394A8CE76956795E60E3C
:104CC000F71E96958795E81AF90A9FCE1DAA2ECC55
:104CD000AF92BF92CF92DF92EF92FF920F931F930A
:104CE000CF93DF9300D000D01F92CDB7DEB72983DA
:104CF0003A834B835C836D837E838F83EC80FD805E
:104D000089819A818230910509F448C083309105E8
:104D100009F46EC0019781F5C7014DDAE114F10481
:104D200079F0D70112968D919C918073992761E05B
:104D300070E08031910531F062E070E0809711F011
:104D400070E060E08B818230A1F461E070E0C70127
:104D500027960FB6F894DEBF0FBECDBFDF91CF917F
:104D60001F910F91FF90EF90DF90CF90BF90AF9089
:104D700092CB6115710559F781E027960FB6F8942B
:104D8000DEBF0FBECDBFDF91CF911F910F91FF907E
:104D9000EF90DF90CF90BF90AF9008950E811F816C
:104DA000C701F2D9F801B080A180C280D38004810C
:104DB0001581B7FC0CC0DC0115962D913C9116971E
:104DC000C21AD30A17968D919C91081B190BC70123
:104DD000DBD98D5B9F4FDC01ED91FC91309761F247
:104DE00096014B2D5A2DB70186E293E01995C4CF59
:104DF000C701CAD98B5B9F4FDC01ED91FC913097C5
:104E000009F4BACFB70186E293E01995B5CFCF93F5
:104E1000DF93CDB7DEB72D970FB6F894DEBF0FBE88
:104E2000CDBF798768875B874A873D872C8732E0CB
:104E3000232F582F9D83CE010896782F9F838E8332
:104E400030E040E06D818F8143DF81E02D960FB629
:104E5000F894DEBF0FBECDBFDF91CF9108956F9262
:104E60007F928F929F92AF92BF92CF92DF92EF92FA
:104E7000FF920F931F93CF93DF93CDB7DEB72E979B
:104E80000FB6F894DEBF0FBECDBF288739874A879B
:104E90005B876C877D878E87C884D9840B851C854A
:104EA000AD84BE8482E0C816D10409F09BC0F50130
:104EB0008081918187FD1AC0C280D380A480B58093
:104EC000F801E684F7848130910509F055C0E114BA
:104ED000F10419F060E0C7017DDAF801648475849B
:104EE00061147104C9F4F8011786168681E02E96C4
:104EF0000FB6F894DEBF0FBECDBFDF91CF911F91EB
:104F00000F91FF90EF90DF90CF90BF90AF909F9068
:104F10008F907F906F9008954301F1E08F1A910870
:104F2000660C771C660C771C97FCDDCF84E0681A52
:104F30007108F801E084F184E60CF71CE114F10437
:104F400021F4F1E08F1A9108EFCFF701828187FFFA
:104F5000F8CFA501B601C70134D9882391F3F80130
:104F6000F786E68661E0C70135DA9501A60162E0C1
:104F700070E0C7014CDFBACF84309105B1F4E11481
:104F8000F10409F4B0CFA501B601C7011AD9950102
:104F9000A60166E070E0882311F065E070E0C701CB
:104FA00036DF60E0C70116DA9ECF079709F09ECF83
:104FB000E114F10409F49ACFA501B601C70101D9A2
:104FC0009501A601811108C069E070E0C7011FDFEB
:104FD00060E0C701FFD98ACF68E070E0C70117DF42
:104FE00061E0F7CFC6018D7F019709F07FCFF12CEB
:104FF000E12C26C09701220F331F220F331FF80127
:1050000080859185820F931FD986C8861C870B8760
:10501000BE86AD8627E0FE013896DE01119601902E
:105020000D922A95E1F7582F9D838C8329813A812F
:105030004B816D817E818F814BDEFFEFEF1AFF0A7E
:10504000F80184859585E816F906A0F24FCF0E94F5
:10505000233D2F923F924F925F926F927F928F9259
:105060009F92AF92BF92CF92DF92EF92FF920F93F7
:105070001F93CF93DF93CDB7DEB780919B029091C2
:105080009C02892BB1F07E0188E1E80EF11CEE89CB
:10509000FF89849110E000E0712C612C88248394B6
:1050A000912C412C312CD12CC12CB12CA12C811153
:1050B00013C0DF91CF911F910F91FF90EF90DF9080
:1050C000CF90BF90AF909F908F907F906F905F90A8
:1050D0004F903F902F9008950115110599F4853256
:1050E00071F0E0919B02F0919C021995FFEF6F1A0D
:1050F0007F0AEE89FF89E60DF71D8491D8CF01E084
:1051000010E0F4CF0130110509F04AC08436C1F433
:10511000F701C080D18082E0E80EF11CD7FE18C0F4
:10512000D194C194D10802E010E0E0E18E2EE7E2D4
:105130009E2E44244394312C9FEF691A790AD9CFCB
:10514000853771F4F701C080D180C70102967C01D8
:1051500002E010E070E1872E77E2972E412CEBCF32
:10516000833641F4F7015080C70102967C0103E0C9
:1051700010E0E2CF833749F4F701A080B180C70186
:1051800002967C0104E010E0D7CF8A37A9F6F70138
:10519000A080B180C70102967C0105E010E0CCCF71
:1051A0000430110599F485015801F80120800F5F42
:1051B0001F4F211003C010E000E09BCFE0919B0245
:1051C000F0919C02822D1995522CEECF05301105DD
:1051D00071F4F5015490552071F3E0919B02F09128
:1051E0009C02852D1995FFEFAF1ABF0AF2CF03304D
:1051F000110539F4E0919B02F0919C02852D1995DF
:10520000DACF0230110509F074CF442041F0E0916B
:105210009B02F0919C028DE219956DE2562EC81406
:10522000D90440F53320A1F0E0919B02F0919C025B
:1052300080E3199550E3552E81E08816910459F1C9
:10524000C4016AE070E00E94F43C4B01412C51CF54
:10525000C114D10489F7E0919B02F0919C0280E394
:105260001995412C10E000E030E3532E88248394FC
:10527000912C3FCFC601B4010E94F43C20E3522E92
:10528000560E6C01E0919B02F0919C02852D1995C0
:1052900033243394D1CF10E000E0D8CF1F920F9287
:1052A0000FB60F9211240BB60F922F933F934F938B
:1052B0005F936F937F938F939F93AF93BF93EF937E
:1052C000FF9383EC93E00E94ED09FF91EF91BF9172
:1052D000AF919F918F917F916F915F914F913F918E
:1052E0002F910F900BBE0F900FBE0F901F9018952F
:1052F0001F920F920FB60F9211240BB60F922F939D
:105300008F939F93EF93FF93E091D303F091D40396
:105310008081E091D903F091DA0382FD1DC0908174
:105320008091DC038F5F8F732091DD03821741F042
:10533000E091DC03F0E0ED53FC4F958F8093DC03AC
:10534000FF91EF919F918F912F910F900BBE0F9036
:105350000FBE0F901F9018958081F2CF1F920F9271
:105360000FB60F9211242F933F938F939F93AF9378
:10537000BF938091210390912203A0912303B091C8
:1053800024033091960223E0230F2D3758F5019620
:10539000A11DB11D209396028093210390932203B7
:1053A000A0932303B09324038091970290919802D5
:1053B000A0919902B0919A020196A11DB11D80930E
:1053C000970290939802A0939902B0939A02BF918A
:1053D000AF919F918F913F912F910F900FBE0F90A2
:1053E0001F90189526E8230F0296A11DB11DD2CF5C
:1053F000E3ECF3E01382128288EE93E0A0E0B0E0E9
:1054000084839583A683B78383E292E0918380832C
:1054100085EC90E09587848784EC90E09787868779
:1054200080EC90E0918B808B81EC90E0938B828B71
:1054300082EC90E0958B848B86EC90E0978B868B4A
:10544000118E128E138E148EE0E6F4E0168217820F
:105450001086118612861386148615861686178680
:10546000108A118A128A138A148A158AEEEAF4E0E5
:105470001382128220EF30E03583248380E491E0B0
:10548000978386833187208793878287168A15863C
:1054900014861786168681E0858B848B2FEF3FEF6D
:1054A000338B228B318B208B878B108E128E118E3B
:1054B00085E392E091838083E6EAF4E089E38283E6
:1054C00088E3848389E0838388E085838CE291E0AC
:1054D000978386838AE090E0918380830895CF93B9
:1054E000DF93CDB7DEB7C85DD1090FB6F894DEBF44
:1054F0000FBECDBF789484B5826084BD84B58160D1
:1055000084BD85B5826085BD85B5816085BD80918E
:105510006E00816080936E00109281008091810006
:1055200082608093810080918100816080938100FE
:10553000809180008160809380008091B1008460C0
:105540008093B1008091B00081608093B000809121
:10555000910082608093910080919100816080939E
:105560009100809190008160809390008091A100D3
:1055700082608093A1008091A10081608093A1004E
:105580008091A00081608093A000809121018260C1
:10559000809321018091210181608093210180917C
:1055A000200181608093200180917A008460809343
:1055B0007A0080917A00826080937A0080917A00EC
:1055C000816080937A0080917A00806880937A006D
:1055D0001092C1001092A2041092A3041092A4048D
:1055E0001092A50410926204109263041092640455
:1055F0001092650468EB7BE080E090E00E94B207C7
:1056000060ED77E080E090E00E94BC0B0E943707DD
:105610002FB7F8948091210390912203A091230346
:10562000B09124032FBF8093620490936304A093EE
:105630006404B09365048DE592E00E94A6206AE0C0
:1056400070E080E090E00E94B207FF24F394F092B3
:1056500076040E94370783EB90E290939C0280933C
:105660009B028FE692E09F938F938AE49DE09F9345
:105670008F93EFDC10928C0310928B0310922B030C
:1056800010922A0310922D0310922C0310922703DC
:1056900010922603109229031092280310922E03D1
:1056A000F0922F03109231031092320310923303C1
:1056B00024E630E0309335032093340388EE93E002
:1056C0009093370380933603309339032093380344
:1056D00090933B0380933A0310929403F0929303C8
:1056E000F092A4031092A50383EF92E09093A3039A
:1056F0008093A2031092A7031092A603F092AC032A
:10570000F092AF031092A9031092A803F092AD0398
:10571000F092B0031092AB031092AA03F092AE0382
:10572000F092B103F092B2031092B3030E94A60765
:1057300084E08093400380910B0290910C02A09131
:105740000D028093410390934203A093430389EE9B
:1057500092E090933D0380933C03F0923E031092BD
:105760003F0389E79CEE9093EA028093E90210924E
:10577000EC021092EB021092EE021092ED021092E7
:10578000F0021092EF021092F2021092F1021092C7
:105790008E0310928D031092900310928F0310923B
:1057A0009203109291031092BE031092BD031092C7
:1057B000C0031092BF031092C1031092C203109253
:1057C00099031092980310929B0310929A031092DF
:1057D0009D0310929C0310929F0310929E038FE0F2
:1057E00093E0909396038093950310920F03109289
:1057F000100310921103F092970360E090E080E0B4
:105800000E94020E7C010F900F900F900F90883035
:1058100024E5920779F18032944561F189E8E81630
:10582000F80609F428C160E087E690E00E94020EC5
:10583000A7E4EA2EA3E8FA2E87349744D9F08FEE36
:1058400090E00E940B0F7B016732734999F081EA67
:1058500090E00E94EE0EF3E6EF2EF9E1FF2E6130AC
:10586000E1E67E0739F06F3F7607D1F576E2E72E65
:1058700075E1F72E0E94D70D1092CA041092C90448
:10588000F092CE04E092CD0497E5E91693E8F9068C
:1058900011F40C941A3608F0BBC1B3E5EB16B0E274
:1058A000FB0611F40C945A3608F03EC1F1E1EF16F4
:1058B000F5E1FF0609F493C208F001C139E9E316E6
:1058C000F10411F40C941D3608F0E9C0EA94EF28B5
:1058D00011F40C9436361092B3041092B2047CC2C8
:1058E00061157F4F29F460E2E62E65E1F62EC2CF06
:1058F0008FEB90E00E940B0F7B016735734809F432
:10590000B9CF81E8E81684E9F80609F4B3CF91E14C
:10591000E91695E1F90609F4ADCFA0E2EA16A5E192
:10592000FA0609F3B6E2EB16B5E1FB0609F49ECFE1
:10593000E1E8EE16E5E1FE0609F49CCFE114F4E19E
:10594000FF0609F49DC084ED90E00E94EE0E7B01FD
:105950006031734509F48ECF87ED90E00E94EE0E22
:105960007B016133704809F485CF8EEF90E00E948F
:10597000EE0E672F782F892F99277B0183E5E81694
:1059800080E2F80609F476CF84E090E00E94EE0E03
:105990007B01811126C0E11490E8F90611F5809190
:1059A0000E0290910F02A091100289839A83AB831B
:1059B000AE014F5F5F4F63E089EB90E00E94ED0B1B
:1059C00060E080ED90E00E94020E49E9E42EF12CA7
:1059D000893909F44FCF8039E1F430E9E32EFE2C08
:1059E00049CFA6E2EA16A5E1FA0609F43FCFB0EFE7
:1059F000EB16B9E8FB0609F448C0E2E5EE16E5E867
:105A0000FE0609F447C0F1E1EF16FCEAFF0609F4CF
:105A100031CF83ED90E00E94EE0E672F782F892F13
:105A200099277B016336714909F424CF83ED90E017
:105A30000E94EE0E872FE62EF72E8359823008F44F
:105A400019CF783909F416CF773709F413CF7631A7
:105A500009F410CF33EDE316F10409F40BCF83ED15
:105A6000E816F80609F406CF60E090E080E00E94B6
:105A7000020E7C01FFCEB9E8EB2EB2E1FB2EFACE8E
:105A8000E4E1EE2EE8E6FE2EF5CE75E3E72E77E7AD
:105A9000F72EF0CE69E8E62E67E7F62EEBCEA4E50A
:105AA000EA16A1E0FA0609F48BC1B5E0EB16B5E100
:105AB000FB0609F010CF84E090E10C943836E6E262
:105AC000EE16E5E1FE0611F40C94D03598F420E2D0
:105AD000E21625E1F20609F0FECE83E194E0909310
