:10000000F5C0000021C100001FC100001DC100009B
:100010001BC1000019C1000017C1000015C100007C
:1000200013C1000011C100000FC100000DC100008C
:100030000BC1000009C1000007C1000005C100009C
:1000400003C1000001C10000FFC00000FDC00000AE
:10005000FBC00000F9C00000F7C00000ABC3000007
:10006000F3C0000071C3000046C30000EDC00000F3
:10007000EBC00000E9C00000E7C00000E5C00000E0
:10008000E3C00000E1C00000DFC00000DDC00000F0
:10009000FCC20000D1C20000D7C00000D5C00000E3
:1000A000D3C00000D1C00000CFC00000CDC0000010
:1000B000CBC00000C9C00000C7C00000C5C0000020
:1000C000C3C00000C1C00000BFC00000BDC0000030
:1000D000BBC00000B9C00000B7C00000B5C0000040
:1000E000B3C0000000002100240027002A002D00DA
:1000F0003000330001010000040107010A01000083
:100100002200250028002B002E00310034000201BF
:100110000000050108010B01050505050705080894
:100120000808020202020A0A080804040404010181
:100130000101010101010303030303030303040796
:1001400007070C0C0C0C0C0C0C0C0202020206062D
:100150000606060606060B0B0B0B0B0B0B0B010220
:1001600010202008081020401020408002010201C9
:100170000804020101020408102040808040201081
:1001800008040201800402018040201008040201DA
:100190000804020101020408102040800102040842
:1001A0001020408000000A0B02090C0D0E08070306
:1001B000040100000000000000000000000000003A
:1001C000000000000000000000000000000000002F
:1001D00012111000000000000000000000000000EC
:1001E00000000000000000000000240411241FBED5
:1001F000CFEFD1E2DEBFCDBF00E00CBF12E0A0E048
:10020000B2E0EAE5F1E100E00BBF02C007900D9219
:10021000A834B107D9F725E0A8E4B2E001C01D92E7
:10022000A73EB207E1F710E0C6EFD0E000E005C05E
:1002300021970109802FFE0180D7C53FD10780E0BB
:100240000807B1F776D387C7DBCECF92DF92EF9264
:10025000FF920F931F932FB7F894C0905D02D09038
:100260005E02E0905F02F09060022FBF6C0D7D1D7A
:100270008E1D9F1D4FB7F89400915D0210915E0294
:1002800020915F02309160024FBF0C151D052E05B5
:100290003F0528F0601771078207930758F71F91F1
:1002A0000F91FF90EF90DF90CF900895AF92BF92A3
:1002B000CF92DF92EF92FF920F931F93CF93DF9332
:1002C0006C017B018B01040F151FEB015E01AE1861
:1002D000BF08C017D10759F06991D601ED91FC9183
:1002E0000190F081E02DC6011995892B79F7C501A0
:1002F000DF91CF911F910F91FF90EF90DF90CF9002
:10030000BF90AF900895FC01538D448D252F30E0B0
:10031000842F90E0821B930B541710F0CF96089512
:1003200001970895FC01918D828D981761F0A28D3F
:10033000AE0FBF2FB11D5D968C91928D9F5F9F7305
:10034000928F90E008958FEF9FEF0895FC01918DBB
:10035000828D981731F0828DE80FF11D858D90E028
:1003600008958FEF9FEF0895FC01918D228D892FC5
:1003700090E0805C9F4F821B91098F7399270895AD
:1003800081E692E0F1DF21E0892B09F420E0822F61
:1003900008958EEF92E0E8DF21E0892B09F420E058
:1003A000822F0895FC01A48DA80FB92FB11DA35A67
:1003B000BF4F2C91848D90E001968F739927848F85
:1003C000A689B7892C93A089B1898C9183708064A8
:1003D0008C93938D848D981306C00288F389E02D49
:1003E00080818F7D80830895EF92FF920F931F93FA
:1003F000CF93DF93EC0181E0888F9B8D8C8D9813D8
:100400001AC0E889F989808185FF15C09FB7F894E3
:10041000EE89FF896083E889F9898081837080642F
:1004200080839FBF81E090E0DF91CF911F910F917A
:10043000FF90EF900895F62E0B8D10E00F5F1F4F89
:100440000F731127E02E8C8D8E110BC00FB607FC99
:10045000FACFE889F989808185FFF5CFCE01A2DF47
:10046000F2CFEB8DEC0FFD2FF11DE35AFF4FF08221
:100470009FB7F8940B8FEA89FB8980818062D0CF87
:10048000CF93DF93EC01888D8823B1F0AA89BB89D3
:10049000E889F9898C9185FD03C0808186FD0CC0B7
:1004A0000FB607FCF7CF8C9185FFF2CF808185FFD7
:1004B000EDCFCE0177DFEACFDF91CF91089580E0D5
:1004C00090E0892B21F065DF81110E94000080E01F
:1004D00090E0892B21F054DF81110E94000080E020
:1004E00090E0892B49F080E090E0892B29F00E9470
:1004F000000081110E94000080E090E0892B49F00B
:1005000080E090E0892B29F00E94000081110C947A
:10051000000008953FB7F8948091490290914A02F3
:10052000A0914B02B0914C0226B5A89B05C02F3F6D
:1005300019F00196A11DB11D3FBFBA2FA92F982F09
:100540008827BC01CD01620F711D811D911D42E004
:10055000660F771F881F991F4A95D1F70895FC01F0
:1005600001900020E9F73197AF01481B590BBC01FE
:100570008EEF92E09BCE8F929F92AF92BF920F939D
:100580001F93CF93DF93CDB7DEB7A1970FB6F89443
:10059000DEBF0FBECDBF19A2423008F44AE08E0183
:1005A0000F5D1F4F842E912CB12CA12CA50194011D
:1005B00077D5E62FB901CA01EA30ECF4E05DD80145
:1005C000EE938D01232B242B252B81F790E080E0E7
:1005D000109711F0CD01C3DFA1960FB6F894DEBFDE
:1005E0000FBECDBFDF91CF911F910F91BF90AF9004
:1005F0009F908F900895E95CE2CFCF92DF92EF92C7
:10060000FF92CF93DF936B017C016DE28EEF92E05E
:10061000EBDEEC0166277727CB016C197D098E098B
:100620009F094AE0A8DF8C0F9D1FDF91CF91FF90BB
:10063000EF90DF90CF9008951F920F920FB60F9218
:1006400011240BB60F922F933F934F935F936F93A9
:100650007F938F939F93AF93BF93EF93FF9381E625
:1006600092E0A0DEFF91EF91BF91AF919F918F91AA
:100670007F916F915F914F913F912F910F900BBEA2
:100680000F900FBE0F901F9018951F920F920FB6EC
:100690000F9211240BB60F922F938F939F93EF938A
:1006A000FF93E0917102F09172028081E0917702F4
:1006B000F091780282FD1DC0908180917A028F5F57
:1006C0008F7320917B02821741F0E0917A02F0E073
:1006D000EF59FD4F958F80937A02FF91EF919F9193
:1006E0008F912F910F900BBE0F900FBE0F901F9008
:1006F00018958081F2CF1F920F920FB60F9211249E
:100700000BB60F922F933F934F935F936F937F930B
:100710008F939F93AF93BF93EF93FF938EEF92E0EE
:1007200041DEFF91EF91BF91AF919F918F917F91AA
:100730006F915F914F913F912F910F900BBE0F9052
:100740000FBE0F901F9018951F920F920FB60F9229
:1007500011240BB60F922F938F939F93EF93FF93D8
:10076000E0910E03F0910F038081E0911403F0916A
:10077000150382FD1DC09081809117038F5F8F73D9
:1007800020911803821741F0E0911703F0E0E25046
:10079000FD4F958F80931703FF91EF919F918F915C
:1007A0002F910F900BBE0F900FBE0F901F901895BA
:1007B0008081F2CF1F920F920FB60F9211242F93C8
:1007C0003F938F939F93AF93BF9380915D029091DE
:1007D0005E02A0915F02B09160023091480223E076
:1007E000230F2D3758F50196A11DB11D2093480206
:1007F00080935D0290935E02A0935F02B0936002CB
:100800008091490290914A02A0914B02B0914C0212
:100810000196A11DB11D8093490290934A02A093B5
:100820004B02B0934C02BF91AF919F918F913F913A
:100830002F910F900FBE0F901F90189526E8230F51
:100840000296A11DB11DD2CFE1E6F2E01382128221
:1008500048EE53E060E070E044835583668377831D
:1008600084E092E0918380832DEC30E0358724870B
:100870002CEC30E03787268728EC30E0318B208B5A
:1008800029EC30E0338B228B2AEC30E0358B248B43
:100890002EEC30E0378B268B118E128E138E148E39
:1008A000EEEFF2E0138212824483558366837783EE
:1008B0009183808385EC90E09587848784EC90E039
:1008C0009787868780EC90E0918B808B81EC90E01D
:1008D000938B828B82EC90E0958B848B86EC90E0FE
:1008E000978B868B118E128E138E148EEBE9F3E0AC
:1008F0001682178210861186128613861486158634
:1009000016861786108A118A128A138A148A158A03
:100910001092DD051092DE051092E0051092DF05C1
:100920001092E3051092E4051092E5051092E60599
:100930000895CF93DF9300D000D01F921F92CDB7C0
:10094000DEB7789484B5826084BD84B5816084BD4F
:1009500085B5826085BD85B5816085BD80916E005D
:10096000816080936E00109281008091810082608E
:1009700080938100809181008160809381008091CB
:1009800080008160809380008091B10084608093BA
:10099000B1008091B00081608093B000809191009F
:1009A000826080939100809191008160809391009A
:1009B000809190008160809390008091A10082607E
:1009C0008093A1008091A10081608093A10080911B
:1009D000A00081608093A0008091210182608093BB
:1009E000210180912101816080932101809120016A
:1009F00081608093200180917A00846080937A00E6
:100A000080917A00826080937A0080917A00816080
:100A100080937A0080917A00806880937A001092A7
:100A2000C1001092DD031092DE031092DF031092DA
:100A3000E00310929D0310929E0310929F03109268
:100A4000A00368EB7BE080E090E0FFDB63DD4B011F
:100A50005C0188EEC82E83E0D82EE12CF12C5ADD03
:100A6000681979098A099B09683E734081059105D7
:100A7000B0F321E0C21AD108E108F10888EE880E2F
:100A800083E0981EA11CB11CC114D104E104F1043F
:100A900031F7E0910E03F0910F0372E0E72EE08250
:100AA000E0910A03F0910B031082E0910C03F091A6
:100AB0000D0380E1808310921603E0911203F09100
:100AC0001303A6E0FA2EF082E0911003F0911103D7
:100AD000808180618083E0911003F0911103808117
:100AE00088608083E0911003F09111038081806819
:100AF0008083E0911003F091110380818F7D8083CA
:100B00002FB7F89480915D0290915E02A0915F02F0
:100B1000B09160022FBF80939D0390939E03A0939A
:100B20009F03B093A00382E192E019DD6AE070E0D8
:100B300080E090E08ADB81E08093B103E091710274
:100B4000F0917202E082E0916D02F0916E021082EB
:100B5000E0916F02F09170028FEC80831092790225
:100B6000E0917502F0917602F082E0917302F091CB
:100B70007402808180618083E0917302F09174023D
:100B8000808188608083E0917302F091740280819B
:100B900080688083E0917302F091740280818F7D80
:100BA000808381E692E09093E2058093E10582E004
:100BB00090E0909352028093510283E090E09093F2
:100BC00054028093530284E090E090935602809305
:100BD000550285E090E0909358028093570286E09A
:100BE00090E090935A028093590287E090E09093AE
:100BF0005C0280935B028FE090E090934E028093C2
:100C00004D028EE090E09093500280934F02BDE43D
:100C1000CB2EB2E0DB2EF601819191916F019927E5
:100C2000FC01E25AFE4F2491885E9E4FFC018491A4
:100C3000882399F090E0880F991FFC01EC51FF4F39
:100C4000A591B491FC01E250FF4F859194918FB72B
:100C5000F894EC91E22BEC938FBFFDE5CF16F2E018
:100C6000DF06C9F622E0E22EAA24A394B12C42E0CA
:100C7000842E912C212C312C21012A943E0127E035
:100C8000621A71088091E1059091E205DC01ED9115
:100C9000FC910084F185E02D1995892B09F440C160
:100CA0008091E1059091E205DC01ED91FC910084D9
:100CB000F185E02D1995892B09F42DC18091E1056D
:100CC0009091E205DC01ED91FC910284F385E02D29
:100CD00019952091DF053091E0052230310509F4A6
:100CE00051C000F52115310509F43DC02130310511
:100CF00009F441C083E292E032DC6091DF0570913B
:100D0000E005072E000C880B990B97FF01C175DCDD
:100D10008CE392E024DC1092DD051092E005109245
:100D2000DF05BECF2430310509F470C008F453C08C
:100D300025303105F9F61092E0051092DF05813873
:100D400009F0E2C08091E6058F3F09F47FC02EE7ED
:100D5000E82FF0E0E152FB4F9081992309F474C031
:100D60002083890FF5CF8E3709F09ACFB092E00536
:100D7000A092DF0595CF8093E6059092E0058092E2
:100D8000DF058ECF8F3F49F08093E305E3E0F0E08D
:100D9000F093E005E093DF0583CF1092DD0510921C
:100DA000E0051092DF058EEF8093DE058091DE0571
:100DB00087FF5EC08FE392E0D2DB6091DE05062EF6
:100DC000000C770B880B990B97FFAFC016DC8CE3F8
:100DD00092E0C5DB4DC09091E4052091E3059217A8
:100DE00008F05ECFE92FF0E0E152FB4F80839F5F78
:100DF000291719F09093E40553CF1092E40584E08D
:100E000090E09093E0058093DF054ACF4091E305A1
:100E1000EFEDF4E020E090E0421721F03191930FE4
:100E20002F5FFACF9095891307C0A5E0B0E0B0938B
:100E3000E005A093DF0534CF1092DD051092E005A8
:100E40001092DF058FEFB0CF8EE780838091E305AE
:100E50008093DD0591E09093DE05EFEDF4E090E006
:100E6000882309F4A3CF019110E09F5F9813FBCF73
:100E700024E630E0D80169D1A201910133D1F22EEC
:100E8000DE011196FD0181E000FF52C087831595B8
:100E900007953197E615F705B9F72DE432E0F9012A
:100EA000819191919F019927FC01EC55FE4F64912E
:100EB000FC01E25AFE4F4491FC01E85EFE4F549162
:100EC000552309F44EC09C91662309F438C0615043
:100ED000623108F034C0E62FF0E08827EE58F84F72
:100EE0008F4F2BC1120816089A070A080E089F0791
:100EF00019081F08230829082D08310837083B085E
:100F00009F073F08450849081092DD058DEF4CCF3B
:100F10004AE031DBFDCE1092DD05E092DE0546CFE2
:100F20001092DD051092DE0541CF4AE024DB4FCF61
:100F30001782ADCF809180008F7780938000E52F5E
:100F4000F0E0EE0FFF1FE250FF4F659174918FB7F5
:100F5000F894FB019111A1C09081409549234083F1
:100F60008FBF1196C216D30609F099CFF092E10314
:100F70008FEF8093E5058091E1059091E205DC011A
:100F8000ED91FC910190F081E02D6EE71995809133
:100F9000E1059091E205DC01ED91FC910190F08179
:100FA000E02D6091E50519958091E1059091E205AC
:100FB000DC01ED91FC910190F081E02D61E019954B
:100FC0008091E1059091E205DC01ED91FC910280B8
:100FD000F381E02D41E050E061EE73E019958091DE
:100FE000E1059091E2056F2D6095DC01ED91FC919A
:100FF0000190F081E02D19958091E1059091E20535
:10100000DC01ED91FC910190F081E02D61E81995F2
:1010100056DA38CE809180008F7D8FCF809180000E
:10102000877F8BCF84B58F7784BD89CF84B58F7D43
:10103000FBCF8091B0008F778093B00080CF8091FC
:10104000B0008F7DF9CF809190008F7780939000D2
:1010500076CF809190008F7DF9CF80919000877F2F
:10106000F5CF8091A0008F778093A00068CF80910A
:10107000A0008F7DF9CF8091A000877FF5CF809170
:1010800020018F77809320015ACF809120018F7D9E
:10109000F9CF80912001877FF5CF9081492B5FCFD9
:1010A000A1E21A2EAA1BBB1BFD010DC0AA1FBB1F6C
:1010B000EE1FFF1FA217B307E407F50720F0A21BDE
:1010C000B30BE40BF50B661F771F881F991F1A944B
:1010D00069F760957095809590959B01AC01BD0175
:1010E000CF010895052E97FB16F400940FD057FDFD
:1010F00005D0D6DF07FC02D046F408C050954095D5
:10110000309521953F4F4F4F5F4F089590958095B3
:10111000709561957F4F8F4F9F4F0895A29FB001AB
:10112000B39FC001A39F700D811D1124911DB29F1B
:10113000700D811D1124911D0895EE0FFF1F881F52
:101140008BBF0790F691E02D1994E8DFB7FF089563
:0A115000821B930B0895F894FFCF63
:10115A0000000000F401560183014002B40192012B
:10116A00A601564D4450565F317C315F564D44506E
:10117A00560A004552524F523A20556E64656669C6
:10118A006E65642073746174653A20000D0A004527
:08119A0052524F523A200000AE
:00000001FF
