:1000000008C1000037C1000035C1000033C1000045
:1000100031C100002FC100002DC100002BC1000024
:1000200029C1000027C1000025C1000023C1000034
:1000300021C100001FC100001DC100001BC1000044
:1000400019C1000017C1000015C1000013C1000054
:1000500011C100000FC100000DC100000C94490B3C
:1000600009C100000C94130B0C94E90A03C10000B1
:1000700001C10000FFC00000FDC00000FBC0000087
:10008000F9C00000F7C00000F5C00000F3C0000098
:10009000F1C00000EFC00000EDC000000C94930B15
:1000A000E9C00000E7C00000E5C00000E3C00000B8
:1000B000E1C00000DFC00000DDC00000DBC00000C8
:1000C000D9C00000D7C00000D5C00000D3C00000D8
:1000D000D1C00000CFC00000CDC00000CBC00000E8
:1000E000C9C00000000020002300260029002C00C9
:1000F0002F00320000010000030106010901000089
:100100000A0B02090C0D0E08070304010000000091
:1001100000000000000000000000000000000000DF
:10012000000000000000000000001211100000009C
:1001300000000000000000000000000000000000BF
:100140000000000000002200250028002B002E00E7
:100150003100340002010000050108010B0100001C
:100160002100240027002A002D0030003300010167
:100170000000040107010A01050505050705080837
:100180000808020202020A0A080804040404010121
:100190000101010101010303030303030303040736
:1001A00007070C0C0C0C0C0C0C0C020202020606CD
:1001B0000606060606060B0B0B0B0B0B0B0B0102C0
:1001C0001020200808102040102040800201020169
:1001D0000804020101020408102040808040201021
:1001E000080402018004020180402010080402017A
:1001F00008040201010204081020408001020408E2
:10020000102040801F1C1F1E1F1E1F1F1E1F1E1F91
:10021000B60C11241FBECFEFD1E2DEBFCDBF00E090
:100220000CBF12E0A0E0B2E0E8E5F5E200E00BBFB1
:1002300002C007900D92A837B107D9F726E0A8E7CA
:10024000B2E001C01D92A934B207E1F711E0C9E0A4
:10025000D1E000E006C021970109802FFE010E9435
:100260009C12C830D10780E00807A9F70E94730DDF
:100270000C94AA12C5CE90E0FC01E254FE4F2491EA
:1002800088589E4FFC018491882399F090E0880F54
:10029000991FFC01E25AFE4FA591B491FC01EC5B61
:1002A000FE4F859194918FB7F894EC91E22BEC93EB
:1002B0008FBF0895AF92BF92CF92DF92EF92FF92DD
:1002C0000F931F93CF93DF936C017B018B01040F7E
:1002D000151FEB015E01AE18BF08C017D10759F01A
:1002E0006991D601ED91FC910190F081E02DC6015C
:1002F0001995892B79F7C501DF91CF911F910F9146
:10030000FF90EF90DF90CF90BF90AF900895089549
:100310000895FC01538D448D252F30E0842F90E00B
:10032000821B930B541710F0CF96089501970895F0
:10033000FC01918D828D981761F0A28DAE0FBF2FB9
:10034000B11D5D968C91928D9F5F9F73928F90E00F
:1003500008958FEF9FEF0895FC01918D828D98177E
:1003600031F0828DE80FF11D858D90E008958FEFBB
:100370009FEF0895FC01918D228D892F90E0805C84
:100380009F4F821B91098F73992708958FE495E001
:10039000F1DF21E0892B09F420E0822F0895FC0190
:1003A000A48DA80FB92FB11DA35ABF4F2C91848DD6
:1003B00090E001968F739927848FA689B7892C9333
:1003C000A089B1898C91837080648C93938D848D86
:1003D000981306C00288F389E02D80818F7D808389
:1003E0000895EF92FF920F931F93CF93DF93EC0149
:1003F00081E0888F9B8D8C8D98131AC0E889F989CC
:10040000808185FF15C09FB7F894EE89FF896083CE
:10041000E889F98980818370806480839FBF81E04F
:1004200090E0DF91CF911F910F91FF90EF90089591
:10043000F62E0B8D10E00F5F1F4F0F731127E02E6C
:100440008C8D8E110BC00FB607FCFACFE889F989A5
:10045000808185FFF5CFCE01A2DFF2CFEB8DEC0FCF
:10046000FD2FF11DE35AFF4FF0829FB7F8940B8FD9
:10047000EA89FB8980818062D0CFCF93DF93EC0142
:10048000888D8823B1F0AA89BB89E889F9898C9184
:1004900085FD03C0808186FD0CC00FB607FCF7CF39
:1004A0008C9185FFF2CF808185FFEDCFCE0177DF84
:1004B000EACFDF91CF91089580E090E0892B21F081
:1004C00065DF81110E94000080E090E0892B49F0F7
:1004D00080E090E0892B29F00E94000081110E94A9
:1004E000000080E090E0892B49F080E090E0892BCB
:1004F00029F00E94000081110E94000080E090E03D
:10050000892B49F080E090E0892B29F00E940000BF
:1005100081110C94000008958150823108F05AC076
:10052000E82FF0E08827E856FD4F8F4F0C949C127F
:10053000B802BC02AA02B002B402EA02BF02C502BB
:10054000C902CF02D302D702DD02E102EA02E502CC
:10055000EB02EF02809180008F77809380000895F6
:10056000809180008F7DF9CF80918000877FF5CFCB
:1005700084B58F7784BD089584B58F7DFBCF80913E
:10058000B0008F778093B00008958091B0008F7D88
:10059000F9CF809190008F7780939000089580919B
:1005A00090008F7DF9CF80919000877FF5CF80916B
:1005B000A0008F778093A00008958091A0008F7D88
:1005C000F9CF8091A000877FF5CF809120018F77B0
:1005D000809320010895809120018F7DF9CF809133
:1005E0002001877FF5CFCF93DF93282F30E0F901EB
:1005F000E250FF4F8491F901E254FE4FD491F9018A
:10060000E858FE4FC491CC2399F0811185DFEC2F7F
:10061000F0E0EE0FFF1FEC51FF4FA591B491EC916C
:10062000ED2381E090E009F480E0DF91CF9108951F
:1006300080E090E0FACF1F93CF93DF93282F30E034
:10064000F901E250FF4F8491F901E254FE4FD49139
:10065000F901E858FE4FC491CC23A1F0162F811167
:100660005BDFEC2FF0E0EE0FFF1FEC5BFE4FA59180
:10067000B4918FB7F894EC91111108C0D095DE2396
:10068000DC938FBFDF91CF911F910895DE2BF8CFC0
:100690003FB7F8948091C6049091C704A091C80414
:1006A000B091C90426B5A89B05C02F3F19F001964B
:1006B000A11DB11D3FBFBA2FA92F982F8827BC01BC
:1006C000CD01620F711D811D911D42E0660F771FE4
:1006D000881F991F4A95D1F708952FB7F894609114
:1006E000C2047091C3048091C4049091C5042FBFCB
:1006F00008952091BB02211109C021E02093BB0283
:100700003091EC052091ED053CBD2DBD60E0FC0174
:10071000848191CF61E0FC0184818DDF8091BB02F7
:1007200081111092BB0208958EBD00000DB407FE2A
:10073000FDCF8EB508958FEFF7CF0F931F93CF9313
:10074000DF93EC01CADF8B01F6DF8F3F61F0C5DF7D
:10075000601B710B6C177D07B8F380E0DF91CF91C0
:100760001F910F91089581E0F9CFCF92DF92EF9220
:10077000FF920F931F93CF93DF93EC01162F690124
:100780007A018E81882379F08F8198859C012F5F73
:100790003F4F38872F838230924010F4CCDFF4CF64
:1007A000CE01B8DF1E82CE01A4DF8CE291E0C5DF6E
:1007B000812F8064B9DF08E110E0D701C601002E67
:1007C00004C0B695A795979587950A94D2F7ACDFA4
:1007D00008501109083F8FEF180779F78FEFA4DF52
:1007E00010E0A9DF8A8787FF04C01F3F11F01F5F59
:1007F000F8CFDF91CF911F910F91FF90EF90DF9095
:10080000CF900895CF92DF92EF92FF920F93CF9304
:10081000DF93EC01690182E1411551056105710524
:1008200091F08B85833039F089E0440F551F661FA6
:10083000771F8A95D1F79A01AB0168E1CE0195DF68
:10084000882319F084E08D8326C08EEF6DDF76015A
:100850008EEFD81AF70181917F0166DFEC14FD0459
:10086000C9F78FEF61DF8FEF5FDF65DF8A878F71F9
:10087000853069F4011113C0CE014CDF81E0DF91B6
:10088000CF910F91FF90EF90DF90CF90089581E18D
:100890008D83CE013FDFCE013DDF80E0F0CF88E5E4
:1008A00092E04BDF811102C085E1CDCF20E030E046
:1008B000A9016DE0CE0159DF882311F084E1C3CF97
:1008C0003ADF8111FBCFD8CF0F934091BD025091F9
:1008D000BE026091BF027091C002411551056105D1
:1008E000710581F0082F21EC32E090E080E08ADF92
:1008F000882349F01092BD021092BE021092BF02EE
:100900001092C00281E00F9108950F93CF93C82FEA
:100910008091BC02811105C0C1E08C2FCF910F9155
:10092000089540910002509101026091020270917D
:1009300003020C2F21EC32E090E080E063DF8111B4
:1009400002C0C0E0EACFCC2339F381E0BDDF8823C9
:10095000C1F31092BC02E1CFAF92BF92CF92DF926F
:10096000EF92FF921F93CF93DF936B017C01142FC3
:100970008091000290910102A0910202B0910302C5
:100980008C159D05AE05BF0509F4A3C081E0BDDF50
:100990008823D1F1809106008823A1F08091000086
:1009A00090910100A0910200B0910300C816D906F1
:1009B000EA06FB0639F48091070090910800892B24
:1009C00009F449C0C0920000D0920100E0920200F8
:1009D000F092030080910B00A7019601833039F05B
:1009E00099E0220F331F441F551F9A95D1F761E1FB
:1009F00090E080E0BADE882389F083E080930500F0
:100A000090E080E087DE80E0DF91CF911F91FF9042
:100A1000EF90DF90CF90BF90AF9008955EDEEB0136
:100A20008ADE80930A008F3F69F457DE6C1B7D0BD2
:100A30006D327140A8F38FE08093050090E080E074
:100A400069DEDECF8E3FB1F51092080010920700EC
:100A500081E080930600C1ECD2E081ECA82E84E016
:100A6000B82E69DE8993AC16BD06D9F780910700D0
:100A7000909108009E5F909308008093070020915A
:100A80000900222319F081159240D8F080910600C8
:100A90008823B9F080910700909108009C012F5F96
:100AA0003F4F30930800209307008230924020F49B
:100AB00042DEF0CF8DE0C0CF90E080E02BDE1092E0
:100AC0000600C0920002D0920102E0920202F0926F
:100AD00003024091BC02412B4093BC0281E094CFC1
:100AE0004F925F926F927F928F929F92AF92BF923E
:100AF000CF92DF92EF92FF920F931F93CF93DF93EA
:100B0000EC01423051056105710590F480E0DF9100
:100B1000CF911F910F91FF90EF90DF90CF90BF90FA
:100B2000AF909F908F907F906F905F904F900895BF
:100B300089859A85AB85BC850196A11DB11D841759
:100B40009507A607B70710F3CB88DC88ED88FE88E9
:100B50008F89803109F042C0BB27A72F962F852FA0
:100B6000480159012A013B01C80ED91EEA1EFB1E8D
:100B70008091000290910102A0910202B0910302C3
:100B8000C816D906EA06FB0699F58F898031B9F5B2
:100B9000B301A201552766277727440F551F4F53EE
:100BA0005D4FFA01918280828091BC0281608093C6
:100BB000BC028A89823080F08D819E81AF81B885A8
:100BC0008C0D9D1DAE1DBF1D8093BD029093BE0276
:100BD000A093BF02B093C00281E099CFDB01CA01AC
:100BE000E7E0B695A79597958795EA95D1F7B8CFA1
:100BF00040E0C701B601B0DE8111C7CF87CFB30196
:100C0000A2014F77552766277727440F551F440FBA
:100C1000551F4F535D4FFA0180829182A282B382A9
:100C2000C3CF8F929F92AF92BF92CF92DF92EF92FB
:100C3000FF920F931F93CF93DF93FC0181859285E1
:100C4000A385B4850196A11DB11D84179507A6073C
:100C5000B70770F480E0DF91CF911F910F91FF9063
:100C6000EF90DF90CF90BF90AF909F908F900895BE
:100C700083889488A588B6888789803189F5BB27C1
:100C8000A72F962F852FE9016A017B018F01BC01F7
:100C9000CD01680D791D8A1D9B1D809000029090EA
:100CA0000102A0900202B090030286169706A806E1
:100CB000B90601F5F8018789803109F5DD24EE24B4
:100CC000FF24F601EE0FFF1FEF53FD4F808191814E
:100CD000B0E0A0E088839983AA83BB8381E0BBCF87
:100CE000DB01CA01C7E0B695A79597958795CA9588
:100CF000D1F7C9CF40E030DE8111DCCFABCFE89433
:100D0000C7F8DD24EE24FF24F601EE0FFF1FEE0FDF
:100D1000FF1FEF53FD4F80819181A281B381BF708E
:100D2000D9CF8F929F92AF92BF92CF92DF92EF92E4
:100D3000FF920F931F93CF93DF93EC018D8181116D
:100D40000EC080E0DF91CF911F910F91FF90EF9047
:100D5000DF90CF90BF90AF909F908F9008950B89B8
:100D60001C892D893E89041715072607370748F384
:100D70004A015B01823031F48A869B86AC86BD864F
:100D800081E0E0CF81149104A104B10449F41E82F2
:100D90001F82188619861A861B861C861D86F0CF30
:100DA0000A851B852C853D85EB8DFC8D858590E026
:100DB0000996B901A8014150510961097109082E2C
:100DC00004C076956795579547950A94D2F77501B3
:100DD0006401E1E0CE1AD108E108F10804C0F694FC
:100DE000E794D794C7948A95D2F7C416D506E60639
:100DF000F70620F0012B022B032B09F58F89988D24
:100E0000A98DBA8D8E839F83A887B9878E010A5FCB
:100E10001F4FC114D104E104F10409F4ADCF4E8198
:100E20005F816885798598018B8D9C8DFADE91E0D4
:100E3000C91AD108E108F1088111EBCF82CFC41A99
:100E4000D50AE60AF70AE2CF3F924F925F926F927D
:100E50007F928F929F92AF92BF92CF92DF92EF924A
:100E6000FF920F931F93CF93DF93CDB7DEB72C97ED
:100E70000FB6F894DEBF0FBECDBF5C01DC015B9600
:100E80008D909C905C9716964D905D906D907C90A7
:100E90001997411451046104710409F467C0BFEF4C
:100EA0004B1A5B0A6B0A7B0A312CF401818592850F
:100EB000A385B4859C01AD012F5F3F4F4F4F5F4F1E
:100EC00029873A874B875C87730162011D821E82E6
:100ED0001F821886F40181859285A385B4852D81B2
:100EE0003E814F815885281739074A075B0708F06C
:100EF00054C089859A85AB85BC858C159D05AE054A
:100F0000BF0550F482E0C82ED12CE12CF12C92E0E8
:100F1000492E512C612C712C9E012F5F3F4FB70140
:100F2000A601C4017EDE8823C1F189819A81AB814B
:100F3000BC81892B8A2B8B2B09F1260137019FEF6E
:100F4000491A590A690A790A2D813E814F815885CB
:100F50002F5F3F4F4F4F5F4F2D833E834F83588707
:100F60003FEFC31AD30AE30AF30AB4CFF401408077
:100F70005180628073803324339497CFC414D50496
:100F8000E604F70409F70FEF1FEF2FEF3FE0B7017B
:100F9000A601C401A5DD811119C080E02C960FB611
:100FA000F894DEBF0FBECDBFDF91CF911F910F919F
:100FB000FF90EF90DF90CF90BF90AF909F908F9079
:100FC0007F906F905F904F903F900895D501169657
:100FD0004D915D916D917C91199741155105610578
:100FE000710531F097018601C4017ADD8823A9F2E9
:100FF000D5011696CD92DD92ED92FC921997332091
:1010000051F0D701C6010196A11DB11DF4018083E5
:101010009183A283B383F5018789908DA18DB28DD1
:10102000892B8A2B8B2B39F48481C78AD08EE18E51
:10103000F28E80688483F50184818062848381E0FC
:10104000ADCF1F93CF93DF93EC01162F8C8187FFD9
:1010500029C06E857F858889998941E07DDC882358
:1010600059F1EA8980E2E89FF0011124EF53FD4F26
:10107000309711F18D81823040F48B899C89AD8944
:10108000BE89848F958FA68FB78F8F89988D938F08
:10109000828F8F89988DA98DBA8DB58BA48B8C8109
:1010A0008F778C83111103C08C818F7E8C83812F6D
:1010B000DF91CF911F9129CC80E0DF91CF911F91DB
:1010C00008951F93CF93DF93EC018D81813031F030
:1010D00090E080E0DF91CF911F9108958C8181FF96
:1010E000F7CF82FD17C090E080E003DB24DB182FF0
:1010F00090E080E00FDB1F3F59F78C8185FF1CC01B
:101100008D81882319F060E0CE019BDF8C818F7D7B
:101110008C83DECF4B895C896D897E898A859B852E
:10112000AC85BD8584179507A607B707E1F2CE0108
:10113000F8DD8111D8CFCCCF4091BD025091BE02D5
:101140006091BF027091C002452B462B472B19F0CE
:1011500080E0BADBBDCF80618C832A853B8531700E
:1011600080E092E0821B930BB5CF9F92AF92BF922B
:10117000CF92DF92EF92FF920F931F93CF93DF9363
:1011800000D01F921F92CDB7DEB78C016D83DC01BA
:1011900015968C911597813009F0B7C014968C91F3
:1011A00081FFB3C082FD9EC0D8015B96ED91FC919A
:1011B0005C971A96AD90BD90CD90DC901D97948071
:1011C0009A94B601A50189E076956795579547955C
:1011D0008A95D1F79422B1E0BB22992009F49DC0F1
:1011E000D8015B96ED91FC915C971696CD90DD90C1
:1011F000ED90FC901997B2E0CB1AD108E108F10804
:10120000858504C0CC0CDD1CEE1CFF1C8A95D2F732
:101210004685578560897189C40ED51EE61EF71E66
:10122000C90CD11CE11CF11CA114B10409F004C1CA
:10123000F801428553856485758583899489A589DC
:10124000B689481759076A077B0708F4F5C081E09B
:101250005CDB882309F459C0C0920002D0920102DD
:10126000E0920202F09203028091BC0281608093BE
:10127000BC02F501EF53FD4F8D818083F80182851B
:101280009385A485B5850196A11DB11D828793879D
:10129000A487B58743895489658976894817590792
:1012A0006A077B0738F42481838B948BA58BB68BDC
:1012B00020682483D80114968C9183FD9BC081E023
:1012C00090E00F900F900F900F900F90DF91CF91C3
:1012D0001F910F91FF90EF90DF90CF90BF90AF9054
:1012E0009F900895F801438954896589768982859C
:1012F0009385A485B585481759076A077B0709F4C4
:1013000053CFC8010EDD81114FCF81E090E0D801AD
:1013100013969C938E93129747C0D80116964D91C1
:101320005D916D917C911997A114B10409F06DC084
:10133000411551056105710581F557968D919D9176
:101340000D90BC91A02D0097A105B10509F04CC0EE
:10135000C8017ADD8823C9F2D8015B96ED91FC9132
:101360005C971696CD90DD90ED90FC901997B2E0C9
:10137000CB1AD108E108F108858504C0CC0CDD1C2E
:10138000EE1CFF1C8A95D2F74685578560897189C6
:10139000C40ED51EE61EF71E4BCF9E012F5F3F4F9A
:1013A000CF013FDC811103C090E080E08ACF8981CA
:1013B0009A81AB81BC81F801238D348DF901278995
:1013C00048EF5FEF60E070E0203121F048EF5FEF21
:1013D0006FEF7FE084179507A607B70728F0C801CD
:1013E00033DD8111FDCE91CFF80186839783A087ED
:1013F000B187F6CEF8018581882309F486CF61E0B4
:10140000C8011FDE81115BCF80CF6A017B01B2E092
:10141000CB1AD108E108F108858504C0CC0CDD1C8D
:10142000EE1CFF1C8A95D2F7468557856089718925
:10143000C40ED51EE61EF71E41E0C701B6018CDAC8
:10144000811117CF62CF089585ED8093BC00809104
:10145000BC0084FDFCCF10921805089520919802DD
:10146000260F3327331F21323105ECF42091180564
:10147000FC0190E080E0243069F082E00895A091C2
:1014800098022191AC0148585D4FA40FB52FB11DB2
:101490002C930196861798F380919802680F6093B9
:1014A000980280E0089581E008950895E0911A057A
:1014B00080911905E81730F4F0E0E55EFA4F80817D
:1014C00090E008958FEF9FEF089590911A05809115
:1014D00019052FEF3FEF981748F4E92FF0E0E55E8C
:1014E000FA4F208130E09F5F90931A05C90108955B
:1014F0008091190590911A05891B990B0895CF9237
:10150000DF92EF92FF920F931F93CF93DF937C01B3
:10151000CB018A012091CE04222389F0EB016B01DB
:10152000C40ED51ECC15DD0561F06991D701ED9192
:10153000FC910190F081E02DC7011995F3CF642F44
:101540008DDFC801DF91CF911F910F91FF90EF9038
:10155000DF90CF900895CF93DF931F92CDB7DEB782
:1015600069832091CE042223F9F02091F1042032E6
:1015700058F021E030E0FC013383228390E080E0EA
:101580000F90DF91CF9108958091CF04E82FF0E084
:10159000E053FB4F998190838F5F8093CF048093BA
:1015A000F10481E090E0ECCF61E0CE01019656DFDE
:1015B000F8CF90E080E00895FC0101900020E9F769
:1015C0003197AF01481B590BBC018FE495E00C9497
:1015D0005A011F920F920FB60F9211240BB60F9261
:1015E0002F933F934F935F936F937F938F939F932B
:1015F000AF93BF93EF93FF938FE495E00E94CF01E9
:10160000FF91EF91BF91AF919F918F917F916F91DA
:101610005F914F913F912F910F900BBE0F900FBE96
:101620000F901F9018951F920F920FB60F921124D2
:101630000BB60F922F938F939F93EF93FF93E091AD
:101640005F05F09160058081E0916505F091660588
:1016500082FD1DC09081809168058F5F8F732091FE
:101660006905821741F0E0916805F0E0E15BFA4F0F
:10167000958F80936805FF91EF919F918F912F91A6
:101680000F900BBE0F900FBE0F901F90189580818A
:10169000F2CF1F920F920FB60F9211242F933F9308
:1016A0008F939F93AF93BF938091C2049091C30493
:1016B000A091C404B091C5043091C10423E0230F6C
:1016C0002D3758F50196A11DB11D2093C1048093BB
:1016D000C2049093C304A093C404B093C504809142
:1016E000C6049091C704A091C804B091C9040196A2
:1016F000A11DB11D8093C6049093C704A093C80494
:10170000B093C904BF91AF919F918F913F912F9159
:101710000F900FBE0F901F90189526E8230F02968A
:10172000A11DB11DD2CF1F920F920FB60F9211249F
:101730000BB60F922F933F934F935F936F937F93CB
:101740008F939F93AF93BF93EF93FF938091B900D3
:10175000887F803609F44CC008F03FC0883209F415
:10176000A8C028F5803109F49CC0C8F4882309F486
:10177000FAC0883009F495C0FF91EF91BF91AF9105
:101780009F918F917F916F915F914F913F912F9199
:101790000F900BBE0F900FBE0F901F9018958831C1
:1017A00009F487C0803241F78093160514C0803455
:1017B00009F49CC040F48033B9F38833E9F6809390
:1017C000160585ECAFC0803509F484C0883509F46E
:1017D00095C0883489F638DECFCF883909F48CC0BB
:1017E00038F5883729F050F4883611F0803721F623
:1017F00083E0809318051092BA0257C0883809F424
:101800007BC0803919F0803809F0B6CF8091BA02D8
:10181000803208F071C0E091BA0281E08E0F8093AF
:10182000BA028091BB00F0E0E656FD4F80833DC0D8
:10183000803B39F0E0F4803A09F479C0883A09F045
:101840009BCF84E080931805109299021092980221
:10185000E091CC04F091CD0419958091980281110A
:101860000FC081E0809398021092780209C0803CFA
:1018700009F4A7CF883C09F4A4CF883B09F07CCFBA
:10188000E091990281E08E0F80939902F0E0E85890
:10189000FD4F80818093BB009091990280919802C6
:1018A00029C0809113058093BB0085EC8093BC0018
:1018B00063CF9091150580911405981758F5E09124
:1018C000150581E08E0F80931505F0E0EE50FB4F7B
:1018D0008081E9CFE091150581E08E0F8093150599
:1018E0008091BB00F0E0EE50FB4F80839091150596
:1018F000809114059817C8F285E8D8CFE0911505B6
:1019000081E08E0F809315058091BB00F0E0EE50D2
:10191000FB4F80838091170581115DCF81E080931B
:10192000120584EA8093BC001092180525CF85EC3F
:101930008093BC00109218058091BA02803230F476
:10194000E091BA02F0E0E656FD4F10826091BA02D3
:1019500070E0E091CA04F091CB048AE992E0199515
:101960001092BA0209CF1092160535CF1092520587
:101970001092510588EE93E0A0E0B0E0809353050B
:1019800090935405A0935505B093560528E132E095
:101990003093500520934F0525EC30E030935C05E3
:1019A00020935B0524EC30E030935E0520935D05C9
:1019B00020EC30E03093600520935F0521EC30E0AF
:1019C000309362052093610522EC30E0309364058A
:1019D0002093630526EC30E030936605209365057F
:1019E000109268051092690510926A0510926B05B5
:1019F00020E52093EC051092ED051092F30510926E
:101A0000F4051092F7051092F90542E050E060E00D
:101A100070E04093FA055093FB056093FC057093CA
:101A2000FD051092110610921B0610921A062AE26A
:101A300032E0309319062093180610921D0610927A
:101A40003A061092390680933B0690933C06A09389
:101A50003D06B0933E0686E392E09093380680936D
:101A6000370680E1809348068CE18093470686E044
:101A70008093460640E081E697E9E3E9FEEF542FC4
:101A8000537021E009F020E061E0640F30E0D901FB
:101A9000A359BE4F8A179B0738F0AF01421B530B67
:101AA000840F951F462FEBCF4093430621E0622F12
:101AB0006150770BFB01EC5FFD4FE491511103C0C6
:101AC000223009F4EF5FF0E031E0320F8E179F070C
:101AD00020F08E1B9F0B232FEACF209344068F5FAD
:101AE000809345060895789484B5826084BD84B55A
:101AF000816084BD85B5826085BD85B5816085BD09
:101B000080916E00816080936E00109281008091C0
:101B10008100826080938100809181008160809348
:101B20008100809180008160809380008091B1006D
:101B300084608093B1008091B00081608093B00098
:101B400080919100826080939100809191008160EA
:101B500080939100809190008160809390008091AB
:101B6000A10082608093A1008091A1008160809398
:101B7000A1008091A00081608093A000809121014C
:101B800082608093210180912101816080932101F5
:101B90008091200181608093200180917A0084608F
:101BA00080937A0080917A00826080937A0080919D
:101BB0007A00816080937A0080917A0080688093B7
:101BC0007A001092C100E0915F05F091600582E01B
:101BD0008083E0915B05F0915C051082E0915D05EA
:101BE000F0915E0580E1808310926705E0916305C6
:101BF000F091640586E08083E0916105F0916205D3
:101C0000808180618083E0916105F091620580812F
:101C100088608083E0916105F09162058081806831
:101C20008083E0916105F091620580818F7D8083E2
:101C300084E492E0C1DC10921A051092190510920A
:101C4000CF041092F10410921805C1E0C09317055B
:101C50001092120561E084E10E941B0361E085E1BE
:101C60000E941B038091B9008E7F8093B900809100
:101C7000B9008D7F8093B90088E48093B80085E433
:101C80008093BC0087E891E09093CD048093CC04CE
:101C900088E891E09093CB048093CA0483E692E0B5
:101CA0008BDC84E792E088DC0E946D03C093CE0455
:101CB00088E68093F0041092CF041092F10460E063
:101CC00087E396E048DC9091F104913208F03FC040
:101CD000809118058111FCCF82E08093180581E086
:101CE000809317058FEF809316051092150590933A
:101CF0001405A0EDB4E0E2EFF4E080E09813FFC13A
:101D00001092130580911305806D809313058091C7
:101D10001205813009F0F7C1109212058091130568
:101D20008093BB008091BC0083FDF8CF85EC80934D
:101D3000BC00809118058230E1F3809116058F3F39
:101D400031F080911605803211F0809116051092C5
:101D5000CF041092F1041092CE04809118058111E5
:101D6000FCCF81E080931805809317059FEF909337
:101D700016051092150596E09093140580931305AF
:101D800080911305806D8093130580911205813039
:101D900009F0BBC110921205809113058093BB001E
:101DA0008091BC0083FDF8CF85EC8093BC008091CE
:101DB00018058130E1F38091150597E0873010F424
:101DC00090911505E2EFF4E0ABE1B5E080E0891316
:101DD0009EC110921A058093190587E396E075DB82
:101DE0008F77282F30E044E0359527954A95E1F725
:101DF000922F990F990FC22FC91BCC0FC80F87E3E1
:101E000096E063DB9C0154E0359527955A95E1F700
:101E10002F703327922F990F990FD22FD91BDD0FD7
:101E2000D80F87E396E051DB9C0164E03595279558
:101E30006A95E1F72F703327922F990F990F122F80
:101E4000191B110F180F87E396E03FDB87E396E03D
:101E50003CDB9C0174E0359527957A95E1F72F706E
:101E60003327922F990F990FF22EF91AFF0CF80EC3
:101E700087E396E02ADB9C01E4E035952795EA9517
:101E8000E1F72F703327922F990F990F022F091B1B
:101E9000000F080F87E396E018DB9C01F4E035950E
:101EA0002795FA95E1F72F703327922F990F990F05
:101EB000291B220F820F8093430600934406F09261
:101EC000450610934606D0934706C093480681E125
:101ED0000E943B0104E112E0C4E0D2E08881229636
:101EE0000E943B010C171D07C9F710923E05109286
:101EF0004E05109240051092410510924205109235
:101F0000430588EE93E0909349058093480510922D
:101F10004B0510924A0590E4692E77247394882427
:101F20008A9423E0922EA12CB12C0E946D036B01A8
:101F300085E30E94F30280917B00877F80937B0082
:101F400060927C0080917A00806480937A00809116
:101F50007A0086FDFCCF8091780000917900102FE7
:101F6000082F109347050093460585E10E94F30270
:101F700021E0892B09F020E080913D05281731F000
:101F800020933D05D0923C05C0923B0580913B05D6
:101F900090913C05C81AD90A35E1C316D10414F052
:101FA00020933F0580913E0590913F05992309F4C8
:101FB000B2C0811107C080914E05872580934E05E0
:101FC00070923E050E946D036B0180914C059091CB
:101FD0004D05F601E81BF90BCF01D0924D05C092DB
:101FE0004C0520914A0530914B052E173F0724F4EC
:101FF000F0934B05E0934A0520914805309149053F
:102000008217930724F490934905809348058091A3
:102010004405909145059601281B390BC901843F61
:102020009140ACF124E630E0D8018ED2A5019401B4
:1020300078D0B901330F880B990B8FD120E030E0B5
:1020400048EC52E420D19B01AC0113D220E030E0F7
:1020500048E453E40ED22DEC3BE34EE85EE309D2B4
:102060009B01AC0160914005709141058091420552
:1020700090914305A4D060934005709341058093EF
:10208000420590934305D0924505C092440504E073
:1020900012E0F80160810E5F1F4F80E00E941B0379
:1020A0000C171D07B1F761E180914E050E941B03DB
:1020B0000E9448031B012C0185E0C82ED12CE12C85
:1020C000F12C0E9448036219730984099509683E3E
:1020D000734081059105A8F3F1E0CF1AD108E1081A
:1020E000F10828EE220E23E0321E411C511CC114BF
:1020F000D104E104F10429F70E945C0216CF2D916E
:1021000021938F5FFBCD85EE12CE85EE4ECE2191D1
:102110002D938F5F5CCE882309F454CF10923E0537
:1021200051CF052E97FB16F400940FD057FD05D024
:1021300014D007FC02D046F408C050954095309565
:1021400021953F4F4F4F5F4F089590958095709523
:1021500061957F4F8F4F9F4F0895A1E21A2EAA1BC2
:10216000BB1BFD010DC0AA1FBB1FEE1FFF1FA21747
:10217000B307E407F50720F0A21BB30BE40BF50B44
:10218000661F771F881F991F1A9469F760957095CD
:10219000809590959B01AC01BD01CF010895A29F50
:1021A000B001B39FC001A39F700D811D1124911D2B
:1021B000B29F700D811D1124911D08955058BB27A9
:1021C000AA270ED01CC10DD130F012D120F031F46D
:1021D0009F3F11F41EF402C10EF4E095E7FBF8C036
:1021E000E92F1ED180F3BA1762077307840795079A
:1021F00018F071F49EF536C10EF4E0950B2EBA2F4F
:10220000A02D0B01B90190010C01CA01A0011124FC
:10221000FF27591B99F0593F50F4503E68F11A16A8
:10222000F040A22F232F342F4427585FF3CF469539
:1022300037952795A795F0405395C9F77EF41F165B
:10224000BA0B620B730B840BBAF09150A1F0FF0F25
:10225000BB1F661F771F881FC2F70EC0BA0F621F11
:10226000731F841F48F4879577956795B795F79501
:102270009E3F08F0B3CF9395880F08F09927EE0F93
:102280009795879508950CD0BAC0B2D040F0A9D0E8
:1022900030F021F45F3F19F09BC05111E4C09EC0A3
:1022A000BFD098F39923C9F35523B1F3951B550B70
:1022B000BB27AA2762177307840738F09F5F5F4F19
:1022C000220F331F441FAA1FA9F333D00E2E3AF05A
:1022D000E0E830D091505040E695001CCAF729D074
:1022E000FE2F27D0660F771F881FBB1F26173707C3
:1022F0004807AB07B0E809F0BB0B802DBF01FF27F3
:1023000093585F4F2AF09E3F510568F061C0ABC003
:102310005F3FECF3983EDCF3869577956795B7952C
:10232000F7959F5FC9F7880F911D9695879597F947
:102330000895E1E0660F771F881FBB1F62177307C0
:102340008407BA0720F0621B730B840BBA0BEE1FD5
:1023500088F7E0950895E89409C097FB3EF49095BE
:102360008095709561957F4F8F4F9F4F9923A9F06E
:10237000F92F96E9BB279395F695879577956795FD
:10238000B795F111F8CFFAF4BB0F11F460FF1BC041
:102390006F5F7F4F8F4F9F4F16C0882311F096E9D4
:1023A00011C0772321F09EE8872F762F05C0662382
:1023B00071F096E8862F70E060E02AF09A95660F3B
:1023C000771F881FDAF7880F9695879597F90895F4
:1023D00097F99F6780E870E060E008959FEF80ECD8
:1023E000089500240A94161617061806090608957B
:1023F00000240A9412161306140605060895092EE1
:102400000394000C11F4882352F0BB0F40F4BF2B4F
:1024100011F460FF04C06F5F7F4F8F4F9F4F08958F
:1024200057FD9058440F551F59F05F3F71F0479585
:10243000880F97FB991F61F09F3F79F0879508956A
:10244000121613061406551FF2CF4695F1DF08C089
:10245000161617061806991FF1CF869571056105A6
:1024600008940895E894BB2766277727CB0197F94E
:1024700008950BD0C4CFB5DF28F0BADF18F095234C
:1024800009F0A6CFABCF1124EECFCADFA0F3959F02
:10249000D1F3950F50E0551F629FF001729FBB274B
:1024A000F00DB11D639FAA27F00DB11DAA1F649FF7
:1024B0006627B00DA11D661F829F2227B00DA11DAA
:1024C000621F739FB00DA11D621F839FA00D611D30
:1024D000221F749F3327A00D611D231F849F600D51
:1024E000211D822F762F6A2F11249F5750408AF08A
:1024F000E1F088234AF0EE0FFF1FBB1F661F771F16
:10250000881F91505040A9F79E3F510570F060CF51
:10251000AACF5F3FECF3983EDCF3869577956795FD
:10252000B795F795E7959F5FC1F7FE2B880F911D33
:102530009695879597F90895EE0FFF1F881F8BBF1B
:102540000790F691E02D19942ADEB7FF0895821BBB
:08255000930B0895F894FFCFEE
:10255800FFFFFFFF0F000E0002000300040005004C
:102568000600070000000000F1015A0189013D0240
:10257800BA019801AC0100000000B5085A016108D1
:10258800230A00000000AB0A7F0AD90A550A780A14
:10259800650A560A73657269616C20636F6D6D75A3
:1025A8006E69636174696F6E20696E6974696174BC
:1025B8006564005769726520696E697469616C6940
:0825C8007A6564000D0A0000B1
:020000023000CC
:10E000000D9489F10D94B2F10D94B2F10D94B2F129
:10E010000D94B2F10D94B2F10D94B2F10D94B2F1F0
:10E020000D94B2F10D94B2F10D94B2F10D94B2F1E0
:10E030000D94B2F10D94B2F10D94B2F10D94B2F1D0
:10E040000D94B2F10D94B2F10D94B2F10D94B2F1C0
:10E050000D94B2F10D94B2F10D94B2F10D94B2F1B0
:10E060000D94B2F10D94B2F10D94B2F10D94B2F1A0
:10E070000D94B2F10D94B2F10D94B2F10D94B2F190
:10E080000D94B2F10D94B2F10D94B2F10D94B2F180
:10E090000D94B2F10D94B2F10D94B2F10D94B2F170
:10E0A0000D94B2F10D94B2F10D94B2F10D94B2F160
:10E0B0000D94B2F10D94B2F10D94B2F10D94B2F150
:10E0C0000D94B2F10D94B2F10D94B2F10D94B2F140
:10E0D0000D94B2F10D94B2F10D94B2F10D94B2F130
:10E0E0000D94B2F141546D656761323536300041AF
:10E0F000726475696E6F206578706C6F72657220DE
:10E1000073746B3530305632206279204D4C530099
:10E11000426F6F746C6F616465723E004875683F52
:10E1200000436F6D70696C6564206F6E203D200048
:10E130004350552054797065202020203D20005FF9
:10E140005F4156525F415243485F5F3D2000415658
:10E1500052204C696243205665723D20004743437C
:10E160002056657273696F6E203D20004350552024
:10E1700049442020202020203D20004C6F7720663D
:10E18000757365202020203D20004869676820665F
:10E190007573652020203D200045787420667573D6
:10E1A00065202020203D20004C6F636B2066757336
:10E1B000652020203D20004D617220203720323024
:10E1C000313300312E362E3800342E332E350056A2
:10E1D00023202020414444522020206F7020636F70
:10E1E00064652020202020696E73747275637469E1
:10E1F0006F6E2061646472202020496E74657272B3
:10E20000757074006E6F20766563746F7200726A49
:10E210006D702020006A6D70200057686174207056
:10E220006F72743A00506F7274206E6F7420737541
:10E2300070706F72746564004D7573742062652030
:10E2400061206C6574746572002000577269747483
:10E25000696E672045450052656164696E672045B7
:10E26000450045452065727220636E743D00504F35
:10E27000525400303D5A65726F2061646472003FF1
:10E280003D43505520737461747300403D454550C3
:10E29000524F4D207465737400423D426C696E6B41
:10E2A000204C454400453D44756D70204545505215
:10E2B0004F4D00463D44756D7020464C415348001B
:10E2C000483D48656C70004C3D4C69737420492F83
:10E2D0004F20506F72747300513D51756974005234
:10E2E0003D44756D702052414D00563D73686F7707
:10E2F00020696E7465727275707420566563746FF0
:10E30000727300593D506F727420626C696E6B00BD
:10E310002A0011241FBECFEFD1E2DEBFCDBF01E046
:10E320000CBF12E0A0E0B2E0EEE1FDEF03E00BBFB6
:10E3300002C007900D92A030B107D9F712E0A0E01B
:10E34000B2E001C01D92AE30B107E1F70F9460F367
:10E350000D948DFE01E20EBF0FEF0DBF11241FBE05
:10E360000D9460F30D9400F020E030E040ED57E0B4
:10E3700005C0FA013197F1F72F5F3F4F2817390792
:10E38000C0F308959C01260F311DC901A0E0B0E043
:10E390002F5F3F4FABBFFC018791882361F08093D3
:10E3A000C6008091C00086FFFCCF8091C0008064D1
:10E3B0008093C000EACF08958DE08093C6008091DD
:10E3C000C00086FFFCCF8091C00080648093C000B5
:10E3D0008AE08093C6008091C00086FFFCCF8091C8
:10E3E000C00080648093C00008950F94C2F10F9420
:10E3F000DCF10895FC019081992359F09093C600B7
:10E400008091C00086FFFCCF8091C0008064809323
:10E41000C0003196992379F70895282F982F929567
:10E420009F70892F805D8A3308F0895F8093C600D2
:10E430008091C00086FFFCCF8091C00080648093F3
:10E44000C000822F8F70982F905D9A3308F0995FEB
:10E450009093C6008091C00086FFFCCF8091C000E1
:10E4600080648093C00008959C01FB01853691056E
:10E470001CF46330710594F0C90164E670E00F94F8
:10E480002EFE605D7F4F6093C6008091C00086FFC6
:10E49000FCCF8091C00080648093C0002B30310598
:10E4A00014F43297B4F0C90164E670E00F942EFEC4
:10E4B0006AE070E00F942EFE605D7F4F6093C600AF
:10E4C0008091C00086FFFCCF8091C0008064809363
:10E4D000C000C9016AE070E00F942EFEC0968093E0
:10E4E000C6008091C00086FFFCCF8091C000806490
:10E4F0008093C00008951F93182F8EE692EE60E07F
:10E500000F94C2F11093C6008091C00086FFFCCF2B
:10E510008091C00080648093C0000F94DCF11F9153
:10E5200008952F923F924F925F926F927F928F92B7
:10E530009F92AF92BF92CF92DF92EF92FF920F9392
:10E540001F93DF93CF93CDB7DEB762970FB6F894E2
:10E55000DEBF0FBECDBF382E622ECA01DB015C01CB
:10E560006D01772420E2222E2E010894411C511CBB
:10E570008BC081E0A81680E0B80681E0C80680E084
:10E58000D80628F0C601AA27BB270F940DF2BB2797
:10E59000AD2D9C2D8B2D0F940DF28A2D0F940DF225
:10E5A0002092C6008091C00086FFFCCF8091C00001
:10E5B00080648093C0009DE29093C6008091C0006B
:10E5C00086FFFCCF8091C00080648093C0002092C1
:10E5D000C6008091C00086FFFCCF8091C00080649F
:10E5E0008093C00019828601750188249924A1E0D6
:10E5F0003A1651F03A1620F0B2E03B1661F409C029
:10E600000BBFF701779007C0C7010F9477FE782EF4
:10E6100002C0F7017080872D0F940DF22092C60082
:10E620008091C00086FFFCCF8091C0008064809301
:10E63000C000872D8052F401EF70F0708F3520F408
:10E64000E40DF51D708204C0E40DF51D8EE280839B
:10E650000894E11CF11C011D111D0894811C911CE2
:10E6600090E18916910409F0C2CF80E190E0A0E02A
:10E67000B0E0A80EB91ECA1EDB1E198AC2010F9493
:10E68000FAF10F94DCF16A94662009F072CF629679
:10E690000FB6F894DEBF0FBECDBFCF91DF911F91B3
:10E6A0000F91FF90EF90DF90CF90BF90AF909F9031
:10E6B0008F907F906F905F904F903F902F90089534
:10E6C0002F923F924F925F926F927F928F929F9282
:10E6D000AF92BF92CF92DF92EF92FF920F931F9370
:10E6E000DF93CF93CDB7DEB7CD53D1400FB6F894BB
:10E6F000DEBF0FBECDBF01E20EBF0FEF0DBF94B75F
:10E70000F894A89514BE80916000886180936000A1
:10E7100010926000789493FF05C0E0910002F091A0
:10E7200001021995279A2F9A8091C00082608093E8
:10E73000C00080E18093C40088E18093C1000000A4
:10E74000EE24FF24870144E0A42EB12CCC24DD2448
:10E7500024C0C5010197F1F70894E11CF11C011DCB
:10E76000111D21E2E2162EE4F20620E0020720E06D
:10E77000120718F031E0C32ED12CC801B70127ECE5
:10E780003BE140E050E00F9441FE611571058105C9
:10E79000910519F485B1805885B98091C00087FD35
:10E7A00003C0C114D104A9F2A6014F5F5F4FC25E3E
:10E7B000DE4F59834883CE51D140C25EDE4F8881FF
:10E7C0009981CE51D140019711F00D9410FEC05D9A
:10E7D000DE4F19821882C053D14060E0C15DDE4F28
:10E7E0001882CF52D14088249924C35DDE4F19820C
:10E7F0001882CD52D140C05EDE4F188219821A8233
:10E800001B82C052D140CE5CDE4F188219821A8220
:10E810001B82C253D140EE24FF2487010BBFF701B6
:10E8200007911691C45CDE4F19830883CC53D14005
:10E830000D940BFEC25EDE4F28813981CE51D1404E
:10E840002130310509F52091C600C25EDE4F1982E4
:10E850001882CE51D14022C02F5F3F4F4F4F5F4FA4
:10E86000213082E138078AE7480780E0580780F0C6
:10E87000C45CDE4FE881F981CC53D140EF5FFF4F9C
:10E8800019F0EE27FF27099420E030E040E050E047
:10E890008091C00087FFE0CF2091C600C35DDE4FAE
:10E8A00048815981CD52D1404F5F5F4FC35DDE4FEC
:10E8B00059834883CD52D140213209F063C64A3092
:10E8C000510508F05FC60894811C911C53E0851621
:10E8D000910409F059C600E010E018C081E280936D
:10E8E000C6008091C00086FFFCCF8091C00080648C
:10E8F0008093C0002F5F3F4F2931310579F70F9486
:10E90000DCF10F5F1F4F0530110519F020E030E0FA
:10E91000E5CF10920A0210920B0210920C02109294
:10E920000D02109206021092070210920802109235
:10E930000902109202021092030210920402109235
:10E9400005028FEE90EE60E00F94F5F180E191EE1C
:10E9500060E00F94C2F18091C00087FFFCCF9091DE
:10E96000C600903608F09F759032B8F09093C600BC
:10E970008091C00086FFFCCF8091C00080648093AE
:10E98000C000A0E2A093C6008091C00086FFFCCF2B
:10E990008091C00080648093C000983409F4D7C18E
:10E9A0009934B8F4923409F459C1933458F490333B
:10E9B00019F1903308F4E3C59F33A1F1903409F0C5
:10E9C000DEC5BDC0953409F470C1963409F0D7C5D1
:10E9D00098C1923509F42BC2933538F49C3409F46C
:10E9E000F5C1913509F0CBC518C2963509F445C279
:10E9F000993509F0C4C567C483E792EE62E00F94CD
:10EA0000F5F110920602109207021092080210927D
:10EA1000090210920A0210920B0210920C0210923C
:10EA20000D0213C18FE792EE62E00F94F5F18FEEC5
:10EA300090EE60E00F94F5F181E291EE60E00F94CA
:10EA4000C2F187EB91EE60E00F94F5F180E391EE77
:10EA500060E00F94C2F184EE90EE60E00F94F5F167
:10EA60008FE391EE60E00F94C2F186E090E061E008
:10EA700070E00F9434F20F94DCF18DE591EE60E0DC
:10EA80000F94C2F189EC91EE60E00F94F5F18EE401
:10EA900091EE60E00F94C2F183EC91EE60E00F9490
:10EAA000F5F18CE691EE60E00F94C2F18EE10F94E7
:10EAB0000DF288E90F940DF281E00F940DF20F949E
:10EAC000DCF18BE791EE60E00F94C2F119E0E0E039
:10EAD000F0E010935700E4918E2F0F940DF20F94F5
:10EAE000DCF18AE891EE60E00F94C2F1E3E0F0E03F
:10EAF00010935700E4918E2F0F940DF20F94DCF1D8
:10EB000089E991EE60E00F94C2F1E2E0F0E0109349
:10EB10005700E4918E2F0F940DF20F94DCF188EAE8
:10EB200091EE60E00F94C2F1E1E0F0E01093570045
:10EB30001491812F0F940DF20F94DCF107CF8BE825
:10EB400092EE62E00F94F5F18BE492EE60E00F94A8
:10EB5000F5F10F94DCF100E010E019C0C8016F2D51
:10EB60000F947FFEFF2031F489E492EE60E00F9471
:10EB7000C2F10BC0F092C6008091C00086FFFCCFAE
:10EB80008091C00080648093C0000F5F1F4FC80158
:10EB900081519F41A0E0B0E0ABBFFC01F790BAE229
:10EBA000FB1621F0E2E000301E07C1F60F94DCF105
:10EBB0000F94DCF187E592EE60E00F94F5F10F948D
:10EBC000DCF1CC24DD2400E010E01EC0C8010F946D
:10EBD00077FEF82E882331F489E492EE60E00F94FA
:10EBE000C2F10BC08093C6008091C00086FFFCCFAD
:10EBF0008091C00080648093C000FE1419F00894D6
:10EC0000C11CD11C0F5F1F4FC80181519F41A0E063
:10EC1000B0E0ABBFFC01E790FAE2EF1621F022E092
:10EC20000030120799F60F94DCF10F94DCF182E6C4
:10EC300092EE60E00F94C2F1C60161E070E00F94C3
:10EC400034F20F94DCF10F94DCF110920202109276
:10EC50000302109204021092050278CE89E992EE26
:10EC600062E00F94F5F1279A2F9A16C02F9880E052
:10EC700090E0E0EDF7E03197F1F7019684369105E9
:10EC8000C1F72F9A80E090E0E0EDF7E03197F1F7DF
:10EC9000019684369105C1F78091C00087FFE6CFC9
:10ECA0008091C00087FFFCCF64C485EA92EE62E0E9
:10ECB0000F94F5F140910202509103026091040219
:10ECC0007091050281E020E10F9491F2809102029F
:10ECD00090910302A0910402B091050280509F4FD1
:10ECE000AF4FBF4F8093020290930302A0930402A0
:10ECF000B093050280509041A040B04008F426CE69
:10ED0000A4CF83EB92EE62E00F94F5F140910602FE
:10ED100050910702609108027091090280E020E1A1
:10ED20000F9491F28091060290910702A09108023F
:10ED3000B091090280509F4FAF4FBF4F80930602A2
:10ED400090930702A0930802B0930902FFCD80ECD4
:10ED500092EE62E00F94F5F183E792EE60E00F949B
:10ED6000F5F18FE792EE60E00F94F5F18BE892EE0B
:10ED700060E00F94F5F189E992EE60E00F94F5F10F
:10ED800085EA92EE60E00F94F5F183EB92EE60E09D
:10ED90000F94F5F180EC92EE60E00F94F5F187ECC2
:10EDA00092EE60E00F94F5F188ED92EE60E00F9442
:10EDB000F5F18FED92EE60E00F94F5F18AEE92EEB0
:10EDC00060E00F94F5F183E093EEBDCD87EC92EE19
:10EDD00062E00F94F5F181E40F947BF282E40F94EA
:10EDE0007BF283E40F947BF284E40F947BF285E45E
:10EDF0000F947BF286E40F947BF287E40F947BF20E
:10EE000088E40F947BF28AE40F947BF28BE40F94F6
:10EE10007BF28CE40F947BF299CD88ED92EE62E068
:10EE20000F94F5F1772473948824992409C48FED05
:10EE300092EE62E00F94F5F140910A0250910B02BC
:10EE400060910C0270910D0282E020E10F9491F22A
:10EE500080910A0290910B02A0910C02B0910D02D8
:10EE600080509F4FAF4FBF4F80930A0290930B0289
:10EE7000A0930C02B0930D0269CD8AEE92EE62E08F
:10EE80000F94F5F184EE90EE60E00F94F5F18FECC5
:10EE900091EE60E00F94F5F1662477244301CC5D98
:10EEA000DE4F19821882C452D140D401C301B695F5
:10EEB000A79597958795CA5DDE4F88839983AA8326
:10EEC000BB83C652D140CC5DDE4FA881B981C4520C
:10EED000D1401196CC5DDE4FB983A883C452D14096
:10EEE000CD0162E070E00F9434F2B0E2B093C6005E
:10EEF0008091C00086FFFCCF8091C0008064809329
:10EF0000C000EDE2E093C6008091C00086FFFCCF18
:10EF10008091C00080648093C000F0E2F093C6004E
:10EF20008091C00086FFFCCF8091C00080648093F8
:10EF3000C000CA5DDE4FE880F9800A811B81C6529D
:10EF4000D140BB27A12F902F8F2D0F940DF2CA5DBA
:10EF5000DE4F8881C652D1400F940DF2B0E2FB2EF5
:10EF6000F092C6008091C00086FFFCCF8091C00067
:10EF700080648093C0000DE30093C6008091C000C0
:10EF800086FFFCCF8091C00080648093C00010E2B7
:10EF90001093C6008091C00086FFFCCF8091C00016
:10EFA00080648093C0008BBEF3012791C65DDE4F65
:10EFB0002883CA52D140A22EBB24CC24DD2408943D
:10EFC000611C711C811C911C8BBEF3018791282E42
:10EFD0003324442455240894611C711C811C911C09
:10EFE0008BBEF3013791C55DDE4F3883CB52D140E4
:10EFF0000894611C711C811C911C8BBEF30147910C
:10F00000C45DDE4F4883CC52D140ADEFEA2EAFEF66
:10F01000FA2EAFEF0A2FAFEF1A2F6E0C7F1C801E57
:10F02000911E142D032DF22CEE24EA0CFB1C0C1D5A
:10F030001D1D0F940DF220E22093C6008091C000A8
:10F0400086FFFCCF8091C00080648093C000C65DC5
:10F05000DE4F8881CA52D1400F940DF230E23093D6
:10F06000C6008091C00086FFFCCF8091C000806404
:10F070008093C000C45DDE4F8881CC52D1400F9494
:10F080000DF240E24093C6008091C00086FFFCCFA5
:10F090008091C00080648093C000C55DDE4F888190
:10F0A000CB52D1400F940DF250E25093C6008091A4
:10F0B000C00086FFFCCF8091C00080648093C000B8
:10F0C0008FEFE8168FEFF80680E0080780E018075A
:10F0D00031F484E092EE60E00F94C2F1DFC0D80119
:10F0E000C7018070907CA070B0708050904CA040A0
:10F0F000B040D1F52FEF3FE340E050E0E222F322B1
:10F1000004231523CA5DDE4FA880B980CA80DB8046
:10F11000C652D140AE0CBF1CC01ED11EAA0CBB1CD7
:10F12000CC1CDD1C8EE092EE60E00F94C2F1BB2798
:10F13000A12F902F8F2D0F940DF28E2D0F940DF285
:10F1400030E23093C6008091C00086FFFCCF8091F2
:10F15000C00080648093C0004EE34093C60080915D
:10F16000C00086FFFCCF87C08EE09EEFA0E0B0E03D
:10F17000E822F9220A231B239CE0E91694E9F90608
:10F1800090E0090790E0190709F088C0C45DDE4FE0
:10F19000A881CC52D140EA2EFF2400E010E0102FCD
:10F1A0000F2DFE2CEE24C55DDE4FB881CB52D14031
:10F1B000EB0EF11C011D111DD601C501817090706F
:10F1C000A070B070DC0199278827E80EF91E0A1F8D
:10F1D0001B1F20EF30E040E050E0A222B322C42207
:10F1E000D52241E1AA0CBB1CCC1CDD1C4A95D1F7F1
:10F1F000EA0CFB1C0C1D1D1D81E090E0A0E0B0E0BE
:10F20000282239224A225B2235E1220C331C441C7D
:10F21000551C3A95D1F7E20CF31C041D151D57013E
:10F220006801AA0CBB1CCC1CDD1C85E192EE60E0E1
:10F230000F94C2F1C801AA27BB270F940DF2BB2778
:10F24000A12F902F8F2D0F940DF28E2D0F940DF274
:10F2500090E29093C6008091C00086FFFCCF809121
:10F26000C00080648093C000AEE3A093C60080918C
:10F27000C00086FFFCCF8091C00080648093C000F6
:10F28000C601AA27BB270F940DF2BB27AD2D9C2DDD
:10F290008B2D0F940DF28A2D0F940DF20F94DCF14B
:10F2A000CC5DDE4FE881F981C452D140F99709F471
:10F2B0004DCBF4E0EF2EF12C012D112D6E0C7F1CA7
:10F2C000801E911EF2CD83E093EE62E00F94F5F183
:10F2D0008AE192EE60E00F94C2F18091C00087FF56
:10F2E000FCCF1091C6001F751093C6008091C0001E
:10F2F00086FFFCCF8091C00080648093C0000F9493
:10F30000DCF1812F81548A3108F036C1163409F4BA
:10F3100095C0173490F4133409F44EC0143430F40B
:10F320001134F1F0123409F01DC130C0143409F465
:10F3300059C0153409F016C16BC01A3409F4C4C0A1
:10F340001B3438F4173409F48FC0183409F00AC19B
:10F35000A1C01B3409F4D2C01C3409F003C1E8C0B9
:10F360008FEF81B90DC082B1809582B980E090E0C5
:10F37000E0EDF7E03197F1F70196883C9105C1F790
:10F380008091C00087FFEFCF12B8EFC08FEF84B934
:10F390000DC085B1809585B980E090E0E0EDF7E0A3
:10F3A0003197F1F70196883C9105C1F78091C00033
:10F3B00087FFEFCF15B8D9C08FEF87B90DC088B1DF
:10F3C000809588B980E090E0E0EDF7E03197F1F7C3
:10F3D0000196883C9105C1F78091C00087FFEFCF6F
:10F3E00018B8C3C08FEF8AB90DC08BB180958BB9A7
:10F3F00080E090E0E0EDF7E03197F1F70196883C8E
:10F400009105C1F78091C00087FFEFCF1BB8ADC059
:10F410008FEF8DB90DC08EB180958EB980E090E0F0
:10F42000E0EDF7E03197F1F70196883C9105C1F7DF
:10F430008091C00087FFEFCF1EB897C08FEF80BBD1
:10F440000DC081B3809581BB80E090E0E0EDF7E0F6
:10F450003197F1F70196883C9105C1F78091C00082
:10F4600087FFEFCF11BA81C08FEF83BB0DC084B38C
:10F47000809584BB80E090E0E0EDF7E03197F1F714
:10F480000196883C9105C1F78091C00087FFEFCFBE
:10F4900014BA6BC08FEF809301010FC080910201FD
:10F4A00080958093020180E090E0E0EDF7E03197F5
:10F4B000F1F70196883C9105C1F78091C00087FF64
:10F4C000EDCF1092020151C08FEF809304010FC065
:10F4D0008091050180958093050180E090E0E0ED4A
:10F4E000F7E03197F1F70196883C9105C1F78091DB
:10F4F000C00087FFEDCF1092050137C08FEF8093DA
:10F5000007010FC08091080180958093080180E079
:10F5100090E0E0EDF7E03197F1F70196883C910536
:10F52000C1F78091C00087FFEDCF109208011DC088
:10F530008FEF80930A010FC080910B01809580931B
:10F540000B0180E090E0E0EDF7E03197F1F70196F4
:10F55000883C9105C1F78091C00087FFEDCF1092E4
:10F560000B0103C085E292EEEEC98091C00087FFD7
:10F57000FCCF8091C600EAC988E392EEE4C98CE131
:10F5800091EEE1C988249924933011F1943028F444
:10F59000913089F09230B8F408C0953061F195301F
:10F5A000F0F0963009F048C043C02B3109F042C951
:10F5B00091E06BE13FC96227C15DDE4F2883CF52E6
:10F5C000D14092E037C9B22FA0E0622793E032C960
:10F5D000822F90E0A82BB92B622794E02BC92E3004
:10F5E00009F039C3622795E0C05DDE4F19821882A9
:10F5F000C053D1401FC9E1E0F0E0EC0FFD1FC05D3A
:10F60000DE4F08811981C053D140E00FF11F2083E4
:10F610000F5F1F4FC05DDE4F19830883C053D14079
:10F6200062270A171B0709F005C9D80196E002C92D
:10F63000261709F010C303C0973009F0FBC87724E0
:10F640009981933109F412C19431C8F4963009F4C8
:10F65000D8C0973050F4923009F406C1933009F4C1
:10F660006DC0913009F059C253C0913109F477C08F
:10F67000923108F0BBC0903109F04FC2F5C098310B
:10F6800009F487C0993150F4953109F4EFC09531F0
:10F6900008F4C6C1963109F040C2C2C19A3109F4DA
:10F6A0006CC09A3108F491C09B3109F45BC09D3164
:10F6B00009F033C29D81903359F48F81882311F46E
:10F6C0009EE11CC0813011F091E018C098E916C08D
:10F6D000892F807591F0903539F4E0E0F0E089E011
:10F6E0008093570094910AC0983539F4E3E0F0E034
:10F6F00089E080935700949101C090E01A821B82A8
:10F700008D818C831D829E831F8227E030E009C299
:10F710001A8288E08B8381E48C8386E58D8382E581
:10F720008E8389E48F8383E5888780E589878FE5E9
:10F730008A8782E38B872BE030E0F3C18A818139AD
:10F7400041F0823941F0803911F48FE005C080E04A
:10F7500003C082E001C08AE01A828B8344C0772410
:10F76000739482C08D81882311F48EE12CC0813086
:10F7700011F081E028C088E926C01A82E1E0F0E0BB
:10F7800089E08093570084918B831C8224E030E0D1
:10F79000C8C18B81803589F48C81883039F4E2E0EE
:10F7A000F0E089E08093570084910DC0E0E0F0E044
:10F7B00089E080935700849106C0E3E0F0E089E09F
:10F7C0008093570084911A82DFCF8D81836C99E0FA
:10F7D000E1E0F0E0082E90935700E89507B600FCB2
:10F7E000FDCF1A821B8223E030E09BC180EC8A832C
:10F7F000CE5CDE4F188219821A821B82C253D1401E
:10F800008EC18A8190E0A0E0B0E0582F44273327D2
:10F8100022278B8190E0A0E0B0E0DC0199278827C7
:10F82000282B392B4A2B5B2B8D8190E0A0E0B0E098
:10F83000282B392B4A2B5B2B8C8190E0A0E0B0E089
:10F84000BA2FA92F982F8827282B392B4A2B5B2BCF
:10F85000220F331F441F551FC05EDE4F288339839C
:10F860004A835B83C052D1401A8259C13A81C95C34
:10F87000DE4F3883C753D140CA5CDE4F1882C6536F
:10F88000D1408B81C82EDD24CA5CDE4F488159816E
:10F89000C653D140C42AD52A933109F082C0CE5C28
:10F8A000DE4F88819981AA81BB81C253D1408050AB
:10F8B000904CA340B04030F583E0CE5CDE4FE88052
:10F8C000F9800A811B81C253D140F70100935B008C
:10F8D00080935700E89507B600FCFDCFCE5CDE4F65
:10F8E000088119812A813B81C253D14000501F4FAA
:10F8F0002F4F3F4FCE5CDE4F088319832A833B8313
:10F90000C253D140C05EDE4F488159816A817B81FC
:10F91000C052D140DE011B9631E08C9111962C91A2
:10F9200011971296C75CDE4F2883C953D140C85C3B
:10F93000DE4F1882C853D14090E0C85CDE4FE881AA
:10F94000F981C853D1408E2B9F2B0C01FA01609393
:10F950005B0030935700E89511244E5F5F4F6F4F67
:10F960007F4F0EEFE02E0FEFF02ECE0CDF1CC114F8
:10F97000D10499F685E0C05EDE4F088119812A81A5
:10F980003B81C052D140F80120935B008093570027
:10F99000E89507B600FCFDCF81E180935700E8951C
:10F9A00035C0C05EDE4F88819981AA81BB81C0527B
:10F9B000D140B695A795979587957C018601ABE0D8
:10F9C000AA2EB12CAC0EBD1E0BC0D5016D915D01F0
:10F9D000C7010F947FFE0894E11CF11C01501040F8
:10F9E0000115110591F7A60160E070E0440F551F65
:10F9F000661F771FC05EDE4FE880F9800A811B8199
:10FA0000C052D1404E0D5F1D601F711F1A82C05E33
:10FA1000DE4F488359836A837B83C052D1407FC0C5
:10FA2000FA80C55CDE4FF882CB53D140C65CDE4F16
:10FA30001882CA53D1408B81C82EDD24C65CDE4FAC
:10FA400008811981CA53D140C02AD12A1A828981DA
:10FA5000BE016D5F7F4F843121F59601C05EDE4FA0
:10FA6000E880F9800A811B81C052D1400BBFF701A9
:10FA700087919691DB018C9311969C936E5F7F4FDB
:10FA8000D801C7010296A11DB11DC05EDE4F88835B
:10FA90009983AA83BB83C052D14022503040F1F6F3
:10FAA00036C0C05EDE4F288139814A815B81C052F9
:10FAB000D1400894C108D108760100E010E0089414
:10FAC000C11CD11C0894E11CF11C011D111DE20E8A
:10FAD000F31E041F151F21BDBB27A52F942F832FB5
:10FAE00082BD2F5F3F4F4F4F5F4FF89A80B5DB01CC
:10FAF0008D93BD012E153F054007510761F7C05E8C
:10FB0000DE4F288339834A835B83C052D1409601FC
:10FB10002D5F3F4FFB01108204C080EC8A8322E0FE
:10FB200030E08BE18093C6008091C00086FFFCCF5F
:10FB30008091C00080648093C000C15DDE4FF88179
:10FB4000CF52D140F093C6008091C00086FFFCCF19
:10FB50008091C00080648093C000432F3093C60022
:10FB60008091C00086FFFCCF8091C00080648093AC
:10FB7000C000922F2093C6008091C00086FFFCCF6A
:10FB80008091C00080648093C0008EE08093C600A6
:10FB90008091C00086FFFCCF8091C000806480937C
:10FBA000C00065E1C15DDE4FE880CF52D1406E25D7
:10FBB00069276427FE01319610C090819093C6009A
:10FBC0008091C00086FFFCCF31968091C000806498
:10FBD0008093C0006927215030402115310569F715
:10FBE0006093C6008091C00086FFFCCF8091C0006A
:10FBF00080648093C00085B1805885B9772081F4F6
:10FC0000C15DDE4F0881CF52D1400F5FC15DDE4F35
:10FC10000883CF52D14090E0A0E0B0E00D941AF4F8
:10FC200027982F9880E090E020ED37E0F901319798
:10FC3000F1F7019684369105C9F700008091C00064
:10FC40008D7F8093C00081E180935700E895EE2777
:10FC5000FF270994FFCF90E00D941AF497FB092E2B
:10FC600007260AD077FD04D02ED006D000201AF443
:10FC7000709561957F4F0895F6F7909581959F4F08
:10FC80000895A1E21A2EAA1BBB1BFD010DC0AA1FDD
:10FC9000BB1FEE1FFF1FA217B307E407F50720F0F5
:10FCA000A21BB30BE40BF50B661F771F881F991F70
:10FCB0001A9469F760957095809590959B01AC01B9
:10FCC000BD01CF010895AA1BBB1B51E107C0AA1FAC
:10FCD000BB1FA617B70710F0A61BB70B881F991FED
:10FCE0005A95A9F780959095BC01CD010895F99991
:10FCF000FECF92BD81BDF89A992780B50895262F31
:10FD0000F999FECF1FBA92BD81BD20BD0FB6F89400
:0EFD1000FA9AF99A0FBE01960895F894FFCF63
:040000033000E000E9
:00000001FF