:10000000F5C0000022C1000020C100001EC1000098
:100010001CC100001AC1000018C1000016C1000078
:1000200014C1000012C1000010C100000EC1000088
:100030000CC100000AC1000008C1000006C1000098
:1000400004C1000002C1000000C10000FEC00000A9
:10005000FCC00000FAC00000F8C0000034C400007A
:10006000F4C00000FAC30000CFC30000EEC00000DF
:10007000ECC00000EAC00000E8C00000E6C00000DC
:10008000E4C00000E2C00000E0C00000DEC00000EC
:10009000DCC00000DAC00000D8C00000D6C00000FC
:1000A000D4C00000D2C00000D0C00000CEC000000C
:1000B000CCC00000CAC00000C8C00000C6C000001C
:1000C000C4C00000C2C00000C0C00000BEC000002C
:1000D000BCC00000BAC00000B8C00000B6C000003C
:1000E000B4C0000000002100240027002A002D00D9
:1000F0003000330001010000040107010A01000083
:100100002200250028002B002E00310034000201BF
:100110000000050108010B01050505050705080894
:100120000808020202020A0A080804040404010181
:100130000101010101010303030303030303040796
:1001400007070C0C0C0C0C0C0C0C0202020206062D
:100150000606060606060B0B0B0B0B0B0B0B010220
:1001600010202008081020401020408002010201C9
:100170000804020101020408102040808040201081
:1001800008040201800402018040201008040201DA
:100190000804020101020408102040800102040842
:1001A0001020408000000A0B02090C0D0E08070306
:1001B000040100000000000000000000000000003A
:1001C000000000000000000000000000000000002F
:1001D00012111000000000000000000000000000EC
:1001E00000000000000000000000AD0411241FBE4C
:1001F000CFEFD1E2DEBFCDBF00E00CBF23E0AAE825
:10020000B2E001C01D92AA37B207E1F712E0A0E008
:10021000B2E0E8E7F2E100E00BBF02C007900D9208
:10022000AA38B107D9F710E0C6EFD0E000E005C06A
:1002300021970109802FFE0104D6C53FD10780E038
:100240000807B1F7C9D30C943A09DACEE3E9F2E032
:10025000A089B18982E08C93A485B5851C92A6857E
:10026000B7858FEC8C93108EA489B58986E08C932A
:10027000A289B3898C9180618C93A289B3898C9176
:1002800088608C93A289B3898C9180688C93028852
:10029000F389E02D80818F7D80830895CF92DF9256
:1002A000EF92FF920F931F932FB7F894C0908F0295
:1002B000D0909002E0909102F09092022FBF6C0DCE
:1002C0007D1D8E1D9F1D4FB7F89400918F021091D8
:1002D000900220919102309192024FBF0C151D05A2
:1002E0002E053F0528F0601771078207930758F71E
:1002F0001F910F91FF90EF90DF90CF900895AF92F4
:10030000BF92CF92DF92EF92FF920F931F93CF9302
:10031000DF936C017B018B01040F151FEB015E0164
:10032000AE18BF08C017D10759F06991D601ED91F9
:10033000FC910190F081E02DC6011995892B79F788
:10034000C501DF91CF911F910F91FF90EF90DF904A
:10035000CF90BF90AF900895FC01538D448D252F11
:1003600030E0842F90E0821B930B541710F0CF964F
:10037000089501970895FC01918D828D981761F081
:10038000A28DAE0FBF2FB11D5D968C91928D9F5F98
:100390009F73928F90E008958FEF9FEF0895FC0177
:1003A000918D828D981731F0828DE80FF11D858D2A
:1003B00090E008958FEF9FEF0895FC01918D228DBD
:1003C000892F90E0805C9F4F821B91098F73992742
:1003D000089583E992E0F1DF21E0892B09F420E020
:1003E000822F0895FC01A48DA80FB92FB11DA35A27
:1003F000BF4F2C91848D90E001968F739927848F45
:10040000A689B7892C93A089B1898C918370806467
:100410008C93938D848D981306C00288F389E02D08
:1004200080818F7D80830895EF92FF920F931F93B9
:10043000CF93DF93EC0181E0888F9B8D8C8D981397
:100440001AC0E889F989808185FF15C09FB7F894A3
:10045000EE89FF896083E889F989808183708064EF
:1004600080839FBF81E090E0DF91CF911F910F913A
:10047000FF90EF900895F62E0B8D10E00F5F1F4F49
:100480000F731127E02E8C8D8E110BC00FB607FC59
:10049000FACFE889F989808185FFF5CFCE01A2DF07
:1004A000F2CFEB8DEC0FFD2FF11DE35AFF4FF082E1
:1004B0009FB7F8940B8FEA89FB8980818062D0CF47
:1004C000CF93DF93EC01888D8823B1F0AA89BB8993
:1004D000E889F9898C9185FD03C0808186FD0CC077
:1004E0000FB607FCF7CF8C9185FFF2CF808185FF97
:1004F000EDCFCE0177DFEACFDF91CF91089580E095
:1005000090E0892B21F065DF81110E94000080E0DE
:1005100090E0892B49F080E090E0892B29F00E943F
:10052000000081110E94000080E090E0892B49F0DA
:1005300080E090E0892B29F00E94000081110E9448
:10054000000080E090E0892B49F080E090E0892B6A
:1005500029F00E94000081110C94000008953FB71B
:10056000F89480918B0290918C02A0918D02B091B1
:100570008E0226B5A89B05C02F3F19F00196A11D3C
:10058000B11D3FBFBA2FA92F982F8827BC01CD01DD
:10059000620F711D811D911D42E0660F771F881F3C
:1005A000991F4A95D1F708958F929F92AF92BF926B
:1005B000CF92DF92EF92FF924B015C01D0DF6B0193
:1005C0007C01CDDF6C197D098E099F09683E73405F
:1005D00081059105B0F321E0821A9108A108B108C4
:1005E00088EEC80E83E0D81EE11CF11C8114910432
:1005F000A104B10431F7FF90EF90DF90CF90BF904E
:10060000AF909F908F900895FC0101900020E9F732
:100610003197AF01481B590BBC0183E992E06FCEC3
:10062000CF93DF93FC01448155816081718183E91F
:1006300092E065DEEC0188E192E0E6DF8C0F9D1F21
:10064000DF91CF910895CF93DF93DEDFEC0188E156
:1006500092E0DADF8C0F9D1FDF91CF910895FC01AE
:1006600080819181009709F090C408950F931F93A2
:10067000CF93DF93EC0188819981009759F02A810B
:100680003B812617370730F081E0DF91CF911F9132
:100690000F9108958B016F5F7F4F00D5009759F040
:1006A000998388831B830A832C813D81232B61F7E7
:1006B000FC011082E9CF80E0E8CFEF92FF920F9328
:1006C0001F93CF93DF93EC01FB01E080F180E114F5
:1006D000F10401F1048115810115110599F08C8156
:1006E0009D81080F191FB801CE01C0DF882391F04A
:1006F000288139818C819D81B701820F931FB3D5E9
:100700001D830C83CE01DF91CF911F910F91FF903C
:10071000EF90089588819981009709F036D4198265
:1007200018821D821C821B821A82ECCFEF92FF92EC
:100730000F931F93CF93DF93EC017B018A01BA01E2
:1007400095DF28813981811113C02115310511F000
:10075000C9011BD4198218821D821C821B821A8235
:10076000CE01DF91CF911F910F91FF90EF900895EF
:100770001D830C83B701C90176D5F2CFEF92FF92AA
:100780000F931F93CF93DF93CDB7DEB762970FB66A
:10079000F894DEBF0FBECDBF8C01CB01F8011182F2
:1007A000108213821282158214824AE09E012F5F0A
:1007B0003F4F7901B901F0D2F70101900020E9F72C
:1007C0003197AF014E195F09B701C801AFDF6296DB
:1007D0000FB6F894DEBF0FBECDBFDF91CF911F9152
:1007E0000F91FF90EF900895FC0111821082138207
:1007F000128215821482FB0101900020E9F73197E3
:10080000AF01461B570B92CF1F920F920FB60F925C
:1008100011240BB60F922F933F934F935F936F93D7
:100820007F938F939F93AF93BF93EF93FF9383E94E
:1008300092E0D8DDFF91EF91BF91AF919F918F91A1
:100840007F916F915F914F913F912F910F900BBED0
:100850000F900FBE0F901F9018951F920F920FB61A
:100860000F9211240BB60F922F938F939F93EF93B8
:10087000FF93E091A302F091A4028081E091A9028C
:10088000F091AA0282FD1DC090818091AC028F5F21
:100890008F732091AD02821741F0E091AC02F0E03D
:1008A000ED56FD4F958F8093AC02FF91EF919F9194
:1008B0008F912F910F900BBE0F900FBE0F901F9036
:1008C00018958081F2CF1F920F920FB60F921124CC
:1008D0002F933F938F939F93AF93BF9380918F02FA
:1008E00090919002A0919102B091920230918A026F
:1008F00023E0230F2D3758F50196A11DB11D20933C
:100900008A0280938F0290939002A0939102B093F9
:10091000920280918B0290918C02A0918D02B091F5
:100920008E020196A11DB11D80938B0290938C02C3
:10093000A0938D02B0938E02BF91AF919F918F9142
:100940003F912F910F900FBE0F901F90189526E8A2
:10095000230F0296A11DB11DD2CFE3E9F2E013826D
:10096000128288EE93E0A0E0B0E084839583A683B2
:10097000B7838AE092E09183808385EC90E095874D
:10098000848784EC90E09787868780EC90E0918B59
:10099000808B81EC90E0938B828B82EC90E0958B46
:1009A000848B86EC90E0978B868B118E128E138E43
:1009B000148EE0E3F3E01682178210861186128609
:1009C00013861486158616861786108A118A128A4F
:1009D000138A148A158A0895CF93DF93CDB7DEB7B3
:1009E0002C970FB6F894DEBF0FBECDBF789484B5B8
:1009F000826084BD84B5816084BD85B5826085BD1B
:100A000085B5816085BD80916E00816080936E00A8
:100A1000109281008091810082608093810080919A
:100A2000810081608093810080918000816080934B
:100A300080008091B10084608093B1008091B0000B
:100A400081608093B00080919100826080939100DA
:100A500080919100816080939100809190008160ED
:100A6000809390008091A10082608093A10080918A
:100A7000A10081608093A1008091A000816080939B
:100A8000A000809121018260809321018091210149
:100A900081608093210180912001816080932001F9
:100AA00080917A00846080937A0080917A008260DD
:100AB00080937A0080917A00816080937A0080919F
:100AC0007A00806880937A001092C10010927203BD
:100AD00010927303109274031092750310923203F4
:100AE00010923303109234031092350368EB7BE0CD
:100AF00080E090E0D3DB68EE73E080E090E054DDCE
:100B0000A5DB2FB7F89480918F0290919002A0916D
:100B10009102B09192022FBF8093320390933303DE
:100B2000A0933403B09335038BE192E06DDD6AE06E
:100B300070E080E090E0B2DB81E08093460386DBEA
:100B40000BE611E0F801249145E2E42E41E0F42E99
:100B5000F7018491882399F090E0880F991FFC0198
:100B6000EC51FF4FA591B491FC01E250FF4F8591EC
:100B700094918FB7F8949C91292B2C938FBF8CE282
:100B800092E061DD61E070E0CE010196F7DD6EE498
:100B900072E0CE01079628DEBE016F5F7F4FCE0167
:100BA00007968BDD3DDDCE01079659DDCE0101961E
:100BB00056DD62E070E0CE010196E0DD67E572E0AF
:100BC000CE01079611DEBE016F5F7F4FCE01079603
:100BD00074DD26DDCE01079642DDCE0101963FDDB4
:100BE00080E692E030DD62E070E0CE010196C6DD85
:100BF0006EE472E0CE010796F7DDBE016F5F7F4FB6
:100C0000CE0107965ADD0CDDCE01079628DDCE0118
:100C1000019625DD67E070E0CE010196AFDD67E566
:100C200072E0CE010796E0DDBE016F5F7F4FCE011F
:100C3000079643DDF5DCCE01079611DDCE01019666
:100C40000EDD82E892E0FFDC91EB892E91E0992E97
:100C50002AEF422E512C612C712C64E170E080E06F
:100C600090E0A2DC8FB7F89440918F0250919002EF
:100C700060919102709192028FBFF4018491F8010A
:100C8000D490F7019491992309F43EC0882309F187
:100C900081508231F0F4E82FF0E08827EE5AF94FC6
:100CA0008F4FCFC08E069206640686068A066906B6
:100CB00095069B069F06A506A906AD06B306B706D0
:100CC0006906BB06C106C506809180008F778093B8
:100CD0008000E92FF0E0EE0FFF1FE250FF4FA590DC
:100CE000B490CFB6F894CB01BA01A301920187D09A
:100CF000F5016D3771058105910508F04AC08081C5
:100D0000D094D822D082CFBEFADBA7CF80918000CA
:100D10008F7DDDCF80918000877FD9CF84B58F779D
:100D200084BDD7CF84B58F7DFBCF8091B0008F7706
:100D30008093B000CECF8091B0008F7DF9CF8091AD
:100D400090008F7780939000C4CF809190008F7D2A
:100D5000F9CF80919000877FF5CF8091A0008F77A9
:100D60008093A000B6CF8091A0008F7DF9CF8091B5
:100D7000A000877FF5CF809120018F77809320019D
:100D8000A8CF809120018F7DF9CF80912001877FAE
:100D9000F5CF8081D82AB6CFBB274A3031F49923CA
:100DA00022F4BDE2909581959F4F01C0BB27FB01C6
:100DB0005527AA27880F991FAA1FA41710F0A41B54
:100DC00083955051B9F7A05DAA3308F0A95DA193AE
:100DD000009779F7B111B1931192CB0100C0DC01FA
:100DE000FC01672F71917723E1F7329704C07C9162
:100DF0006D9370836291AE17BF07C8F30895A1E2A7
:100E00001A2EAA1BBB1BFD010DC0AA1FBB1FEE1F84
:100E1000FF1FA217B307E407F50720F0A21BB30BCF
:100E2000E40BF50B661F771F881F991F1A9469F74B
:100E300060957095809590959B01AC01BD01CF01A7
:100E40000895EE0FFF1F881F8BBF0790F691E02DCE
:100E500019940F931F93CF93DF938230910510F471
:100E600082E090E0E0917803F091790330E020E0B7
:100E7000B0E0A0E0309799F42115310509F44AC09B
:100E8000281B390B24303105D8F58A819B816115E7
:100E9000710589F1FB0193838283FE0111C04081BA
:100EA00051810281138148175907E0F0481759070B
:100EB00099F4109761F012960C93129713961C9365
:100EC0003296CF01DF91CF911F910F91089500933A
:100ED000780310937903F4CF2115310551F04217AF
:100EE000530738F0A901DB019A01BD01DF01F801C8
:100EF000C1CFEF01F9CF9093790380937803CDCFE1
:100F0000FE01E20FF31F819391932250310939833F
:100F10002883D7CF2091760330917703232B41F498
:100F200020910202309103023093770320937603DD
:100F300020910002309101022115310541F42DB7B5
:100F40003EB74091040250910502241B350BE091FD
:100F50007603F0917703E217F307A0F42E1B3F0B03
:100F60002817390778F0AC014E5F5F4F241735071B
:100F700048F04E0F5F1F50937703409376038193A1
:100F800091939FCFF0E0E0E09CCFCF93DF93009769
:100F9000E9F0FC01329713821282A0917803B0919C
:100FA0007903ED0130E020E01097A1F42081318138
:100FB000820F931F2091760330917703281739070A
:100FC00009F061C0F0937703E0937603DF91CF914E
:100FD0000895EA01CE17DF07E8F54A815B819E019B
:100FE00041155105B1F7E901FB83EA834991599114
:100FF000C40FD51FEC17FD0761F480819181029623
:10100000840F951FE90199838883828193819B8353
:101010008A83F0E0E0E012968D919C9113970097FF
:10102000B9F52D913C911197CD010296820F931F36
:1010300020917603309177032817390739F63097D6
:1010400051F51092790310927803B0937703A0932F
:101050007603BCCFD383C28340815181840F951F17
:10106000C817D90761F44E5F5F4F88819981480F97
:10107000591F518340838A819B81938382832115E9
:10108000310509F0B0CFF0937903E09378039ECF58
:10109000FD01DC01C0CF13821282D7CF4F925F9245
:1010A0006F927F928F929F92AF92BF92CF92DF9278
:1010B000EF92FF920F931F93CF93DF938C010097D2
:1010C00091F4CB01DF91CF911F910F91FF90EF90A1
:1010D000DF90CF90BF90AF909F908F907F906F9058
:1010E0005F904F90B6CEFC01E60FF71F9C01225097
:1010F0003109E217F30708F4AAC0D901CD91DC91B8
:101100001197C617D70718F1C530D10570F0CE0179
:1011100004978617970748F0C61BD70B2297C193F1
:10112000D1936D937C93CF0130DFC801DF91CF91D4
:101130001F910F91FF90EF90DF90CF90BF90AF90F5
:101140009F908F907F906F905F904F9008955B017C
:10115000AC1ABD0A4C018C0E9D1EA0917803B09173
:101160007903512C412CF12CE12C109731F5809111
:101170007603909177038815990509F05CC04616AF
:10118000570608F058C08091000290910102009724
:1011900041F48DB79EB74091040250910502841B23
:1011A000950BE817F90708F052C0F0937703E09326
:1011B0007603F90171836083B8CF8D919C9111976B
:1011C00012966C90129713967C901397A815B905F8
:1011D00059F56C0142E0C40ED11CCA14DB0420F1A5
:1011E000AC014A195B09DA011296159780F0628208
:1011F000738251834083D9016D937C93E114F10490
:1012000071F0D7011396FC93EE9312978ECF22962E
:101210008C0F9D1FF90191838083F301EFCFF09331
:101220007903E093780381CF4816590608F42C011E
:101230007D01D3019ACFCB010CDE7C01009739F000
:10124000AE01B80107D0C801A0DE87016ECF10E063
:1012500000E06BCFFB01DC0102C001900D92415018
:101260005040D8F70895FB01DC0101900D92002059
:08127000E1F70895F894FFCFA7
:1012780000007A0380000000000014027F01AC0126
:101288006002DD01BB01CF010D0A00564D445056E6
:101298005F317C315F564D4450560A00636F6E745F
:1012A800656E74206F6620706F696E746572732046
:1012B80073686F756C6420626520312C32002A7463
:1012C800657374312009002A74657374322009002B
:1012D800636F6E74656E74206F6620706F696E74CC
:1012E8006572732073686F756C6420626520322C98
:0A12F80034000A0A446F6E652E00F0
:00000001FF
