:1000000008C1000037C1000035C1000033C1000045
:1000100031C100002FC100002DC100002BC1000024
:1000200029C1000027C1000025C1000023C1000034
:1000300021C100001FC100001DC100001BC1000044
:1000400019C1000017C1000015C1000013C1000054
:1000500011C100000FC100000DC100000C94490B3C
:1000600009C100000C94130B0C94E90A03C10000B1
:1000700001C10000FFC00000FDC00000FBC0000087
:10008000F9C00000F7C00000F5C00000F3C0000098
:10009000F1C00000EFC00000EDC000000C94930B15
:1000A000E9C00000E7C00000E5C00000E3C00000B8
:1000B000E1C00000DFC00000DDC00000DBC00000C8
:1000C000D9C00000D7C00000D5C00000D3C00000D8
:1000D000D1C00000CFC00000CDC00000CBC00000E8
:1000E000C9C00000000020002300260029002C00C9
:1000F0002F00320000010000030106010901000089
:100100000A0B02090C0D0E08070304010000000091
:1001100000000000000000000000000000000000DF
:10012000000000000000000000001211100000009C
:1001300000000000000000000000000000000000BF
:100140000000000000002200250028002B002E00E7
:100150003100340002010000050108010B0100001C
:100160002100240027002A002D0030003300010167
:100170000000040107010A01050505050705080837
:100180000808020202020A0A080804040404010121
:100190000101010101010303030303030303040736
:1001A00007070C0C0C0C0C0C0C0C020202020606CD
:1001B0000606060606060B0B0B0B0B0B0B0B0102C0
:1001C0001020200808102040102040800201020169
:1001D0000804020101020408102040808040201021
:1001E000080402018004020180402010080402017A
:1001F00008040201010204081020408001020408E2
:10020000102040801F1C1F1E1F1E1F1F1E1F1E1F91
:10021000B60C11241FBECFEFD1E2DEBFCDBF00E090
:100220000CBF12E0A0E0B2E0E8E5F5E200E00BBFB1
:1002300002C007900D92A837B107D9F726E0A8E7CA
:10024000B2E001C01D92A934B207E1F711E0C9E0A4
:10025000D1E000E006C021970109802FFE010E9435
:100260009C12C830D10780E00807A9F70E94730DDF
:100270000C94AA12C5CE90E0FC01E254FE4F2491EA
:1002800088589E4FFC018491882399F090E0880F54
:10029000991FFC01E25AFE4FA591B491FC01EC5B61
:1002A000FE4F859194918FB7F894EC91E22BEC93EB
:1002B0008FBF0895AF92BF92CF92DF92EF92FF92DD
:1002C0000F931F93CF93DF936C017B018B01040F7E
:1002D000151FEB015E01AE18BF08C017D10759F01A
:1002E0006991D601ED91FC910190F081E02DC6015C
:1002F0001995892B79F7C501DF91CF911F910F9146
:10030000FF90EF90DF90CF90BF90AF900895089549
:100310000895FC01538D448D252F30E0842F90E00B
:10032000821B930B541710F0CF96089501970895F0
:10033000FC01918D828D981761F0A28DAE0FBF2FB9
:10034000B11D5D968C91928D9F5F9F73928F90E00F
:1003500008958FEF9FEF0895FC01918D828D98177E
:1003600031F0828DE80FF11D858D90E008958FEFBB
:100370009FEF0895FC01918D228D892F90E0805C84
:100380009F4F821B91098F73992708958FE495E001
:10039000F1DF21E0892B09F420E0822F0895FC0190
:1003A000A48DA80FB92FB11DA35ABF4F2C91848DD6
:1003B00090E001968F739927848FA689B7892C9333
:1003C000A089B1898C91837080648C93938D848D86
:1003D000981306C00288F389E02D80818F7D808389
:1003E0000895EF92FF920F931F93CF93DF93EC0149
:1003F00081E0888F9B8D8C8D98131AC0E889F989CC
:10040000808185FF15C09FB7F894EE89FF896083CE
:10041000E889F98980818370806480839FBF81E04F
:1004200090E0DF91CF911F910F91FF90EF90089591
:10043000F62E0B8D10E00F5F1F4F0F731127E02E6C
:100440008C8D8E110BC00FB607FCFACFE889F989A5
:10045000808185FFF5CFCE01A2DFF2CFEB8DEC0FCF
:10046000FD2FF11DE35AFF4FF0829FB7F8940B8FD9
:10047000EA89FB8980818062D0CFCF93DF93EC0142
:10048000888D8823B1F0AA89BB89E889F9898C9184
:1004900085FD03C0808186FD0CC00FB607FCF7CF39
:1004A0008C9185FFF2CF808185FFEDCFCE0177DF84
:1004B000EACFDF91CF91089580E090E0892B21F081
:1004C00065DF81110E94000080E090E0892B49F0F7
:1004D00080E090E0892B29F00E94000081110E94A9
:1004E000000080E090E0892B49F080E090E0892BCB
:1004F00029F00E94000081110E94000080E090E03D
:10050000892B49F080E090E0892B29F00E940000BF
:1005100081110C94000008958150823108F05AC076
:10052000E82FF0E08827E856FD4F8F4F0C949C127F
:10053000B802BC02AA02B002B402EA02BF02C502BB
:10054000C902CF02D302D702DD02E102EA02E502CC
:10055000EB02EF02809180008F77809380000895F6
:10056000809180008F7DF9CF80918000877FF5CFCB
:1005700084B58F7784BD089584B58F7DFBCF80913E
:10058000B0008F778093B00008958091B0008F7D88
:10059000F9CF809190008F7780939000089580919B
:1005A00090008F7DF9CF80919000877FF5CF80916B
:1005B000A0008F778093A00008958091A0008F7D88
:1005C000F9CF8091A000877FF5CF809120018F77B0
:1005D000809320010895809120018F7DF9CF809133
:1005E0002001877FF5CFCF93DF93282F30E0F901EB
:1005F000E250FF4F8491F901E254FE4FD491F9018A
:10060000E858FE4FC491CC2399F0811185DFEC2F7F
:10061000F0E0EE0FFF1FEC51FF4FA591B491EC916C
:10062000ED2381E090E009F480E0DF91CF9108951F
:1006300080E090E0FACF1F93CF93DF93282F30E034
:10064000F901E250FF4F8491F901E254FE4FD49139
:10065000F901E858FE4FC491CC23A1F0162F811167
:100660005BDFEC2FF0E0EE0FFF1FEC5BFE4FA59180
:10067000B4918FB7F894EC91111108C0D095DE2396
:10068000DC938FBFDF91CF911F910895DE2BF8CFC0
:100690003FB7F8948091C6049091C704A091C80414
:1006A000B091C90426B5A89B05C02F3F19F001964B
:1006B000A11DB11D3FBFBA2FA92F982F8827BC01BC
:1006C000CD01620F711D811D911D42E0660F771FE4
:1006D000881F991F4A95D1F708952FB7F894609114
:1006E000C2047091C3048091C4049091C5042FBFCB
:1006F00008952091BB02211109C021E02093BB0283
:100700003091EC052091ED053CBD2DBD60E0FC0174
:10071000848191CF61E0FC0184818DDF8091BB02F7
:1007200081111092BB0208958EBD00000DB407FE2A
:10073000FDCF8EB508958FEFF7CF0F931F93CF9313
:10074000DF93EC01CADF8B01F6DF8F3F61F0C5DF7D
:10075000601B710B6C177D07B8F380E0DF91CF91C0
:100760001F910F91089581E0F9CFCF92DF92EF9220
:10077000FF920F931F93CF93DF93EC01162F690124
:100780007A018E81882379F08F8198859C012F5F73
:100790003F4F38872F838230924010F4CCDFF4CF64
:1007A000CE01B8DF1E82CE01A4DF8CE291E0C5DF6E
:1007B000812F8064B9DF08E110E0D701C601002E67
:1007C00004C0B695A795979587950A94D2F7ACDFA4
:1007D00008501109083F8FEF180779F78FEFA4DF52
:1007E00010E0A9DF8A8787FF04C01F3F11F01F5F59
:1007F000F8CFDF91CF911F910F91FF90EF90DF9095
:10080000CF900895CF92DF92EF92FF920F93CF9304
:10081000DF93EC01690182E1411551056105710524
:1008200091F08B85833039F089E0440F551F661FA6
:10083000771F8A95D1F79A01AB0168E1CE0195DF68
:10084000882319F084E08D8326C08EEF6DDF76015A
:100850008EEFD81AF70181917F0166DFEC14FD0459
:10086000C9F78FEF61DF8FEF5FDF65DF8A878F71F9
:10087000853069F4011113C0CE014CDF81E0DF91B6
:10088000CF910F91FF90EF90DF90CF90089581E18D
:100890008D83CE013FDFCE013DDF80E0F0CF88E5E4
:1008A00092E04BDF811102C085E1CDCF20E030E046
:1008B000A9016DE0CE0159DF882311F084E1C3CF97
:1008C0003ADF8111FBCFD8CF0F934091BD025091F9
:1008D000BE026091BF027091C002411551056105D1
:1008E000710581F0082F21EC32E090E080E08ADF92
:1008F000882349F01092BD021092BE021092BF02EE
:100900001092C00281E00F9108950F93CF93C82FEA
:100910008091BC02811105C0C1E08C2FCF910F9155
:10092000089540910002509101026091020270917D
:1009300003020C2F21EC32E090E080E063DF8111B4
:1009400002C0C0E0EACFCC2339F381E0BDDF8823C9
:10095000C1F31092BC02E1CFAF92BF92CF92DF926F
:10096000EF92FF921F93CF93DF936B017C01142FC3
:100970008091000290910102A0910202B0910302C5
:100980008C159D05AE05BF0509F4A3C081E0BDDF50
:100990008823D1F1809106008823A1F08091000086
:1009A00090910100A0910200B0910300C816D906F1
:1009B000EA06FB0639F48091070090910800892B24
:1009C00009F449C0C0920000D0920100E0920200F8
:1009D000F092030080910B00A7019601833039F05B
:1009E00099E0220F331F441F551F9A95D1F761E1FB
:1009F00090E080E0BADE882389F083E080930500F0
:100A000090E080E087DE80E0DF91CF911F91FF9042
:100A1000EF90DF90CF90BF90AF9008955EDEEB0136
:100A20008ADE80930A008F3F69F457DE6C1B7D0BD2
:100A30006D327140A8F38FE08093050090E080E074
:100A400069DEDECF8E3FB1F51092080010920700EC
:100A500081E080930600C1ECD2E081ECA82E84E016
:100A6000B82E69DE8993AC16BD06D9F780910700D0
:100A7000909108009E5F909308008093070020915A
:100A80000900222319F081159240D8F080910600C8
:100A90008823B9F080910700909108009C012F5F96
:100AA0003F4F30930800209307008230924020F49B
:100AB00042DEF0CF8DE0C0CF90E080E02BDE1092E0
:100AC0000600C0920002D0920102E0920202F0926F
:100AD00003024091BC02412B4093BC0281E094CFC1
:100AE0004F925F926F927F928F929F92AF92BF923E
:100AF000CF92DF92EF92FF920F931F93CF93DF93EA
:100B0000EC01423051056105710590F480E0DF9100
:100B1000CF911F910F91FF90EF90DF90CF90BF90FA
:100B2000AF909F908F907F906F905F904F900895BF
:100B300089859A85AB85BC850196A11DB11D841759
:100B40009507A607B70710F3CB88DC88ED88FE88E9
:100B50008F89803109F042C0BB27A72F962F852FA0
:100B6000480159012A013B01C80ED91EEA1EFB1E8D
:100B70008091000290910102A0910202B0910302C3
:100B8000C816D906EA06FB0699F58F898031B9F5B2
:100B9000B301A201552766277727440F551F4F53EE
:100BA0005D4FFA01918280828091BC0281608093C6
:100BB000BC028A89823080F08D819E81AF81B885A8
:100BC0008C0D9D1DAE1DBF1D8093BD029093BE0276
:100BD000A093BF02B093C00281E099CFDB01CA01AC
:100BE000E7E0B695A79597958795EA95D1F7B8CFA1
:100BF00040E0C701B601B0DE8111C7CF87CFB30196
:100C0000A2014F77552766277727440F551F440FBA
:100C1000551F4F535D4FFA0180829182A282B382A9
:100C2000C3CF8F929F92AF92BF92CF92DF92EF92FB
:100C3000FF920F931F93CF93DF93FC0181859285E1
:100C4000A385B4850196A11DB11D84179507A6073C
:100C5000B70770F480E0DF91CF911F910F91FF9063
:100C6000EF90DF90CF90BF90AF909F908F900895BE
:100C700083889488A588B6888789803189F5BB27C1
:100C8000A72F962F852FE9016A017B018F01BC01F7
:100C9000CD01680D791D8A1D9B1D809000029090EA
:100CA0000102A0900202B090030286169706A806E1
:100CB000B90601F5F8018789803109F5DD24EE24B4
:100CC000FF24F601EE0FFF1FEF53FD4F808191814E
:100CD000B0E0A0E088839983AA83BB8381E0BBCF87
:100CE000DB01CA01C7E0B695A79597958795CA9588
:100CF000D1F7C9CF40E030DE8111DCCFABCFE89433
:100D0000C7F8DD24EE24FF24F601EE0FFF1FEE0FDF
:100D1000FF1FEF53FD4F80819181A281B381BF708E
:100D2000D9CF8F929F92AF92BF92CF92DF92EF92E4
:100D3000FF920F931F93CF93DF93EC018D8181116D
:100D40000EC080E0DF91CF911F910F91FF90EF9047
:100D5000DF90CF90BF90AF909F908F9008950B89B8
:100D60001C892D893E89041715072607370748F384
:100D70004A015B01823031F48A869B86AC86BD864F
:100D800081E0E0CF81149104A104B10449F41E82F2
:100D90001F82188619861A861B861C861D86F0CF30
:100DA0000A851B852C853D85EB8DFC8D858590E026
:100DB0000996B901A8014150510961097109082E2C
:100DC00004C076956795579547950A94D2F77501B3
:100DD0006401E1E0CE1AD108E108F10804C0F694FC
:100DE000E794D794C7948A95D2F7C416D506E60639
:100DF000F70620F0012B022B032B09F58F89988D24
:100E0000A98DBA8D8E839F83A887B9878E010A5FCB
:100E10001F4FC114D104E104F10409F4ADCF4E8198
:100E20005F816885798598018B8D9C8DFADE91E0D4
:100E3000C91AD108E108F1088111EBCF82CFC41A99
:100E4000D50AE60AF70AE2CF3F924F925F926F927D
:100E50007F928F929F92AF92BF92CF92DF92EF924A
:100E6000FF920F931F93CF93DF93CDB7DEB72C97ED
:100E70000FB6F894DEBF0FBECDBF5C01DC015B9600
:100E80008D909C905C9716964D905D906D907C90A7
:100E90001997411451046104710409F467C0BFEF4C
:100EA0004B1A5B0A6B0A7B0A312CF401818592850F
:100EB000A385B4859C01AD012F5F3F4F4F4F5F4F1E
:100EC00029873A874B875C87730162011D821E82E6
:100ED0001F821886F40181859285A385B4852D81B2
:100EE0003E814F815885281739074A075B0708F06C
:100EF00054C089859A85AB85BC858C159D05AE054A
:100F0000BF0550F482E0C82ED12CE12CF12C92E0E8
:100F1000492E512C612C712C9E012F5F3F4FB70140
:100F2000A601C4017EDE8823C1F189819A81AB814B
:100F3000BC81892B8A2B8B2B09F1260137019FEF6E
:100F4000491A590A690A790A2D813E814F815885CB
:100F50002F5F3F4F4F4F5F4F2D833E834F83588707
:100F60003FEFC31AD30AE30AF30AB4CFF401408077
:100F70005180628073803324339497CFC414D50496
:100F8000E604F70409F70FEF1FEF2FEF3FE0B7017B
:100F9000A601C401A5DD811119C080E02C960FB611
:100FA000F894DEBF0FBECDBFDF91CF911F910F919F
:100FB000FF90EF90DF90CF90BF90AF909F908F9079
:100FC0007F906F905F904F903F900895D501169657
:100FD0004D915D916D917C91199741155105610578
:100FE000710531F097018601C4017ADD8823A9F2E9
:100FF000D5011696CD92DD92ED92FC921997332091
:1010000051F0D701C6010196A11DB11DF4018083E5
:101010009183A283B383F5018789908DA18DB28DD1
:10102000892B8A2B8B2B39F48481C78AD08EE18E51
:10103000F28E80688483F50184818062848381E0FC
:10104000ADCF1F93CF93DF93EC01162F8C8187FFD9
:1010500029C06E857F858889998941E07DDC882358
:1010600059F1EA8980E2E89FF0011124EF53FD4F26
:10107000309711F18D81823040F48B899C89AD8944
:10108000BE89848F958FA68FB78F8F89988D938F08
:10109000828F8F89988DA98DBA8DB58BA48B8C8109
:1010A0008F778C83111103C08C818F7E8C83812F6D
:1010B000DF91CF911F9129CC80E0DF91CF911F91DB
:1010C00008951F93CF93DF93EC018D81813031F030
:1010D00090E080E0DF91CF911F9108958C8181FF96
:1010E000F7CF82FD17C090E080E003DB24DB182FF0
:1010F00090E080E00FDB1F3F59F78C8185FF1CC01B
:101100008D81882319F060E0CE019BDF8C818F7D7B
:101110008C83DECF4B895C896D897E898A859B852E
:10112000AC85BD8584179507A607B707E1F2CE0108
:10113000F8DD8111D8CFCCCF4091BD025091BE02D5
:101140006091BF027091C002452B462B472B19F0CE
:1011500080E0BADBBDCF80618C832A853B8531700E
:1011600080E092E0821B930BB5CF9F92AF92BF922B
:10117000CF92DF92EF92FF920F931F93CF93DF9363
:1011800000D01F921F92CDB7DEB78C016D83DC01BA
:1011900015968C911597813009F0B7C014968C91F3
:1011A00081FFB3C082FD9EC0D8015B96ED91FC919A
:1011B0005C971A96AD90BD90CD90DC901D97948071
:1011C0009A94B601A50189E076956795579547955C
:1011D0008A95D1F79422B1E0BB22992009F49DC0F1
:1011E000D8015B96ED91FC915C971696CD90DD90C1
:1011F000ED90FC901997B2E0CB1AD108E108F10804
:10120000858504C0CC0CDD1CEE1CFF1C8A95D2F732
:101210004685578560897189C40ED51EE61EF71E66
:10122000C90CD11CE11CF11CA114B10409F004C1CA
:10123000F801428553856485758583899489A589DC
:10124000B689481759076A077B0708F4F5C081E09B
:101250005CDB882309F459C0C0920002D0920102DD
:10126000E0920202F09203028091BC0281608093BE
:10127000BC02F501EF53FD4F8D818083F80182851B
:101280009385A485B5850196A11DB11D828793879D
:10129000A487B58743895489658976894817590792
:1012A0006A077B0738F42481838B948BA58BB68BDC
:1012B00020682483D80114968C9183FD9BC081E023
:1012C00090E00F900F900F900F900F90DF91CF91C3
:1012D0001F910F91FF90EF90DF90CF90BF90AF9054
:1012E0009F900895F801438954896589768982859C
:1012F0009385A485B585481759076A077B0709F4C4
:1013000053CFC8010EDD81114FCF81E090E0D801AD
:1013100013969C938E93129747C0D80116964D91C1
:101320005D916D917C911997A114B10409F06DC084
:10133000411551056105710581F557968D919D9176
:101340000D90BC91A02D0097A105B10509F04CC0EE
:10135000C8017ADD8823C9F2D8015B96ED91FC9132
:101360005C971696CD90DD90ED90FC901997B2E0C9
:10137000CB1AD108E108F108858504C0CC0CDD1C2E
:10138000EE1CFF1C8A95D2F74685578560897189C6
:10139000C40ED51EE61EF71E4BCF9E012F5F3F4F9A
:1013A000CF013FDC811103C090E080E08ACF8981CA
:1013B0009A81AB81BC81F801238D348DF901278995
:1013C00048EF5FEF60E070E0203121F048EF5FEF21
:1013D0006FEF7FE084179507A607B70728F0C801CD
:1013E00033DD8111FDCE91CFF80186839783A087ED
:1013F000B187F6CEF8018581882309F486CF61E0B4
:10140000C8011FDE81115BCF80CF6A017B01B2E092
:10141000CB1AD108E108F108858504C0CC0CDD1C8D
:10142000EE1CFF1C8A95D2F7468557856089718925
:10143000C40ED51EE61EF71E41E0C701B6018CDAC8
:10144000811117CF62CF089585ED8093BC00809104
:10145000BC0084FDFCCF10921805089520919802DD
:10146000260F3327331F21323105ECF42091180564
:10147000FC0190E080E0243069F082E00895A091C2
:1014800098022191AC0148585D4FA40FB52FB11DB2
:101490002C930196861798F380919802680F6093B9
:1014A000980280E0089581E008950895E0911A057A
:1014B00080911905E81730F4F0E0E55EFA4F80817D
:1014C00090E008958FEF9FEF089590911A05809115
:1014D00019052FEF3FEF981748F4E92FF0E0E55E8C
:1014E000FA4F208130E09F5F90931A05C90108955B
:1014F0008091190590911A05891B990B0895CF9237
:10150000DF92EF92FF920F931F93CF93DF937C01B3
:10151000CB018A012091CE04222389F0EB016B01DB
:10152000C40ED51ECC15DD0561F06991D701ED9192
:10153000FC910190F081E02DC7011995F3CF642F44
:101540008DDFC801DF91CF911F910F91FF90EF9038
:10155000DF90CF900895CF93DF931F92CDB7DEB782
:1015600069832091CE042223F9F02091F1042032E6
:1015700058F021E030E0FC013383228390E080E0EA
:101580000F90DF91CF9108958091CF04E82FF0E084
:10159000E053FB4F998190838F5F8093CF048093BA
:1015A000F10481E090E0ECCF61E0CE01019656DFDE
:1015B000F8CF90E080E00895FC0101900020E9F769
:1015C0003197AF01481B590BBC018FE495E00C9497
:1015D0005A011F920F920FB60F9211240BB60F9261
:1015E0002F933F934F935F936F937F938F939F932B
:1015F000AF93BF93EF93FF938FE495E00E94CF01E9
:10160000FF91EF91BF91AF919F918F917F916F91DA
:101610005F914F913F912F910F900BBE0F900FBE96
:101620000F901F9018951F920F920FB60F921124D2
:101630000BB60F922F938F939F93EF93FF93E091AD
:101640005F05F09160058081E0916505F091660588
:1016500082FD1DC09081809168058F5F8F732091FE
:101660006905821741F0E0916805F0E0E15BFA4F0F
:10167000958F80936805FF91EF919F918F912F91A6
:101680000F900BBE0F900FBE0F901F90189580818A
:10169000F2CF1F920F920FB60F9211242F933F9308
:1016A0008F939F93AF93BF938091C2049091C30493
:1016B000A091C404B091C5043091C10423E0230F6C
:1016C0002D3758F50196A11DB11D2093C1048093BB
:1016D000C2049093C304A093C404B093C504809142
:1016E000C6049091C704A091C804B091C9040196A2
:1016F000A11DB11D8093C6049093C704A093C80494
:10170000B093C904BF91AF919F918F913F912F9159
:101710000F900FBE0F901F90189526E8230F02968A
:10172000A11DB11DD2CF1F920F920FB60F9211249F
:101730000BB60F922F933F934F935F936F937F93CB
:101740008F939F93AF93BF93EF93FF938091B900D3
:10175000887F803609F44CC008F03FC0883209F415
:10176000A8C028F5803109F49CC0C8F4882309F486
:10177000FAC0883009F495C0FF91EF91BF91AF9105
:101780009F918F917F916F915F914F913F912F9199
:101790000F900BBE0F900FBE0F901F9018958831C1
:1017A00009F487C0803241F78093160514C0803455
:1017B00009F49CC040F48033B9F38833E9F6809390
:1017C000160585ECAFC0803509F484C0883509F46E
:1017D00095C0883489F638DECFCF883909F48CC0BB
:1017E00038F5883729F050F4883611F0803721F623
:1017F00083E0809318051092BA0257C0883809F424
:101800007BC0803919F0803809F0B6CF8091BA02D8
:10181000803208F071C0E091BA0281E08E0F8093AF
:10182000BA028091BB00F0E0E656FD4F80833DC0D8
:10183000803B39F0E0F4803A09F479C0883A09F045
:101840009BCF84E080931805109299021092980221
:10185000E091CC04F091CD0419958091980281110A
:101860000FC081E0809398021092780209C0803CFA
:1018700009F4A7CF883C09F4A4CF883B09F07CCFBA
:10188000E091990281E08E0F80939902F0E0E85890
:10189000FD4F80818093BB009091990280919802C6
:1018A00029C0809113058093BB0085EC8093BC0018
:1018B00063CF9091150580911405981758F5E09124
:1018C000150581E08E0F80931505F0E0EE50FB4F7B
:1018D0008081E9CFE091150581E08E0F8093150599
:1018E0008091BB00F0E0EE50FB4F80839091150596
:1018F000809114059817C8F285E8D8CFE0911505B6
:1019000081E08E0F809315058091BB00F0E0EE50D2
:10191000FB4F80838091170581115DCF81E080931B
:10192000120584EA8093BC001092180525CF85EC3F
:101930008093BC00109218058091BA02803230F476
:10194000E091BA02F0E0E656FD4F10826091BA02D3
:1019500070E0E091CA04F091CB048AE992E0199515
:101960001092BA0209CF1092160535CF1092520587
:101970001092510588EE93E0A0E0B0E0809353050B
:1019800090935405A0935505B093560528E132E095
:101990003093500520934F0525EC30E030935C05E3
:1019A00020935B0524EC30E030935E0520935D05C9
:1019B00020EC30E03093600520935F0521EC30E0AF
:1019C000309362052093610522EC30E0309364058A
:1019D0002093630526EC30E030936605209365057F
:1019E000109268051092690510926A0510926B05B5
:1019F00020E52093EC051092ED051092F30510926E
:101A0000F4051092F7051092F90542E050E060E00D
:101A100070E04093FA055093FB056093FC057093CA
:101A2000FD051092110610921B0610921A062AE26A
:101A300032E0309319062093180610921D0610927A
:101A40003A061092390680933B0690933C06A09389
:101A50003D06B0933E0686E392E09093380680936D
:101A6000370680E1809348068CE18093470686E044
:101A70008093460640E081E697E9E3E9FEEF542FC4
:101A8000537021E009F020E061E0640F30E0D901FB
:101A9000A359BE4F8A179B0738F0AF01421B530B67
:101AA000840F951F462FEBCF4093430621E0622F12
:101AB0006150770BFB01EC5FFD4FE491511103C0C6
:101AC000223009F4EF5FF0E031E0320F8E179F070C
:101AD00020F08E1B9F0B232FEACF209344068F5FAD
:101AE000809345060895789484B5826084BD84B55A
:101AF000816084BD85B5826085BD85B5816085BD09
:101B000080916E00816080936E00109281008091C0
:101B10008100826080938100809181008160809348
:101B20008100809180008160809380008091B1006D
:101B300084608093B1008091B00081608093B00098
:101B400080919100826080939100809191008160EA
:101B500080939100809190008160809390008091AB
:101B6000A10082608093A1008091A1008160809398
:101B7000A1008091A00081608093A000809121014C
:101B800082608093210180912101816080932101F5
:101B90008091200181608093200180917A0084608F
:101BA00080937A0080917A00826080937A0080919D
:101BB0007A00816080937A0080917A0080688093B7
:101BC0007A001092C100E0915F05F091600582E01B
:101BD0008083E0915B05F0915C051082E0915D05EA
:101BE000F0915E058FEC808310926705E0916305AC
:101BF000F091640586E08083E0916105F0916205D3
:101C0000808180618083E0916105F091620580812F
:101C100088608083E0916105F09162058081806831
:101C20008083E0916105F091620580818F7D8083E2
:101C300084E492E0C1DC10921A051092190510920A
:101C4000CF041092F10410921805C1E0C09317055B
:101C50001092120561E084E10E941B0361E085E1BE
:101C60000E941B038091B9008E7F8093B900809100
:101C7000B9008D7F8093B90088E48093B80085E433
:101C80008093BC0087E891E09093CD048093CC04CE
:101C900088E891E09093CB048093CA0483E692E0B5
:101CA0008BDC84E792E088DC0E946D03C093CE0455
:101CB00088E68093F0041092CF041092F10460E063
:101CC00087E396E048DC9091F104913208F03FC040
:101CD000809118058111FCCF82E08093180581E086
:101CE000809317058FEF809316051092150590933A
:101CF0001405A0EDB4E0E2EFF4E080E09813FFC13A
:101D00001092130580911305806D809313058091C7
:101D10001205813009F0F7C1109212058091130568
:101D20008093BB008091BC0083FDF8CF85EC80934D
:101D3000BC00809118058230E1F3809116058F3F39
:101D400031F080911605803211F0809116051092C5
:101D5000CF041092F1041092CE04809118058111E5
:101D6000FCCF81E080931805809317059FEF909337
:101D700016051092150596E09093140580931305AF
:101D800080911305806D8093130580911205813039
:101D900009F0BBC110921205809113058093BB001E
:101DA0008091BC0083FDF8CF85EC8093BC008091CE
:101DB00018058130E1F38091150597E0873010F424
:101DC00090911505E2EFF4E0ABE1B5E080E0891316
:101DD0009EC110921A058093190587E396E075DB82
:101DE0008F77282F30E044E0359527954A95E1F725
:101DF000922F990F990FC22FC91BCC0FC80F87E3E1
:101E000096E063DB9C0154E0359527955A95E1F700
:101E10002F703327922F990F990FD22FD91BDD0FD7
:101E2000D80F87E396E051DB9C0164E03595279558
:101E30006A95E1F72F703327922F990F990F122F80
:101E4000191B110F180F87E396E03FDB87E396E03D
:101E50003CDB9C0174E0359527957A95E1F72F706E
:101E60003327922F990F990FF22EF91AFF0CF80EC3
:101E700087E396E02ADB9C01E4E035952795EA9517
:101E8000E1F72F703327922F990F990F022F091B1B
:101E9000000F080F87E396E018DB9C01F4E035950E
:101EA0002795FA95E1F72F703327922F990F990F05
:101EB000291B220F820F8093430600934406F09261
:101EC000450610934606D0934706C093480681E125
:101ED0000E943B0104E112E0C4E0D2E08881229636
:101EE0000E943B010C171D07C9F710923E05109286
:101EF0004E05109240051092410510924205109235
:101F0000430588EE93E0909349058093480510922D
:101F10004B0510924A0590E4692E77247394882427
:101F20008A9423E0922EA12CB12C0E946D036B01A8
:101F300085E30E94F30280917B00877F80937B0082
:101F400060927C0080917A00806480937A00809116
:101F50007A0086FDFCCF8091780000917900102FE7
:101F6000082F109347050093460585E10E94F30270
:101F700021E0892B09F020E080913D05281731F000
:101F800020933D05D0923C05C0923B0580913B05D6
:101F900090913C05C81AD90A35E1C316D10414F052
:101FA00020933F0580913E0590913F05992309F4C8
:101FB000B2C0811107C080914E05872580934E05E0
:101FC00070923E050E946D036B0180914C059091CB
:101FD0004D05F601E81BF90BCF01D0924D05C092DB
:101FE0004C0520914A0530914B052E173F0724F4EC
:101FF000F0934B05E0934A0520914805309149053F
:102000008217930724F490934905809348058091A3
:102010004405909145059601281B390BC901843F61
:102020009140ACF124E630E0D8018ED2A5019401B4
:1020300078D0B901330F880B990B8FD120E030E0B5
:1020400048EC52E420D19B01AC0113D220E030E0F7
:1020500048E453E40ED22DEC3BE34EE85EE309D2B4
:102060009B01AC0160914005709141058091420552
:1020700090914305A4D060934005709341058093EF
:10208000420590934305D0924505C092440504E073
:1020900012E0F80160810E5F1F4F80E00E941B0379
:1020A0000C171D07B1F761E180914E050E941B03DB
:1020B0000E9448031B012C0185E0C82ED12CE12C85
:1020C000F12C0E9448036219730984099509683E3E
:1020D000734081059105A8F3F1E0CF1AD108E1081A
:1020E000F10828EE220E23E0321E411C511CC114BF
:1020F000D104E104F10429F70E945C0216CF2D916E
:1021000021938F5FFBCD85EE12CE85EE4ECE2191D1
:102110002D938F5F5CCE882309F454CF10923E0537
:1021200051CF052E97FB16F400940FD057FD05D024
:1021300014D007FC02D046F408C050954095309565
:1021400021953F4F4F4F5F4F089590958095709523
:1021500061957F4F8F4F9F4F0895A1E21A2EAA1BC2
:10216000BB1BFD010DC0AA1FBB1FEE1FFF1FA21747
:10217000B307E407F50720F0A21BB30BE40BF50B44
:10218000661F771F881F991F1A9469F760957095CD
:10219000809590959B01AC01BD01CF010895A29F50
:1021A000B001B39FC001A39F700D811D1124911D2B
:1021B000B29F700D811D1124911D08955058BB27A9
:1021C000AA270ED01CC10DD130F012D120F031F46D
:1021D0009F3F11F41EF402C10EF4E095E7FBF8C036
:1021E000E92F1ED180F3BA1762077307840795079A
:1021F00018F071F49EF536C10EF4E0950B2EBA2F4F
:10220000A02D0B01B90190010C01CA01A0011124FC
:10221000FF27591B99F0593F50F4503E68F11A16A8
:10222000F040A22F232F342F4427585FF3CF469539
:1022300037952795A795F0405395C9F77EF41F165B
:10224000BA0B620B730B840BBAF09150A1F0FF0F25
:10225000BB1F661F771F881FC2F70EC0BA0F621F11
:10226000731F841F48F4879577956795B795F79501
:102270009E3F08F0B3CF9395880F08F09927EE0F93
:102280009795879508950CD0BAC0B2D040F0A9D0E8
:1022900030F021F45F3F19F09BC05111E4C09EC0A3
:1022A000BFD098F39923C9F35523B1F3951B550B70
:1022B000BB27AA2762177307840738F09F5F5F4F19
:1022C000220F331F441FAA1FA9F333D00E2E3AF05A
:1022D000E0E830D091505040E695001CCAF729D074
:1022E000FE2F27D0660F771F881FBB1F26173707C3
:1022F0004807AB07B0E809F0BB0B802DBF01FF27F3
:1023000093585F4F2AF09E3F510568F061C0ABC003
:102310005F3FECF3983EDCF3869577956795B7952C
:10232000F7959F5FC9F7880F911D9695879597F947
:102330000895E1E0660F771F881FBB1F62177307C0
:102340008407BA0720F0621B730B840BBA0BEE1FD5
:1023500088F7E0950895E89409C097FB3EF49095BE
:102360008095709561957F4F8F4F9F4F9923A9F06E
:10237000F92F96E9BB279395F695879577956795FD
:10238000B795F111F8CFFAF4BB0F11F460FF1BC041
:102390006F5F7F4F8F4F9F4F16C0882311F096E9D4
:1023A00011C0772321F09EE8872F762F05C0662382
:1023B00071F096E8862F70E060E02AF09A95660F3B
:1023C000771F881FDAF7880F9695879597F90895F4
:1023D00097F99F6780E870E060E008959FEF80ECD8
:1023E000089500240A94161617061806090608957B
:1023F00000240A9412161306140605060895092EE1
:102400000394000C11F4882352F0BB0F40F4BF2B4F
:1024100011F460FF04C06F5F7F4F8F4F9F4F08958F
:1024200057FD9058440F551F59F05F3F71F0479585
:10243000880F97FB991F61F09F3F79F0879508956A
:10244000121613061406551FF2CF4695F1DF08C089
:10245000161617061806991FF1CF869571056105A6
:1024600008940895E894BB2766277727CB0197F94E
:1024700008950BD0C4CFB5DF28F0BADF18F095234C
:1024800009F0A6CFABCF1124EECFCADFA0F3959F02
:10249000D1F3950F50E0551F629FF001729FBB274B
:1024A000F00DB11D639FAA27F00DB11DAA1F649FF7
:1024B0006627B00DA11D661F829F2227B00DA11DAA
:1024C000621F739FB00DA11D621F839FA00D611D30
:1024D000221F749F3327A00D611D231F849F600D51
:1024E000211D822F762F6A2F11249F5750408AF08A
:1024F000E1F088234AF0EE0FFF1FBB1F661F771F16
:10250000881F91505040A9F79E3F510570F060CF51
:10251000AACF5F3FECF3983EDCF3869577956795FD
:10252000B795F795E7959F5FC1F7FE2B880F911D33
:102530009695879597F90895EE0FFF1F881F8BBF1B
:102540000790F691E02D19942ADEB7FF0895821BBB
:08255000930B0895F894FFCFEE
:10255800FFFFFFFF0F000E0002000300040005004C
:102568000600070000000000F1015A0189013D0240
:10257800BA019801AC0100000000B5085A016108D1
:10258800230A00000000AB0A7F0AD90A550A780A14
:10259800650A560A73657269616C20636F6D6D75A3
:1025A8006E69636174696F6E20696E6974696174BC
:1025B8006564005769726520696E697469616C6940
:0825C8007A6564000D0A0000B1
:00000001FF
