:100000000C9484150C94B5150C94B5150C94B51579
:100010000C94B5150C94B5150C94B5150C94B51538
:100020000C94B5150C94B5150C94B5150C94B51528
:100030000C94B5150C94B5150C94B5150C94B51518
:100040000C94B5150C94B5150C94B5150C94B51508
:100050000C94B5150C94B5150C94B5150C94074576
:100060000C94B5150C94D1440C94A7440C94B5157C
:100070000C94B5150C94B5150C94B5150C94B515D8
:100080000C94B5150C94B5150C94B5150C94B515C8
:100090000C94B5150C94B5150C94B5150C94B515B8
:1000A0000C94B5150C94B5150C94B5150C94B515A8
:1000B0000C94B5150C94B5150C94B5150C94B51598
:1000C0000C94B5150C94B5150C94B5150C94B51588
:1000D0000C94B5150C94B5150C94B5150C94B51578
:1000E0000C94B515000000000D000100000722105F
:1000F00005DF1E00120C1602DF39001A211A00E17A
:10010000A50019281A01DE220127222A01E0C801D0
:100110001E232203DF4C02070C0C03DF57020D2CB9
:100120001002DF9F020D2C1001DFE7020F0F1201FA
:10013000DF040317161B02EB4403070F0C02FA52ED
:10014000030D061001F15C0307070C02FA63030DAF
:10015000220D00E09B0318231A01DF04040E211A6C
:1001600004E03E0417221A02DFA00417231A02DF5C
:10017000050516211A02E0600517221A02E0C205E1
:1001800017231A02DF270617211A01E08606182313
:100190001A01DFEF0618231A01DF580707190C02AE
:1001A000E86E0707210C02E88B0717171B02EACE3F
:1001B0000717121B02ED020817171B02EA45081861
:1001C000231D03DEAE082B292E01DE8B0920222100
:1001D00000DF130A1B222104DF860A1E242202DE0E
:1001E0000D0B1C222204DF840B19221F04DFEF0BEE
:1001F00018221E04DF550C1F242402DEE10C1B22F2
:100200002304DF540D07220F04DF720D16231B0198
:10021000DFD30D1E222204DF530E17221D04DFB58B
:100220000E21222904DF420F1C222304DFB90F21F3
:10023000242502DE4E101A222004DFBD10212525C0
:1002400002DE56111C222204DFCD111C242002DE06
:100250004B121B221E02DFBE121B232304DF3513A9
:100260001D221F01DFB1132B222D01DF68141E2276
:100270002001DFE8141D221E01DF64151A221D0172
:10028000DFD3150B2B1003DF0F160E220DFFE04BF3
:10029000160B2B1001DF871616141B03E0BE161C6D
:1002A000041AFF06CC1609070C01DDD416181A1B18
:1002B00002E8221719231D03DF9017171A1A02E804
:1002C000DB1719231D02DF4918181A1B02E89718BB
:1002D0000E221001DFD31818241D02E83F1917223F
:1002E0001C03DFA11907220D03DFBF190A2D0D0022
:1002F000DFF81917221B03DF5A1A07220D03DF78D4
:100300001A24192A03E8E91A17191D03E8311B19E1
:100310001A1D02E8831B19241D03E8F41B19241D70
:1003200002E8651C0F191203E8941C181A1A01E858
:10033000E21C0C201002E2121D171A1D03E85D1DBD
:1003400019191900E8AC1D23192501E81A1E1819FE
:100350001A01E8651E19241A00E8D61E151918019D
:10036000E8181F0D2B1202DF5E1F042C0D05DF7431
:100370001F0D2B1203DFBA1F15081701F2FFFFFF35
:10038000FFFFFFFFFFFFFFFFFFDF3E7CF9F3E7C743
:100390000E1C000007FFFFFFFFFFFCFE1FFF87FF93
:1003A000E1FFF87FFE1FFF87FFE1FDF03E7C0F9F1E
:1003B00003E38070E01C00F83E003E0F800F83E0F6
:1003C00003E0F800F87C007C1F001F07C1FFFFFF5F
:1003D0007FFFFFDFFFFFF7FFFFFDFFFFFF03E0F8F9
:1003E00000F83E003E1F001F07C007C1F001F07C6F
:1003F000007C1F03FFFFFCFFFFFF3FFFFFCFFFFF5E
:10040000F3FFFFFC0F87C007C1F001F07C007C1FE9
:10041000001F07C007C3E003E0F800F83E003E0FEE
:100420008000003800001C00007FE000FFFC00FF9F
:10043000FF80FFFFE0FFFFF87F73FE7F38FF3F1C68
:100440003FDF8E0FEFC707F7E38003F9C001FEE03F
:10045000007FF0003FFC000FFFC003FFFC007FFFA8
:10046000800FFFE001FFF800E7FC0071FF00387F1C
:10047000FF1C1FFF8E0FFFC707FFE387FBF9C3F9C0
:10048000FEE7FC7FFFFC3FFFFC0FFFFC01FFF800D5
:100490003FE00003800001C00000E00000700003A6
:1004A000E0003C001FF00078007FF801E001FFF061
:1004B00003C007FFF00F000F83E01E003E03E0784B
:1004C000007803C0F000F00783C001E00F0780034D
:1004D000E03E1E0003E0F83C0007FFF0F00007FFDD
:1004E000C1E00007FF07800007FC1F000003E03C9D
:1004F00000000000F01F000001E0FF80000787FF00
:10050000C0000F0FFF80003C3FFF800078FC1F0001
:1005100001E1F01F0003C3C01E000F07803C001E56
:100520000F007800781F01F000F01F07C003C03FE4
:10053000FF8007803FFE001E007FF8007C003FE048
:1005400000F0001F00003F000003FE00001FFC0041
:1005500000FFF80007FFF0003FCFC000FE1F0003C0
:10056000F87C000FE1F0003FC7C0007F3E0001FFB4
:10057000F80003FFC00007FE00000FF000007F80BE
:100580000007FF03E03FFE0F83FFF83E1FF3F1F883
:100590007F07E7E3FC1FFF0FE03FFC3F807FF0FE9B
:1005A00001FF83F803FE0FF00FF03FE07FE07FC311
:1005B000FFC1FFFFFF03FFFFFE07FFFBFC0FFFC7AD
:1005C000F81FFE0FE00FE00000FFFFFFFFFFFFBE80
:1005D0007CF8E1C000F00F80F807C07C07E03E0324
:1005E000F01F80F80FC07E07E03F01F80FC0FC0746
:1005F000E03F01F80FC07E03F01F80FC07E03F00E2
:10060000F807E03F01F807C03F01F807C03F00F8D6
:1006100007E01F00F803E01F007C01E07803E00F13
:10062000807C01F00F803E01F00FC03E01F80FC04A
:100630003F01F80FC07E01F80FC07E03F01F80FC61
:1006400007E03F01F80FC07E03E03F01F80FC07CD8
:1006500007E03F01F01F80F80FC07C07E03E03F089
:100660001F01F000038007000E001C0638DFFFFFAB
:10067000FF9FFE07C01FC03F80F783C7878F020818
:1006800000007C0000F80001F00003E00007C0005B
:100690000F80001F00003E00FFFFFFFFFFFFFFFF76
:1006A000FFFFFFFFFFFFFFFFFFC01F00003E000036
:1006B0007C0000F80001F00003E00007C0000F809C
:1006C00000FFFFFFFFFFFF870E1C78EFDF3800FF02
:1006D000FFFFFFFFFFFFFFFFFCFFFFFFFFFFFF80AC
:1006E000003803C01C00E007007003801C01E00E0E
:1006F000007003803801C00E00F007003803C01CF2
:1007000000E007007003801C01E00E0070038038D9
:1007100001C00E00F007000000FF0003FFC00FFF44
:10072000F01FFFF81FFFF83FFFFC3FC3FC7F81FE77
:100730007F00FE7F00FE7F00FEFE007FFE007FFE4A
:10074000007FFE007FFE007FFE007FFE007FFE0038
:100750007FFE007FFE007FFE007FFE007FFE007FA9
:100760007F00FE7F00FE7F00FE7F81FE3FC3FC3FD7
:10077000FFFC1FFFF81FFFF80FFFF003FFC000FF93
:1007800000003C01F007C03F01FC3FFFFFFFFFFFFF
:10079000FFFFF01FC07F01FC07F01FC07F01FC07B7
:1007A000F01FC07F01FC07F01FC07F01FC07F01F96
:1007B000C07F01FC07F01FC07F01FC01FE000FFF9E
:1007C000803FFF80FFFF83FFFF8FFFFF9FE0FF7FE2
:1007D00080FFFE01FFFC01FFF803FFF007F0000FB0
:1007E000E0001FC0007F8000FE0003FC000FF0004F
:1007F0007FC001FF0007F8003FE000FF0003FC009E
:100800000FF0003FC0007F0001FC0003FFFFE7FF87
:10081000FFDFFFFFBFFFFF7FFFFEFFFFFC01FE00CA
:100820000FFF807FFF81FFFF87FFFF8FFFFF1FE12B
:10083000FF7F81FEFE01FDFC03FBF807F0000FE0E7
:10084000001F80007F0001FC001FF0003FC0007F00
:10085000C000FFE0003FE0001FC0003FC0003F803D
:10086000007F0000FFFC01FFF807FFF80FF7F83FDB
:10087000CFFFFF9FFFFE1FFFF81FFFE00FFF800766
:10088000F800001FE0007F8003FE000FF8007FE00B
:1008900003FF800FFE007BF801EFE00F3F8078FE42
:1008A00001E3F80F0FE0383F81E0FE0703F83C0F4B
:1008B000E1E03F8700FE3C03F8FFFFFFFFFFFFFF83
:1008C000FFFFFFFFFFFFFFFFFFF000FE0003F80048
:1008D0000FE0003F8000FE0003F8000FE01FFFFC68
:1008E0003FFFF87FFFF0FFFFE3FFFFC7FFFF8F80B1
:1008F000001F00003E0000780001F1F803EFFE0742
:10090000FFFE0FFFFE1FFFFE7FFFFCFE07FC000740
:10091000F80007F80007F0000FE0001FC0003F805C
:10092000007F0000FFF803FFF80FF7F83FEFFFFF2D
:100930008FFFFF0FFFFC0FFFE00FFF8003F80000A9
:10094000FF0007FF801FFFC07FFF81FFFF87FFFFC2
:100950008FF0FF3FC0FE7F0000FE0001FC0007F0AB
:10096000000FE3F01FDFF83FFFFC7FFFFCFFFFF904
:10097000FF87FBFC07F7F80FFFE00FFFC01FFF80AA
:100980003FFF007F7E00FEFC01FDFC07FBF80FE34C
:10099000FC7FC7FFFF07FFFE0FFFF80FFFE007FF19
:1009A0008003F800FFFFFFFFFFFFFFFFFFFFFFFFD8
:1009B000FFFFFFFFFFC0003F0000FC0003F800073F
:1009C000E0001F80007F0000FC0003F80007E0004B
:1009D0001F80007F0000FE0001F80007F0000FC03C
:1009E000003F80007F0000FC0001F80007F0000FCE
:1009F000E0001FC0003F0000FE0001FC0003F80003
:100A000007F00000FE0003FFC00FFFE01FFFF03FF4
:100A1000FFF83FFFF87F83FC7F00FC7E00FC7E0038
:100A20007C7E007C7E00FC3F00F83F83F80FFFF0E7
:100A300007FFC00FFFF01FFFF83FC3FC7F00FE7FE2
:100A400000FEFE007FFE007FFE007FFE007FFE00B6
:100A50007FFF00FFFF00FE7F83FE7FFFFE3FFFFC66
:100A60001FFFF80FFFF007FFC000FF0000FF0003AB
:100A7000FFC00FFFE01FFFF03FFFF83FFFFC7FC309
:100A8000FC7F01FEFF00FEFE007EFE007EFE007F7A
:100A9000FE007FFE007FFE007FFF00FF7F01FF7FE3
:100AA000C3FF7FFFFF3FFFFF1FFFFF0FFF7F07FE1B
:100AB0007F01FC7E00007E0000FE0000FE7F01FC46
:100AC0007F83FC7FFFF83FFFF83FFFF01FFFE00749
:100AD000FF8001FE00FFFFFFFFFFFF80000000001E
:100AE0000000000003FFFFFFFFFFFEFFFFFFFFFF0F
:100AF000FF80000000000000000003FFFFFFFFFF79
:100B0000FE1C3871E7BF7CE000000200003C0001E1
:100B1000F8001FF001FFE00FFFC0FFFC0FFFC07FD8
:100B2000FC01FFC003FC0007C0000FE0001FF8003D
:100B30003FFE000FFF8007FFE001FFF8007FF80095
:100B40003FF0000FE00003C0000080FFFFFFFFFF49
:100B5000FFFFFFFFFFFFFFFFFFFFFFFFC0000000E1
:100B6000000000000000000000000000000FFFFF78
:100B7000FFFFFFFFFFFFFFFFFFFFFFFFFFFFFC8007
:100B80000001C00003F00007FC000FFE001FFF8003
:100B900007FFE001FFF0007FFC001FFC0007F800EA
:100BA00003F0001FE001FFC00FFF80FFF80FFF8080
:100BB000FFFC03FFC007FC000FE0001E0000200048
:100BC000000001FE0007FFC01FFFF03FFFF83FFFDE
:100BD000FC7FFFFC7F83FE7F01FEFF00FFFE007FA6
:100BE000FE007FFE007F00007F0000FF0001FE008E
:100BF00003FE0007FC000FF8003FF0003FE0007F1D
:100C000080007F0000FE0000FC0000FC00000000EF
:100C100000000000000000FE0000FE0000FE0000DA
:100C2000FE0000FE0000FE0000FE0000001FF000BD
:100C300000003FFFE000001FFFFF00000FFFFFF874
:100C40000003FE01FF8001FE0007F8007F80003FE7
:100C5000801FC00003F807F000001F00FC00000127
:100C6000F03F0000003E0FC007E3C3E1F003FEF8D1
:100C70003C7E01FFFF078F807E1FC07BF01F81F845
:100C80000F7C03E01F01EF80F803C03FF01E0078E7
:100C900007FC07C00F00FF80F001E01FF01E0038C6
:100CA00007FE07C00F00FFC0F801E01EF81F003864
:100CB00007DF03E00F00F3F07C03E03E3E0FC0FCD3
:100CC0000F87C0FC3FC7F0FC1FFFFFFC0FC1FFEF09
:100CD000FF01FC1FF8FF801FC0FC07C001FC0000E3
:100CE00000001FC000000001FE000000001FF8000F
:100CF000600001FFFFFE00000FFFFFC000007FFF4C
:100D0000F0000000FFE00000000FF800000FF80006
:100D1000000FF800001FFC00001FFC00001FFC007B
:100D2000003FFE00003FFE00003F7E00007F7F008E
:100D3000007F7F00007E3F0000FE3F8000FE3F807E
:100D400001FC1F8001FC1FC001F81FC003F80FE069
:100D500003F80FE003F00FE007F007F007FFFFF0E4
:100D600007FFFFF00FFFFFF80FFFFFF81FFFFFF86F
:100D70001FFFFFFC1FC001FC3F8001FC3F8000FE05
:100D80003F8000FE7F0000FE7F00007F7F00007F2D
:100D9000FFFFE01FFFFF83FFFFF87FFFFF8FFFFFD5
:100DA000F9FFFFFF3F801FF7F001FEFE001FDFC0CD
:100DB00003FBF8007F7F001FCFE007F9FFFFFE3F36
:100DC000FFFF87FFFFC0FFFFFE1FFFFFE3FFFFFEE8
:100DD0007F001FEFE001FDFC001FFF8003FFF0001C
:100DE0007FFE000FFFC001FFF8007FFF001FEFFF35
:100DF000FFFDFFFFFF3FFFFFE7FFFFF8FFFFFC1FC7
:100E0000FFFC00001FF00003FFF8001FFFF801FFC8
:100E1000FFF00FFFFFE03FFFFFC1FF81FF0FF80171
:100E2000FE3FC007F9FE000FE7F8001FDFC0007F9C
:100E30007F000003F800000FE000003F800000FE8C
:100E4000000003F800000FE000003F800000FE00FB
:100E50000003F800000FE000001FC000007F000149
:100E6000FDFC0007F7F8003FCFF000FE3FE007F879
:100E70007FE07FC0FFFFFF03FFFFF807FFFFC00712
:100E8000FFFE000FFFE00007FC00FFFFC00FFFFFA9
:100E900080FFFFFC0FFFFFE0FFFFFF0FFFFFF8FEEB
:100EA00000FFCFE003FCFE001FEFE001FEFE000F9D
:100EB000EFE000FEFE0007FFE0007FFE0007FFE01E
:100EC000007FFE0007FFE0007FFE0007FFE0007FDD
:100ED000FE0007FFE0007FFE000FEFE000FEFE00D7
:100EE0001FEFE001FEFE003FCFE00FFCFFFFFF8F92
:100EF000FFFFF0FFFFFE0FFFFFC0FFFFF80FFFFC3B
:100F000000FFFFFF7FFFFFBFFFFFDFFFFFEFFFFFE0
:100F1000F7FFFFFBF80001FC0000FE00007F00006F
:100F20003F80001FC0000FE00007FFFFF3FFFFF945
:100F3000FFFFFCFFFFFE7FFFFF3FFFFF9FC0000F93
:100F4000E00007F00003F80001FC0000FE00007F55
:100F500000003F80001FC0000FFFFFFFFFFFFFFFEB
:100F6000FFFFFFFFFFFFFFFFFFFFFFC0FFFFFFFFD0
:100F7000FFFFFFFFFFFFFFFFFFFFFFFFFFFFFE0081
:100F800000FE0000FE0000FE0000FE0000FE00006B
:100F9000FE0000FFFFFCFFFFFCFFFFFCFFFFFCFF6C
:100FA000FFFCFFFFFCFE0000FE0000FE0000FE0054
:100FB00000FE0000FE0000FE0000FE0000FE00003B
:100FC000FE0000FE0000FE0000FE0000FE0000FE2D
:100FD0000000000FF80000FFFE0007FFFF001FFFEA
:100FE000FF007FFFFF01FFFFFF07FE03FF0FF00180
:100FF000FE3FC001FC7F0001FDFE0003FBF8000086
:1010000007F000001FC000003F8000007F000000CC
:10101000FE003FFFFC007FFFF800FFFFF001FFFF35
:10102000E003FFFFC007FFFFC0001FBF80003F7F3E
:1010300000007EFF0001FCFF0003F9FF000FF1FF3D
:10104000003FE3FF83FFC3FFFFFF83FFFFDF03FFDB
:10105000FF9E03FFFE3C01FFF078007F8000FE0052
:101060000FFFC001FFF8003FFF0007FFE000FFFC9B
:10107000001FFF8003FFF0007FFE000FFFC001FF95
:10108000F8003FFF0007FFE000FFFFFFFFFFFFFF4B
:10109000FFFFFFFFFFFFFFFFFFFFFFFFFFFFFF005F
:1010A00007FFE000FFFC001FFF8003FFF0007FFE52
:1010B000000FFFC001FFF8003FFF0007FFE000FF47
:1010C000FC001FFF8003FFF0007FFE000FFFC00148
:1010D000FCFFFFFFFFFFFFFFFFFFFFFFFFFFFFFF23
:1010E000FFFFFFFFFFFFFFFFFFFFFFFFFFFFFC0012
:1010F00001FC0007F0001FC0007F0001FC0007F0AA
:10110000001FC0007F0001FC0007F0001FC0007F2F
:101110000001FC0007F0001FC0007F0001FC000779
:10112000F0001FC0007F0001FC0007FFE01FFF80F0
:101130007FFE01FFF807FFE01FFFC0FFFF87FDFFF5
:10114000FFE7FFFF8FFFFC1FFFE03FFF001FE000F6
:10115000FE000FF3F8007F8FE003FC3F801FE0FEEE
:1011600000FF83F807FC0FE01FE03F80FF00FE0751
:10117000F803F83FC00FE1FE003F8FF000FE7F80D4
:1011800003FBFC000FFFE0003FFFC000FFFF000378
:10119000FFFE000FFFFC003FF7F800FF8FF003FC9D
:1011A0003FC00FE07F803F80FF00FE01FE03F80795
:1011B000FC0FE00FF03F801FE0FE003FC3F800FF90
:1011C0008FE001FE3F8003FCFE0007FBF8001FF0EC
:1011D000FE0001FC0003F80007F0000FE0001FC054
:1011E000003F80007F0000FE0001FC0003F80007C4
:1011F000F0000FE0001FC0003F80007F0000FE00F5
:1012000001FC0003F80007F0000FE0001FC0003FE2
:1012100080007F0000FE0001FC0003F80007F000E2
:101220000FFFFFFFFFFFFFFFFFFFFFFFFFFFFFFFBE
:10123000FFFCFFE003FFFFF001FFFFF800FFFFFCF2
:10124000007FFFFE007FFFFF803FFFFFC01FFFFF0B
:10125000E00FFFFFF007FFFFFC07FFFFBE03EFFFFC
:10126000DF01F7FFEF80FBFFF7C0FDFFFBF07CFF26
:10127000FCF83E7FFE7C1F3FFF3E0F9FFF9F8F8F3E
:10128000FFC7C7C7FFE3E3E3FFF1F1F1FFF8FCF8A5
:10129000FFFC3EF87FFE1F7C3FFF0FBE1FFF87DF76
:1012A0000FFFC3FF07FFE0FF83FFF07FC1FFF83FA1
:1012B000E0FFFC1FF07FFE07F03FFF03F81FC0FEBA
:1012C0000007FFF0007FFF8007FFF8007FFFC007E7
:1012D000FFFC007FFFE007FFFF007FFFF007FFFF3D
:1012E000807FFFF807FFEFC07FFEFE07FFE7E07F8C
:1012F000FE7F07FFE3F07FFE1F87FFE1FC7FFE0F0D
:10130000C7FFE0FE7FFE07E7FFE03F7FFE03FFFF32
:10131000E01FFFFE01FFFFE00FFFFE007FFFE00781
:10132000FFFE003FFFE003FFFE001FFFE000FFFEA7
:10133000000FFFE0007F000FF800003FFF80007FFC
:10134000FFE0007FFFFC007FFFFF007FFFFFC07F0B
:10135000E03FF03FC00FF83FC001FE1FC0007F1FFD
:10136000E0003FCFE0000FE7F00007F7F80003FFD1
:10137000F80000FFFC00007FFE00003FFF00001FA0
:10138000FF80000FFFC00007FFE00003FFF0000137
:10139000FFFC0001FEFE0000FE7F00007F3FC0005A
:1013A0007F8FE0003F87F8003FC1FE003FC0FFC0D5
:1013B0007FE03FFFFFE00FFFFFE003FFFFE000FFE4
:1013C000FFE0001FFFC00001FF0000FFFFE03FFF44
:1013D000FF0FFFFFE3FFFFFCFFFFFFBFFFFFEFE09B
:1013E0000FFBF800FFFE001FFF8007FFE001FFF882
:1013F000007FFE001FFF8007FFE003FFF803FEFFF2
:10140000FFFFBFFFFFCFFFFFF3FFFFF8FFFFF83F36
:10141000FFF80FE00003F80000FE00003F80000F1F
:10142000E00003F80000FE00003F80000FE0000332
:10143000F80000FE00003F800000000FF800003FB1
:10144000FF80007FFFE0007FFFFC007FFFFF007F49
:10145000FFFFC07FE03FF03FC007F83FC001FE1F25
:10146000C0007F1FE0003FCFE0000FE7F00007F76C
:10147000F80003FFF80000FFFC00007FFE00003FC3
:10148000FF00001FFF80000FFFC00007FFE0000308
:10149000FFF00001FFFC0021FEFE0038FE7F003E51
:1014A0007F3FC03FFF8FE00FFF87F803FFC1FE00C3
:1014B000FFC0FFC07FE03FFFFFF00FFFFFFC03FF17
:1014C000FFFF00FFFFFFC01FFFCFC001FF03C000F1
:1014D0000000C0FFFFF80FFFFFE0FFFFFF8FFFFFDF
:1014E000F8FFFFFFCFFFFFFCFE003FEFE001FEFE35
:1014F000000FEFE000FEFE000FEFE000FEFE000F29
:10150000EFE001FCFE003FCFFFFFF8FFFFFF0FFF02
:10151000FFC0FFFFFE0FFFFFF0FFFFFF8FE007F8A8
:10152000FE001FCFE001FCFE001FCFE001FCFE002B
:101530001FCFE001FCFE001FCFE001FCFE001FCF2B
:10154000E001FCFE001FEFE000FF00FFC0003FFFD6
:10155000800FFFFE01FFFFF03FFFFF87FFFFFC7FD3
:10156000C0FFCFF003FEFE001FEFE000FEFE000F05
:10157000EFE00000FF00000FFC00007FFC0007FF11
:10158000FE003FFFFC01FFFFF007FFFFC00FFFFE63
:101590000007FFE00003FF00000FF00000FF000065
:1015A00007FFE0007FFE0007FFE000FFFF000FE7FE
:1015B000FC03FE7FFFFFE3FFFFFC1FFFFF80FFFF39
:1015C000F003FFFC0007FE00FFFFFFFFFFFFFFFF30
:1015D000FFFFFFFFFFFFFFFFFFFFFFFFC00FE00068
:1015E00001FC00003F800007F00000FE00001FC06B
:1015F0000003F800007F00000FE00001FC00003F46
:10160000800007F00000FE00001FC00003F800008B
:101610007F00000FE00001FC00003F800007F000A9
:1016200000FE00001FC00003F800007F00000FE074
:101630000001FC00003F800007F000FE000FFFC02B
:1016400001FFF8003FFF0007FFE000FFFC001FFF65
:101650008003FFF0007FFE000FFFC001FFF8003F96
:10166000FF0007FFE000FFFC001FFF8003FFF0000A
:101670007FFE000FFFC001FFF8003FFF0007FFE003
:1016800000FFFC001FFF8003FFF0007FFE000FFF44
:10169000C001FFFC007FBFC01FE7FC07FC7FFFFF0E
:1016A0000FFFFFE0FFFFF80FFFFE007FFF0001FFCD
:1016B0000000FE0003FFF0001FDFC001FCFE000F72
:1016C000E7F0007F1FC003F0FE003F87F001FC1F22
:1016D000C00FC0FE00FE03F007F01F803F00FE03B6
:1016E000F803F01FC01F80FC00FE07E003F07F003E
:1016F0001F83F000FE1F8003F1F8001F8FC000FC65
:101700007E0003F3E0001FBF0000FDF80003FF8030
:10171000001FFC0000FFE00003FE00001FF00000BF
:10172000FF800003F800001FC00000FE0000FF0063
:101730003F801FFFE007F003FDFC01FE007F3F80BC
:101740003FE00FE7F007FC01FC7F00FF807F8FE0A8
:101750001FF00FE1FC07FF01FC3F80FBE03F83F03F
:101760001F7C07E07F03EF81FC0FE07DF03F80FCF2
:101770001F9F07F01F83E3E0FC03F07C7C1F807F4A
:101780000F8F87F007E1F0F8FC00FC7E1F1F801F21
:101790008F83E3F001F9F07C7E003F3E0F9F8007CE
:1017A000E7C0FBF000FDF01F7E000FBE03EFC0019D
:1017B000FFC07DF0003FF80FFE0003FF00FFC000F8
:1017C0007FC01FF0000FF803FE0001FF007FC00084
:1017D0001FE007F80003FC00FE00007F001FC000B0
:1017E00007E003F8007F8007F9FF003FC3FC00FF1C
:1017F00007F807F81FE01FC03FC0FF00FF07F80110
:10180000FE1FE003F8FF000FF3F8001FDFE0003FCA
:10181000FF0000FFF80001FFE00007FF00000FF8E5
:1018200000001FE00000FF800003FF00001FFC001D
:10183000007FF80003FFF0001FFFC0007F7F8003E0
:10184000F8FF001FE1FC007F07F803FC0FF01FE02A
:101850003FC07F807F83FC01FE0FF003FC7F800F81
:10186000FBFE001FE0FF0007FFF8007F9FE003FC86
:10187000FF003FC3FC01FE0FE00FE07F00FF01FC13
:1018800007F00FE07F803F83F801FC3FC007F1FCC9
:10189000003F8FE000FEFE0007F7F0001FFF000092
:1018A000FFF80003FF80001FF800007FC00001FC6C
:1018B00000000FE000007F000003F800001FC000E0
:1018C00000FE000007F000003F800001FC00000F58
:1018D000E000007F000003F800001FC00000FE00D1
:1018E00000FFFFFFFFFFFFFFFFFFFFFFFFFFFFFF07
:1018F000FFFFFFFFF00003FC0001FE0000FF0000FF
:101900007F80003FE0000FF00007F80003FC0001BB
:10191000FE0000FF80003FC0001FE0000FF0000746
:10192000F80003FE0000FF00007F80003FC0001FA2
:10193000E0000FF80003FC0001FE0000FFFFFFFFC6
:10194000FFFFFFFFFFFFFFFFFFFFFFFFFFFFFFF0B6
:10195000FFFFFFFFFFFFFFFC3F87F0FE1FC3F87F85
:101960000FE1FC3F87F0FE1FC3F87F0FE1FC3F87CC
:10197000F0FE1FC3F87F0FE1FC3F87F0FE1FC3F8A6
:101980007F0FE1FC3FFFFFFFFFFFFF80E003C00789
:10199000001C007800E003800F001C007001E003D1
:1019A000800E0038007001C007000E003800E00112
:1019B000C007001C007800E003800F001C007001CD
:1019C000E003800E003C0070FFFFFFFFFFFFFE1FE3
:1019D000C3F87F0FE1FC3F87F0FE1FC3F87F0FE1E4
:1019E000FC3F87F0FE1FC3F87F0FE1FC3F87F0FE4E
:1019F0001FC3F87F0FE1FC3F87F0FE1FFFFFFFFFD3
:101A0000FFFFFF8000FC0007F0001FC000FF800305
:101A1000FE000FFC007DF001F7C00FDF803E3E00AE
:101A2000F8FC07E1F01F07C0FC1F83E03E0F80FCBD
:101A30007E01F1F007C7C01FBE003EFFFFFFFFFFA2
:101A4000FFFFFFFFFFFFFFFFFFFC3E0F83C0F038EB
:101A50001E01FF000FFFC01FFFF03FFFF87FFFF8E0
:101A60007FFFFC7F03FC7E01FC0001FC0003FC0007
:101A70000FFC03FFFC1FFFFC3FFFFC7FC1FCFF01CD
:101A8000FCFE01FCFE03FCFE03FCFF07FCFFFFFC69
:101A90007FFFFC7FFFFC3FFDFE1FF0FF07E000FE25
:101AA00000007F00003F80001FC0000FE00007F033
:101AB0000003F80001FC0000FE00007F0FC03F9F04
:101AC000F81FDFFF0FFFFFC7FFFFE3FFFFF9FF83F3
:101AD000FEFF80FF7F803FBFC01FFFC007FFE00306
:101AE000FFF001FFF800FFFC007FFE003FFF803F9A
:101AF000FFC01FDFF01FEFFC1FF7FFFFF3FFFFF139
:101B0000FFFFF8FEFFF87F3FF00007E00000FF0056
:101B100007FFC03FFFC0FFFFC3FFFFC7FFFF9FF0EE
:101B20007FBFC07F7F007FFC0003F80007F0000F3D
:101B3000E0001FC0003F80007F0000FE0000FE00AC
:101B4000FDFE03FBFE0FF3FFFFC7FFFF87FFFE074E
:101B5000FFF803FFE001FE0000003F80001FC0000F
:101B60000FE00007F00003F80001FC0000FE000099
:101B70007F00003F807E1FC0FFCFE1FFF7F1FFFF36
:101B8000F8FFFFFCFFFFFEFF83FF7F80FFBF803F6A
:101B9000FFC01FFFC007FFE003FFF001FFF800FFD9
:101BA000FC007FFE003FFF803FDFC01FEFF01FF70C
:101BB000FC1FF9FFFFFCFFFFFE3FFFFF0FFFBF8190
:101BC000FF9FC03F000000FE0003FF800FFFE01FEB
:101BD000FFF03FFFF83FC3F87F80FC7F00FC7F00F1
:101BE0007CFE007EFE007EFFFFFEFFFFFEFFFFFE8D
:101BF000FFFFFEFE0000FE0000FE00007F007F7F72
:101C000000FE3FC1FE3FFFFC1FFFF80FFFF003FF88
:101C1000C000FF0001FC1FF0FFC3FF1FFC7F81FC21
:101C200007F01FC07F0FFFBFFEFFFBFFE1FC07F0C7
:101C30001FC07F01FC07F01FC07F01FC07F01FC021
:101C40007F01FC07F01FC07F01FC07F01FC07F0071
:101C500000F87F07FE7F0FFF7F1FFF7F3FFFFF3FE3
:101C6000FFFF7FC3FF7F81FF7F00FFFF00FFFE00BC
:101C70007FFE007FFE007FFE007FFE007FFE007F74
:101C8000FE00FFFF00FF7F81FF7FC3FF3FFFFF3F9D
:101C9000FFFF1FFFFF0FFF7F07FE7F01F87F0000A0
:101CA0007F00007F00007F7F00FF7F01FE7FC3FE7B
:101CB0003FFFFC1FFFF80FFFE001FF00FE0001FCEB
:101CC0000003F80007F0000FE0001FC0003F800095
:101CD0007F0000FE0001FC3F83F8FFC7F7FFCFEF56
:101CE000FFDFFFFFBFFFFFFFE1FFFF01FFFE01FF7F
:101CF000F803FFF007FFE00FFFC01FFF803FFF006A
:101D00007FFE00FFFC01FFF803FFF007FFE00FFF7D
:101D1000C01FFF803FFF007FFE00FFFC01FCFFFFB4
:101D2000FFFFFFC00001FFFFFFFFFFFFFFFFFFFFFF
:101D3000FFFFFFFFFFFFFFFFFFFFFFFC1FC7F1FCDF
:101D40007F1FC7F000000007F1FC7F1FC7F1FC7F79
:101D50001FC7F1FC7F1FC7F1FC7F1FC7F1FC7F1F6E
:101D6000C7F1FC7F1FC7F1FC7F1FC7F1FFFFFFFF1B
:101D7000FFFBFEFE00FE0001FC0003F80007F00080
:101D80000FE0001FC0003F80007F0000FE0001FC4C
:101D900003FBF80FE7F03FCFE0FF1FC3FC3F87F0E6
:101DA0007F1FC0FE7F01FDFC03FFF007FFF00FFF68
:101DB000E01FFFE03FFFE07FDFC0FF3FC1FC3F834C
:101DC000F83F87F07F8FE07F1FC0FF3F80FE7F01DD
:101DD000FEFE01FDFC03FCFFFFFFFFFFFFFFFFFF17
:101DE000FFFFFFFFFFFFFFFFFFFFFFFFFFFFFFFF03
:101DF000FFFFFFFFFCFE1F807E0FE7FE1FF8FEFFC8
:101E0000F3FFCFFFFFFFFEFFFFFFFFEFFFFFFFFF2F
:101E1000FF83FF0FFFF01FE07FFE01FC07FFE01FC5
:101E2000C07FFE01FC07FFE01FC07FFE01FC07FF33
:101E3000E01FC07FFE01FC07FFE01FC07FFE01FC2A
:101E400007FFE01FC07FFE01FC07FFE01FC07FFE11
:101E500001FC07FFE01FC07FFE01FC07FFE01FC081
:101E60007FFE01FC07F0FE1FC1FCFFE3FBFFE7FF65
:101E7000FFEFFFFFDFFFFFFFF0FFFF80FFFE00FF30
:101E8000FC01FFF803FFF007FFE00FFFC01FFF801A
:101E90003FFF007FFE00FFFC01FFF803FFF007FF9C
:101EA000E00FFFC01FFF803FFF007FFE00FE007FAE
:101EB0008001FFF001FFFE01FFFF81FFFFE1FFFF57
:101EC000F1FF07FCFF01FE7F007F7F803FFF800F57
:101ED000FFC007FFE003FFF001FFF800FFFC007FF9
:101EE000FF007FBF803F9FE03FCFF83FE3FFFFE071
:101EF000FFFFF03FFFF00FFFF003FFE0003FC000E7
:101F0000FE1F807F3FF03FBFFE1FDFFF8FFFFFC739
:101F1000FFFFF3FF07FDFF01FEFF007F7F803FFF14
:101F2000800FFFC007FFE003FFF001FFF800FFFC98
:101F3000007FFF007FFF803FBFE03FDFF83FCFFF24
:101F4000FFE7FFFFE3FBFFE1FDFFF0FE7FE07F0F18
:101F5000C03F80001FC0000FE00007F00003F80042
:101F600001FC0000FE00007F00003F80001FC00059
:101F70000000FC3F81FF9FC3FFEFE1FFF7F1FFFF90
:101F8000F9FFFFFDFF07FEFF01FF7F007FFF803F9E
:101F9000FF800FFFC007FFE003FFF001FFF800FF25
:101FA000FC007FFF007FBF803FDFE03FEFF83FF3A3
:101FB000FFFFF8FFFFFC7FFEFE1FFF7F03FF3F8058
:101FC0007E1FC0000FE00007F00003F80001FC00D6
:101FD00000FE00007F00003F80001FC0000FE000F7
:101FE00007F0FE1FFC7FFBFFF7FFFFFFFFFFF07F07
:101FF00080FF01FC03F807F00FE01FC03F807F0067
:10200000FE01FC03F807F00FE01FC03F807F00FED9
:102010000000FF0007FFE00FFFF81FFFFC3FFFFC81
:102020007F81FE7F00FE7F00FE7FC0007FFC007F7F
:10203000FF803FFFF01FFFFC07FFFE007FFE000F49
:10204000FF0001FF00007FFE007F7F007F7F81FE99
:102050007FFFFE3FFFFC1FFFF80FFFF001FF803FF7
:1020600083F83F83F83F83F83F8FFFFFFFFFFFF3C5
:10207000F83F83F83F83F83F83F83F83F83F83F8C6
:102080003F83F83F83F83F83FF3FF1FF0FF07FFE70
:1020900000FFFC01FFF803FFF007FFE00FFFC01F88
:1020A000FF803FFF007FFE00FFFC01FFF803FFF011
:1020B00007FFE00FFFC01FFF803FFF007FFE00FF14
:1020C000FC03FFFC07FFFC3FFFFFFFEFFFFFDFFF0D
:1020D000BF9FFF7F1FFCFE0FE0007F003FBF801F00
:1020E0009FC01FC7E00FE3F807E1FC07F07E03F88D
:1020F0003F81F81FC0FC07E0FE03F87E00FC3F00B4
:102100007E1F803F1F800FCFC007E7E003F7E0008E
:10211000FFF0007FF8003FF8000FFC0007FE00030F
:10212000FE0000FF00007F0000FC03F80FFFC07FEF
:1021300001FFF80FE03F3F03FE07E7E07FC1FCFE31
:102140000FF83F9FC1FF07E1F83DE0FC3F0FBE3FA6
:1021500087F1F7C7E07E3EF8FC0FC7DF1F81F9F17A
:10216000E3F03F3E3EFC03F7C7DF807EF8FBF00F55
:10217000DE1F7C00FFC1FF801FF83FF003FF07FE5A
:10218000007FC0FF8007F81FF000FF01FE001FE086
:102190003F8001FC07F000FF00FF7F81FE3F81FCD4
:1021A0003FC3FC1FC3F80FE7F00FEFF007FFE0039A
:1021B000FFC003FFC001FF8000FF0000FF0001FF20
:1021C0000001FF8003FFC007FFC007FFE00FE7F03B
:1021D0001FE7F01FC3F83FC3FC7F81FC7F01FEFFB8
:1021E00000FF7F003FBF801FDFC00FC7F007E3F88D
:1021F00007F1FC03F07F01F83F81FC0FC0FC07F002
:102200007E03F83F00FC3F007E1F803F8FC00FCF52
:10221000C007E7E003FBF000FDF0007FF8003FFCA3
:10222000000FFC0007FE0003FF0000FF00007F809E
:10223000001FC0000FC00007E00003F00003F00023
:1022400003F8001FF8000FFC0007FC0003FC00016E
:10225000F800007FFFFBFFFFDFFFFEFFFFF7FFFF40
:10226000BFFFFC003FE003FE001FE001FE001FE097
:1022700001FE001FE001FE001FE001FE001FE00163
:10228000FE001FE001FFFFFFFFFFFFFFFFFFFFFF5B
:10229000FFFFFFFFF801F81FC1FE0FF0FF87E03ED0
:1022A00001F00F807C03E01F00F807C03E01F00F33
:1022B000807C03E03F0FF07F03F81FE01F807C036A
:1022C000E01F00F807C03E01F00F807C03E01F0014
:1022D000F807E03FE0FF07F81FC07EFFFFFFFFFFAA
:1022E000FFFFFFFFFFFFFFFFFFFFFFFFFFFFFFFFFE
:1022F000FFFC07F03FC1FE0FF80FC03E01F00F805A
:102300007C03E01F00F807C03E01F00F807C03E073
:102310001F807F81FC0FE0FF0FC07C03E01F00F8EF
:1023200007C03E01F00F807C03E01F00F80FC3FEE2
:102330001FE0FF07F03F001F0003FE001FF80FFF24
:10234000F0FF0FFFF01FF8007F8000F84552524F5A
:10235000523A20476574584461746146726F6D52F9
:10236000656628547970652025642C204C696E655B
:102370002025642920705844617461206973204EBF
:10238000554C4C0A004552524F523A2047657458FA
:102390004461746146726F6D526566285479706548
:1023A0002025642C204C696E652025642920456C0D
:1023B000656D2074797065206D69736D61746368F3
:1023C0000A004552524F523A20476574584461748E
:1023D0006146726F6D526566285479706520256478
:1023E0002C204C696E65202564292070456C656D34
:1023F000206973204E554C4C0A004552524F523AB8
:1024000020476574584461746146726F6D52656609
:1024100028547970652025642C204C696E65202530
:1024200064292070456C656D526566206973204E85
:10243000554C4C0A0000000000003E5B4F5B3E3EE6
:102440006B4F6B3E1C3E7C3E1C183C7E3C181C5760
:102450007D571C1C5E7F5E1C00183C1800FFE7C304
:10246000E7FF0018241800FFE7DBE7FF30483A06D3
:102470000E2629792926407F050507407F05253F3F
:102480005A3CE73C5A7F3E1C1C08081C1C3E7F142B
:10249000227F22145F5F005F5F06097F017F006675
:1024A00089956A606060606094A2FFA29408047ECF
:1024B000040810207E201008082A1C08081C2A087E
:1024C000081E101010100C1E0C1E0C30383E383038
:1024D000060E3E0E06000000000000005F00000037
:1024E00007000700147F147F14242A7F2A12231365
:1024F00008646236495620500008070300001C2279
:1025000041000041221C002A1C7F1C2A08083E08AA
:1025100008008070300008080808080000606000AB
:1025200020100804023E5149453E00427F4000729F
:10253000494949462141494D331814127F10274516
:102540004545393C4A494931412111090736494934
:102550004936464949291E00001400000040340055
:102560000000081422411414141414004122140809
:1025700002015909063E415D594E7C1211127C7FC1
:10258000494949363E414141227F4141413E7F49CF
:102590004949417F090909013E414151737F0808BA
:1025A000087F00417F41002040413F017F08142205
:1025B000417F404040407F021C027F7F0408107F23
:1025C0003E4141413E7F090909063E4151215E7F5E
:1025D00009192946264949493203017F01033F4031
:1025E00040403F1F2040201F3F4038403F631408B9
:1025F000146303047804036159494D43007F41414A
:10260000410204081020004141417F0402010204FC
:102610004040404040000307080020545478407F69
:10262000284444383844444428384444287F3854A3
:1026300054541800087E090218A4A49C787F08044A
:10264000047800447D40002040403D007F10284435
:102650000000417F40007C047804787C0804047802
:102660003844444438FC1824241818242418FC7CCA
:1026700008040408485454542404043F44243C40AF
:1026800040207C1C2040201C3C4030403C44281012
:1026900028444C9090907C4464544C44000836414B
:1026A0000000007700000041360800020102040229
:1026B0003C2623263C1EA1A161123A4040207A38D4
:1026C0005454555921555579412254547842215535
:1026D00054784020545579400C1E52721239555589
:1026E0005559395454545939555454580000457C5F
:1026F000410002457D420001457C407D1211127D62
:10270000F0282528F07C545545002054547C547CF6
:102710000A097F4932494949323A4444443A324AE3
:102720004848303A4141217A3A42402078009DA001
:10273000A07D3D4242423D3D4040403D3C24FF247F
:1027400024487E4943662B2FFC2F2BFF0929F620B6
:10275000C0887E090320545479410000447D4130F3
:1027600048484A32384040227A007A0A0A727D0D7F
:1027700019317D2629292F28262929292630484D37
:102780004020380808080808080808382F10C8AC86
:10279000BA2F102834FA00007B000008142A1422F3
:1027A00022142A14085500550055AA55AA55AAFF07
:1027B00055FF55FF000000FF00101010FF0014141B
:1027C00014FF001010FF00FF1010F010F01414148C
:1027D000FC001414F700FF0000FF00FF1414F404C1
:1027E000FC141417101F10101F101F1414141F00B6
:1027F000101010F0000000001F101010101F10101B
:102800001010F010000000FF101010101010101029
:1028100010FF10000000FF140000FF00FF00001F69
:1028200010170000FC04F414141710171414F40407
:10283000F40000FF00F714141414141414F700F734
:10284000141414171410101F101F141414F414105F
:1028500010F010F000001F101F0000001F140000F7
:1028600000FC140000F010F01010FF10FF141414FE
:10287000FF141010101F00000000F010FFFFFFFFFA
:10288000FFF0F0F0F0F0FFFFFF0000000000FFFF9E
:102890000F0F0F0F0F3844443844FC4A4A4A347E25
:1028A00002020606027E027E0263554941633844F5
:1028B000443C04407E201E2006027E020299A5E7C9
:1028C000A5991C2A492A1C4C7201724C304A4D4D64
:1028D000303048784830BC625A463D3E494949004C
:1028E0007E0101017E2A2A2A2A2A44445F44444068
:1028F000514A444040444A51400000FF0103E080F7
:10290000FF000008086B6B083612362436060F09E4
:102910000F06000018180000001010003040FF01E2
:1029200001001F01011E00191D1712003C3C3C3C18
:102930000000000000EF03038002CF0300C130ED70
:102940000464031281E803850078CB05392C003438
:1029500002F70120EA020000C00123C10110C502F4
:102960003E28C701863601483701003A0155B102B9
:102970000018B603088227F20100260101E00F0FBC
:10298000312B0C0E084EF1370710030E0900E10F32
:10299000000E1403110731C148080F0C31360F1116
:1029A0008029800000002100240027002A002D003B
:1029B0003000330001010000040107010A0100009A
:1029C0000A0B02090C0D0E080703040100000000A9
:1029D00000000000000000000000000000000000F7
:1029E00000000000000000000000121110000000B4
:1029F00000000000000000000000000000000000D7
:102A0000000000002D204E6F20746F7563682068F1
:102A1000616E646C657220656E61626C65640A004B
:102A20002D20496E697420646973706C6179206827
:102A3000616E646C6572205B25735D204F4B0A00EC
:102A4000475549736C6963652076657273696F6E6B
:102A5000205B25735D3A0A007D03E400207E380187
:102A6000021020200808102040102040800201029F
:102A70000108040201010204081020408080402067
:102A800010080402018004020180402010080402A2
:102A90000108040201010204081020408001020420
:102AA000081020408000002200250028002B002E66
:102AB000003100340002010000050108010B01058E
:102AC000050505070508080808020202020A0A08A7
:102AD00008040404040101010101010101030303CD
:102AE0000303030303040707070C0C0C0C0C0C0C6A
:102AF0000C0202020206060606060606060B0B0B71
:102B00000B0B0B0B0B00514511241FBECFEFD1E275
:102B1000DEBFCDBF00E00CBF14E0A0E0B2E0E2ED0C
:102B2000FAE900E00BBF02C007900D92A23AB1078C
:102B3000D9F728E0A2EAB4E001C01D92A530B2079F
:102B4000E1F715E1C4E8D5E100E006C021970109ED
:102B5000802FFE010E94394DC338D10780E008075D
:102B6000A9F70E941D460C94674D0C94000020911B
:102B7000050730E0609103077091040790E08CE155
:102B8000492F092E000C550B4217530724F0F0E093
:102B9000E0E0CF010895FB019802E00DF11D112442
:102BA00042895389452BA9F39F5FEACF2091DB0728
:102BB0003091DC07009789F0232B51F42091D00746
:102BC0003091D1072A5F3F4F3093D1072093D00730
:102BD0009093DC078093DB070895232BC9F32091A2
:102BE000D0073091D10726503109EECF2F923F9276
:102BF0004F925F926F927F928F929F92AF92BF920D
:102C0000CF92DF92EF92FF920F931F93CF93DF93B8
:102C1000CDB7DEB76D970FB6F894DEBF0FBECDBF50
:102C20007A8769875C874B873E872D87188B0F874C
:102C3000FB0111821082FA0111821082F8011182C7
:102C40001082F90111821082C090CA07D090CB0780
:102C50002091CC073091CD073C8F2B8F2090DB0744
:102C60003090DC073091D9073C83F090D6072F2DA8
:102C700030E0388F2F8B46E0F49E900111243E8384
:102C80002D83E090D707E8E0EE9E500111249101DA
:102C90002C5F3F4F3A8B298B2F5F3F4F3C8B2B8B09
:102CA000235031093A8F298F2C5F3F4F3B832A8372
:102CB00098878F83860144244A94542CAFEFBFEF4A
:102CC00070E060E050E040E0EF81F8858191F887A6
:102CD000EF83882309F4C7C02114310409F48EC09E
:102CE0008A3041F4EA81FB8184918E9D600D711DD3
:102CF0001124E8CF8D3041F3E989FA899491EB8969
:102D0000FC899490282F082E000C330B9217130681
:102D100009F0D4F692161306BCF2E98DFA8D2591CE
:102D20003491891BF7E08F9F200D311D1124F9018B
:102D3000329684918983319694919D8B31968491BA
:102D40008E8B319684912A5F3F4FF901F491FD8F6C
:102D50002C812223F1F03981632E712C680E711CB5
:102D600087FD7A942F89388D629E4001639E900C76
:102D7000729E900C1124840E951EC814D9044CF434
:102D8000EA81FB8194919E9D600D711D112450E09C
:102D900040E02F2D382F3203C0011124840F951FDE
:102DA0002E2D3D8D3203F00111249F01260F371F78
:102DB000801791070CF48C01EB8DFC8D2E173F07CB
:102DC00014F43C8F2B8FF981FF9D800D911D1124F0
:102DD0000197A817B9070CF4DC018D898E9D200D91
:102DE000311D112421503109421653060CF42901DA
:102DF0009E899F9D400D511D112466CF8A3019F484
:102E00006A0D7B1D5FCF8D3009F45ECF2C812223AC
:102E100059F08D819E81840F951FC816D90624F420
:102E20006A0D7B1D50E040E02D813E81240F351F4F
:102E3000C9010197A817B9070CF4DC01C501860F79
:102E4000971F0197481659060CF42C01401751079B
:102E50000CF48A018B8D9C8D6817790714F47C8F94
:102E60006B8FA90131CFA017B1075CF0E985FA8516
:102E700011830083A01BB10B1196ED85FE85B183F4
:102E8000A0832B8D3C8D421653066CF0EB85FC85A0
:102E900031832083421A530AFFEF4F1A5F0AEF85EE
:102EA000F889518240826D960FB6F894DEBF0FBE4E
:102EB000CDBFDF91CF911F910F91FF90EF90DF90E9
:102EC000CF90BF90AF909F908F907F906F905F90CA
:102ED0004F903F902F90089520919F068217E0F425
:102EE0003AE0389FD001399FB00D1124E0919D0642
:102EF000F0919E06EA0FFB1FA1E0B0E0B383A2832E
:102F000015821482778366839183808351874087FB
:102F100081E02093A006089580E0FBCFFC01A09102
:102F2000F606B091F706892BD1F4209193063091E3
:102F30009406809195069091960614961C921E9286
:102F4000139716961C921E92159718963C932E93E3
:102F500017971A969C938E93199781E0089598E09D
:102F6000139601900D929A95E1F7F7CF10921507FD
:102F700088E0E0E0F2E0A6E1B7E001900D928A95EA
:102F8000E1F70895CF93DF93CDB7DEB760970FB623
:102F9000F894DEBF0FBECDBF29873A874B875C8789
:102FA0006D877E878F87988B2D853E8522303105F2
:102FB0002CF08F85988982309105CCF41A82198281
:102FC0001C821B821E821D8218861F8229813A81E3
:102FD0004B815C816D817E818F81988560960FB673
:102FE000F894DEBF0FBECDBFDF91CF9108954B8522
:102FF0005C854F5F5F4F69857A856F5F7F4F7A830E
:1030000069835C834B83225031093E832D83029771
:1030100098878F83DBCFAF92BF92CF92DF92EF92F0
:10302000FF920F931F93CF93DF936C017B018B0172
:10303000040F151FEB015E01AE18BF08C017D107C2
:1030400059F06991D601ED91FC910190F081E02D4C
:10305000C6011995892B79F7C501DF91CF911F9191
:103060000F91FF90EF90DF90CF90BF90AF900895B9
:103070000895FC01538D448D252F30E0842F90E07E
:10308000821B930B541710F0CF9608950197089563
:10309000FC01918D828D981761F0A28DAE0FBF2F2C
:1030A000B11D5D968C91928D9F5F9F73928F90E082
:1030B00008958FEF9FEF0895FC01918D828D9817F1
:1030C00031F0828DE80FF11D858D90E008958FEF2E
:1030D0009FEF0895FC01918D228D892F90E0805CF7
:1030E0009F4F821B91098F739927089584E297E07F
:1030F000F1DF21E0892B09F420E0822F0895FC0103
:10310000A48DA80FB92FB11DA35ABF4F2C91848D48
:1031100090E001968F739927848FA689B7892C93A5
:10312000A089B1898C91837080648C93938D848DF8
:10313000981306C00288F389E02D80818F7D8083FB
:103140000895EF92FF920F931F93CF93DF93EC01BB
:1031500081E0888F9B8D8C8D98131AC0E889F9893E
:10316000808185FF15C09FB7F894EE89FF89608341
:10317000E889F98980818370806480839FBF81E0C2
:1031800090E0DF91CF911F910F91FF90EF90089504
:10319000F62E0B8D10E00F5F1F4F0F731127E02EDF
:1031A0008C8D8E110BC00FB607FCFACFE889F98918
:1031B000808185FFF5CFCE01A2DFF2CFEB8DEC0F42
:1031C000FD2FF11DE35AFF4FF0829FB7F8940B8F4C
:1031D000EA89FB8980818062D0CFCF93DF93EC01B5
:1031E000888D8823B1F0AA89BB89E889F9898C91F7
:1031F00085FD03C0808186FD0CC00FB607FCF7CFAC
:103200008C9185FFF2CF808185FFEDCFCE0177DFF6
:10321000EACFDF91CF91089580E090E0892B21F0F3
:1032200065DF81110E94000080E090E0892B49F069
:1032300080E090E0892B29F00E94000081110E941B
:10324000000080E090E0892B49F080E090E0892B3D
:1032500029F00E94000081110E94000080E090E0AF
:10326000892B49F080E090E0892B29F00E94000032
:1032700081110C9400000895282F30E0F901E254E8
:10328000F64D9491F901E15AF54D44912154354D93
:10329000F9012491222309F435C0992311F19150A9
:1032A0009231F8F4E92FF0E08827E65AF64E8F4F76
:1032B0000C94394D8B198F196C1983198719711951
:1032C000921998199C19A219A619AA19B019B4191A
:1032D0007119B819BE19C219809180008F77809337
:1032E0008000E22FF0E0EE0FFF1FEB55F54DA591AA
:1032F000B4918FB7F894EC91611148C040954E237A
:103300004C938FBF0895809180008F7DE8CF80918E
:103310008000877FE4CF84B58F7784BDE2CF84B50A
:103320008F7DFBCF8091B0008F778093B000D9CF95
:103330008091B0008F7DF9CF809190008F7780933E
:103340009000CFCF809190008F7DF9CF8091900039
:10335000877FF5CF8091A0008F778093A000C1CFA9
:103360008091A0008F7DF9CF8091A000877FF5CF5D
:10337000809120018F7780932001B3CF809120012D
:103380008F7DF9CF80912001877FF5CF4E2BB8CF6D
:10339000CF93DF9390E0FC01E15AF54D24918154E5
:1033A000954DFC0184918823D1F090E0880F991FFE
:1033B000FC01EC55F64DA591B491FC01EB55F54D92
:1033C000C591D49161110EC09FB7F8948C91E22FF2
:1033D000E0958E238C932881E223E8839FBFDF91C1
:1033E000CF9108958FB7F894EC91E22BEC938FBFB7
:1033F000F6CF3FB7F8948091A8049091A904A091CA
:10340000AA04B091AB0426B5A89B05C02F3F19F0C4
:103410000196A11DB11D3FBFBA2FA92F982F882754
:10342000BC01CD01620F711D811D911D42E0660F2F
:10343000771F881F991F4A95D1F708958F929F9201
:10344000AF92BF92CF92DF92EF92FF924B015C015D
:10345000D0DF6B017C01CDDF6C197D098E099F09DE
:10346000683E734081059105B0F321E0821A91080E
:10347000A108B10888EEC80E83E0D81EE11CF11C3B
:1034800081149104A104B10431F7FF90EF90DF9013
:10349000CF90BF90AF909F908F900895FC01A5A111
:1034A000B6A18C9192A589238C93A5A1B6A18C91EC
:1034B00091A5892B8C930895DC019396ED91FC9155
:1034C0009497908198968C91892380830895DC014C
:1034D0009396ED91FC919497908197968C91892B7E
:1034E00080830895FF920F931F93CF93DF93EC0196
:1034F0008B018DA981110EC01EBD0DB407FEFDCF3D
:103500000EBD0DB407FEFDCFDF91CF911F910F913E
:10351000FF9008958130B9F490E1F92EE9A1FAA164
:10352000808117FF0DC09DA1892B8083CE01CFDF45
:10353000CE01C2DF000F111FFA94F110EFCFE4CFDC
:103540009EA18923F2CFEF8DF8A11083CE01A6DFD3
:10355000EF8DF8A10083CE01DF91CF911F910F91E4
:10356000FF909CCF0F931F93CF93DF93EC01162F07
:103570008DA9811109C06EBD0DB407FEFDCFDF918D
:10358000CF911F910F9108958130A1F408E0E9A136
:10359000FAA1808117FF0BC09DA1892B8083CE01EA
:1035A00096DF110FCE0188DF015089F7E8CF9EA189
:1035B0008923F4CFEF8DF8A16083CE01DF91CF9105
:1035C0001F910F916BCFCF93DF93EC01ED8DFE8DAB
:1035D00080819CA989238083CE01C4DFED8DFE8D7F
:1035E00080819BA9892B8083DF91CF910895AF9231
:1035F000BF92CF92DF92EF92FF920F931F93CF93E0
:10360000DF93EC015B016A01215031097901E60E7B
:10361000F71E01501109040F151F6AE2D4DFB5012E
:10362000CE0160DFB701CE015DDF6BE2CE01CBDF03
:10363000B601CE0157DFB801CE0154DF6CE2CE01F6
:10364000DF91CF911F910F91FF90EF90DF90CF907E
:10365000BF90AF90B8CFFC0185A9811104C091A1A2
:1036600082A19CBD8DBD08951F93CF93DF93EC0184
:10367000162FE881F9810284F385E02D1995112335
:1036800069F06DADCE019FDFE881F9810688F78989
:10369000E02DCE01DF91CF911F9119946EADF2CF45
:1036A000AF92BF92CF92DF92EF92FF920F931F9350
:1036B000CF93DF93EC0177FD37C088859985681734
:1036C000790794F557FD30C08A859B8548175907BF
:1036D0005CF569017A015B01E881F9810284F38577
:1036E000E02DCE011995E881F98102A4F3A5E02D22
:1036F00001E010E021E030E0A701B501CE0119950D
:10370000B601CE01EFDEE881F9810688F789E02D68
:10371000CE01DF91CF911F910F91FF90EF90DF903D
:10372000CF90BF90AF901994DF91CF911F910F91DF
:10373000FF90EF90DF90CF90BF90AF9008958F9261
:103740009F92AF92BF92CF92DF92EF92FF920F9330
:103750001F93CF93DF93EC0149015701E881F98171
:1037600002A4F3A5E02D19959401D8010E94414DC2
:103770006B017C01C114D104E104F10409F47CC0A3
:103780008DA9811115C081E0C81AD108E108F1089E
:103790008FEFC816D806E806F80609F46DC0BEBC5F
:1037A0000DB407FEFDCFAEBC0DB407FEFDCFEBCFD1
:1037B0008130A9F581E0C81AD108E108F1088FEF3E
:1037C000C816D806E806F80609F456C00B2D18E00E
:1037D000E9A1FAA1808107FF1CC09DA1892B8083EC
:1037E000CE0175DECE0168DE000F115089F70A2D7B
:1037F00018E0E9A1FAA1808107FF0EC09DA1892BE5
:103800008083CE0164DECE0157DE000F115089F7B0
:10381000D1CF9EA18923E3CF9EA18923F1CFBA10F6
:1038200015C0CC0CDD1CEE1CFF1CEF8DF8A1B08286
:1038300081E0C81AD108E108F1088FEFC816D80650
:10384000E806F806C9F0CE0129DEF2CF81E0C81AF9
:10385000D108E108F1088FEFC816D806E806F80687
:1038600059F0EF8DF8A1B082CE0118DEEF8DF8A1EE
:10387000A082CE0113DEEACFDF91CF911F910F918D
:10388000FF90EF90DF90CF90BF90AF909F908F9080
:1038900008958F929F92AF92BF92CF92DF92EF9254
:1038A000FF920F931F93CF93DF935C014B016A014B
:1038B000E90177FD51C0DC0118968D919C91681744
:1038C00079070CF049C0209709F446C037FF07C0BC
:1038D000C9010196C80ED91ED195C195D109F5012E
:1038E00082859385C816D906BCF5A6014C0F5D1FCD
:1038F0009A012150310937FD2FC0D7FE03C0EA01DC
:10390000D12CC12C281739071CF0EC01CC19DD098A
:10391000D501ED91FC910284F385E02DC501199547
:1039200078018E0121E030E0A601B401C50107DF76
:10393000D501ED91FC910688F789E02DC501DF9155
:10394000CF911F910F91FF90EF90DF90CF90BF909C
:10395000AF909F908F901994DF91CF911F910F910D
:10396000FF90EF90DF90CF90BF90AF909F908F909F
:1039700008958F929F92AF92BF92CF92DF92EF9273
:10398000FF920F931F93CF93DF935C016B014A016A
:10399000E90157FD51C0DC011A968D919C914817A1
:1039A00059070CF049C0209709F446C037FF07C0FB
:1039B000C9010196C80ED91ED195C195D109F5014D
:1039C00080859185C816D906BCF5A6014C0F5D1FF0
:1039D0009A012150310937FD2FC0D7FE03C0EA01FB
:1039E000D12CC12C281739071CF0EC01CC19DD09AA
:1039F000D501ED91FC910284F385E02DC501199567
:103A0000780101E010E09E01A401B601C50197DE36
:103A1000D501ED91FC910688F789E02DC501DF9174
:103A2000CF911F910F91FF90EF90DF90CF90BF90BB
:103A3000AF909F908F901994DF91CF911F910F912C
:103A4000FF90EF90DF90CF90BF90AF909F908F90BE
:103A500008958F929F92AF92BF92CF92DF92EF9292
:103A6000FF920F931F93CF93DF934C016B015A0189
:103A7000E901209709F46BC00115110509F467C02D
:103A800037FF07C0C9010196C80ED91ED195C1954F
:103A9000D109F401A085B185CA16DB060CF057C028
:103AA00017FF07C0C8010196A80EB91E1195019510
:103AB0001109F40182859385A816B9060CF047C058
:103AC000F601EC0FFD1FAF014150510957FD3FC0FA
:103AD000B501600F711F9B012150310937FD37C0BF
:103AE000D7FE03C0EF01D12CC12CB7FE03C08B0160
:103AF000B12CA12C4A175B071CF0ED01CC19DD0994
:103B0000281739071CF08C010A191B09D401ED9103
:103B1000FC910284F385E02DC40119959E01A50155
:103B2000B601C4010CDED401ED91FC910688F78941
:103B3000E02DC401DF91CF911F910F91FF90EF9085
:103B4000DF90CF90BF90AF909F908F901994DF91AE
:103B5000CF911F910F91FF90EF90DF90CF90BF908A
:103B6000AF909F908F900895EF92FF920F931F93C5
:103B7000CF93DF9377FD31C0DC011896ED91FC9176
:103B80006E177F0754F52115310539F137FF07C04E
:103B9000F90131964E0F5F1F319521953109DC01F6
:103BA0001A96ED91FC914E175F07BCF4EA01C20F23
:103BB000D31FDE011197B7FD10C057FF03C09E0150
:103BC00050E040E0AE17BF071CF09F01241B350BEF
:103BD0007801890121E030E0B2DDDF91CF911F91C2
:103BE0000F91FF90EF9008952F923F924F925F9226
:103BF0006F927F928F929F92AF92BF92CF92DF92FD
:103C0000EF92FF920F931F93CF93DF9300D000D0DA
:103C100000D01F921F92CDB7DEB73C017E836D832B
:103C20005B874A872F832801170181E090E06C01B0
:103C3000C41AD50ACA019195819591099C01220F58
:103C4000331F3A832983C80101969C838B83F12C0F
:103C5000E12C88248394912C9B012F5F3F4F39875F
:103C600028878A859B85E816F9060CF06AC0AA8425
:103C7000BB84D7FC0CC05C0191E0A91AB108298172
:103C80003A812E5F3F4F3A832983C20ED31E3FEF06
:103C9000E31AF30A82E0880E911CC80CD91CAE14FA
:103CA000BF0444F42A853B852A153B05C9F4BB862D
:103CB000AA86D7CF9501220F331F4D815E814A1905
:103CC0005B098F81813009F58B819C81280F391F19
:103CD0008101B701660D771D82EC97E045DFE2CFE9
:103CE0009F81913019F5940122503109240D351D21
:103CF0006A857B85660D771D8101488559854E193A
:103D00005F0982EC97E030DFD2CF8B819C81280F56
:103D1000391F8101B3016E197F0982EC97E024DF1E
:103D20002A853B852A153B0509F4C1CF9401225011
:103D30003109240D351DB3018A859B85681B790BDC
:103D4000DBCF2B960FB6F894DEBF0FBECDBFDF9151
:103D5000CF911F910F91FF90EF90DF90CF90BF9088
:103D6000AF909F908F907F906F905F904F903F901B
:103D70002F900895EF92FF920F931F93CF93DF93AD
:103D800057FD30C0DC011A96ED91FC914E175F078C
:103D90004CF52115310531F137FF07C0F901319696
:103DA0006E0F7F1F319521953109DC011896ED9139
:103DB000FC916E177F07B4F4EB01C20FD31FDE0135
:103DC0001197B7FD0FC077FF03C09E0170E060E060
:103DD000AE17BF071CF09F01261B370B780101E0CF
:103DE00010E0ADDCDF91CF911F910F91FF90EF902C
:103DF00008958F929F92AF92BF92CF92DF92EF92EF
:103E0000FF920F931F93CF93DF9347012115310545
:103E100009F44AC00115110509F446C037FF07C06F
:103E2000F90131966E0F7F1F319521953109DC0123
:103E30001896AD90BC906A157B05B4F517FF07C0C6
:103E4000F80131964E0F5F1F119501951109DC01A4
:103E50001A96ED91FC914E175F0734F56B01C20E77
:103E6000D31EE6012197D7FD1FC07A01E00EF11E97
:103E7000D7011197B7FD18C077FF03C0960170E016
:103E800060E057FF03C0870150E040E0CA15DB0542
:103E90001CF09501261B370BAE17BF071CF08F01D6
:103EA000041B150B74014BDCDF91CF911F910F9117
:103EB000FF90EF90DF90CF90BF90AF909F908F904A
:103EC0000895EF92FF920F931F93CF93DF93EC012E
:103ED00077FD21C08885998568177907E4F457FD37
:103EE0001AC08A859B8548175907ACF47901E88187
:103EF000F98102A4F3A5E02D01E010E021E030E01B
:103F0000CE011995B701CE01DF91CF911F910F918D
:103F1000FF90EF90E7CADF91CF911F910F91FF9033
:103F2000EF9008952F923F924F925F926F927F92FF
:103F30008F929F92AF92BF92CF92DF92EF92FF92B9
:103F40000F931F93CF93DF9300D01F92CDB7DEB7AF
:103F50006C015B015C834B8381E090E04C01841A2F
:103F6000950A2A01519441945108440C551CF12C96
:103F7000E12C66246394712C422F44704983522FA4
:103F800052705A83822F8870282E2170322E4B81D6
:103F90005C81E416F5060CF07BC097FC09C041502B
:103FA00051095C834B8352E0450E511C840C951CD7
:103FB0008FEFE81AF80A92E0690E711C860C971CC4
:103FC00049814423B1F098014B815C814A0D5B1D0E
:103FD000B6016E0D7F1D82EC97E073DF9801A5019D
:103FE0004E0D5F1D6B817C816C0D7D1D82EC97E019
:103FF00068DF5A815523B9F09801A5018B819C8116
:10400000481B590BB6016E0D7F1D82EC97E059DFFE
:104010009801A5014E195F096B817C816C0D7D1D96
:1040200082EC97E04EDF2220B9F09801A5014E0DF9
:104030005F1DB6018B819C81681B790B82EC97E038
:1040400040DF98014B815C814A0D5B1DB6016E1902
:104050007F0982EC97E035DF332009F498CF98018F
:10406000A5014E195F09B6018B819C81681B790BF4
:1040700082EC97E026DF9801A5018B819C81481B8B
:10408000590BB6016E197F0982EC97E01ADF7FCFDA
:104090000F900F900F900F90DF91CF911F910F9184
:1040A000FF90EF90DF90CF90BF90AF909F908F9058
:1040B0007F906F905F904F903F902F900895CF9397
:1040C000DF93EC01C8DA8FA987FD06C0EB8DFC8D6C
:1040D00080819AA989238083DF91CF9108950895E3
:1040E000FF920F931F93CF93DF93EC01F62E8A017B
:1040F000B2DA8FA987FD06C0EB8DFC8D80819AA96D
:1041000089238083ED8DFE8D80819CA98923808306
:104110006F2DCE0127DAED8DFE8D80819BA9892B35
:104120008083F8016081CE011DDA8DA9F80182300B
:1041300091F06181CE0116DA8FA987FD06C0EB8D63
:10414000FC8D808199A9892B8083DF91CF911F916C
:104150000F91FF90089588A9882359F36181728196
:10416000CE01C0D9E9CFCF93DF931F92CDB7DEB791
:10417000FC016370668B623071F0633001F188E49A
:10418000613051F488E2898380E491E091878087EF
:1041900080EF90E008C088E8898380EF90E0918705
:1041A000808780E491E093878287AE014F5F5F4F05
:1041B00066E3CF0195DF0F90DF91CF91089588EEF0
:1041C000E2CFAF92BF92CF92DF92EF92FF920F9326
:1041D0001F93CF93DF93EC01E62E8A01A22E3BDAE8
:1041E0008FA987FD06C0EB8DFC8D80819AA989235C
:1041F0008083ED8DFE8D80819CA9892380836E2D27
:10420000CE01B0D9ED8DFE8D80819BA9892B808355
:10421000D12CC12CB12CCA14DB04D4F48DA97801A3
:10422000823071F488A9882359F0F8016191719165
:104230007F01CE0157D9FFEFCF1ADF0A8701EBCFFD
:10424000FFEFEF1AFF0AF8016491CE018BD9F3CF8B
:104250008FA987FD06C0EB8DFC8D808199A9892BE4
:104260008083DF91CF911F910F91FF90EF90DF90AE
:10427000CF90BF90AF900895611105C060E220E03B
:1042800050E040E09ECF61E2FACFFC0187A987FDB4
:1042900006C0A38DB48D9C9181A9892B8C93089520
:1042A0000F931F93CF93DF931F92CDB7DEB7182FD5
:1042B00080E18983AE014F5F5F4F69ED82EC97E04B
:1042C0000FDF82EC97E0FBDEE091DF07F091E00783
:1042D00080819091F60789238083612F82EC97E09B
:1042E00041D9E091DF07F091E00780819091F507D7
:1042F000892B80838091F707811110C01EBC0000BC
:104300000DB407FEFDCF1EB582EC97E0BEDF812F16
:104310000F90DF91CF911F910F9108958130D9F4C3
:104320008091ED0710E087FDEFCF08E010E082EC10
:1043300097E0CDD8110FE091E107F091E20780817D
:104340009091EB07892309F01F5F82EC97E0B4D8C6
:10435000015069F7D9CF8091F10787FD1BC0E0912B
:10436000E907F091EA0780819091EE078923808325
:10437000E091E507F091E6071082E091E307F09104
:10438000E4078081E091E507F091E6072FEF2083B5
:10439000182FBACF80E0FCCF2F923F924F925F92BE
:1043A0006F927F928F929F92AF92BF92CF92DF9245
:1043B000EF92FF920F931F93CF93DF93CDB7DEB7AA
:1043C000A8970FB6F894DEBF0FBECDBF98A78FA3F6
:1043D0004B012A01390158011701D88ACF862617C7
:1043E00037070CF0D5C0E616F7060CF4F3C0982D8D
:1043F000892D4301692E782E9FA188A558A64FA22A
:10440000492E582E82EC97E05ADE8214930409F06C
:1044100003C12FA138A54216530634F49FA188A5E5
:1044200058A64FA2492E582E4FA158A5A416B5063E
:1044300034F04A145B040CF42501AFA0B8A4920137
:104440002A193B092F5F3F4F0F851889A401B50139
:1044500082EC97E08FDC82EC97E0A8960FB6F89498
:10446000DEBF0FBECDBFDF91CF911F910F91FF90A7
:10447000EF90DF90CF90BF90AF909F908F907F9004
:104480006F905F904F903F902F90FFCE3C862B8691
:10449000E8C06B897C89072E000C880B990B6B8711
:1044A0007C878D879E8729813A8126193709AB89B8
:1044B000BC890E94414D6B837C838D839E832981BF
:1044C0003A8128193909A989BA890E94414D6B019D
:1044D0007C01898D9A8D3C01990F880899082F815C
:1044E0003885032E000C440B550B2F8338874987E2
:1044F0005A8749815A81241635060CF4ACCF6B815A
:104500007C818D819E81A40193010E94A64C520161
:10451000A20EB31EC701B6012F81388549855A8581
:104520000E94A64C6FA178A5620F731F8B819C819E
:10453000AD81BE812B853C854D855E85820F931FA5
:10454000A41FB51F8B839C83AD83BE838D899E89F9
:10455000AF89B88DC80ED91EEA1EFB1E6A157B05F1
:104560002CF0962F872FB501A92EB82E9501261B6A
:10457000370B2F5F3F4F0F85188949815A8182EC95
:1045800097E0F8DBA981BA811196BA83A983B1CFEC
:10459000E216F3060CF036CFE616F7066CF18B2D1B
:1045A0005A014FA058A40FA388A7872D3B014701AC
:1045B000222E382E1CCF82EC97E081DD9FA188A5AA
:1045C000B8A6AFA2A92EB82E982D892D4101292E6B
:1045D000382E22C0E216F30674F382EC97E06FDD0A
:1045E0009FA188A558A64FA22801A92EB82E982DC4
:1045F000892D43013701EBCF82EC97E060DD9FA16D
:1046000088A5B8A6AFA25201492E582E982D892D03
:1046100041011301692E782EC2016FA178A5861B76
:10462000970B930128193909D501A61BB70BBA8B33
:10463000A98BA1014819590958874F83B5016419FD
:1046400075097C8B6B8BD101A619B709BA8FA98F1D
:104650002614370409F41ACFA301415051095C878D
:104660004B879A828982A12CB12C65011B821C8206
:104670001D821E8249895A89052E000C660B770B14
:104680004D8B5E8B6F8B788FA901330F660B770B89
:104690004B8F5C8F6D8F7E8F2F813885032E000CA2
:1046A000440B550B2F8F38A349A35AA3AC01990F84
:1046B000660B770B4BA35CA36DA37EA369817A8104
:1046C0008B859C85861797070CF4E3CE6B817C81E4
:1046D0008D819E812B8D3C8D4D8D5E8D0E94A64CD3
:1046E000EFA0F8A4E20EF31EC601B5012F8D38A18C
:1046F00049A15AA10E94A64C6FA178A5620F731F11
:104700002B813C814D815E818BA19CA1ADA1BEA17D
:10471000280F391F4A1F5B1F2B833C834D835E8309
:104720002D893E894F89588DA20EB31EC41ED51EF9
:104730006E157F052CF0962F872FB701E92EF82EE6
:104740009701261B370B2F5F3F4F0F851889498133
:104750005A8182EC97E00EDB49815A814F5F5F4FAF
:104760005A834983ABCF0895FC016370668B8481C3
:10477000958126813781613039F0633029F0918746
:1047800080873387228708953187208793878287A0
:1047900008952F923F924F925F926F927F928F92E5
:1047A0009F92AF92BF92CF92DF92EF92FF920F93C0
:1047B0001F93CF93DF93CDB7DEB76A970FB6F89408
:1047C000DEBF0FBECDBF9A8F898F7A8369834A017E
:1047D000D22E18870F833701BC2CDC0159962D91FE
:1047E0003C915A972115310509F015C118968D9104
:1047F0009C911997681779070CF0D7C11A968D917B
:104800009C91481759070CF0D0C14C2C512CB6E0A4
:10481000CB9E600D711D11247C876B8716161706C1
:104820000CF0C3C1EA2DF0E0FA87E98793E0EE0FC0
:10483000FF1F9A95E1F7F88BEF87CF01840F951F43
:10484000181619060CF0B1C1A98DBA8D58968C9125
:10485000811104C0BFEABD1508F4D394A98DBA8DA7
:10486000ED91FC9111970284F385E02DCD0119950E
:10487000B5E0DB9EC0011124E981FA81FC83EB8362
:10488000312C212C9C012B5C3B4D388F2F8B4A2DDA
:1048900050E05E8B4D8BEF89F88DE20DF31D449156
:1048A0009E828D82D12CC12C69817A81620D731D0B
:1048B0007A8B698B842F90E09C8B8B8BE98DFA8DA2
:1048C000A081B18140FF82C0F1E0BF126FC0AF1282
:1048D0006DC01C96ED91FC912F813885A4014C0D83
:1048E0005D1D69897A89898D9A8D1995EB89FC8975
:1048F000F595E7954E2F5FEFC51AD50A6D817E813C
:104900008D899E89680F791F7E836D8398E0C91613
:10491000D10481F6AFEF2A1A3A0AEB81FC81E40D4B
:10492000F51DFC83EB83F5E02F16310409F0B3CFBE
:104930002F81388526153705B9F0A98DBA8DED91EF
:10494000FC91B1E0BB1257C0AB1255C069817A81AE
:104950006B5F7F4F0088F189E02D830128E030E014
:10496000A401898D9A8D1995A98DBA8DED91FC912F
:1049700011970688F789E02DCD016A960FB6F89455
:10498000DEBF0FBECDBFDF91CF911F910F91FF9082
:10499000EF90DF90CF90BF90AF909F908F907F90DF
:1049A0006F905F904F903F902F9019941E96ED91CD
:1049B000FC91EF80F88409851A8592014D815E8112
:1049C0006B817C81898D9A8D199590CF2F81388547
:1049D0002615370509F48ACF31E0B31207C0A312B8
:1049E00005C01C96ED91FC91930178CF1E96ED9138
:1049F000FC917301E0CF6B857C8564197509068491
:104A0000F785E02D73010F8518899201A401898D26
:104A10009A8D1995A9CFF9013496949132974591C1
:104A20005491D91AB7E0DB9E400D511D1124F901B4
:104A3000259134913C8B2B8BFA0125903490FA010F
:104A40003296749031963491398B329664903196C7
:104A5000449041E04C1518F04A1508F07FC0662DCF
:104A6000062C000C770B7C836B83842D042C000CAC
:104A7000990B9E838D83A98DBA8DED91FC91119731
:104A80000284F385E02DCD011995512CD12CC12C38
:104A9000EA2DF0E0FA87E9872B2D30E03C872B8761
:104AA000A401440D511D47FC5A95588F4F8B6981C5
:104AB0007A81660D711D67FC7A957E876D8779898D
:104AC000C71608F051CF2C2D30E04D815E81420F8A
:104AD000531FA985BA854A9FC0014B9F900D5A9FCD
:104AE000900D1124FC01E80DF91DF88BEF87852D41
:104AF000612C4F89588D420F531F5E8B4D8B67146D
:104B000008F050C044244394480E877041F4C1011A
:104B10000196EB89FC89E20DF31DD4901C01D7FEB0
:104B200019C0A98DBA8DED91FC91662D70E0B1E0B0
:104B3000BB1219C0AB1217C02D853E85620F731FC3
:104B40000484F585E02D2F8138854D895E89898D16
:104B50009A8D1995DD0C6394842DD1CF1E821D8210
:104B60001C821B8288CF4B815C81640F751FAB85D3
:104B7000BC856A9FC0016B9F900D7A9F900D112498
:104B800069817A81680F791F0684F785E02DEF80AF
:104B9000F88409851A859D014F855889898D9A8DDC
:104BA0001995D8CF570CC3948ACF6A960FB6F8944C
:104BB000DEBF0FBECDBFDF91CF911F910F91FF9050
:104BC000EF90DF90CF90BF90AF909F908F907F90AD
:104BD0006F905F904F903F902F9008958F929F928B
:104BE000AF92CF92EF92FF920F931F93CF93DF93E9
:104BF000EC01262F898D9A8D009709F050C06A30FC
:104C0000D1F41D861C868D8948E0849F9001112473
:104C10008E859F85820F931F9F878E8781E090E00E
:104C2000DF91CF911F910F91FF90EF90CF90AF90B8
:104C30009F908F9008956D3089F3CC88AD888F89CF
:104C40008823C1F08C859D8536E0C39E800D911D23
:104C50001124488559854817590764F44E855F85A6
:104C60001D861C8638E0A39EC0011124840F951F69
:104C70009F878E87EA88FB88088919894E855F851A
:104C80006C857D85CE0185DD2C898C859D8546E0F2
:104C9000249F800D911D11249D878C87BFCF6A3082
:104CA00069F41D861C86FC013696E4912D898E855B
:104CB0009F85E29F800D911D1124AECF6D3009F4C8
:104CC000ADCFFC0134963491631708F4A7CF319629
:104CD000E491E61708F4A2CFFC01329685909490F7
:104CE000462F431B342F47E0349F800C911C112426
:104CF000F401329634913196E4913323A1F1EE23FD
:104D000091F1CC88F4013596E491AD884F89442324
:104D100001F10E2E000CFF0BE30FF11DCE9EA00142
:104D2000CF9E500D11246C857D85460F571F6885D9
:104D30007985641775076CF44E855F851D861C8622
:104D4000FC013696E491AE9E400D511D11245F8703
:104D50004E87EA88FB88088919894E855F856C85AE
:104D60007D85CE0116DDF4013496E4912C898C8585
:104D70009D85E29F800D911D11248ECF6F927F92B1
:104D80008F929F92AF92BF92CF92DF92EF92FF925B
:104D90000F931F93CF93DF93EC016B015A013901FD
:104DA0004801E881F9810284F385E02D1995E881B5
:104DB000F9810288F389E02D87019301A501B601ED
:104DC000CE011995A501480D591D41505109E881A1
:104DD000F9810288F389E02D9301B601CE0119957E
:104DE000E881F9810088F189E02D9401A501B601DF
:104DF000CE011995C60CD71CB60161507109E88126
:104E0000F9810088F189E02D9401A501CE01199561
:104E1000E881F9810688F789E02DCE01DF91CF91F5
:104E20001F910F91FF90EF90DF90CF90BF90AF90C8
:104E30009F908F907F906F9019946F927F928F9236
:104E40009F92AF92BF92CF92DF92EF92FF920F9319
:104E50001F93CF93DF935C01EB016A014901380195
:104E60008701DC01ED91FC916217730719F5641657
:104E700075062CF0962D872D3A01C92ED82E960155
:104E8000261937092F5F3F4F048CF58DE02DA301C4
:104E9000BE01C5011995DF91CF911F910F91FF9030
:104EA000EF90DF90CF90BF90AF909F908F907F90CA
:104EB0006F9008954615570591F42617370724F08B
:104EC000892D4B01C22FD82F9E01281939092F5F38
:104ED0003F4F068CF78DE02DA601B401DACF028496
:104EE000F385E02D1995D501ED91FC910488F589A4
:104EF000E02D83019401A601BE01C5011995D501DC
:104F0000ED91FC910688F789E02DC501DF91CF91E5
:104F10001F910F91FF90EF90DF90CF90BF90AF90D7
:104F20009F908F907F906F901994EF92FF920F93C4
:104F30001F93DC011A960D911C911B9718962D91C9
:104F40003C911997ED91FC9100A0F1A1E02D7B011E
:104F500050E040E070E060E019951F910F91FF90E4
:104F6000EF9008954F925F926F927F928F929F92EF
:104F7000AF92BF92CF92DF92EF92FF920F931F9367
:104F8000CF93DF936C012B015A0139014801DC01F9
:104F9000ED91FC910284F385E02D1995E201640CFA
:104FA000751CD601ED91FC91C615D7055CF40088FF
:104FB000F189E02D87019401A501BE01C601199573
:104FC0002196EFCF0688F789E02DC601DF91CF91BA
:104FD0001F910F91FF90EF90DF90CF90BF90AF9017
:104FE0009F908F907F906F905F904F9019948F92C9
:104FF0009F92AF92BF92CF92DF92EF92FF920F9368
:105000001F93CF93DF93EC015B014A016901E881B3
:10501000F9810284F385E02D199595012C0D3D1D34
:1050200021503109E881F9810488F589E02D780162
:105030008401A401B501CE011995E881F9810688A2
:10504000F789E02DCE01DF91CF911F910F91FF9055
:10505000EF90DF90CF90BF90AF909F908F9019947A
:105060008F929F92AF92BF92CF92DF92EF92FF9278
:105070000F931F93CF93DF93EC015B014A0169010A
:105080007801E881F9810284F385E02D1995C80C37
:10509000D91C860101501109E881F9810488F5893C
:1050A000E02D9501A401B501CE011995E881F981A2
:1050B0000688F789E02DCE01DF91CF911F910F91E6
:1050C000FF90EF90DF90CF90BF90AF909F908F9028
:1050D0001994EF92FF920F931F93DC01ED91FC91D5
:1050E00000A0F1A1E02D19951F910F91FF90EF9075
:1050F00008950F931F93DC01ED91FC91068CF78DC1
:10510000E02D19951F910F9108950F931F93DC01C6
:10511000ED91FC91048CF58DE02D19951F910F9167
:105120000895DC01ED91FC910084F185E02D199446
:105130002F923F924F925F926F927F928F929F92A7
:10514000AF92BF92CF92DF92EF92FF920F931F9395
:10515000CF93DF9300D000D0CDB7DEB73C016A011A
:105160003E832D83FC82EB825801A41AB50AB7FE58
:1051700003C0B194A194B1088D809E80861A970ACD
:1051800097FE03C09194819491088A149B045CF06B
:10519000902F812F0D811E819D838E839C2D8D2DBF
:1051A0006B01692F782F0C151D055CF09D818E8198
:1051B0007E836D83692F782F902F812F8601C92ED2
:1051C000D82E1601201A310A2B012D813E81421A58
:1051D000530A57FE03C0519441945108710137FEA0
:1051E00003C03FEFE31AF30AF594E7948D819E81A3
:1051F000861797075CF5A1E0B0E0BA83A983C016D3
:10520000D1064CF1D301ED91FC910484F585E02D9C
:105210002B813C81A8016D817E818A149B041CF046
:105220004D815E81B801C3011995E418F508F7FEB8
:105230000AC02D813E8189819A81280F391F3E83C2
:105240002D83E20CF31C0F5F1F4FD9CF2FEF3FEFE1
:105250003A832983D4CF26960FB6F894DEBF0FBECB
:10526000CDBFDF91CF911F910F91FF90EF90DF9015
:10527000CF90BF90AF909F908F907F906F905F90F6
:105280004F903F902F900895089590E080E008950A
:10529000272F66956695669570E0762F6627770FBF
:1052A000770F770F2695269590E2299F900111247C
:1052B000622B732B8695869586959B01282BC901B9
:1052C00008952F923F924F925F926F927F928F92AA
:1052D0009F92AF92BF92CF92DF92EF92FF920F9385
:1052E0001F93CF93DF93CDB7DEB72D970FB6F8940A
:1052F000DEBF0FBECDBF9F838E8379876887DA01BB
:10530000622ECA010296222309F4AFC0FA01F49179
:105310002F2F30E0322F2227FA0131964491E42FCB
:10532000F0E0FB83EA834A815B81422B532B5D874C
:105330004C879D012C5F3F4F662009F49FC0FC0104
:10534000849190E0982F8827FD013396E491F0E056
:10535000AF01482B592B5B834A83A9014F5F5F4FF5
:10536000F901662009F493C0F491F983C90102960A
:10537000662009F48EC0FA015490FC014490190192
:10538000F4E02F0E311C8C859D85079697FF03C096
:105390008C859D850E969C0193E0359527959A9571
:1053A000E1F73D832C83F12CE12C712CD12CC12C05
:1053B0004A815B81C416D5060CF07DC010E000E088
:1053C000C1018E0D9F1D9B878A87A884B984AC0C70
:1053D000BD1CEC85FD850E171F070CF064C0C801CD
:1053E00087709927770C892B71F4F80183E0F59584
:1053F000E7958A95E1F7662009F44FC0EE0DFF1D91
:10540000E20DF31D749077FE2DC08E809F80800E7C
:10541000911EE091F606F091F70623813481821601
:10542000930604F1878190850197820F931F881559
:105430009905C4F025813681A216B3069CF08185BA
:1054400092850197820F931F8A159B055CF06981F5
:10545000752D842D1DDF9C01A501B40182EC97E020
:105460000E94501B0F5F1F4FB4CF2C91298330E057
:10547000322F222711964C91119751CF12968C9171
:10548000129790E0982F88271396EC9160CFF081C7
:105490006CCFF9015180428072CF2A853B85E20FA3
:1054A000F31F7080B0CF3FEFC31AD30A4C815D81E8
:1054B000E40EF51E7DCF2D960FB6F894DEBF0FBE1D
:1054C000CDBFDF91CF911F910F91FF90EF90DF90B3
:1054D000CF90BF90AF909F908F907F906F905F9094
:1054E0004F903F902F9008957F928F929F92AF920E
:1054F000BF92CF92DF92EF92FF920F931F93CF93C1
:10550000DF935C014B01EA01722EF32E8E2DB60162
:10551000E884BEDE6C018E819F810E94D615D092F8
:10552000D507C092D407D092D307C092D207B092C9
:10553000CF07A092CE079092D1078092D0078E2DF0
:10554000E11001C081E08093D6078093D7076801FE
:1055500083E0C822DD24C72DDF2DE1E0CE16D10483
:1055600079F01881112379F0612F82EC97E036DB16
:105570001A3021F4B092CF07A092CE072196EDCF3A
:10558000FE011491EFCF90E080E00E94D61581E0FB
:10559000DF91CF911F910F91FF90EF90DF90CF900F
:1055A000BF90AF909F908F907F9008952F923F92E1
:1055B0004F925F926F927F928F929F92AF92BF9223
:1055C000CF92DF92EF92FF920F931F93CF93DF93CF
:1055D00000D000D01F921F92CDB7DEB709831A8387
:1055E0002B833C834D835E836F83788749815A8107
:1055F0008D599F4FDC01ED91FC91A380B4806D80AB
:105600007E80B1E06B1A7108640E751E6A147B040B
:105610000CF444C02780308421E0221A31082A0C7F
:105620003B1C24163506D4F18B819C8185809680A5
:105630004F805884A1E04A1A5108480E591E481458
:10564000590464F10185128501501109080D191DD5
:10565000081719071CF1A416B5060CF45A01881690
:1056600099060CF44C018E2DB60112DE401651063F
:105670000CF48201081919090F5F1F4F621473049B
:105680000CF413012A183B0891012F5F3F4F7C0156
:10569000A401B50182EC97E00E94291D81E02896C3
:1056A0000FB6F894DEBF0FBECDBFDF91CF911F9133
:1056B0000F91FF90EF90DF90CF90BF90AF909F90B1
:1056C0008F907F906F905F904F903F902F900895B4
:1056D000CF93DF93FC01892B09F459C0128281E337
:1056E00098EF9183808384E090E09483838389EAB8
:1056F00094EE96878587DF01159688E0ED01199273
:105700008A95E9F7148E138E168E158E10A2178EB9
:1057100012A211A214A213A216A215A210A617A2D9
:1057200012A611A68091080290910902A0910A0286
:105730008787908BA18B828B938BA48B858B968B89
:10574000A78B808F918FA28F11AA10AA16A615A6DB
:1057500017A682AB93ABA4AB85AB96ABA7AB82E2AB
:1057600080AF11AE12AE14AE13AE16AE15AEDF01A1
:10577000DF9611961C921E92129611961C921E9202
:1057800012961D921C92EB5BFF4F11821082DF91EB
:10579000CF910895EF92FF920F931F93CF93DF93D2
:1057A00000D000D01F921F92CDB7DEB7DC01098375
:1057B0001A832B833C834D835E836F837887149693
:1057C0000D911C9115970115110531F01696ED916B
:1057D000FC9117973097A1F488E0FE013196019073
:1057E0000D928A95E1F728960FB6F894DEBF0FBEAA
:1057F000CDBFDF91CF911F910F91FF90EF90089552
:1058000029813A81EB80FC806D917C9111971296F1
:105810004D915C91139701501109060F171F319795
:10582000E40FF51F261737070CF4B901E416F50647
:105830000CF4A7018D819E810197820F931F801721
:1058400091070CF4C8012F813885215031092E0DA4
:105850003F1D2E173F070CF49F0111967C936E930A
:1058600013965C934E931297861B970B0196159691
:105870009C938E931497241B350B2F5F3F4F1796E5
:105880003C932E931697AFCF0F931F93CF93DF9335
:1058900000D000D01F921F92CDB7DEB728E0FC01E8
:1058A0007496DE01119601900D922A95E1F7809190
:1058B00015078823C9F009811A812B813C814D810C
:1058C0005E816F81788586E197E064DF81E0809377
:1058D000150728960FB6F894DEBF0FBECDBFDF9137
:1058E000CF911F910F91089588E0FE013196A6E1B6
:1058F000B7E001900D928A95E1F7E8CF0F931F93DF
:10590000CF93DF93C0910907D0910A0709E414EF00
:10591000209711F00A891B890E94B7150097F9F0AA
:1059200090930A0780930907012B19F081E0809377
:105930001307209711F0CE01A7DF809109079091FE
:105940000A07009709F0A0DF80910B0790910C07E0
:10595000009729F0DF91CF911F910F9195CFDF91A3
:10596000CF911F910F910895AF92BF92CF92DF9286
:10597000EF920F931F93CF93DF9300D000D01F922D
:105980001F92CDB7DEB72B833C834D835E836F833D
:1059900078872D813E81232B81F02F813885232B21
:1059A00061F05C012B813C8101DEA114B10429F07E
:1059B000F501EF57FF4F81E0808328960FB6F894EA
:1059C000DEBF0FBECDBFDF91CF911F910F91EF9042
:1059D000DF90CF90BF90AF900895CF93BC01811519
:1059E0002AE5920754F17A55C0E06038E6E17E0777
:1059F00034F080E09DE29C01261B370BB901072E95
:105A0000000C880B990B982F872F762F662720E89C
:105A100036E140E050E00E94D24C220F331F235C5D
:105A20003D4FF9018081918196958795CC2319F09E
:105A3000919581959109CF9108958130964A0CF402
:105A4000765AC0E077FF04C0719561957109C1E095
:105A500061158DE278074CF27D5281E0C827C5CFF1
:105A6000CF92DF92EF92FF920F931F93CF93DF932A
:105A70008C01EB016A017901CB01AFDF9801DC01F8
:105A80000E94474D2FEF3FE740E050E00E94A64CB8
:105A9000F60131832083CE01C115DA45E4F0805848
:105AA00093449BDFAA27BB27A81BB90B98010E9430
:105AB000474D2FEF3FE740E050E00E94A64CF70132
:105AC00031832083DF91CF911F910F91FF90EF9051
:105AD000DF90CF9008958058994EE3CF2F923F9258
