:10000000FDC000002CC100002AC1000028C1000072
:1000100026C1000024C1000022C1000020C1000050
:100020001EC100001CC100001AC1000018C1000060
:1000300016C1000014C1000012C1000010C1000070
:100040000EC100000CC100000AC1000008C1000080
:1000500006C1000004C1000002C100000C94EA11B6
:10006000FEC000000C94B4110C948A11F8C000007A
:10007000F6C00000F4C00000F2C00000F0C00000B4
:10008000EEC00000ECC00000EAC00000E8C00000C4
:10009000E6C00000E4C00000E2C00000E0C00000D4
:1000A000DEC00000DCC00000DAC00000D8C00000E4
:1000B000D6C00000D4C00000D2C00000D0C00000F4
:1000C000CEC00000CCC00000CAC00000C8C0000004
:1000D000C6C00000C4C00000C2C00000C0C0000014
:1000E000BEC000007C3C3E5E2B3D3F2F5B5D3B2C49
:1000F0002A225C0000000A0B02090C0D0E080703FF
:1001000004010000000000000000000000000000EA
:1001100000000000000000000000000000000000DF
:10012000121110000000000000000000000000009C
:100130000000000000000000000000002200250078
:1001400028002B002E0031003400020100000501C0
:1001500008010B0100002100240027002A002D00C7
:100160003000330001010000040107010A01050508
:100170000505070508080808020202020A0A08081D
:10018000040404040101010101010101030303034B
:1001900003030303040707070C0C0C0C0C0C0C0CDA
:1001A0000202020206060606060606060B0B0B0BEB
:1001B0000B0B0B0B01021020200808102040102010
:1001C000408002010201080402010102040810201B
:1001D0004080804020100804020180040201804019
:1001E0002010080402010804020101020408102082
:1001F00040800102040810204080341211241FBEE8
:10020000CFEFD1E2DEBFCDBF00E00CBF26E0ACED0A
:10021000B2E001C01D92AC33B207E1F712E0A0E0FA
:10022000B2E0E2EFFCE200E00BBF02C007900D92EB
:10023000AC3DB107D9F710E0CEEFD0E000E006C04A
:1002400021970109802FFE010E942E15CD3FD10775
:1002500080E00807A9F70E949D120C947716D0CE73
:10026000EFEEF4E0A089B18982E08C93A485B58596
:100270001C92A685B7858FEC8C93108EA489B589C6
:1002800086E08C93A289B3898C9180618C93A2893A
:10029000B3898C9188608C93A289B3898C91806892
:1002A0008C930288F389E02D80818F7D808308956F
:1002B000CF93DF93FC0182819381909320068093FA
:1002C0001F0684819581A681B78180932106909332
:1002D0002206A0932306B093240680859185A285EB
:1002E000B3858093250690932606A0932706B093A6
:1002F0002806DF011C96CF014996C9E2D6E02D9170
:100300002993A817B907D9F7818D928D9093370655
:10031000809336068DE196E0DF91CF91089590E0CD
:10032000FC01EC54FE4F249182599E4FFC018491B4
:10033000882399F090E0880F991FFC01EC5AFE4F3A
:10034000A591B491FC01E65CFE4F859194918FB725
:10035000F894EC91E22BEC938FBF0895AF92BF928B
:10036000CF92DF92EF92FF920F931F93CF93DF9381
:100370006C017B018B01040F151FEB015E01AE18B0
:10038000BF08C017D10759F06991D601ED91FC91D2
:100390000190F081E02DC6011995892B79F7C501EF
:1003A000DF91CF911F910F91FF90EF90DF90CF9051
:1003B000BF90AF900895FC01538D448D252F30E000
:1003C000842F90E0821B930B541710F0CF96089562
:1003D00001970895FC01918D828D981761F0A28D8F
:1003E000AE0FBF2FB11D5D968C91928D9F5F9F7355
:1003F000928F90E008958FEF9FEF0895FC01918D0B
:10040000828D981731F0828DE80FF11D858D90E077
:1004100008958FEF9FEF0895FC01918D228D892F14
:1004200090E0805C9F4F821B91098F7399270895FC
:100430008FEE94E0F1DF21E0892B09F420E0822F98
:100440000895FC01A48DA80FB92FB11DA35ABF4F69
:100450002C91848D90E001968F739927848FA689C3
:10046000B7892C93A089B1898C91837080648C9317
:10047000938D848D981306C00288F389E02D8081C6
:100480008F7D80830895EF92FF920F931F93CF93F8
:10049000DF93EC0181E0888F9B8D8C8D98131AC0BF
:1004A000E889F989808185FF15C09FB7F894EE89A6
:1004B000FF896083E889F989808183708064808303
:1004C0009FBF81E090E0DF91CF911F910F91FF904E
:1004D000EF900895F62E0B8D10E00F5F1F4F0F73F6
:1004E0001127E02E8C8D8E110BC00FB607FCFACFB2
:1004F000E889F989808185FFF5CFCE01A2DFF2CFAF
:10050000EB8DEC0FFD2FF11DE35AFF4FF0829FB7EB
:10051000F8940B8FEA89FB8980818062D0CFCF93DA
:10052000DF93EC01888D8823B1F0AA89BB89E88923
:10053000F9898C9185FD03C0808186FD0CC00FB6C2
:1005400007FCF7CF8C9185FFF2CF808185FFEDCF3F
:10055000CE0177DFEACFDF91CF91089580E090E080
:10056000892B21F065DF81110E94000080E090E07E
:10057000892B49F080E090E0892B29F00E9400004F
:1005800081110E94000080E090E0892B49F080E01A
:1005900090E0892B29F00E94000081110E94000048
:1005A00080E090E0892B49F080E090E0892B29F0F1
:1005B0000E94000081110C9400000895282F30E063
:1005C000F901EC50FF4F9491F901EC54FE4F449126
:1005D00022593E4FF9012491222309F435C0992371
:1005E00011F191509231F8F4E92FF0E08827E450AE
:1005F000FD4F8F4F0C942E152D0331030E03250351
:100600002903130334033A033E03440348034C0312
:100610005203560313035A0360036403809180005E
:100620008F7780938000E22FF0E0EE0FFF1FE65CF3
:10063000FE4FA591B4918FB7F894EC91611148C029
:1006400040954E234C938FBF0895809180008F7DFD
:10065000E8CF80918000877FE4CF84B58F7784BD19
:10066000E2CF84B58F7DFBCF8091B0008F778093F0
:10067000B000D9CF8091B0008F7DF9CF80919000EC
:100680008F7780939000CFCF809190008F7DF9CFAE
:1006900080919000877FF5CF8091A0008F77809325
:1006A000A000C1CF8091A0008F7DF9CF8091A000E4
:1006B000877FF5CF809120018F7780932001B3CF82
:1006C000809120018F7DF9CF80912001877FF5CF28
:1006D0004E2BB8CF3FB7F8948091E8029091E90291
:1006E000A091EA02B091EB0226B5A89B05C02F3F6E
:1006F00019F00196A11DB11D3FBFBA2FA92F982F48
:100700008827BC01CD01620F711D811D911D42E042
:10071000660F771F881F991F4A95D1F708952FB745
:10072000F8946091E4027091E5028091E602909164
:10073000E7022FBF08958FB7F8948091DD028FBF35
:10074000089561E0FC01848139DF8091DC02811130
:100750001092DC0208958EBD00000DB407FEFDCF9F
:100760008EB508958FEFF7CF0F931F93CF93DF933D
:10077000EC01D5DF8B01F6DF8F3F61F0D0DF601B2E
:10078000710B6C177D07B8F380E0DF91CF911F915B
:100790000F91089581E0F9CF8CBD9DBD0895CF9351
:1007A000DF93EC018091DC02811108C081E080932D
:1007B000DC028091D2059091D305EEDF60E08C8160
:1007C000DF91CF91FBCE8F929F92AF92BF92FF921B
:1007D0000F931F93CF93DF93EC01F62E49015A013B
:1007E0008E81882379F08F8198859C012F5F3F4F00
:1007F00038872F838230924010F4B4DFF4CFCE01DB
:10080000A0DF1E82CE01CBDF8CE291E0ADDF8F2D29
:100810008064A1DF08E110E0D501C401002E04C00E
:10082000B695A795979587950A94D2F794DF0850C7
:100830001109083F8FEF180779F785E9FF2021F0AC
:1008400028E087E8F2128FEF86DF10E08BDF8A87DF
:1008500087FF04C01F3F11F01F5FF8CFDF91CF91DA
:100860001F910F91FF90BF90AF909F908F90089530
:10087000AF92BF92CF92DF92EF92FF920F931F93AE
:10088000CF93DF93EC016901C801820F931F813080
:10089000924048F58E81882379F088819981AA81D8
:1008A000BB8184179507A607B70731F48F81988518
:1008B000C816D90608F03CC0488359836A837B83F5
:1008C0008B85833039F089E0440F551F661F771FF1
:1008D0008A95D1F79A01AB0161E1CE0174DF8823DB
:1008E00081F083E08D83CE012CDF80E0DF91CF911A
:1008F0001F910F91FF90EF90DF90CF90BF90AF903E
:1009000008950DDF5B012EDF8A878F3F59F407DFE3
:100910006A197B096D327140B0F38FE08D83CE018F
:1009200010DFE1CF8E3F81F418861F8281E08E8335
:100930008F8198858C159D0548F414DF8F819885EB
:10094000019698878F83F4CF8DE0E8CF6701E00EA2
:10095000F11E08DFF60181936F01EE15FF05C9F75F
:100960008F819885080F191F18870F838985882321
:1009700019F00115124090F08E81882379F08F8153
:1009800098859C012F5F3F4F38872F83823092409C
:1009900010F4E8DEF4CFCE01D4DE1E8281E0A6CFD3
:1009A000CF92DF92EF92FF920F93CF93DF93EC0100
:1009B000690182E1411551056105710591F08B8551
:1009C000833039F089E0440F551F661F771F8A95E1
:1009D000D1F79A01AB0168E1CE01F5DE882319F069
:1009E00084E08D8326C08EEFB6DE76018EEFD81AB6
:1009F000F70181917F01AFDEEC14FD04C9F78FEFA1
:100A0000AADE8FEFA8DEAEDE8A878F71853069F4AB
:100A1000011113C0CE0195DE81E0DF91CF910F91DE
:100A2000FF90EF90DF90CF90089581E18D83CE010C
:100A300088DECE0186DE80E0F0CF88E592E094DEAD
:100A4000811102C085E1CDCF20E030E0A9016DE049
:100A5000CE01B9DE882311F084E1C3CF83DE81119A
:100A6000FBCFD8CF0F934091DF025091E00260910D
:100A7000E1027091E202411551056105710591F0A5
:100A8000082F2DEE32E08091ED049091EE0488DF86
:100A9000882349F01092DF021092E0021092E102E6
:100AA0001092E20281E00F9108950F93CF93C82F27
:100AB0008091DE02811105C0C1E08C2FCF910F9192
:100AC00008954091000250910102609102027091DC
:100AD00003020C2F2DEE32E08091ED049091EE0494
:100AE0005FDF811102C0C0E0E8CFCC2329F381E0B1
:100AF000B9DF8823C1F31092DE02DFCF8F929F927D
:100B0000AF92BF92EF92FF920F931F93CF934B013F
:100B10005C01C42F8091000290910102A091020219
:100B2000B091030288159905AA05BB0541F181E042
:100B3000BCDF81110BC080E0CF911F910F91FF901E
:100B4000EF90BF90AF909F908F9008958DEEE82E1C
:100B500082E0F82E00E012E030E020E0B501A401D0
:100B60008091ED049091EE0483DE882321F380923E
:100B7000000290920102A0920202B0920302409100
:100B8000DE024C2B4093DE0281E0D6CF8F929F9203
:100B9000AF92BF92CF92DF92EF92FF92CF9324ED6C
:100BA00035E03093EE042093ED04882309F46BC004
:100BB00040E060E070E0CB01A1DF81110BC080E07C
:100BC000CF91FF90EF90DF90CF90BF90AF909F902C
:100BD0008F9008958091AB048F7789F78091B70447
:100BE0009091B804A091B904B091BA0484369105EB
:100BF000A105B10520F3C090B304D090B404E090F7
:100C0000B504F090B604C114D104E104F104B9F2C2
:100C100040E0C701B60172DF882389F28091F802B3
:100C20009091F9028115924051F6A091FD02AA23FC
:100C300031F26091FB027091FC026115710509F4BB
:100C4000BECF2091FA02222309F4B9CFA093F20576
:100C50002093E40590E080E030E0E1E0F0E0C82F90
:100C6000AF01082E02C0440F551F0A94E2F7241763
:100C7000350769F041E0480F01968930910579F711
:100C80004093ED059CCFC12CD12C7601C1CF809330
:100C9000ED05209103033091040350E040E021155D
:100CA000310541F420911103309112034091130357
:100CB000509114032093E5053093E6054093E70532
:100CC0005093E80546015701860E971EA11CB11CE2
:100CD0008092F3059092F405A092F505B092F60586
:100CE000E091FE02F091FF02F093F905E093F80520
:100CF000B0E00E941515DC01CB01880D991DAA1DDD
:100D0000BB1D8093FA059093FB05A093FC05B0935F
:100D1000FD0525E0EE0FFF1F2A95E1F7E150FE4F9C
:100D2000EF2FFF27E6958E0F9F1FA11DB11D80930A
:100D3000EE059093EF05A093F005B093F105809038
:100D4000000390900103B12CA12C8114910441F473
:100D500080900D0390900E03A0900F03B0901003AD
:100D6000C81AD90AEA0AFB0AC80CD91CEA1CFB1CDF
:100D700004C0F694E794D794C794CA95D2F7C0926A
:100D8000E905D092EA05E092EB05F092EC0585EFDB
:100D9000C8168FE0D806E104F10428F48CE08093B3
:100DA000F70581E00DCF80E125EFC2162FEFD206C7
:100DB000E104F104A0F38091190390911A03A0912A
:100DC0001B03B0911C038093FA059093FB05A0933D
:100DD000FC05B093FD0580E2E2CF4F925F926F92E7
:100DE0007F928F929F92AF92BF92CF92DF92EF92BB
:100DF000FF920F931F93CF93DF93EC014230510585
:100E00006105710590F480E0DF91CF911F910F9102
:100E1000FF90EF90DF90CF90BF90AF909F908F901A
:100E20007F906F905F904F90089589859A85AB85EC
:100E3000BC850196A11DB11D84179507A607B707AC
:100E400010F3CB88DC88ED88FE888F89803109F02B
:100E500042C0BB27A72F962F852F480159012A0191
:100E60003B01C80ED91EEA1EFB1E80910002909124
:100E70000102A0910202B0910302C816D906EA0647
:100E8000FB0699F58F898031B9F5B301A201552789
:100E900066277727440F551F43515D4FFA01918212
:100EA00080828091DE0281608093DE028A898230B6
:100EB00080F08D819E81AF81B8858C0D9D1DAE1D0A
:100EC000BF1D8093DF029093E002A093E102B093F4
:100ED000E20281E099CFDB01CA01E7E0B695A79570
:100EE00097958795EA95D1F7B8CF40E0C701B6014D
:100EF00005DE8111C7CF87CFB301A2014F775527F8
:100F000066277727440F551F440F551F43515D4FE8
:100F1000FA0180829182A282B382C3CF8F929F9284
:100F2000AF92BF92CF92DF92EF92FF920F931F93F7
:100F3000CF93DF93FC0181859285A385B4850196CB
:100F4000A11DB11D84179507A607B70770F480E0AF
:100F5000DF91CF911F910F91FF90EF90DF90CF9095
:100F6000BF90AF909F908F90089583889488A588B4
:100F7000B6888789803189F5BB27A72F962F852FC3
:100F8000E9016A017B018F01BC01CD01680D791D6A
:100F90008A1D9B1D8090000290900102A090020289
:100FA000B090030286169706A806B90601F5F80167
:100FB0008789803109F5DD24EE24FF24F601EE0F48
:100FC000FF1FE351FD4F80819181B0E0A0E0888355
:100FD0009983AA83BB8381E0BBCFDB01CA01C7E051
:100FE000B695A79597958795CA95D1F7C9CF40E053
:100FF00085DD8111DCCFABCFE894C7F8DD24EE248A
:10100000FF24F601EE0FFF1FEE0FFF1FE351FD4F10
:1010100080819181A281B381BF70D9CF4F925F92BD
:101020006F927F92AF92BF92CF92DF92EF92FF9238
:101030000F931F93CF93DF9300D01F92CDB7DEB7EE
:101040008C0149835A836B837C835901C12CD12C39
:101050007601412C82E0582E612C712C49815A81F5
:101060006B817C819E012F5F3F4FC80157DF882332
:1010700039F1F8018585A301920104C0220F331FC5
:10108000441F551F8A95D2F7DA01C901C80ED91E2F
:10109000EA1EFB1E49815A816B817C8187898031E0
:1010A00011F188EF9FEFAFEFBFE0481759076A07CC
:1010B0007B07A0F2F501C082D182E282F38281E057
:1010C0000F900F900F900F90DF91CF911F910F9184
:1010D000FF90EF90DF90CF90BF90AF907F906F9098
:1010E0005F904F90089588EF9FEFA0E0B0E0DDCFD4
:1010F000CF93DF93FC012581222321F080E0DF9153
:10110000CF910895EC018091F705803159F582E087
:101110008583178A108E118E128E8091F80590911A
:10112000F905B0E0A0E025E0880F991FAA1FBB1FBA
:101130002A95D1F7838B948BA58BB68B80EE95E0A7
:101140009C8F8B8F81E08C831E821F82188619866C
:101150001A861B861C861D861E861F86188A198A7B
:101160001A8ACDCF803251F683E085834091FA050B
:101170005091FB056091FC057091FD05478B508FE8
:10118000618F728F9F012D5E3F4F80EE95E046DFAD
:101190008111D4CFB3CF8F929F92AF92BF92CF9253
:1011A000DF92EF92FF920F931F93CF93DF93EC01A7
:1011B0008D8181110EC080E0DF91CF911F910F9141
:1011C000FF90EF90DF90CF90BF90AF909F908F9067
:1011D00008950B891C892D893E8904171507260758
:1011E000370748F34A015B01823031F48A869B86D7
:1011F000AC86BD8681E0E0CF81149104A104B104E6
:1012000049F41E821F82188619861A861B861C8640
:101210001D86F0CF0A851B852C853D85EB8DFC8DC9
:10122000858590E00996B901A801415051096109ED
:101230007109082E04C076956795579547950A94CD
:10124000D2F775016401E1E0CE1AD108E108F10896
:1012500004C0F694E794D794C7948A95D2F7C4163D
:10126000D506E606F70620F0012B022B032B09F525
:101270008F89988DA98DBA8D8E839F83A887B98712
:101280008E010A5F1F4FC114D104E104F10409F477
:10129000ADCF4E815F816885798598018B8D9C8D5E
:1012A0003DDE91E0C91AD108E108F1088111EBCFC8
:1012B00082CFC41AD50AE60AF70AE2CF3F924F92CC
:1012C0005F926F927F928F929F92AF92BF92CF92D6
:1012D000DF92EF92FF920F931F93CF93DF93CDB7DF
:1012E000DEB72C970FB6F894DEBF0FBECDBF5C0102
:1012F000DC015B968D909C905C9716964D905D906E
:101300006D907C901997411451046104710409F4A3
:1013100067C0BFEF4B1A5B0A6B0A7B0A312CF401E2
:1013200081859285A385B4859C01AD012F5F3F4FD8
:101330004F4F5F4F29873A874B875C877301620164
:101340001D821E821F821886F40181859285A385E5
:10135000B4852D813E814F815885281739074A076A
:101360005B0708F054C089859A85AB85BC858C15D0
:101370009D05AE05BF0550F482E0C82ED12CE12CAE
:10138000F12C92E0492E512C612C712C9E012F5F83
:101390003F4FB701A601C401C1DD8823C1F1898196
:1013A0009A81AB81BC81892B8A2B8B2B09F1260179
:1013B00037019FEF491A590A690A790A2D813E813E
:1013C0004F8158852F5F3F4F4F4F5F4F2D833E8397
:1013D0004F8358873FEFC31AD30AE30AF30AB4CF07
:1013E000F40140805180628073803324339497CF1E
:1013F000C414D504E604F70409F70FEF1FEF2FEF2D
:101400003FE0B701A601C401E8DC811119C080E00A
:101410002C960FB6F894DEBF0FBECDBFDF91CF91F3
:101420001F910F91FF90EF90DF90CF90BF90AF9002
:101430009F908F907F906F905F904F903F90089516
:10144000D50116964D915D916D917C91199741153D
:1014500051056105710531F097018601C401BDDCBC
:101460008823A9F2D5011696CD92DD92ED92FC92D9
:101470001997332051F0D701C6010196A11DB11D66
:10148000F40180839183A283B383F5018789908DD2
:10149000A18DB28D892B8A2B8B2B39F48481C78A3D
:1014A000D08EE18EF28E80688483F5018481806223
:1014B000848381E0ADCF1F93CF93DF93FC0125811F
:1014C0002223C1F1162FEC01848187FF29C0668594
:1014D00077858089918941E011DB882359F1EA8978
:1014E00080E2E89FF0011124E351FD4F309711F1A4
:1014F0008D81823040F48B899C89AD89BE89848F2F
:10150000958FA68FB78F8F89988D938F828F8F89B4
:10151000988DA98DBA8DB58BA48B8C818F778C8398
:10152000111103C08C818F7E8C83812FDF91CF912D
:101530001F91BBCA80E0DF91CF911F910895FF9268
:101540000F931F93CF93DF93EC018D81813041F096
:1015500090E080E0DF91CF911F910F91FF9008956F
:101560008C8181FFF5CF82FD17C00091ED041091B1
:10157000EE04C80114D9F6D8F82EC801E2D88FEFCE
:10158000F812E6CF8C8185FF19C060E0CE0193DFB1
:101590008C818F7D8C83DCCF4B895C896D897E89C2
:1015A0008A859B85AC85BD8584179507A607B707F7
:1015B000E1F2CE01F0DD8111D8CFCACF4091DF0238
:1015C0005091E0026091E1027091E202452B462BBE
:1015D000472B19F080E046DABBCF80618C832A85E7
:1015E0003B85317080E092E0821B930BB3CFCF93A9
:1015F000DF93EC0161E05FDF882311F01D8281E061
:10160000DF91CF9108952F923F924F925F926F9208
:101610007F928F929F92AF92BF92CF92DF92EF9282
:10162000FF920F931F93CF93DF9300D01F921F92CF
:10163000CDB7DEB77C015B01342E5D83DC011596EE
:101640008C911597813009F0CBC014962C9021FE17
:10165000C7C022FCB2C0C32CDD8022947FE02722C9
:101660002094B22DB1702B2ED7011A964D915D9119
:101670006D917C911D97C114D10409F422C15B9630
:101680008D919C915C97FC0174807A948A019B01F6
:1016900069E036952795179507956A95D1F77022D9
:1016A0008A01117071101FC001151105E1F4169621
:1016B0004D915D916D917C91199741155105610591
:1016C000710509F096C057968D919D910D90BC9132
:1016D000A02D0097A105B10509F0ACC0C701EEDD52
:1016E000882309F47DC080E092E0801B910B4601C5
:1016F0008C159D0508F44C01D7015B964D915C91CA
:101700005C9716968D919D910D90BC91A02D02979E
:10171000A109B109FA01258504C0880F991FAA1FE4
:10172000BB1F2A95D2F74685578560897189840F3A
:10173000951FA61FB71F9C01AD01270D311D411D2F
:10174000511D29013A01811432E0930609F078C055
:101750008091000290910102A0910202B0910302D7
:1017600084159505A605B70559F48FEF9FEFDC01A9
:101770008093000290930102A0930202B0930302AF
:10178000022D9501B301A2018091ED049091EE0428
:1017900007D9882329F19EEFB91AC818D908F7018B
:1017A00082859385A485B585880D991DA11DB11DE0
:1017B00082879387A487B58757CFF70143895489D8
:1017C0006589768982859385A485B58548175907EB
:1017D0006A077B0709F43FCFC701DDDC81113BCFEE
:1017E00081E090E0D70113969C938E93129780E04E
:1017F00006C09E012F5F3F4F91DB811102C090E038
:1018000077C089819A81AB81BC81F701238D348DAA
:10181000F901278948EF5FEF60E070E0203121F0A7
:1018200048EF5FEF6FEF7FE084179507A607B707D4
:1018300008F054CFF70186839783A087B18753CFF1
:101840000115110591F5D7011A964D915D916D9194
:101850007C911D9753968D919D910D90BC91A02DDB
:10186000481759076A077B0700F181E01ED98823D2
:1018700009F4B6CF40920002509201026092020237
:10188000709203028091DE0281608093DE02C801C3
:1018900083519D4FD5019C01280D391DFC012E1748
:1018A0003F0751F04D914193FACF41E0C301B2019E
:1018B00025D98111ECCF94CF281B390BA20EB31E72
:1018C0006CCFF70183899489A589B6898417950718
:1018D000A607B70738F48481438B548B658B768BCE
:1018E00080688483F701848183FD1AC0832D9D81E4
:1018F0000F900F900F900F900F90DF91CF911F914D
:101900000F91FF90EF90DF90CF90BF90AF909F909E
:101910008F907F906F905F904F903F902F900895A1
:1019200061E0C701C8DD882309F45ACFDFCFCF9328
:10193000DF931F92CDB7DEB7698341E050E0BE016F
:101940006F5F7F4F60DE0F90DF91CF910895FC01B4
:10195000DB0112968D919C9113979383828380E291
:1019600092E09183808314968C91149784831596CA
:101970008C911597858316964D915D916D917C9113
:10198000199746835783608771871A964D915D91A9
:101990006D917C911D9742875387648775871E964A
:1019A0004D915D916D917C91519746875787608BE2
:1019B000718B52968C915297828B53964D915D917B
:1019C0006D917C915697438B548B658B768B579694
:1019D0004D915D916D917C915A97478B508F618F9E
:1019E000728F5B968D919C91948F838F089508954B
:1019F000FC01818D928D009711F061E05CCD08951E
:101A0000DC015996ED91FC913097B9F08389948966
:101A1000A589B6894285538564857585841B950B98
:101A2000A60BB70B811520E89207A105B10538F088
:101A30008FEF9FE7A0E0B0E0089590E080E0089588
:101A4000DC0159968D919C91009739F0DC01ED9164
:101A5000FC910480F581E02D199490E080E00895D8
:101A6000CF93DF93EC01E98DFA8D309749F481E053
:101A700090E09B838A8390E080E0DF91CF9108958E
:101A800013821282898D9A8DBEDDE98DFA8D2281B5
:101A90003381232B61F7F1CFCF93DF931F92CDB723
:101AA000DEB76983DC01ED91FC910280F381E02DCA
:101AB00041E050E0BE016F5F7F4F19950F90DF91BD
:101AC000CF9108952F923F924F925F926F927F92A3
:101AD0008F929F92AF92BF92CF92DF92EF92FF923E
:101AE0000F931F93CF93DF9300D0CDB7DEB7FC01E8
:101AF0008581811118C08FEF9FEF0F900F900F908D
:101B0000DF91CF911F910F91FF90EF90DF90CF90D9
:101B1000BF90AF909F908F907F906F905F904F900D
:101B20003F902F900895848180FFE5CF43895489A9
:101B30006589768982859385A485B585312C212C8C
:101B4000481759076A077B0719F022242394312C80
:101B50006F012101CE0101963C01DF011696BB8386
:101B6000AA834114510409F4C4C0F6014285538587
:101B7000648575854A01F1E09F22D6015B968D91BF
:101B80009C915C978A019B01E9E036952795179512
:101B90000795EA95D1F71596EC91E230E9F5FC014D
:101BA000628D738D848D958D600F711F821F931FC1
:101BB000A12C22E0B22EA818B9084A145B0408F43C
:101BC0005201F601248126FD04C0A114F2E0BF06F3
:101BD00071F40091000210910102209102023091F3
:101BE0000302061717072807390709F05DC040E010
:101BF0000E947E05882309F47ECFC40183519D4F46
:101C0000D3019C012A0D3B1DFC012E173F0709F44F
:101C10006BC041914D93F9CFDC011496BC90BA94FE
:101C2000B0228114910479F4B1100DC0452B462BDC
:101C3000472B69F5F6018789908DA18DB28D86833A
:101C40009783A087B187D6015B96ED91FC915C9755
:101C500016966D917D918D919C91199762507109A5
:101C600081099109258504C0660F771F881F991F78
:101C70002A95D2F70685178520893189600F711F53
:101C8000821F931F6B0D711D811D911D91CFD60178
:101C900016964D915D916D917C9119972A813B81AA
:101CA0003DD98111D0CF27CF730185019401AB01BC
:101CB000BC018091ED049091EE040E9438048823C9
:101CC00009F419CF6A0C7B1CF60182859385A485E3
:101CD000B5858A0D9B1DA11DB11D82879387A487A1
:101CE000B5874A185B083DCF281B390B620E731E5F
:101CF000EBCF2A94232809F0FECE898190E0FDCE17
:101D0000FC01818D928D009709F0DCCE8FEF9FEF63
:101D100008950F931F93CF93DF93EC01898D9A8DD4
:101D200010E000E0009789F0CDDE8C010F3F100736
:101D300061F0898D9A8DFC01428553856485758596
:101D4000415051096109710926DAC801DF91CF912B
:101D50001F910F910895FB0101900020E9F7319741
:101D6000AF01461B570BDC01ED91FC910280F38122
:101D7000E02D19940F931F93CF93DF93EC01EBDFCA
:101D80008C016AE372E0CE01E6DF800F911FDF91E4
:101D9000CF911F910F910895CF92DF92EF92FF9212
:101DA0001F93CF93DF93EC0180E2689FF001112431
:101DB000E351FD4F9385917161F0842F827449F056
:101DC00080E0DF91CF911F91FF90EF90DF90CF9057
:101DD0000895142F6A8B8091000290910102A091C6
:101DE0000202B09103028E879F87A88BB98BC488AB
:101DF000D588F12CE12C7601DD24CC24CF8AD88E35
:101E0000E98EFA8E828D938DB0E0A0E0AC01BD0129
:101E10004C295D296E297F294F8B588F698F7A8FC6
:101E200083858871B1F4848D958DA68DB78D8B8B4C
:101E30009C8BAD8BBE8B81E08D831F701C831E82BB
:101E40001F82188619861A861B861C861D8681E0CD
:101E5000B8CF803109F0B4CF9E012D5E3F4F8B8DFE
:101E60009C8DDCD8882309F4ABCF84E0E5CF3F928A
:101E70004F925F926F927F928F929F92AF92BF929A
:101E8000CF92DF92EF92FF920F931F93CF93DF9346
:101E900000D000D000D01F921F92CDB7DEB77C01DA
:101EA000FE013196CE010C966F0130E23193E817B6
:101EB000F907E1F7DA0130E087E09D91B92E992327
:101EC00009F43CC09E32F1F48A30C9F480E02B96CC
:101ED0000FB6F894DEBF0FBECDBFDF91CF911F913B
:101EE0000F91FF90EF90DF90CF90BF90AF909F90B9
:101EF0008F907F906F905F904F903F90089538E063
:101F00008AE0DBCFE4EEF0E04491442321F0319607
:101F10009413FACFDBCF8317C8F24FED490F4E353C
:101F2000A8F64FE9490F4A3118F440EEB42EB90E25
:101F3000F601E30FF11DB0823F5FBFCF8981803290
:101F400029F2322E8B01DB015B968D919C915C977F
:101F5000F701948F838F16961D921D921D921C92ED
:101F60001997FB011286138614861586F80182855F
:101F70009385A485B58543895489658976898417B5
:101F80009507A607B70708F04CC025E0B695A795BA
:101F9000979587952A95D1F7F82FFF70AF2ED80126
:101FA00015968C91823008F491CFC8018BDD97FD96
:101FB0008DCFF80182859385A485B5854F96A11DA7
:101FC000B11D82879387A487B587F0E2AF9EB001E9
:101FD000112463517D4F6115710509F477CFDB0141
:101FE0008C91882341F0853E09F062C0BB2029F026
:101FF000BB24B394BBCFB1100EC0F701A28A80916D
:10200000000290910102A0910202B0910302868722
:102010009787A08BB18BDB018C918111E9CFBB2419
:10202000B394832D8271823109F050CFBB2009F423
:102030004BC0F701668577858089918941E00E94D0
:102040007E05882309F442CFD70152968C91B0E2E5
:102050008B9FC001112483519D4F009709F436CF07
:10206000FC013A9626E1DF011D922A95E9F72BE063
:10207000F601DC0101900D922A95E1F721E238E2A8
:10208000FC01318B208B40E058E057874687338B2B
:10209000228B318F208F578B468B81E00E94550514
:1020A000882309F413CF432DD70152966C9109C0B0
:1020B0004BE050E0C601FFD5892B09F057CF432DE7
:1020C0006A2DC70169DE03CFF8018581823009F4EA
:1020D000FDCEC801F3D8882309F4F8CED8015B9669
:1020E000ED91FC915C9716968D909D90AD90BC9073
:1020F0001997B2E08B1A9108A108B108858504C030
:10210000880C991CAA1CBB1C8A95D2F786859785DA
:10211000A089B189880E991EAA1EBB1E8481240144
:102120003501480E511C611C711C84149504A604D1
:10213000B70409F1E1E04E1A51086108710881E025
:102140000E945505882309F4C1CEEDEEF2E011920C
:102150008DEE94E08E179F07D1F7409200025092C7
:10216000010260920202709203028091DE0281609D
:102170008093DE02DACFD8015B96ED91FC91258544
:1021800080E092E0A0E0B0E004C0880F991FAA1F91
:10219000BB1F2A95D2F7F80143895489658976894E
:1021A000840F951FA61FB71F838B948BA58BB68BAF
:1021B000D70152961C928DEE92E052CFEF92FF9291
:1021C0000F931F93CF93DF93EC017B018A011B8256
:1021D0001A8288EE93E0A0E0B0E08C839D83AE830A
:1021E000BF838CE292E0998388838DE190E03ED4B6
:1021F0009A8F898F009771F02DE1F701DC01019032
:102200000D922A95E1F74CE050E0B801CE010C9612
:102210005FD5188EDF91CF911F910F91FF90EF90B6
:102220000895CF92DF92FF920F931F93CF93DF9386
:10223000CDB7DEB7C755D1090FB6F894DEBF0FBED4
:10224000CDBF8C01F62E1C821B8280E2C82E82E05C
:10225000D82EDA82C9821E82CE0101960E947808A9
:10226000BE016F5F7F4FCE01CB9671DB19A218A222
:10227000DF8ECE8E1BA221968FAD2197811122C0B9
:10228000F8011382128288EE93E0A0E0B0E084832C
:102290009583A683B7838CE292E091838083128E2C
:1022A000118E1486C801C95ADF4F0FB6F894DEBFED
:1022B0000FBECDBFDF91CF911F910F91FF90DF90A7
:1022C000CF9008952F2D48EC52E0BE01655C7F4F02
:1022D000CE014E96CCDD882399F2CE01CB9687D9DC
:1022E0008F2D8670863041F449A95AA96BA97CA923
:1022F000CE014E960E94CB08BE01625E7F4FCE019A
:10230000019625DB48EC52E0BE016F5F7F4FC801AC
:1023100055DFC8CF1F920F920FB60F9211240BB644
:102320000F922F933F934F935F936F937F938F936E
:102330009F93AF93BF93EF93FF938FEE94E00E9430
:102340002102FF91EF91BF91AF919F918F917F916A
:102350006F915F914F913F912F910F900BBE0F9016
:102360000FBE0F901F9018951F920F920FB60F92ED
:1023700011240BB60F922F938F939F93EF93FF939C
:10238000E091FF04F09100058081E0910505F09156
:10239000060582FD1DC09081809108058F5F8F73B7
:1023A00020910905821741F0E0910805F0E0E15124
:1023B000FB4F958F80930805FF91EF919F918F912F
:1023C0002F910F900BBE0F900FBE0F901F9018957E
:1023D0008081F2CF1F920F920FB60F9211242F938C
:1023E0003F938F939F93AF93BF938091E40290911B
:1023F000E502A091E602B091E7023091E30223E00A
:10240000230F2D3758F50196A11DB11D2093E3022E
:102410008093E4029093E502A093E602B093E70272
:102420008091E8029091E902A091EA02B091EB025A
:102430000196A11DB11D8093E8029093E902A0933B
:10244000EA02B093EB02BF91AF919F918F913F91C0
:102450002F910F900FBE0F901F90189526E8230F15
:102460000296A11DB11DD2CFEFEEF4E013821282CD
:1024700088EE93E0A0E0B0E084839583A683B783E1
:102480002EE032E03183208325EC30E0358724874D
:1024900024EC30E03787268720EC30E0318B208B2E
:1024A00021EC30E0338B228B22EC30E0358B248B17
:1024B00026EC30E0378B268B118E128E138E148E05
:1024C000ECE8F5E0168217821086118612861386D4
:1024D0001486158616861786108A118A128A138A20
:1024E000148A158AE2EDF5E020E520831182E4EDFF
:1024F000F5E0158216821186138642E050E060E016
:1025000070E0448755876687778713A215A614A6BF
:1025100020E232E033A722A717A6EDE1F6E013820E
:10252000128284839583A683B7838CE292E09183A1
:102530008083128E118E14860895CF93DF93CDB7CA
:10254000DEB76B970FB6F894DEBF0FBECDBF7894A1
:1025500084B5826084BD84B5816084BD85B58260A8
:1025600085BD85B5816085BD80916E008160809359
:102570006E001092810080918100826080938100C2
:1025800080918100816080938100809180008160D2
:10259000809380008091B10084608093B10080912D
:1025A000B00081608093B000809191008260809340
:1025B00091008091910081608093910080919000C2
:1025C0008160809390008091A10082608093A1003F
:1025D0008091A10081608093A1008091A000816022
:1025E0008093A000809121018260809321018091DD
:1025F000210181608093210180912001816080937D
:10260000200180917A00846080937A0080917A0022
:10261000826080937A0080917A00816080937A0052
:1026200080917A00806880937A001092C1001092A5
:10263000CE051092CF051092D0051092D1051092C0
:102640008E0510928F0510929005109291050E94B0
:102650008F036B017C014B015C0128EB820E2BE0A8
:10266000921EA11CB11C0E948F036C157D058E0566
:102670009F0528F086169706A806B906A0F70E94BF
:102680006A036B017C0148EE842E43E0942EA12C5A
:10269000B12C0E946A036C197D098E099F09683E5E
:1026A000734081059105A8F381E0881A9108A1087B
:1026B000B10828EEC20E23E0D21EE11CF11C8114E9
:1026C0009104A104B10429F70E9430010E948F03F4
:1026D00060938E0570938F0580939005909391057C
:1026E0006DE372E08FEE94E036DB0E948F036B01A6
:1026F0007C014B015C018AE0880E911CA11CB11C7D
:102700000E948F036C157D058E059F0528F08616A7
:102710009706A806B906A0F781E08093A2050E945B
:1027200030016EE472E08FEE94E015DB80910306D9
:10273000882321F08EEF95E00E94F70A1092DF05C2
:102740001092DD051092DA051092D90584E080938D
:10275000D8050E948F038B018091D8050E948F01BC
:1027600061E08091D8050E94DE02FFB6F894809166
:10277000EC02811124C0E3EAF1E08491E9EEF1E09A
:102780009491E82FF0E0EE0FFF1FEC5AFE4FA59159
:10279000B491EC91E92321F461E085E30E94DE022B
:1027A00085E30E948F018CB580618CBD8CB58064FF
:1027B0008CBD84E30E948F0183E30E948F0180918E
:1027C000EC028F5F8093EC02FFBE82E58093D2051E
:1027D0001092D3058091D2059091D3050E94CC032D
:1027E0002AE0F22E8FEF0E94AB03FA94F110FACF99
:1027F00084ED95E00E94CF0320E030E0A90160E085
:1028000084ED95E00E94E303F82E8093DE0521E03D
:102810008217A1F00E948F03601B710B613D77400E
:1028200058F381E08093D90584ED95E00E94A103DF
:102830006BE772E08FEE94E09DDAFFCF2AEA31E099
:1028400040E050E068E084ED95E00E94E30382FF01
:102850002AC0F092DF058091DF05C12CD12C7601D2
:10286000823029F4C12CD12CE12C80E4F82E20E018
:1028700030E0A90167E384ED95E00E94E303A7013E
:10288000960169E284ED95E00E94E3038093DE0502
:102890008823D1F00E948F03601B710B613D77404C
:1028A00030F388E0BFCF94E0F92E0E94B20380930A
:1028B000DE05FA94F110F9CF8A3A11F082E0B2CF36
:1028C00082E08093DF05C7CF8091DF058230D1F4AD
:1028D00020E030E0A9016AE384ED95E00E94E30383
:1028E000882311F086E09ECF0E94B203807C803C5A
:1028F00019F483E08093DF050E94B2030E94B203C3
:102900000E94B20384ED95E00E94A10380E58093CC
:10291000D2051092D30581E00E94C6058823E9F014
:102920008EEF95E00E947808882309F481CF66E64F
:1029300072E08FEE94E01EDA67E1CE01019671DC61
:10294000CE0101960E945801E0913606F0913706BB
:10295000309751F46AEB72E027C080E00E94C60510
:10296000882309F465CFDCCF8581882399F362E958
:1029700072E08FEE94E0EFD969EA72E08DE196E0C3
:10298000F9D98091360690913706009759F00E9448
:10299000F70A809136069091370604D110923706D7
:1029A0001092360665E772E08FEE94E0E3D961E0BD
:1029B000CE01019636DCCE0101960E945801E091CD
:1029C0003606F0913706309751F18581882339F129
:1029D00061ED72E08FEE94E0CDD98DE196E010D8F4
:1029E000892B49F08DE196E08BD9682F8FEE94E02A
:1029F0000E944302F2CF80913606909137060097ED
:102A000059F00E94F70A8091360690913706CAD095
:102A100010923706109236060E94AE02FDCF6AEB86
:102A200072E08FEE94E0A6D9F7CF09D0A59F900D64
:102A3000B49F900DA49F800D911D11240895A29F15
:102A4000B001B39FC001A39F700D811D1124911D82
:102A5000B29F700D811D1124911D0895EE0FFF1F6F
:102A6000881F8BBF0790F691E02D19940F931F9349
:102A7000CF93DF938230910510F482E090E0E091F3
:102A80003A06F0913B0630E020E0B0E0A0E030975D
:102A900099F42115310509F44AC0281B390B24305B
:102AA0003105D8F58A819B816115710589F1FB019A
:102AB00093838283FE0111C0408151810281138181
:102AC00048175907E0F04817590799F4109761F033
:102AD00012960C93129713961C933296CF01DF91A6
:102AE000CF911F910F91089500933A0610933B06E2
:102AF000F4CF2115310551F04217530738F0A901E1
:102B0000DB019A01BD01DF01F801C1CFEF01F9CF6F
:102B100090933B0680933A06CDCFFE01E20FF31F60
:102B2000819391932250310939832883D7CF209103
:102B3000380630913906232B41F42091060230915A
:102B40000702309339062093380620910402309111
:102B500005022115310541F42DB73EB74091080219
:102B600050910902241B350BE0913806F09139068B
:102B7000E217F307A0F42E1B3F0B2817390778F054
:102B8000AC014E5F5F4F2417350748F04E0F5F1FB3
:102B90005093390640933806819391939FCFF0E08C
:102BA000E0E09CCFCF93DF930097E9F0FC013297F0
:102BB00013821282A0913A06B0913B06ED0130E0FB
:102BC00020E01097A1F420813181820F931F209182
:102BD0003806309139062817390709F061C0F0939B
:102BE0003906E0933806DF91CF910895EA01CE17B8
:102BF000DF07E8F54A815B819E0141155105B1F778
:102C0000E901FB83EA8349915991C40FD51FEC1761
:102C1000FD0761F4808191810296840F951FE9017F
:102C200099838883828193819B838A83F0E0E0E0AB
:102C300012968D919C9113970097B9F52D913C9127
:102C40001197CD010296820F931F20913806309183
:102C500039062817390739F6309751F510923B0697
:102C600010923A06B0933906A0933806BCCFD383AE
:102C7000C28340815181840F951FC817D90761F421
:102C80004E5F5F4F88819981480F591F5183408360
:102C90008A819B81938382832115310509F0B0CF0E
:102CA000F0933B06E0933A069ECFFD01DC01C0CFD6
:102CB00013821282D7CFFB01DC0104C08D910190F9
:102CC000801921F441505040C8F7881B990B089592
:102CD000FB01DC014150504048F001900D92002072
:102CE000C9F701C01D9241505040E0F70895F89493
:022CF000FFCF14
:102CF200FFFFFFFF00003C068000000000004302CF
:102D0200AE01DB018F020C02EA01FE0100000000AD
:102D1200970CAE019F0AF70C000000004C0D300D1D
:102D2200200DF80C000D800E890E0D0A00564D4440
:102D320050565F317C315F564D4450560A00496E01
:102D4200697469616C697A696E67205344206361B2
:102D520072642E2E2E00696E697469616C697A61E3
:102D620074696F6E20646F6E652E00696E69746996
:102D7200616C697A6174696F6E206661696C656401
:102D8200210057726974696E6720746F20746573CD
:102D9200742E7478742E2E2E0074657374696E67A7
:102DA20020312C20322C20332E006572726F72205B
:102DB2006F70656E696E6720746573742E747874B3
:0C2DC20000746573742E7478743A00007D
:00000001FF
