:1000000002C100002EC100002CC100002AC1000066
:1000100028C1000026C1000024C1000022C1000048
:1000200020C100001EC100001CC100001AC1000058
:1000300018C1000016C1000014C1000012C1000068
:1000400010C100000EC100000CC100000AC1000078
:1000500008C1000006C1000004C100005BC400002C
:1000600000C1000021C40000F6C30000FAC0000077
:10007000F8C00000F6C00000F4C00000F2C00000AC
:10008000F0C00000EEC00000ECC00000EAC00000BC
:10009000E8C00000E6C00000E4C00000E2C00000CC
:1000A000E0C00000DEC00000DCC00000DAC00000DC
:1000B000D8C00000D6C00000D4C00000D2C00000EC
:1000C000D0C00000CEC00000CCC00000CAC00000FC
:1000D000C8C00000C6C00000C4C00000C2C000000C
:1000E000C0C00000000020002300260029002C00D2
:1000F0002F00320000010000030106010901000089
:100100002100240027002A002D00300033000101C7
:100110000000040107010A01000022002500280058
:100120002B002E00310034000201000005010801FF
:100130000B0105050505070508080808020202026B
:100140000A0A080804040404010101010101010173
:100150000303030303030303040707070C0C0C0C3E
:100160000C0C0C0C02020202060606060606060627
:100170000B0B0B0B0B0B0B0B0102102020080810B4
:100180002040102040800201020108040201010207
:1001900004081020408080402010080402018004E0
:1001A000020180402010080402010804020101023B
:1001B0000408102040800102040810204080000044
:1001C0000A0B02090C0D0E080703040100000000D1
:1001D000000000000000000000000000000000001F
:1001E00000000000000000000000121110000000DC
:1001F00000000000000000000000000000000000FF
:1002000000000000D40411241FBECFEFD1E2DEBFF6
:10021000CDBF00E00CBF12E0A0E0B2E0E2ECFDE0F8
:1002200000E00BBF02C007900D92A832B107D9F7CA
:1002300023E0A8E2B2E001C01D92A939B207E1F7BC
:1002400011E0C3E0D1E000E005C021970109802F53
:10025000FE01A7D5C230D10780E00807B1F7E3D38C
:10026000AEC5CECEAF92BF92CF92DF92EF92FF9209
:100270000F931F93CF93DF936C017B018B01040FCE
:10028000151FEB015E01AE18BF08C017D10759F06A
:100290006991D601ED91FC910190F081E02DC601AC
:1002A0001995892B79F7C501DF91CF911F910F9196
:1002B000FF90EF90DF90CF90BF90AF900895FC013A
:1002C000538D448D252F30E0842F90E0821B930BBB
:1002D000541710F0CF96089501970895FC01918D61
:1002E000828D981761F0A28DAE0FBF2FB11D5D9664
:1002F0008C91928D9F5F9F73928F90E008958FEF06
:100300009FEF0895FC01918D828D981731F0828DB9
:10031000E80FF11D858D90E008958FEF9FEF089510
:10032000FC01918D228D892F90E0805C9F4F821B74
:1003300091098F739927089586EB92E0F1DF21E010
:10034000892B09F420E0822F0895FC01A48DA80FC9
:10035000B92FB11DA35ABF4F2C91848D90E0019607
:100360008F739927848FA689B7892C93A089B18927
:100370008C91837080648C93938D848D981306C0C8
:100380000288F389E02D80818F7D80830895EF922C
:10039000FF920F931F93CF93DF93EC0181E0888F3F
:1003A0009B8D8C8D98131AC0E889F989808185FF0F
:1003B00015C09FB7F894EE89FF896083E889F989B1
:1003C00080818370806480839FBF81E090E0DF91B3
:1003D000CF911F910F91FF90EF900895F62E0B8D06
:1003E00010E00F5F1F4F0F731127E02E8C8D8E11C1
:1003F0000BC00FB607FCFACFE889F989808185FF29
:10040000F5CFCE01A2DFF2CFEB8DEC0FFD2FF11D6A
:10041000E35AFF4FF0829FB7F8940B8FEA89FB896C
:1004200080818062D0CFCF93DF93EC01888D8823C9
:10043000B1F0AA89BB89E889F9898C9185FD03C04F
:10044000808186FD0CC00FB607FCF7CF8C9185FF2D
:10045000F2CF808185FFEDCFCE0177DFEACFDF914C
:10046000CF91089580E090E0892B21F065DF811124
:100470000E94000080E090E0892B49F080E090E04D
:10048000892B29F00E94000081110E94000080E069
:1004900090E0892B49F080E090E0892B29F00E94C0
:1004A000000081110E94000080E090E0892B49F05B
:1004B00080E090E0892B29F00E94000081110C94CB
:1004C000000008958150823108F059C0E82FF0E013
:1004D0008827E359FD4F8F4F64C48D0291027F023C
:1004E00085028902BF0294029A029E02A402A80217
:1004F000AC02B202B602BF02BA02C002C4028091CC
:1005000080008F77809380000895809180008F7D98
:10051000F9CF80918000877FF5CF84B58F7784BD38
:10052000089584B58F7DFBCF8091B0008F77809345
:10053000B00008958091B0008F7DF9CF8091900038
:100540008F77809390000895809190008F7DF9CFF0
:1005500080919000877FF5CF8091A0008F77809366
:10056000A00008958091A0008F7DF9CF8091A00018
:10057000877FF5CF809120018F77809320010895A8
:10058000809120018F7DF9CF80912001877FF5CF69
:100590001F93CF93DF93282F30E0F901E254FE4FF1
:1005A0008491F901E858FE4FD491F901EE5CFE4FB9
:1005B000C491CC23A1F0162F811184DFEC2FF0E041
:1005C000EE0FFF1FE85EFE4FA591B4918FB7F89430
:1005D000EC91111108C0D095DE23DC938FBFDF9121
:1005E000CF911F910895DE2BF8CFCF93DF9390E04A
:1005F000FC01E858FE4F24918E5C9E4FFC018491D3
:100600008823D1F090E0880F991FFC01E250FF4F42
:10061000A591B491FC01E85EFE4FC591D491623082
:1006200071F49FB7F8943C91822F809583238C932B
:10063000E8812E2B28839FBFDF91CF9108958FB73C
:10064000F894EC912E2B2C938FBFF6CF3FB7F894F4
:1006500080916D0290916E02A0916F02B091700234
:1006600026B5A89B05C02F3F19F00196A11DB11D0D
:100670003FBFBA2FA92F982F8827BC01CD01620F49
:10068000711D811D911D42E0660F771F881F991F04
:100690004A95D1F708958F929F92AF92BF92CF92D1
:1006A000DF92EF92FF924B015C01D0DF6B017C0186
:1006B000CDDF6C197D098E099F09683E7340810565
:1006C0009105B0F321E0821A9108A108B10888EEE3
:1006D000C80E83E0D81EE11CF11C81149104A10412
:1006E000B10431F7FF90EF90DF90CF90BF90AF90C3
:1006F0009F908F9008952FB7F89460916902709140
:100700006A0280916B0290916C022FBF08958F92C4
:100710009F92AF92BF92EF92FF920F931F93CF934E
:10072000DF93182FD42F70E0FB01E254FE4F849129
:10073000FB01E858FE4F04916E5C7E4FFB01C491B3
:10074000CC2371F08111BEDEEC2FF0E0EE0FFF1F25
:10075000EC51FF4FA591B491EC91E02301E009F435
:1007600000E00170011799F0CD2FD0E0CE018F5835
:100770009D4F7C01FC018081CC0FDD1F811113C0D6
:1007800081E08083B8DFC85DDD4F79836883812F86
:10079000DF91CF911F910F91FF90EF90BF90AF909D
:1007A0009F908F900895A7DFC85DDD4F8880998066
:1007B000092C000CAA08BB08681979098A099B0949
:1007C000643171058105910510F3F7011082102F36
:1007D000DECFCF93C62F462F682F80E098DFEC2F17
:1007E000F0E0EB56FD4F9081882341F0911109C054
:1007F00081E0808391E0892FCF9108959923D9F3E7
:10080000108290E0F8CF863308F0865320917B0069
:10081000982F9870277F922B90937B00877080642D
:1008200080937C0080917A00806480937A0080912C
:100830007A0086FDFCCF80917800A0917900BA2FD4
:10084000A82F28E93AE3B5D22FEF33E040E050E09B
:100850007DD2C90108951F920F920FB60F921124F5
:100860000BB60F922F933F934F935F936F937F93AA
:100870008F939F93AF93BF93EF93FF9386EB92E099
:1008800064DDFF91EF91BF91AF919F918F917F9127
:100890006F915F914F913F912F910F900BBE0F90F1
:1008A0000FBE0F901F9018951F920F920FB60F92C8
:1008B00011240BB60F922F938F939F93EF93FF9377
:1008C000E091C602F091C7028081E091CC02F091E4
:1008D000CD0282FD1DC090818091CF028F5F8F730A
:1008E0002091D002821741F0E091CF02F0E0EA546B
:1008F000FD4F958F8093CF02FF91EF919F918F9144
:100900002F910F900BBE0F900FBE0F901F90189558
:100910008081F2CF1F920F920FB60F9211242F9366
:100920003F938F939F93AF93BF9380916902909170
:100930006A02A0916B02B0916C023091680223E0D0
:10094000230F2D3758F50196A11DB11D2093680284
:100950008093690290936A02A0936B02B0936C0239
:1009600080916D0290916E02A0916F02B091700221
:100970000196A11DB11D80936D0290936E02A0930C
:100980006F02B0937002BF91AF919F918F913F9191
:100990002F910F900FBE0F901F90189526E8230FF0
:1009A0000296A11DB11DD2CFE6EBF2E013821282B6
:1009B00088EE93E0A0E0B0E084839583A683B783BC
:1009C00088E092E09183808385EC90E0958784872E
:1009D00084EC90E09787868780EC90E0918B808B09
:1009E00081EC90E0938B828B82EC90E0958B848BF2
:1009F00086EC90E0978B868B118E128E138E148E60
:100A0000E3E5F3E0168217821086118612861386BC
:100A10001486158616861786108A118A128A138AFA
:100A2000148A158A0895789484B5826084BD84B54B
:100A3000816084BD85B5826085BD85B5816085BDD9
:100A400080916E00816080936E0010928100809191
:100A50008100826080938100809181008160809319
:100A60008100809180008160809380008091B1003E
:100A700084608093B1008091B00081608093B00069
:100A800080919100826080939100809191008160BB
:100A9000809391008091900081608093900080917C
:100AA000A10082608093A1008091A1008160809369
:100AB000A1008091A00081608093A000809121011D
:100AC00082608093210180912101816080932101C6
:100AD0008091200181608093200180917A00846060
:100AE00080937A0080917A00826080937A0080916E
:100AF0007A00816080937A0080917A008068809388
:100B00007A001092C10010929503109296031092F1
:100B10009703109298031092550310925603109267
:100B2000570310925803E7DD6B017C014B015C0118
:100B300028EB820E2BE0921EA11CB11CDCDD6C1593
:100B40007D058E059F0528F086169706A806B9062E
:100B5000A8F768EE73E080E090E09DDDE091C602CA
:100B6000F091C70282E08083E091C202F091C3025B
:100B70001082E091C402F091C50280E1808310925E
:100B8000CE02E091CA02F091CB0286E08083E09130
:100B9000C802F091C902808180618083E091C8021F
:100BA000F091C902808188608083E091C802F09151
:100BB000C902808180688083E091C802F091C902F7
:100BC00080818F7D808397DD6093550370935603FA
:100BD000809357039093580340E150E066E172E040
:100BE00086EB92E03FDB87DD6B017C014B015C0112
:100BF0008AE0880E911CA11CB11C7DDD6C157D0561
:100C00008E059F0528F086169706A806B906A8F750
:100C100081E08093690364E670E080E090E03BDD72
:100C200061E082E0B5DC61E083E0B2DC61E084E0B9
:100C3000AFDC61E085E0ACDCC0E0D2E084E0E82E2F
:100C400082E0F82E01E0EC16FD0601F16AE070E0AA
:100C500080E090E020DD86E3D6DD6C01199160E054
:100C6000812F96DC6AE070E080E090E014DD86E39E
:100C7000CADD8C199D0988539F4F8139914010F42A
:100C80000093920261E0812F83DCDDCFE5E9F2E0A1
:100C9000A1E7B2E085EB92E011921D928E179F07BB
:100CA000D9F762E086E1A1DC62E087E19EDC61E0E9
:100CB00082E09BDC61E083E098DC61E084E095DC2D
:100CC00061E085E092DC60E086E183DD61E087E160
:100CD00080DDC091B50242E06AE180E018DD9091CC
:100CE0009702882361F0911104C081E080939702FC
:100CF000C827C093B50286E386DDB4DBE4CF992331
:100D0000C1F310929702F5CFA1E21A2EAA1BBB1BCA
:100D1000FD010DC0AA1FBB1FEE1FFF1FA217B307C7
:100D2000E407F50720F0A21BB30BE40BF50B661FDD
:100D3000771F881F991F1A9469F7609570958095A1
:100D400090959B01AC01BD01CF010895052E97FB45
:100D500016F400940FD057FD05D0D6DF07FC02D063
:100D600046F408C050954095309521953F4F4F4F20
:100D70005F4F089590958095709561957F4F8F4F47
:100D80009F4F0895A29FB001B39FC001A39F700D14
:100D9000811D1124911DB29F700D811D1124911D83
:100DA0000895EE0FFF1F881F8BBF0790F691E02D6F
:100DB0001994E8DFB7FF0895821B930B0895F89408
:020DC000FFCF63
:100DC2000203040500000000C70132015F011302A3
:100DD20090016E018201564D4450565F317C315F65
:080DE200564D4450560A000072
:00000001FF
