:10000000F6C0000024C1000022C1000020C1000091
:100010001EC100001CC100001AC1000018C1000070
:1000200016C1000014C1000012C1000010C1000080
:100030000EC100000CC100000AC1000008C1000090
:1000400006C1000004C1000002C1000000C10000A0
:10005000FEC00000FCC00000FAC00000DEC40000CA
:10006000F6C00000A4C4000079C40000F0C0000085
:10007000EEC00000ECC00000EAC00000E8C00000D4
:10008000E6C00000E4C00000E2C00000E0C00000E4
:10009000DEC00000DCC00000DAC00000D8C00000F4
:1000A000D6C00000D4C00000D2C00000D0C0000004
:1000B000CEC00000CCC00000CAC00000C8C0000014
:1000C000C6C00000C4C00000C2C00000C0C0000024
:1000D000BEC00000BCC00000BAC00000B8C0000034
:1000E000B6C0000000002100240027002A002D00D7
:1000F0003000330001010000040107010A01000083
:100100002200250028002B002E00310034000201BF
:100110000000050108010B01050505050705080894
:100120000808020202020A0A080804040404010181
:100130000101010101010303030303030303040796
:1001400007070C0C0C0C0C0C0C0C0202020206062D
:100150000606060606060B0B0B0B0B0B0B0B010220
:1001600010202008081020401020408002010201C9
:100170000804020101020408102040808040201081
:1001800008040201800402018040201008040201DA
:100190000804020101020408102040800102040842
:1001A0001020408000000A0B02090C0D0E08070306
:1001B000040100000000000000000000000000003A
:1001C000000000000000000000000000000000002F
:1001D00012111000000000000000000000000000EC
:1001E000000000000000000000005705B9091124BC
:1001F0001FBECFEFD1E2DEBFCDBF00E00CBF27E0D6
:10020000AEE1B5E001C01D92AF34B207E1F715E0F1
:10021000A0E0B2E0ECE9F8E100E00BBF02C007901B
:100220000D92AE31B107D9F710E0C6EFD0E000E093
:1002300006C021970109802FFE010E940C0AC53FCC
:10024000D10780E00807A9F76AD50C943D0CD8CEF9
:10025000382FE1EBF1E08491EBE6F1E02491E5E267
:10026000F1E09491992309F435C0882311F181506C
:100270008231F8F4E82FF0E08827EE5BFE4F8F4FD5
:100280000C940C0A7301770154016B016F01590141
:100290007A01800184018A018E01920198019C01FA
:1002A0005901A001A601AA01809180008F77809357
:1002B0008000E92FF0E0EE0FFF1FE250FF4FA59105
:1002C000B4918FB7F894EC91311148C020952E234A
:1002D0002C938FBF0895809180008F7DE8CF80910F
:1002E0008000877FE4CF84B58F7784BDE2CF84B56B
:1002F0008F7DFBCF8091B0008F778093B000D9CFF6
:100300008091B0008F7DF9CF809190008F7780939E
:100310009000CFCF809190008F7DF9CF8091900099
:10032000877FF5CF8091A0008F778093A000C1CF09
:100330008091A0008F7DF9CF8091A000877FF5CFBD
:10034000809120018F7780932001B3CF809120018D
:100350008F7DF9CF80912001877FF5CF2E2BB8CFED
:10036000AF92BF92CF92DF92EF92FF920F931F93C3
:10037000CF93DF936C017B018B01040F151FEB0101
:100380005E01AE18BF08C017D10759F06991D601B8
:10039000ED91FC910190F081E02DC6011995892B1A
:1003A00079F7C501DF91CF911F910F91FF90EF90E9
:1003B000DF90CF90BF90AF900895FC01538D448D96
:1003C000252F30E0842F90E0821B930B541710F000
:1003D000CF96089501970895FC01918D828D98170D
:1003E00061F0A28DAE0FBF2FB11D5D968C91928DE5
:1003F0009F5F9F73928F90E008958FEF9FEF089516
:10040000FC01918D828D981731F0828DE80FF11DDE
:10041000858D90E008958FEF9FEF0895FC01918DF9
:10042000228D892F90E0805C9F4F821B91098F73F2
:10043000992708958EE295E0F1DF21E0892B09F4F8
:1004400020E0822F0895FC01A48DA80FB92FB11DC3
:10045000A35ABF4F2C91848D90E001968F739927FA
:10046000848FA689B7892C93A089B1898C918370D8
:1004700080648C93938D848D981306C00288F389D1
:10048000E02D80818F7D80830895EF92FF920F93FE
:100490001F93CF93DF93EC0181E0888F9B8D8C8D30
:1004A00098131AC0E889F989808185FF15C09FB724
:1004B000F894EE89FF896083E889F98980818370E7
:1004C000806480839FBF81E090E0DF91CF911F9196
:1004D0000F91FF90EF900895F62E0B8D10E00F5FB7
:1004E0001F4F0F731127E02E8C8D8E110BC00FB68E
:1004F00007FCFACFE889F989808185FFF5CFCE0125
:10050000A2DFF2CFEB8DEC0FFD2FF11DE35AFF4F71
:10051000F0829FB7F8940B8FEA89FB898081806213
:10052000D0CFCF93DF93EC01888D8823B1F0AA89D7
:10053000BB89E889F9898C9185FD03C0808186FD9E
:100540000CC00FB607FCF7CF8C9185FFF2CF8081EE
:1005500085FFEDCFCE0177DFEACFDF91CF91089510
:1005600080E090E0892B21F065DF81110E9400007E
:1005700080E090E0892B49F080E090E0892B29F021
:100580000E94000081110E94000080E090E0892B11
:1005900049F080E090E0892B29F00E940000811151
:1005A0000E94000080E090E0892B49F080E090E01C
:1005B000892B29F00E94000081110C9400000895FD
:1005C0003FB7F89480912A0590912B05A0912C05B6
:1005D000B0912D0526B5A89B05C02F3F19F00196B7
:1005E000A11DB11D3FBFBA2FA92F982F8827BC018D
:1005F000CD01620F711D811D911D42E0660F771FB5
:10060000881F991F4A95D1F708958F929F92AF92B4
:10061000BF92CF92DF92EF92FF924B015C01D0DF4D
:100620006B017C01CDDF6C197D098E099F09683E45
:10063000734081059105B0F321E0821A9108A10869
:10064000B10888EEC80E83E0D81EE11CF11C8114AD
:100650009104A104B10431F7FF90EF90DF90CF90A7
:10066000BF90AF909F908F900895FC010190002063
:10067000E9F73197AF01481B590BBC018EE295E0B9
:100680006FCECF93DF93F1DFEC018EE592E0EDDFEB
:100690008C0F9D1FDF91CF910895CF93DF93FC01C5
:1006A00044815581608171818EE295E059DEEC01D3
:1006B0008EE592E0DADF8C0F9D1FDF91CF910895D8
:1006C000FC0124813581232B39F421E0FB01808159
:1006D000882349F020E007C0808191810E941E0C90
:1006E00021E0892BB9F7822F0895CF93DF93EC0196
:1006F000A881B981EB01E881F9811097F1F0309779
:10070000B1F4EC018C819D81892BC9F08C9190E032
:100710000BC0DB0114968D919C91892B81F0808117
:1007200090E0919581959109DF91CF910895BF0156
:10073000CD01DF91CF910C941E0C309751F790E0D2
:1007400080E0F2CF0F931F93CF93DF93EC0188816A
:100750009981009759F02A813B812617370730F09D
:1007600081E0DF91CF911F910F9108958B016F5F11
:100770007F4F7FD7009759F0998388831B830A8323
:100780002C813D81232B61F7FC011082E9CF80E0B1
:10079000E8CFEF92FF920F931F93CF93DF936115F2
:1007A000710541F480E0DF91CF911F910F91FF908F
:1007B000EF90089541155105A9F07B01EC010C81E2
:1007C0001D81040F151FB801BDDF882359F328814F
:1007D00039818C819D81B701820F931F0E94270C64
:1007E0001D830C8381E0DFCFCF93DF93EC01888101
:1007F0009981009709F0B4D6198218821D821C8253
:100800001B821A82DF91CF910895CF93DF93EC0181
:10081000FB0101900020E9F73197AF01461B570B10
:10082000B8DF811102C0CE01DFDFCE01DF91CF91B1
:100830000895CF93DF93EC01FB01448155816081E2
:100840007181A7DF811102C0CE01CEDFCE01DF9121
:10085000CF910895EF92FF920F931F93CF93DF9361
:10086000EC017B018A01BA016DDF81110AC0CE0162
:10087000BBDFCE01DF91CF911F910F91FF90EF90E1
:1008800008951D830C83B70188819981E0D7F1CF4A
:10089000EF92FF920F931F93CF93DF93CDB7DEB705
:1008A00062970FB6F894DEBF0FBECDBF8C01CB01AF
:1008B000F8011182108213821282158214824AE09A
:1008C0009E012F5F3F4F7901B90173D5F701019068
:1008D0000020E9F73197AF014E195F09B701C80150
:1008E000B9DF62960FB6F894DEBF0FBECDBFDF91C1
:1008F000CF911F910F91FF90EF900895FB01DC01C4
:1009000011961C921E9213961C921E921297159687
:100910001C921E9214978617970741F0608171818F
:100920006115710519F04481558194CF0895FC013A
:10093000118210821382128215821482FB010190AF
:100940000020E9F73197AF01461B570B83CFFC011D
:1009500080819181009709F003C608951F920F923C
:100960000FB60F9211240BB60F922F933F934F9314
:100970005F936F937F938F939F93AF93BF93EF9307
:10098000FF938EE295E05FDDFF91EF91BF91AF9114
:100990009F918F917F916F915F914F913F912F9197
:1009A0000F900BBE0F900FBE0F901F9018951F92C7
:1009B0000F920FB60F9211240BB60F922F938F93B5
:1009C0009F93EF93FF93E0913E05F0913F05808167
:1009D000E0914405F091450582FD1DC09081809114
:1009E00047058F5F8F7320914805821741F0E09192
:1009F0004705F0E0E25DFA4F958F80934705FF9140
:100A0000EF919F918F912F910F900BBE0F900FBE82
:100A10000F901F9018958081F2CF1F920F920FB602
:100A20000F9211242F933F938F939F93AF93BF9374
:100A30008091260590912705A0912805B091290560
:100A40003091250523E0230F2D3758F50196A11D80
:100A5000B11D209325058093260590932705A0932B
:100A60002805B093290580912A0590912B05A09126
:100A70002C05B0912D050196A11DB11D80932A056D
:100A800090932B05A0932C05B0932D05BF91AF91AA
:100A90009F918F913F912F910F900FBE0F901F90BC
:100AA000189526E8230F0296A11DB11DD2CFCF9332
:100AB000DF93109231051092300588EE93E0A0E0AC
:100AC000B0E08093320590933305A0933405B09342
:100AD000350580E592E090932F0580932E0585ECF7
:100AE00090E090933B0580933A0584EC90E09093DE
:100AF0003D0580933C0580EC90E090933F0580930A
:100B00003E0581EC90E0909341058093400582EC96
:100B100090E0909343058093420586EC90E090939B
:100B200045058093440510924705109248051092A0
:100B3000490510924A0561E672E08BE896E0F7DE1F
:100B400060E772E081E996E0F2DE68E872E087E94A
:100B500096E0EDDE67E972E08DE996E0E8DE67EAAF
:100B600072E083EA96E0E3DE6AEB72E089EA96E0FF
:100B7000DEDE6FEC72E08FEA96E0D9DE65EE72E0C1
:100B800085EB96E0D4DE60E073E08BEB96E0CFDEA1
:100B900066E173E081EC96E0CADE67E273E087EC21
:100BA00096E0C5DE68E373E08DEC96E0C0DE60E5BC
:100BB00073E083ED96E0BBDE60E672E089ED96E0DF
:100BC000B6DED0E0C0E060E672E0CE018152994F1F
:100BD000AEDE2696CC36D105B1F769E573E08BE23F
:100BE00096E0A5DE6EE573E081E396E0A0DE60E6C8
:100BF00073E087E396E09BDE64E673E08DE396E0C6
:100C000096DE6BE673E083E496E091DE63E773E0E3
:100C100089E496E08CDE68E773E08FE496E087DE97
:100C200060E672E085E596E082DE60E672E08BE5E4
:100C300096E07DDE60E672E081E696E078DE60E6D2
:100C400072E087E696E073DE60E672E08DE696E09D
:100C50006EDE60E672E083E796E069DE60E672E0F1
:100C600089E796E064DE60E672E08FE796E05FDE9B
:100C700060E672E085E896E05ADE6CE773E08BECA4
:100C800095E055DE6CE773E081ED95E050DE68E9B4
:100C900073E087ED95E04BDE63EC73E08DED95E05E
:100CA00046DE6DEE73E083EE95E041DE64E174E0D4
:100CB00089EE95E03CDE6DE274E08FEE95E037DE84
:100CC00060E672E085EF95E032DE60E672E08BEF81
:100CD00095E02DDE60E672E081E096E028DE60E6D9
:100CE00072E087E096E023DE60E672E08DE096E059
:100CF0001EDE60E672E083E196E019DE60E672E0F7
:100D000089E196E014DE60E672E08FE196E00FDEA6
:100D100060E672E085E296E0DF91CF9108CECF9356
:100D2000DF93CDB7DEB7C854D1090FB6F894DEBF54
:100D30000FBECDBF789484B5826084BD84B58160D8
:100D400084BD85B5826085BD85B5816085BD809196
:100D50006E00816080936E0010928100809181000E
:100D60008260809381008091810081608093810006
:100D7000809180008160809380008091B1008460C8
:100D80008093B1008091B00081608093B000809129
:100D900091008260809391008091910081608093A6
:100DA0009100809190008160809390008091A100DB
:100DB00082608093A1008091A10081608093A10056
:100DC0008091A00081608093A000809121018260C9
:100DD0008093210180912101816080932101809184
:100DE000200181608093200180917A00846080934B
:100DF0007A0080917A00826080937A0080917A00F4
:100E0000816080937A0080917A00806880937A0074
:100E10001092C100E0913E05F0913F0582E0808391
:100E2000E0913A05F0913B051082E0913C05F0918C
:100E30003D0580E1808310924605E0914205F091E6
:100E4000430586E08083E0914005F0914105808173
:100E500080618083E0914005F09141058081886048
:100E60008083E0914005F091410580818068808316
:100E7000E0914005F091410580818F7D8083EBE614
:100E8000F1E02491E5E2F1E08491882399F090E08B
:100E9000880F991FFC01EC51FF4FA591B491FC0103
:100EA000E250FF4F859194918FB7F894EC91E22B2B
:100EB000EC938FBF81E0CCD93E0183E0680E711CBA
:100EC0008E01015E1F4FFBE0AF2EFBE0BF2E8EE2D6
:100ED00095E0A4DA892B09F4E0C18091050288230A
:100EE00019F085E494E0C1DB1A8219828CE1D30108
:100EF0001D928A95E9F7FE0131966F017F018EE21E
:100F000095E08CDA1816190664F48EE295E064DA3E
:100F1000D6018D936D0161E070E080E090E075DBBB
:100F2000EECF80910502882319F087E594E0A9DBD4
:100F3000809105028823A9F0B701C801F8DC6DE5AE
:100F400074E0CE01C196F3DCB801CE01C19671DC2C
:100F500065E674E05ADCA1DBCE01C196F8DCC8017D
:100F6000F6DCB701CE018D5B9F4FE1DC2996CEAC5C
:100F7000DFAC2997C114D10439F5198260E672E01B
:100F8000C801D5DC60E672E0CE018596D0DC60E673
:100F900072E0CE018B96CBDC4701D12CC12C76E0E0
:100FA000572E29962EAD3FAD2997C4018E199F0962
:100FB0008217930760F5F40181914F018032B9F4F3
:100FC000FFEFCF1ADF0AEDCFBDE1CB16D10418F049
:100FD000EDE1CE2ED12C25966EAD7FAD2597A601E5
:100FE000C7013CD4F701EC0DFD1D1082C7CF89ABC2
:100FF0001AAA5C9CC0015D9C900D112441E050E058
:10100000BE016F5C7F4F800F911FC3DBCACF809101
:101010000502882359F167E674E0CE01C19687DCAA
:10102000B801CE01C19605DC38DBCE01C1968FDC5C
:1010300063E774E0CE01C1967ADCBE016B5D7F4F41
:10104000CE01C196F6DB29DBCE01C19680DC6FE7CD
:1010500074E0CE01C1966BDCBE01655D7F4FCE01B1
:10106000C196E7DB1ADBCE01C19671DC63E773E062
:10107000C80126DB882359F081E0EAD88091050277
:10108000882309F4FEC083E793E0FBDAFAC068E73F
:1010900073E0C80115DB882351F080E0D9D8809136
:1010A0000502882309F4EDC088E793E0EECF69E5F7
:1010B00073E0C80105DB811159C083E00E351807C4
:1010C00009F454C060E673E0C801FADA81117CC00B
:1010D00064E673E0C801F4DA882309F407C12BE859
:1010E000E22E26E0F22E3CE0C32E32E0D32EAE14E8
:1010F000BF0409F4C6C029A53AA5D70114968D915D
:101100009C912817390759F5B701CE018596EDDA7C
:10111000892B29F5D601ED91FC91608170E0CE011B
:10112000C196B6DBB701CE01CD96E8DBBE01635CAC
:101130007F4FCE01C796E2DB69ED74E0CE01C79622
:1011400064DBBE016F5C7F4F74DBA7DACE01C7960C
:10115000FEDBCE01CD96FBDBCE01C196F8DBB6E01F
:10116000EB0EF11CE2E0CE0ED11CC1CF8091050246
:10117000882319F08BE894E084DAF12CE12CD70174
:10118000A55DB94F6D0160E672E0CD0199DA81117C
:1011900078C0B0E4EB16B2E0FB0609F472C0B60109
:1011A000CE01C196ABDB61EA74E0CE01C1962DDBC6
:1011B000B70165537A4F3DDB70DACE01C196C7DBCC
:1011C000E6E0EE0EF11CDBCFBE01655D7F4FCE0188
:1011D000C19694DBBE016B5D7F4FCE01C7968EDB5F
:1011E0006BE8C62E66E0D62EF12CE12C8BAC9CACC5
:1011F00065EA74E0CE01C19663DA582ED6011496E2
:101200008D919C918816990609F05FC0B601CE01B8
:10121000C7966BDA892B09F058C0511008C067EAED
:1012200074E0CE01C1964CDA882309F43DC0F70181
:10123000EE0FFF1FE45FFD4F0190F081E02D81E094
:101240008083CE01C79683DBCE01C19680DB80917F
:1012500005028823B1F062EC74E0CE01C19667DB31
:10126000BE016B5D7F4FCE01C196E3DA64ED74E0A1
:10127000CCDABE01655D7F4FDCDA0FDACE01C196B4
:1012800066DBCE018B9663DBCE01859660DBC80101
:101290005EDBCE018D5B9F4F5ADB6AE070E080E041
:1012A00090E0B3D95DD913CE6CEA74E0CE01C1965B
:1012B00007DA811111C06EEA74E0CE01C19600DA3E
:1012C00081110AC084EB94E0DCD9BFEFEB1AFB0A72
:1012D000E6E0CE0ED11C8ACFF701EE0FFF1FE45FD0
:1012E000FD4F0190F081E02D1082ABCF6BE673E0F3
:1012F000C801E6D9882309F439C08BE8E82E86E0D6
:10130000F82E9CE0C92E92E0D92E470160E672E0EB
:10131000C701D6D9F6E0EF0EF11C8111B2CFD6018C
:10132000ED91FD916D01608170E0CE01C196B0DA62
:10133000B401CE01CD96E2DABE01635C7F4FCE01EF
:10134000C796DCDA69ED74E0CE01C7965EDABE01BD
:101350006F5C7F4F6EDAA1D9CE01C796F8DACE0165
:10136000CD96F5DACE01C196F2DACFCF8DED94E0CD
:101370008CCECF93DF93CBE2D6E02697CE01E7DA8F
:1013800085E0CB3CD807C9F7CBE8D6E02697CE015D
:10139000DEDA86E0CB32D807C9F7CBE4D7E0269770
:1013A000CE01D5DA86E0CB38D807C9F7DF91CF91E7
:1013B0000895BB274A3031F4992322F4BDE2909579
:1013C00081959F4F01C0BB27FB015527AA27880F96
:1013D000991FAA1FA41710F0A41B83955051B9F7A9
:1013E000A05DAA3308F0A95DA193009779F7B11128
:1013F000B1931192CB0100C0DC01FC01672F719108
:101400007723E1F7329704C07C916D9370836291EA
:10141000AE17BF07C8F30895EE0FFF1F881F8BBFDD
:101420000790F691E02D19940F931F93CF93DF93BC
:101430008230910510F482E090E0E0914D07F09148
:101440004E0730E020E0B0E0A0E0309799F421159D
:10145000310509F44AC0281B390B24303105D8F571
:101460008A819B816115710589F1FB0193838283D8
:10147000FE0111C040815181028113814817590733
:10148000E0F04817590799F4109761F012960C9301
:10149000129713961C933296CF01DF91CF911F9133
:1014A0000F91089500934D0710934E07F4CF211527
:1014B000310551F04217530738F0A901DB019A01B9
:1014C000BD01DF01F801C1CFEF01F9CF90934E07C5
:1014D00080934D07CDCFFE01E20FF31F81939193CF
:1014E0002250310939832883D7CF20914B0730917F
:1014F0004C07232B41F420910802309109023093CC
:101500004C0720934B0720910602309107022115CA
:10151000310541F42DB73EB740910A0250910B02BC
:10152000241B350BE0914B07F0914C07E217F307B2
:10153000A0F42E1B3F0B2817390778F0AC014E5F43
:101540005F4F2417350748F04E0F5F1F50934C072D
:1015500040934B07819391939FCFF0E0E0E09CCFC5
:10156000CF93DF930097E9F0FC0132971382128248
:10157000A0914D07B0914E07ED0130E020E01097AB
:10158000A1F420813181820F931F20914B0730916C
:101590004C072817390709F061C0F0934C07E09316
:1015A0004B07DF91CF910895EA01CE17DF07E8F5E9
:1015B0004A815B819E0141155105B1F7E901FB8329
:1015C000EA8349915991C40FD51FEC17FD0761F4C7
:1015D000808191810296840F951FE9019983888308
:1015E000828193819B838A83F0E0E0E012968D9163
:1015F0009C9113970097B9F52D913C911197CD01CE
:101600000296820F931F20914B0730914C072817A9
:10161000390739F6309751F510924E0710924D0761
:10162000B0934C07A0934B07BCCFD383C2834081B8
:101630005181840F951FC817D90761F44E5F5F4F22
:1016400088819981480F591F518340838A819B81EA
:10165000938382832115310509F0B0CFF0934E07B3
:10166000E0934D079ECFFD01DC01C0CF13821282B3
:10167000D7CF4F925F926F927F928F929F92AF924D
:10168000BF92CF92DF92EF92FF920F931F93CF936F
:10169000DF938C01009791F4CB01DF91CF911F91E3
:1016A0000F91FF90EF90DF90CF90BF90AF909F9001
:1016B0008F907F906F905F904F90B6CEFC01E60FB9
:1016C000F71F9C0122503109E217F30708F4AAC062
:1016D000D901CD91DC911197C617D70718F1C53004
:1016E000D10570F0CE0104978617970748F0C61B06
:1016F000D70B2297C193D1936D937C93CF0130DFA9
:10170000C801DF91CF911F910F91FF90EF90DF9073
:10171000CF90BF90AF909F908F907F906F905F9091
:101720004F9008955B01AC1ABD0A4C018C0E9D1EB2
:10173000A0914D07B0914E07512C412CF12CE12C7A
:10174000109731F580914B0790914C0788159905BA
:1017500009F05CC04616570608F058C08091060292
:1017600090910702009741F48DB79EB740910A020D
:1017700050910B02841B950BE817F90708F052C033
:10178000F0934C07E0934B07F90171836083B8CF66
:101790008D919C91119712966C90129713967C9054
:1017A0001397A815B90559F56C0142E0C40ED11C78
:1017B000CA14DB0420F1AC014A195B09DA01129664
:1017C000159780F06282738251834083D9016D93B3
:1017D0007C93E114F10471F0D7011396FC93EE931E
:1017E00012978ECF22968C0F9D1FF90191838083D3
:1017F000F301EFCFF0934E07E0934D0781CF4816EA
:10180000590608F42C017D01D3019ACFCB010CDEDF
:101810007C01009739F0AE01B80107D0C801A0DE05
:1018200087016ECF10E000E06BCFFB01DC0102C04E
:1018300001900D9241505040D8F70895FB01DC0112
:101840008D91019080190110D9F3990B0895FB0136
:10185000DC0101900D920020E1F70895FB01DC010D
:101860004150504048F001900D920020C9F701C04E
:101870001D9241505040E0F7089510E0C6EFD0E0CF
:1018800000E005C0802FFE01C7DD2196011DC73F86
:0C189000D10780E00807B1F7F894FFCF03
:10189C0001010101010100004F0780000402030255
:1018AC0002020102240523052205210520051F053E
:1018BC001E050002050200000000000000000000F0
:1018CC00000000000000000000000000000000000C
:1018DC0000000000000000000000000000000000FC
:1018EC004502B001DD0191020E02EC0100020D0A6D
:1018FC00006E657874696F6E456E61626C6564002C
:10190C00636F6E746163746F72536166657469653D
:10191C0073416374697665006661756C74734F6EA0
:10192C0053657269616C00646562756767696E679F
:10193C0041637469766500646562756767696E6793
:10194C00484D49416374697665007363616E5469EF
:10195C006D654465627567456E61626C65640066B1
:10196C0061756C7473446562756767696E67416312
:10197C007469766500647269766553797374656D04
:10198C00446562756767696E674163746976650063
:10199C00616E616C6F67446562756767696E6741FC
:1019AC006374697665007370656564446562756718
:1019BC0041637469766500636C6F636B4465627533
:1019CC0067416374697665006D6F746F72436F6EF7
:1019DC0074726F6C4465627567456E61626C65000C
:1019EC00434C4944656275670068656C70003F0044
:1019FC007365740067657456616C006C697374561A
:101A0C00616C0048494748004C4F57006C6973742F
:101A1C0020616C6C20617661696C61626C6520631D
:101A2C006F6D6D616E64730064657369676E61746C
:101A3C006520612076616C756520746F2061207360
:101A4C00657474696E67206F722076617269616269
:101A5C006C6500646973706C6179207468652073BF
:101A6C007461747573206F6620612073706563698F
:101A7C00666963207661726961626C65006C69737A
:101A8C007420616C6C207661726961626C65732084
:101A9C00746861742063616E206265206368616E96
:101AAC0067656400536574204C45442D696E7465FC
:101ABC00726E616C20746F2068696768005365747E
:101ACC00204C45442D696E7465726E616C20746F88
:101ADC00206C6F770053657269616C206D65737350
:101AEC006167652E2E2E00446F6E652E004D736758
:101AFC00207761732027007465726D5B305D2069FF
:101B0C007320007465726D5B315D20697320007405
:101B1C0065726D5B325D20697320004C697374696A
:101B2C006E6720616C6C20636F6D6D616E64733ACF
:101B3C0000092D200031007472756500300066615B
:101B4C006C736500496E76616C69642076616C75A6
:101B5C0065005375636365737366756C6C7920737C
:101B6C006574200020746F2000203D2000556E729B
:101B7C0065636F676E697A656420636F6D6D616E06
:101B8C00642E2054797065202768656C7027206F4F
:101B9C007220273F2720666F722061206C69737456
:0E1BAC00206F6620636F6D6D616E64732E0096
:020000023000CC
:10E000000D9489F10D94B2F10D94B2F10D94B2F129
:10E010000D94B2F10D94B2F10D94B2F10D94B2F1F0
:10E020000D94B2F10D94B2F10D94B2F10D94B2F1E0
:10E030000D94B2F10D94B2F10D94B2F10D94B2F1D0
:10E040000D94B2F10D94B2F10D94B2F10D94B2F1C0
:10E050000D94B2F10D94B2F10D94B2F10D94B2F1B0
:10E060000D94B2F10D94B2F10D94B2F10D94B2F1A0
:10E070000D94B2F10D94B2F10D94B2F10D94B2F190
:10E080000D94B2F10D94B2F10D94B2F10D94B2F180
:10E090000D94B2F10D94B2F10D94B2F10D94B2F170
:10E0A0000D94B2F10D94B2F10D94B2F10D94B2F160
:10E0B0000D94B2F10D94B2F10D94B2F10D94B2F150
:10E0C0000D94B2F10D94B2F10D94B2F10D94B2F140
:10E0D0000D94B2F10D94B2F10D94B2F10D94B2F130
:10E0E0000D94B2F141546D656761323536300041AF
:10E0F000726475696E6F206578706C6F72657220DE
:10E1000073746B3530305632206279204D4C530099
:10E11000426F6F746C6F616465723E004875683F52
:10E1200000436F6D70696C6564206F6E203D200048
:10E130004350552054797065202020203D20005FF9
:10E140005F4156525F415243485F5F3D2000415658
:10E1500052204C696243205665723D20004743437C
:10E160002056657273696F6E203D20004350552024
:10E1700049442020202020203D20004C6F7720663D
:10E18000757365202020203D20004869676820665F
:10E190007573652020203D200045787420667573D6
:10E1A00065202020203D20004C6F636B2066757336
:10E1B000652020203D20004D617220203720323024
:10E1C000313300312E362E3800342E332E350056A2
:10E1D00023202020414444522020206F7020636F70
:10E1E00064652020202020696E73747275637469E1
:10E1F0006F6E2061646472202020496E74657272B3
:10E20000757074006E6F20766563746F7200726A49
:10E210006D702020006A6D70200057686174207056
:10E220006F72743A00506F7274206E6F7420737541
:10E2300070706F72746564004D7573742062652030
:10E2400061206C6574746572002000577269747483
:10E25000696E672045450052656164696E672045B7
:10E26000450045452065727220636E743D00504F35
:10E27000525400303D5A65726F2061646472003FF1
:10E280003D43505520737461747300403D454550C3
:10E29000524F4D207465737400423D426C696E6B41
:10E2A000204C454400453D44756D70204545505215
:10E2B0004F4D00463D44756D7020464C415348001B
:10E2C000483D48656C70004C3D4C69737420492F83
:10E2D0004F20506F72747300513D51756974005234
:10E2E0003D44756D702052414D00563D73686F7707
:10E2F00020696E7465727275707420566563746FF0
:10E30000727300593D506F727420626C696E6B00BD
:10E310002A0011241FBECFEFD1E2DEBFCDBF01E046
:10E320000CBF12E0A0E0B2E0EEE1FDEF03E00BBFB6
:10E3300002C007900D92A030B107D9F712E0A0E01B
:10E34000B2E001C01D92AE30B107E1F70F9460F367
:10E350000D948DFE01E20EBF0FEF0DBF11241FBE05
:10E360000D9460F30D9400F020E030E040ED57E0B4
:10E3700005C0FA013197F1F72F5F3F4F2817390792
:10E38000C0F308959C01260F311DC901A0E0B0E043
:10E390002F5F3F4FABBFFC018791882361F08093D3
:10E3A000C6008091C00086FFFCCF8091C0008064D1
:10E3B0008093C000EACF08958DE08093C6008091DD
:10E3C000C00086FFFCCF8091C00080648093C000B5
:10E3D0008AE08093C6008091C00086FFFCCF8091C8
:10E3E000C00080648093C00008950F94C2F10F9420
:10E3F000DCF10895FC019081992359F09093C600B7
:10E400008091C00086FFFCCF8091C0008064809323
:10E41000C0003196992379F70895282F982F929567
:10E420009F70892F805D8A3308F0895F8093C600D2
:10E430008091C00086FFFCCF8091C00080648093F3
:10E44000C000822F8F70982F905D9A3308F0995FEB
:10E450009093C6008091C00086FFFCCF8091C000E1
:10E4600080648093C00008959C01FB01853691056E
:10E470001CF46330710594F0C90164E670E00F94F8
:10E480002EFE605D7F4F6093C6008091C00086FFC6
:10E49000FCCF8091C00080648093C0002B30310598
:10E4A00014F43297B4F0C90164E670E00F942EFEC4
:10E4B0006AE070E00F942EFE605D7F4F6093C600AF
:10E4C0008091C00086FFFCCF8091C0008064809363
:10E4D000C000C9016AE070E00F942EFEC0968093E0
:10E4E000C6008091C00086FFFCCF8091C000806490
:10E4F0008093C00008951F93182F8EE692EE60E07F
:10E500000F94C2F11093C6008091C00086FFFCCF2B
:10E510008091C00080648093C0000F94DCF11F9153
:10E5200008952F923F924F925F926F927F928F92B7
:10E530009F92AF92BF92CF92DF92EF92FF920F9392
:10E540001F93DF93CF93CDB7DEB762970FB6F894E2
:10E55000DEBF0FBECDBF382E622ECA01DB015C01CB
:10E560006D01772420E2222E2E010894411C511CBB
:10E570008BC081E0A81680E0B80681E0C80680E084
:10E58000D80628F0C601AA27BB270F940DF2BB2797
:10E59000AD2D9C2D8B2D0F940DF28A2D0F940DF225
:10E5A0002092C6008091C00086FFFCCF8091C00001
:10E5B00080648093C0009DE29093C6008091C0006B
:10E5C00086FFFCCF8091C00080648093C0002092C1
:10E5D000C6008091C00086FFFCCF8091C00080649F
:10E5E0008093C00019828601750188249924A1E0D6
:10E5F0003A1651F03A1620F0B2E03B1661F409C029
:10E600000BBFF701779007C0C7010F9477FE782EF4
:10E6100002C0F7017080872D0F940DF22092C60082
:10E620008091C00086FFFCCF8091C0008064809301
:10E63000C000872D8052F401EF70F0708F3520F408
:10E64000E40DF51D708204C0E40DF51D8EE280839B
:10E650000894E11CF11C011D111D0894811C911CE2
:10E6600090E18916910409F0C2CF80E190E0A0E02A
:10E67000B0E0A80EB91ECA1EDB1E198AC2010F9493
:10E68000FAF10F94DCF16A94662009F072CF629679
:10E690000FB6F894DEBF0FBECDBFCF91DF911F91B3
:10E6A0000F91FF90EF90DF90CF90BF90AF909F9031
:10E6B0008F907F906F905F904F903F902F90089534
:10E6C0002F923F924F925F926F927F928F929F9282
:10E6D000AF92BF92CF92DF92EF92FF920F931F9370
:10E6E000DF93CF93CDB7DEB7CD53D1400FB6F894BB
:10E6F000DEBF0FBECDBF01E20EBF0FEF0DBF94B75F
:10E70000F894A89514BE80916000886180936000A1
:10E7100010926000789493FF05C0E0910002F091A0
:10E7200001021995279A2F9A8091C00082608093E8
:10E73000C00080E18093C40088E18093C1000000A4
:10E74000EE24FF24870144E0A42EB12CCC24DD2448
:10E7500024C0C5010197F1F70894E11CF11C011DCB
:10E76000111D21E2E2162EE4F20620E0020720E06D
:10E77000120718F031E0C32ED12CC801B70127ECE5
:10E780003BE140E050E00F9441FE611571058105C9
:10E79000910519F485B1805885B98091C00087FD35
:10E7A00003C0C114D104A9F2A6014F5F5F4FC25E3E
:10E7B000DE4F59834883CE51D140C25EDE4F8881FF
:10E7C0009981CE51D140019711F00D9410FEC05D9A
:10E7D000DE4F19821882C053D14060E0C15DDE4F28
:10E7E0001882CF52D14088249924C35DDE4F19820C
:10E7F0001882CD52D140C05EDE4F188219821A8233
:10E800001B82C052D140CE5CDE4F188219821A8220
:10E810001B82C253D140EE24FF2487010BBFF701B6
:10E8200007911691C45CDE4F19830883CC53D14005
:10E830000D940BFEC25EDE4F28813981CE51D1404E
:10E840002130310509F52091C600C25EDE4F1982E4
:10E850001882CE51D14022C02F5F3F4F4F4F5F4FA4
:10E86000213082E138078AE7480780E0580780F0C6
:10E87000C45CDE4FE881F981CC53D140EF5FFF4F9C
:10E8800019F0EE27FF27099420E030E040E050E047
:10E890008091C00087FFE0CF2091C600C35DDE4FAE
:10E8A00048815981CD52D1404F5F5F4FC35DDE4FEC
:10E8B00059834883CD52D140213209F063C64A3092
:10E8C000510508F05FC60894811C911C53E0851621
:10E8D000910409F059C600E010E018C081E280936D
:10E8E000C6008091C00086FFFCCF8091C00080648C
:10E8F0008093C0002F5F3F4F2931310579F70F9486
:10E90000DCF10F5F1F4F0530110519F020E030E0FA
:10E91000E5CF10920A0210920B0210920C02109294
:10E920000D02109206021092070210920802109235
:10E930000902109202021092030210920402109235
:10E9400005028FEE90EE60E00F94F5F180E191EE1C
:10E9500060E00F94C2F18091C00087FFFCCF9091DE
:10E96000C600903608F09F759032B8F09093C600BC
:10E970008091C00086FFFCCF8091C00080648093AE
:10E98000C000A0E2A093C6008091C00086FFFCCF2B
:10E990008091C00080648093C000983409F4D7C18E
:10E9A0009934B8F4923409F459C1933458F490333B
:10E9B00019F1903308F4E3C59F33A1F1903409F0C5
:10E9C000DEC5BDC0953409F470C1963409F0D7C5D1
:10E9D00098C1923509F42BC2933538F49C3409F46C
:10E9E000F5C1913509F0CBC518C2963509F445C279
:10E9F000993509F0C4C567C483E792EE62E00F94CD
:10EA0000F5F110920602109207021092080210927D
:10EA1000090210920A0210920B0210920C0210923C
:10EA20000D0213C18FE792EE62E00F94F5F18FEEC5
:10EA300090EE60E00F94F5F181E291EE60E00F94CA
:10EA4000C2F187EB91EE60E00F94F5F180E391EE77
:10EA500060E00F94C2F184EE90EE60E00F94F5F167
:10EA60008FE391EE60E00F94C2F186E090E061E008
:10EA700070E00F9434F20F94DCF18DE591EE60E0DC
:10EA80000F94C2F189EC91EE60E00F94F5F18EE401
:10EA900091EE60E00F94C2F183EC91EE60E00F9490
:10EAA000F5F18CE691EE60E00F94C2F18EE10F94E7
:10EAB0000DF288E90F940DF281E00F940DF20F949E
:10EAC000DCF18BE791EE60E00F94C2F119E0E0E039
:10EAD000F0E010935700E4918E2F0F940DF20F94F5
:10EAE000DCF18AE891EE60E00F94C2F1E3E0F0E03F
:10EAF00010935700E4918E2F0F940DF20F94DCF1D8
:10EB000089E991EE60E00F94C2F1E2E0F0E0109349
:10EB10005700E4918E2F0F940DF20F94DCF188EAE8
:10EB200091EE60E00F94C2F1E1E0F0E01093570045
:10EB30001491812F0F940DF20F94DCF107CF8BE825
:10EB400092EE62E00F94F5F18BE492EE60E00F94A8
:10EB5000F5F10F94DCF100E010E019C0C8016F2D51
:10EB60000F947FFEFF2031F489E492EE60E00F9471
:10EB7000C2F10BC0F092C6008091C00086FFFCCFAE
:10EB80008091C00080648093C0000F5F1F4FC80158
:10EB900081519F41A0E0B0E0ABBFFC01F790BAE229
:10EBA000FB1621F0E2E000301E07C1F60F94DCF105
:10EBB0000F94DCF187E592EE60E00F94F5F10F948D
:10EBC000DCF1CC24DD2400E010E01EC0C8010F946D
:10EBD00077FEF82E882331F489E492EE60E00F94FA
:10EBE000C2F10BC08093C6008091C00086FFFCCFAD
:10EBF0008091C00080648093C000FE1419F00894D6
:10EC0000C11CD11C0F5F1F4FC80181519F41A0E063
:10EC1000B0E0ABBFFC01E790FAE2EF1621F022E092
:10EC20000030120799F60F94DCF10F94DCF182E6C4
:10EC300092EE60E00F94C2F1C60161E070E00F94C3
:10EC400034F20F94DCF10F94DCF110920202109276
:10EC50000302109204021092050278CE89E992EE26
:10EC600062E00F94F5F1279A2F9A16C02F9880E052
:10EC700090E0E0EDF7E03197F1F7019684369105E9
:10EC8000C1F72F9A80E090E0E0EDF7E03197F1F7DF
:10EC9000019684369105C1F78091C00087FFE6CFC9
:10ECA0008091C00087FFFCCF64C485EA92EE62E0E9
:10ECB0000F94F5F140910202509103026091040219
:10ECC0007091050281E020E10F9491F2809102029F
:10ECD00090910302A0910402B091050280509F4FD1
:10ECE000AF4FBF4F8093020290930302A0930402A0
:10ECF000B093050280509041A040B04008F426CE69
:10ED0000A4CF83EB92EE62E00F94F5F140910602FE
:10ED100050910702609108027091090280E020E1A1
:10ED20000F9491F28091060290910702A09108023F
:10ED3000B091090280509F4FAF4FBF4F80930602A2
:10ED400090930702A0930802B0930902FFCD80ECD4
:10ED500092EE62E00F94F5F183E792EE60E00F949B
:10ED6000F5F18FE792EE60E00F94F5F18BE892EE0B
:10ED700060E00F94F5F189E992EE60E00F94F5F10F
:10ED800085EA92EE60E00F94F5F183EB92EE60E09D
:10ED90000F94F5F180EC92EE60E00F94F5F187ECC2
:10EDA00092EE60E00F94F5F188ED92EE60E00F9442
:10EDB000F5F18FED92EE60E00F94F5F18AEE92EEB0
:10EDC00060E00F94F5F183E093EEBDCD87EC92EE19
:10EDD00062E00F94F5F181E40F947BF282E40F94EA
:10EDE0007BF283E40F947BF284E40F947BF285E45E
:10EDF0000F947BF286E40F947BF287E40F947BF20E
:10EE000088E40F947BF28AE40F947BF28BE40F94F6
:10EE10007BF28CE40F947BF299CD88ED92EE62E068
:10EE20000F94F5F1772473948824992409C48FED05
:10EE300092EE62E00F94F5F140910A0250910B02BC
:10EE400060910C0270910D0282E020E10F9491F22A
:10EE500080910A0290910B02A0910C02B0910D02D8
:10EE600080509F4FAF4FBF4F80930A0290930B0289
:10EE7000A0930C02B0930D0269CD8AEE92EE62E08F
:10EE80000F94F5F184EE90EE60E00F94F5F18FECC5
:10EE900091EE60E00F94F5F1662477244301CC5D98
:10EEA000DE4F19821882C452D140D401C301B695F5
:10EEB000A79597958795CA5DDE4F88839983AA8326
:10EEC000BB83C652D140CC5DDE4FA881B981C4520C
:10EED000D1401196CC5DDE4FB983A883C452D14096
:10EEE000CD0162E070E00F9434F2B0E2B093C6005E
:10EEF0008091C00086FFFCCF8091C0008064809329
:10EF0000C000EDE2E093C6008091C00086FFFCCF18
:10EF10008091C00080648093C000F0E2F093C6004E
:10EF20008091C00086FFFCCF8091C00080648093F8
:10EF3000C000CA5DDE4FE880F9800A811B81C6529D
:10EF4000D140BB27A12F902F8F2D0F940DF2CA5DBA
:10EF5000DE4F8881C652D1400F940DF2B0E2FB2EF5
:10EF6000F092C6008091C00086FFFCCF8091C00067
:10EF700080648093C0000DE30093C6008091C000C0
:10EF800086FFFCCF8091C00080648093C00010E2B7
:10EF90001093C6008091C00086FFFCCF8091C00016
:10EFA00080648093C0008BBEF3012791C65DDE4F65
:10EFB0002883CA52D140A22EBB24CC24DD2408943D
:10EFC000611C711C811C911C8BBEF3018791282E42
:10EFD0003324442455240894611C711C811C911C09
:10EFE0008BBEF3013791C55DDE4F3883CB52D140E4
:10EFF0000894611C711C811C911C8BBEF30147910C
:10F00000C45DDE4F4883CC52D140ADEFEA2EAFEF66
:10F01000FA2EAFEF0A2FAFEF1A2F6E0C7F1C801E57
:10F02000911E142D032DF22CEE24EA0CFB1C0C1D5A
:10F030001D1D0F940DF220E22093C6008091C000A8
:10F0400086FFFCCF8091C00080648093C000C65DC5
:10F05000DE4F8881CA52D1400F940DF230E23093D6
:10F06000C6008091C00086FFFCCF8091C000806404
:10F070008093C000C45DDE4F8881CC52D1400F9494
:10F080000DF240E24093C6008091C00086FFFCCFA5
:10F090008091C00080648093C000C55DDE4F888190
:10F0A000CB52D1400F940DF250E25093C6008091A4
:10F0B000C00086FFFCCF8091C00080648093C000B8
:10F0C0008FEFE8168FEFF80680E0080780E018075A
:10F0D00031F484E092EE60E00F94C2F1DFC0D80119
:10F0E000C7018070907CA070B0708050904CA040A0
:10F0F000B040D1F52FEF3FE340E050E0E222F322B1
:10F1000004231523CA5DDE4FA880B980CA80DB8046
:10F11000C652D140AE0CBF1CC01ED11EAA0CBB1CD7
:10F12000CC1CDD1C8EE092EE60E00F94C2F1BB2798
:10F13000A12F902F8F2D0F940DF28E2D0F940DF285
:10F1400030E23093C6008091C00086FFFCCF8091F2
:10F15000C00080648093C0004EE34093C60080915D
:10F16000C00086FFFCCF87C08EE09EEFA0E0B0E03D
:10F17000E822F9220A231B239CE0E91694E9F90608
:10F1800090E0090790E0190709F088C0C45DDE4FE0
:10F19000A881CC52D140EA2EFF2400E010E0102FCD
:10F1A0000F2DFE2CEE24C55DDE4FB881CB52D14031
:10F1B000EB0EF11C011D111DD601C501817090706F
:10F1C000A070B070DC0199278827E80EF91E0A1F8D
:10F1D0001B1F20EF30E040E050E0A222B322C42207
:10F1E000D52241E1AA0CBB1CCC1CDD1C4A95D1F7F1
:10F1F000EA0CFB1C0C1D1D1D81E090E0A0E0B0E0BE
:10F20000282239224A225B2235E1220C331C441C7D
:10F21000551C3A95D1F7E20CF31C041D151D57013E
:10F220006801AA0CBB1CCC1CDD1C85E192EE60E0E1
:10F230000F94C2F1C801AA27BB270F940DF2BB2778
:10F24000A12F902F8F2D0F940DF28E2D0F940DF274
:10F2500090E29093C6008091C00086FFFCCF809121
:10F26000C00080648093C000AEE3A093C60080918C
:10F27000C00086FFFCCF8091C00080648093C000F6
:10F28000C601AA27BB270F940DF2BB27AD2D9C2DDD
:10F290008B2D0F940DF28A2D0F940DF20F94DCF14B
:10F2A000CC5DDE4FE881F981C452D140F99709F471
:10F2B0004DCBF4E0EF2EF12C012D112D6E0C7F1CA7
:10F2C000801E911EF2CD83E093EE62E00F94F5F183
:10F2D0008AE192EE60E00F94C2F18091C00087FF56
:10F2E000FCCF1091C6001F751093C6008091C0001E
:10F2F00086FFFCCF8091C00080648093C0000F9493
:10F30000DCF1812F81548A3108F036C1163409F4BA
:10F3100095C0173490F4133409F44EC0143430F40B
:10F320001134F1F0123409F01DC130C0143409F465
:10F3300059C0153409F016C16BC01A3409F4C4C0A1
:10F340001B3438F4173409F48FC0183409F00AC19B
:10F35000A1C01B3409F4D2C01C3409F003C1E8C0B9
:10F360008FEF81B90DC082B1809582B980E090E0C5
:10F37000E0EDF7E03197F1F70196883C9105C1F790
:10F380008091C00087FFEFCF12B8EFC08FEF84B934
:10F390000DC085B1809585B980E090E0E0EDF7E0A3
:10F3A0003197F1F70196883C9105C1F78091C00033
:10F3B00087FFEFCF15B8D9C08FEF87B90DC088B1DF
:10F3C000809588B980E090E0E0EDF7E03197F1F7C3
:10F3D0000196883C9105C1F78091C00087FFEFCF6F
:10F3E00018B8C3C08FEF8AB90DC08BB180958BB9A7
:10F3F00080E090E0E0EDF7E03197F1F70196883C8E
:10F400009105C1F78091C00087FFEFCF1BB8ADC059
:10F410008FEF8DB90DC08EB180958EB980E090E0F0
:10F42000E0EDF7E03197F1F70196883C9105C1F7DF
:10F430008091C00087FFEFCF1EB897C08FEF80BBD1
:10F440000DC081B3809581BB80E090E0E0EDF7E0F6
:10F450003197F1F70196883C9105C1F78091C00082
:10F4600087FFEFCF11BA81C08FEF83BB0DC084B38C
:10F47000809584BB80E090E0E0EDF7E03197F1F714
:10F480000196883C9105C1F78091C00087FFEFCFBE
:10F4900014BA6BC08FEF809301010FC080910201FD
:10F4A00080958093020180E090E0E0EDF7E03197F5
:10F4B000F1F70196883C9105C1F78091C00087FF64
:10F4C000EDCF1092020151C08FEF809304010FC065
:10F4D0008091050180958093050180E090E0E0ED4A
:10F4E000F7E03197F1F70196883C9105C1F78091DB
:10F4F000C00087FFEDCF1092050137C08FEF8093DA
:10F5000007010FC08091080180958093080180E079
:10F5100090E0E0EDF7E03197F1F70196883C910536
:10F52000C1F78091C00087FFEDCF109208011DC088
:10F530008FEF80930A010FC080910B01809580931B
:10F540000B0180E090E0E0EDF7E03197F1F70196F4
:10F55000883C9105C1F78091C00087FFEDCF1092E4
:10F560000B0103C085E292EEEEC98091C00087FFD7
:10F57000FCCF8091C600EAC988E392EEE4C98CE131
:10F5800091EEE1C988249924933011F1943028F444
:10F59000913089F09230B8F408C0953061F195301F
:10F5A000F0F0963009F048C043C02B3109F042C951
:10F5B00091E06BE13FC96227C15DDE4F2883CF52E6
:10F5C000D14092E037C9B22FA0E0622793E032C960
:10F5D000822F90E0A82BB92B622794E02BC92E3004
:10F5E00009F039C3622795E0C05DDE4F19821882A9
:10F5F000C053D1401FC9E1E0F0E0EC0FFD1FC05D3A
:10F60000DE4F08811981C053D140E00FF11F2083E4
:10F610000F5F1F4FC05DDE4F19830883C053D14079
:10F6200062270A171B0709F005C9D80196E002C92D
:10F63000261709F010C303C0973009F0FBC87724E0
:10F640009981933109F412C19431C8F4963009F4C8
:10F65000D8C0973050F4923009F406C1933009F4C1
:10F660006DC0913009F059C253C0913109F477C08F
:10F67000923108F0BBC0903109F04FC2F5C098310B
:10F6800009F487C0993150F4953109F4EFC09531F0
:10F6900008F4C6C1963109F040C2C2C19A3109F4DA
:10F6A0006CC09A3108F491C09B3109F45BC09D3164
:10F6B00009F033C29D81903359F48F81882311F46E
:10F6C0009EE11CC0813011F091E018C098E916C08D
:10F6D000892F807591F0903539F4E0E0F0E089E011
:10F6E0008093570094910AC0983539F4E3E0F0E034
:10F6F00089E080935700949101C090E01A821B82A8
:10F700008D818C831D829E831F8227E030E009C299
:10F710001A8288E08B8381E48C8386E58D8382E581
:10F720008E8389E48F8383E5888780E589878FE5E9
:10F730008A8782E38B872BE030E0F3C18A818139AD
:10F7400041F0823941F0803911F48FE005C080E04A
:10F7500003C082E001C08AE01A828B8344C0772410
:10F76000739482C08D81882311F48EE12CC0813086
:10F7700011F081E028C088E926C01A82E1E0F0E0BB
:10F7800089E08093570084918B831C8224E030E0D1
:10F79000C8C18B81803589F48C81883039F4E2E0EE
:10F7A000F0E089E08093570084910DC0E0E0F0E044
:10F7B00089E080935700849106C0E3E0F0E089E09F
:10F7C0008093570084911A82DFCF8D81836C99E0FA
:10F7D000E1E0F0E0082E90935700E89507B600FCB2
:10F7E000FDCF1A821B8223E030E09BC180EC8A832C
:10F7F000CE5CDE4F188219821A821B82C253D1401E
:10F800008EC18A8190E0A0E0B0E0582F44273327D2
:10F8100022278B8190E0A0E0B0E0DC0199278827C7
:10F82000282B392B4A2B5B2B8D8190E0A0E0B0E098
:10F83000282B392B4A2B5B2B8C8190E0A0E0B0E089
:10F84000BA2FA92F982F8827282B392B4A2B5B2BCF
:10F85000220F331F441F551FC05EDE4F288339839C
:10F860004A835B83C052D1401A8259C13A81C95C34
:10F87000DE4F3883C753D140CA5CDE4F1882C6536F
:10F88000D1408B81C82EDD24CA5CDE4F488159816E
:10F89000C653D140C42AD52A933109F082C0CE5C28
:10F8A000DE4F88819981AA81BB81C253D1408050AB
:10F8B000904CA340B04030F583E0CE5CDE4FE88052
:10F8C000F9800A811B81C253D140F70100935B008C
:10F8D00080935700E89507B600FCFDCFCE5CDE4F65
:10F8E000088119812A813B81C253D14000501F4FAA
:10F8F0002F4F3F4FCE5CDE4F088319832A833B8313
:10F90000C253D140C05EDE4F488159816A817B81FC
:10F91000C052D140DE011B9631E08C9111962C91A2
:10F9200011971296C75CDE4F2883C953D140C85C3B
:10F93000DE4F1882C853D14090E0C85CDE4FE881AA
:10F94000F981C853D1408E2B9F2B0C01FA01609393
:10F950005B0030935700E89511244E5F5F4F6F4F67
:10F960007F4F0EEFE02E0FEFF02ECE0CDF1CC114F8
:10F97000D10499F685E0C05EDE4F088119812A81A5
:10F980003B81C052D140F80120935B008093570027
:10F99000E89507B600FCFDCF81E180935700E8951C
:10F9A00035C0C05EDE4F88819981AA81BB81C0527B
:10F9B000D140B695A795979587957C018601ABE0D8
:10F9C000AA2EB12CAC0EBD1E0BC0D5016D915D01F0
:10F9D000C7010F947FFE0894E11CF11C01501040F8
:10F9E0000115110591F7A60160E070E0440F551F65
:10F9F000661F771FC05EDE4FE880F9800A811B8199
:10FA0000C052D1404E0D5F1D601F711F1A82C05E33
:10FA1000DE4F488359836A837B83C052D1407FC0C5
:10FA2000FA80C55CDE4FF882CB53D140C65CDE4F16
:10FA30001882CA53D1408B81C82EDD24C65CDE4FAC
:10FA400008811981CA53D140C02AD12A1A828981DA
:10FA5000BE016D5F7F4F843121F59601C05EDE4FA0
:10FA6000E880F9800A811B81C052D1400BBFF701A9
:10FA700087919691DB018C9311969C936E5F7F4FDB
:10FA8000D801C7010296A11DB11DC05EDE4F88835B
:10FA90009983AA83BB83C052D14022503040F1F6F3
:10FAA00036C0C05EDE4F288139814A815B81C052F9
:10FAB000D1400894C108D108760100E010E0089414
:10FAC000C11CD11C0894E11CF11C011D111DE20E8A
:10FAD000F31E041F151F21BDBB27A52F942F832FB5
:10FAE00082BD2F5F3F4F4F4F5F4FF89A80B5DB01CC
:10FAF0008D93BD012E153F054007510761F7C05E8C
:10FB0000DE4F288339834A835B83C052D1409601FC
:10FB10002D5F3F4FFB01108204C080EC8A8322E0FE
:10FB200030E08BE18093C6008091C00086FFFCCF5F
:10FB30008091C00080648093C000C15DDE4FF88179
:10FB4000CF52D140F093C6008091C00086FFFCCF19
:10FB50008091C00080648093C000432F3093C60022
:10FB60008091C00086FFFCCF8091C00080648093AC
:10FB7000C000922F2093C6008091C00086FFFCCF6A
:10FB80008091C00080648093C0008EE08093C600A6
:10FB90008091C00086FFFCCF8091C000806480937C
:10FBA000C00065E1C15DDE4FE880CF52D1406E25D7
:10FBB00069276427FE01319610C090819093C6009A
:10FBC0008091C00086FFFCCF31968091C000806498
:10FBD0008093C0006927215030402115310569F715
:10FBE0006093C6008091C00086FFFCCF8091C0006A
:10FBF00080648093C00085B1805885B9772081F4F6
:10FC0000C15DDE4F0881CF52D1400F5FC15DDE4F35
:10FC10000883CF52D14090E0A0E0B0E00D941AF4F8
:10FC200027982F9880E090E020ED37E0F901319798
:10FC3000F1F7019684369105C9F700008091C00064
:10FC40008D7F8093C00081E180935700E895EE2777
:10FC5000FF270994FFCF90E00D941AF497FB092E2B
:10FC600007260AD077FD04D02ED006D000201AF443
:10FC7000709561957F4F0895F6F7909581959F4F08
:10FC80000895A1E21A2EAA1BBB1BFD010DC0AA1FDD
:10FC9000BB1FEE1FFF1FA217B307E407F50720F0F5
:10FCA000A21BB30BE40BF50B661F771F881F991F70
:10FCB0001A9469F760957095809590959B01AC01B9
:10FCC000BD01CF010895AA1BBB1B51E107C0AA1FAC
:10FCD000BB1FA617B70710F0A61BB70B881F991FED
:10FCE0005A95A9F780959095BC01CD010895F99991
:10FCF000FECF92BD81BDF89A992780B50895262F31
:10FD0000F999FECF1FBA92BD81BD20BD0FB6F89400
:0EFD1000FA9AF99A0FBE01960895F894FFCF63
:040000033000E000E9
:00000001FF