:10000000E8C0000014C1000012C1000010C10000CF
:100010000EC100000CC100000AC1000008C10000B0
:1000200006C1000004C1000002C1000000C10000C0
:10003000FEC00000FCC00000FAC00000F8C00000D4
:10004000F6C00000F4C00000F2C00000F0C00000E4
:10005000EEC00000ECC00000EAC00000BEC400001A
:10006000E6C0000084C4000059C40000E0C00000E5
:10007000DEC00000DCC00000DAC00000D8C0000014
:10008000D6C00000D4C00000D2C00000D0C0000024
:10009000CEC00000CCC00000CAC00000E8C4000010
:1000A000C6C00000C4C00000C2C00000C0C0000044
:1000B000BEC00000BCC00000BAC00000B8C0000054
:1000C000B6C00000B4C00000B2C00000B0C0000064
:1000D000AEC00000ACC00000AAC00000A8C0000074
:1000E000A6C0000000002200250028002B002E00E2
:1000F0003100340002010000050108010B01050573
:100100000505070508080808020202020A0A08088D
:1001100004040404010101010101010103030303BB
:1001200003030303040707070C0C0C0C0C0C0C0C4A
:100130000202020206060606060606060B0B0B0B5B
:100140000B0B0B0B01021020200808102040102080
:10015000408002010201080402010102040810208B
:100160004080804020100804020180040201804089
:1001700020100804020108040201010204081020F2
:100180004080010204081020408000000A0B020990
:100190000C0D0E0807030401000000000000000021
:1001A000000000000000000000000000000000004F
:1001B000000000000000121110000000000000000C
:1001C000000000000000000000000000000000002F
:1001D0005A0611241FBECFEFD1E2DEBFCDBF00E033
:1001E0000CBF23E0A6E3B2E001C01D92A23EB2071D
:1001F000E1F712E0A0E0B2E0EEE8F0E100E00BBFD2
:1002000002C007900D92A633B107D9F710E0C9EEEE
:10021000D0E000E005C021970109802FFE012DD715
:10022000C83ED10780E00807B1F78FD52EC7E8CECA
:100230002091F20281E0213208F044C08091CE0288
:100240008111FCCF8091F10292E09093CE0291E077
:100250009093CD029FEF9093CC021092CB0220930B
:10026000CA02A1EDB2E0EAEAF2E090E0291331C05F
:100270001092A9029091A902880F892B8093A9025C
:100280008091A802813049F51092A8028091A902BC
:100290008093BB008091BC0083FDF8CF85EC8093F8
:1002A000BC008091CE028230E1F38091CC028F3F7E
:1002B000B1F08091CC028032A1F08091CC028033E9
:1002C00091F084E01092D0021092F2021092CF02CC
:1002D00008953D9131939F5FC9CF85EEE0CF80E0D7
:1002E000F1CF82E0EFCF83E0EDCF91E09093CF02AA
:1002F0008093F1021092D0021092F2020895282FFA
:1003000030E0F901E657FE4F9491F901EC5BFE4FA6
:10031000449122503F4FF9012491222309F431C026
:10032000992309F191509231F0F4E92FF0E08827F8
:10033000E456FE4F8F4FA1C6CA01CE01AE01C201E5
:10034000C601B301D101D701DB01E101E501E901FA
:10035000EF01F301B301F701FD010102809180007B
:100360008F7780938000E22FF0E0EE0FFF1FEC51BB
:10037000FF4FA591B4918FB7F894EC914E2B4C930D
:100380008FBF0895809180008F7DEBCF809180009A
:10039000877FE7CF84B58F7784BDE5CF84B58F7D28
:1003A000FBCF8091B0008F778093B000DCCF80913D
:1003B000B0008F7DF9CF809190008F77809390006F
:1003C000D2CF809190008F7DF9CF80919000877F70
:1003D000F5CF8091A0008F778093A000C4CF80914B
:1003E000A0008F7DF9CF8091A000877FF5CF80910D
:1003F00020018F7780932001B6CF809120018F7DDF
:10040000F9CF80912001877FF5CFCF92DF92EF92D5
:10041000FF920F931F932FB7F894C0908202D09051
:100420008302E0908402F09085022FBF6C0D7D1D49
:100430008E1D9F1D4FB7F894009182021091830288
:1004400020918402309185024FBF0C151D052E05A9
:100450003F0528F0601771078207930758F71F912F
:100460000F91FF90EF90DF90CF900895AF92BF92E1
:10047000CF92DF92EF92FF920F931F93CF93DF9370
:100480006C017B018B01040F151FEB015E01AE189F
:10049000BF08C017D10759F06991D601ED91FC91C1
:1004A0000190F081E02DC6011995892B79F7C501DE
:1004B000DF91CF911F910F91FF90EF90DF90CF9040
:1004C000BF90AF900895089508950895FC01538D4D
:1004D000448D252F30E0842F90E0821B930B54171E
:1004E00010F0CF96089501970895FC01918D828DAB
:1004F000981761F0A28DAE0FBF2FB11D5D968C9144
:10050000928D9F5F9F73928F90E008958FEF9FEF82
:100510000895FC01918D828D981731F0828DE80F3E
:10052000F11D858D90E008958FEF9FEF0895FC01F8
:10053000918D228D892F90E0805C9F4F821B9109C5
:100540008F739927089583EF92E0F1DF21E0892BE3
:1005500009F420E0822F0895FC01A48DA80FB92F83
:10056000B11DA35ABF4F2C91848D90E001968F73DB
:100570009927848FA689B7892C93A089B1898C91FA
:10058000837080648C93938D848D981306C0028849
:10059000F389E02D80818F7D80830895EF92FF9213
:1005A0000F931F93CF93DF93EC0181E0888F9B8D96
:1005B0008C8D98131AC0E889F989808185FF15C050
:1005C0009FB7F894EE89FF896083E889F989808173
:1005D0008370806480839FBF81E090E0DF91CF9142
:1005E0001F910F91FF90EF900895F62E0B8D10E064
:1005F0000F5F1F4F0F731127E02E8C8D8E110BC0D4
:100600000FB607FCFACFE889F989808185FFF5CF1D
:10061000CE01A2DFF2CFEB8DEC0FFD2FF11DE35ADF
:10062000FF4FF0829FB7F8940B8FEA89FB89808196
:100630008062D0CFCF93DF93EC01888D8823B1F017
:10064000AA89BB89E889F9898C9185FD03C08081DD
:1006500086FD0CC00FB607FCF7CF8C9185FFF2CF5B
:10066000808185FFEDCFCE0177DFEACFDF91CF919B
:10067000089580E090E0892B21F065DF81110E94D0
:10068000000080E090E0892B49F080E090E0892B29
:1006900029F00E94000081110E94000080E090E09B
:1006A000892B49F080E090E0892B29F00E9400001E
:1006B00081110E94000080E090E0892B49F080E0E9
:1006C00090E0892B29F00E94000081110C94000019
:1006D00008953FB7F89480917A0290917B02A0919F
:1006E0007C02B0917D0226B5A89B05C02F3F19F072
:1006F0000196A11DB11D3FBFBA2FA92F982F8827A2
:10070000BC01CD01620F711D811D911D42E0660F7C
:10071000771F881F991F4A95D1F7089585ED80931B
:10072000BC008091BC0084FDFCCF1092CE020895E5
:1007300020915602260F3327331F21323105ECF466
:100740002091CE02FC0190E080E0243069F082E04C
:100750000895A09156022191AC014A5C5D4FA40F0F
:10076000B52FB11D2C930196861798F380915602F0
:10077000680F6093560280E0089581E00895E0914B
:10078000870280918602E81730F4F0E0E857FD4FC9
:10079000808190E008958FEF9FEF089590918702F8
:1007A000809186022FEF3FEF981748F4E92FF0E091
:1007B000E857FD4F208130E09F5F90938702C90189
:1007C00008958091860290918702891B990B089564
:1007D000CF92DF92EF92FF920F931F93CF93DF930D
:1007E0007C01CB018A012091CF02222389F0EB0109
:1007F0006B01C40ED51ECC15DD0561F06991D701E2
:10080000ED91FC910190F081E02DC7011995F3CF96
:10081000642F8EDFC801DF91CF911F910F91FF9060
:10082000EF90DF90CF900895CF93DF931F92CDB7D5
:10083000DEB769832091CF022223F9F02091F202E2
:10084000203258F021E030E0FC013383228390E035
:1008500080E00F90DF91CF9108958091D002E82F32
:10086000F0E0EF52FD4F998190838F5F8093D0022B
:100870008093F20281E090E0ECCF61E0CE0101963E
:1008800057DFF8CF682F86ED93E0CECF90E080E081
:1008900008958091CE028111FCCF81E08093CE0239
:1008A0008093CD029FEF9093CC021092CB021092D6
:1008B000CA028093A9028091A902806D8093A90247
:1008C0008091A802813021F51092A8028091A9029E
:1008D0008093BB008091BC0083FDF8CF85EC8093B2
:1008E000BC008091CE028130E1F38091CB0291E097
:1008F000811102C09091CB02AAEAB2E0E8E8F2E0EE
:1009000080E0891307C010928702809386020895C1
:1009100085EEE5CF2D9121938F5FF3CF1F920F923C
:100920000FB60F9211240BB60F922F933F934F9354
:100930005F936F937F938F939F93AF93BF93EF9347
:10094000FF9383EF92E008DEFF91EF91BF91AF91AB
:100950009F918F917F916F915F914F913F912F91D7
:100960000F900BBE0F900FBE0F901F9018951F9207
:100970000F920FB60F9211240BB60F922F938F93F5
:100980009F93EF93FF93E0910303F0910403808121
:10099000E0910903F0910A0382FD1DC090818091CE
:1009A0000C038F5F8F7320910D03821741F0E0914C
:1009B0000C03F0E0ED50FD4F958F80930C03FF91F9
:1009C000EF919F918F912F910F900BBE0F900FBEC3
:1009D0000F901F9018958081F2CF1F920F920FB643
:1009E0000F9211242F933F938F939F93AF93BF93B5
:1009F0008091820290918302A0918402B09185023D
:100A00003091790223E0230F2D3758F50196A11D6F
:100A1000B11D209379028093820290938302A09368
:100A20008402B093850280917A0290917B02A0911A
:100A30007C02B0917D020196A11DB11D80937A02C6
:100A400090937B02A0937C02B0937D02BF91AF9103
:100A50009F918F913F912F910F900FBE0F901F90FC
:100A6000189526E8230F0296A11DB11DD2CF1F9223
:100A70000F920FB60F9211240BB60F922F933F9344
:100A80004F935F936F937F938F939F93AF93BF9396
:100A9000EF93FF938091B900887F803609F44CC0B2
:100AA00008F03FC0883209F4A8C028F5803109F465
:100AB0009CC0C8F4882309F4FAC0883009F495C0B2
:100AC000FF91EF91BF91AF919F918F917F916F9126
:100AD0005F914F913F912F910F900BBE0F900FBEE2
:100AE0000F901F901895883109F487C0803241F724
:100AF0008093CC0214C0803409F49CC040F480334D
:100B0000B9F38833E9F68093CC0285ECAFC0803529
:100B100009F484C0883509F495C0883489F6FEDD6F
:100B2000CFCF883909F48CC038F5883729F050F4D4
:100B3000883611F0803721F683E08093CE02109240
:100B4000780257C0883809F47BC0803919F08038A2
:100B500009F0B6CF80917802803208F071C0E09140
:100B6000780281E08E0F809378028091BB00F0E0E4
:100B7000E85AFD4F80833DC0803B39F0E0F4803A75
:100B800009F479C0883A09F09BCF84E08093CE02C3
:100B90001092570210925602E0918002F091810269
:100BA00019958091560281110FC081E08093560201
:100BB0001092360209C0803C09F4A7CF883C09F4A2
:100BC000A4CF883B09F07CCFE091570281E08E0FE3
:100BD00080935702F0E0EA5CFD4F80818093BB0078
:100BE000909157028091560229C08091A90280936A
:100BF000BB0085EC8093BC0063CF9091CB028091C9
:100C0000CA02981758F5E091CB0281E08E0F8093CD
:100C1000CB02F0E0E655FD4F8081E9CFE091CB02B9
:100C200081E08E0F8093CB028091BB00F0E0E6550F
:100C3000FD4F80839091CB028091CA029817C8F231
:100C400085E8D8CFE091CB0281E08E0F8093CB0274
:100C50008091BB00F0E0E655FD4F80838091CD028E
:100C600081115DCF81E08093A80284EA8093BC006B
:100C70001092CE0225CF85EC8093BC001092CE025C
:100C800080917802803230F4E0917802F0E0E85A06
:100C9000FD4F10826091780270E0E0917E02F09149
:100CA0007F0288E592E019951092780209CF1092A0
:100CB000CC0235CFE3EFF2E01382128288EE93E0AC
:100CC000A0E0B0E084839583A683B78324E032E07C
:100CD0003183208325EC30E03587248724EC30E015
:100CE0003787268720EC30E0318B208B21EC30E0F9
:100CF000338B228B22EC30E0358B248B26EC30E0DA
:100D0000378B268B118E128E138E148EE0E9F3E052
:100D1000168217821086118612861386148615860F
:100D200016861786108A118A128A138A148A158ADF
:100D3000E6EDF3E01382128284839583A683B78362
:100D400086E192E0918380830895789484B58260EF
:100D500084BD84B5816084BD85B5826085BD85B55F
:100D6000816085BD80916E00816080936E001092DD
:100D70008100809181008260809381008091810058
:100D800081608093810080918000816080938000E9
:100D90008091B10084608093B1008091B000816047
:100DA0008093B00080919100826080939100809147
:100DB0009100816080939100809190008160809388
:100DC00090008091A10082608093A1008091A10099
:100DD00081608093A1008091A00081608093A00039
:100DE00080912101826080932101809121018160A5
:100DF0008093210180912001816080932001809166
:100E00007A00846080937A0080917A008260809377
:100E10007A0080917A00816080937A0080917A00D4
:100E2000806880937A001092C1001092D2031092D1
:100E3000D3031092D4031092D50310929203109210
:100E40009303109294031092950368EB7BE080E08B
:100E500090E0DBDA3EDC4B015C0180EDC82E87E0E0
:100E6000D82EE12CF12C35DC681979098A099B0907
:100E7000683E734081059105B0F321E0C21AD108A4
:100E8000E108F10888EE880E83E0981EA11CB11CD1
:100E9000C114D104E104F10431F7E0910303F091AE
:100EA000040382E08083E091FF02F091000310824E
:100EB000E0910103F091020380E1808310920B0323
:100EC000E0910703F091080386E08083E091050339
:100ED000F0910603808180618083E0910503F091A9
:100EE0000603808188608083E0910503F09106030A
:100EF000808180688083E0910503F0910603808102
:100F00008F7D80832FB7F894809182029091830225
:100F1000A0918402B09185022FBF80939203909399
:100F20009303A0939403B093950341E150E064E2EE
:100F300072E083EF92E09ADA6AE070E080E090E09D
:100F400064DA81E08093A6031092870210928602F1
:100F50001092D0021092F2021092CE028093CD0233
:100F60001092A80284E1CBD985E1C9D98091B9005A
:100F70008E7F8093B9008091B9008D7F8093B900F6
:100F800088E48093B80085E48093BC0083E692E017
:100F9000909381028093800284E692E090937F0296
:100FA00080937E0288E6A1D983E090E06BDC65E067
:100FB00086ED93E039DC3CD988E697D986E090E06D
:100FC00061DC60E286ED93E02FDC32D988E68DD9D2
:100FD00085E090E057DC62E086ED93E025DC28D9DF
:100FE00088E683D984E090E04DDC63E186ED93E010
:100FF0001BDC1ED988E679D982E090E043DC18D961
:1010000048DC86ED93E0CADBC0E286FDC8E688E6F0
:101010006CD982E090E036DC6C2F86ED93E004DC46
:1010200007D988E662D981E090E02CDC62E086EDA9
:1010300093E0FADBFDD888E658D990E080E022DC26
:1010400060E086ED93E0F0DBF3D888E64ED98FE0E0
:1010500090E018DCEDD81DDC86ED93E09FDBC82F17
:1010600088E643D98FE090E00DDC6C2F6F7786ED3A
:1010700093E0DADBDDD8FDDAFECFEE0FFF1F881F2D
:0E1080008BBF0790F691E02D1994F894FFCFE6
:10108E0000000000CE02360266021A0397027502B5
:10109E008902000000001404E80346046502E1031F
:1010AE00CE03BF03564D4450565F317C315F564DD3
:0610BE004450560D0A002B
:00000001FF
